{
  "contractName": "PrimaryIssueManager",
  "abi": [
    {
      "anonymous": false,
      "inputs": [
        {
          "indexed": true,
          "internalType": "address",
          "name": "previousOwner",
          "type": "address"
        },
        {
          "indexed": true,
          "internalType": "address",
          "name": "newOwner",
          "type": "address"
        }
      ],
      "name": "OwnershipTransferred",
      "type": "event"
    },
    {
      "anonymous": false,
      "inputs": [
        {
          "indexed": true,
          "internalType": "bytes32",
          "name": "poolId",
          "type": "bytes32"
        },
        {
          "indexed": false,
          "internalType": "address",
          "name": "investor",
          "type": "address"
        },
        {
          "indexed": false,
          "internalType": "address",
          "name": "security",
          "type": "address"
        },
        {
          "indexed": false,
          "internalType": "uint256",
          "name": "securitySubscription",
          "type": "uint256"
        },
        {
          "indexed": false,
          "internalType": "address",
          "name": "currency",
          "type": "address"
        },
        {
          "indexed": false,
          "internalType": "uint256",
          "name": "allotedAmount",
          "type": "uint256"
        },
        {
          "indexed": false,
          "internalType": "uint256",
          "name": "timestamp",
          "type": "uint256"
        }
      ],
      "name": "allotments",
      "type": "event"
    },
    {
      "anonymous": false,
      "inputs": [
        {
          "indexed": true,
          "internalType": "bytes32",
          "name": "poolId",
          "type": "bytes32"
        },
        {
          "indexed": false,
          "internalType": "address",
          "name": "security",
          "type": "address"
        },
        {
          "indexed": false,
          "internalType": "uint256",
          "name": "timestamp",
          "type": "uint256"
        }
      ],
      "name": "closures",
      "type": "event"
    },
    {
      "anonymous": false,
      "inputs": [
        {
          "indexed": true,
          "internalType": "address",
          "name": "platform",
          "type": "address"
        },
        {
          "indexed": false,
          "internalType": "uint256",
          "name": "collection",
          "type": "uint256"
        },
        {
          "indexed": false,
          "internalType": "uint256",
          "name": "timestamp",
          "type": "uint256"
        }
      ],
      "name": "feecollection",
      "type": "event"
    },
    {
      "anonymous": false,
      "inputs": [
        {
          "indexed": true,
          "internalType": "address",
          "name": "security",
          "type": "address"
        },
        {
          "indexed": false,
          "internalType": "address",
          "name": "platform",
          "type": "address"
        },
        {
          "indexed": false,
          "internalType": "address",
          "name": "provider",
          "type": "address"
        },
        {
          "indexed": false,
          "internalType": "address",
          "name": "currency",
          "type": "address"
        },
        {
          "indexed": false,
          "internalType": "uint256",
          "name": "tokenOffered",
          "type": "uint256"
        },
        {
          "indexed": false,
          "internalType": "uint256",
          "name": "underwritten",
          "type": "uint256"
        },
        {
          "indexed": false,
          "internalType": "uint256",
          "name": "earnings",
          "type": "uint256"
        }
      ],
      "name": "marketmakers",
      "type": "event"
    },
    {
      "anonymous": false,
      "inputs": [
        {
          "indexed": false,
          "internalType": "address",
          "name": "party",
          "type": "address"
        },
        {
          "indexed": true,
          "internalType": "address",
          "name": "offered",
          "type": "address"
        },
        {
          "indexed": false,
          "internalType": "uint256",
          "name": "amountOffered",
          "type": "uint256"
        },
        {
          "indexed": false,
          "internalType": "address",
          "name": "tomatch",
          "type": "address"
        },
        {
          "indexed": false,
          "internalType": "uint256",
          "name": "amountDesired",
          "type": "uint256"
        },
        {
          "indexed": false,
          "internalType": "uint256",
          "name": "minAmount",
          "type": "uint256"
        },
        {
          "indexed": false,
          "internalType": "bytes32",
          "name": "isin",
          "type": "bytes32"
        },
        {
          "indexed": false,
          "internalType": "uint256",
          "name": "minimumOrderSize",
          "type": "uint256"
        },
        {
          "indexed": false,
          "internalType": "string",
          "name": "offeringDocs",
          "type": "string"
        }
      ],
      "name": "offers",
      "type": "event"
    },
    {
      "anonymous": false,
      "inputs": [
        {
          "indexed": true,
          "internalType": "bytes32",
          "name": "poolId",
          "type": "bytes32"
        },
        {
          "indexed": false,
          "internalType": "address",
          "name": "investor",
          "type": "address"
        },
        {
          "indexed": false,
          "internalType": "address",
          "name": "security",
          "type": "address"
        },
        {
          "indexed": false,
          "internalType": "uint256",
          "name": "securitySubscription",
          "type": "uint256"
        },
        {
          "indexed": false,
          "internalType": "address",
          "name": "currency",
          "type": "address"
        },
        {
          "indexed": false,
          "internalType": "uint256",
          "name": "refundAmount",
          "type": "uint256"
        },
        {
          "indexed": false,
          "internalType": "uint256",
          "name": "timestamp",
          "type": "uint256"
        }
      ],
      "name": "refunds",
      "type": "event"
    },
    {
      "anonymous": false,
      "inputs": [
        {
          "indexed": true,
          "internalType": "bytes32",
          "name": "poolId",
          "type": "bytes32"
        },
        {
          "indexed": false,
          "internalType": "address",
          "name": "security",
          "type": "address"
        },
        {
          "indexed": false,
          "internalType": "address",
          "name": "currency",
          "type": "address"
        },
        {
          "indexed": false,
          "internalType": "address",
          "name": "liquidityProvider",
          "type": "address"
        },
        {
          "indexed": false,
          "internalType": "uint256",
          "name": "underwritingFee",
          "type": "uint256"
        },
        {
          "indexed": false,
          "internalType": "address",
          "name": "issuer",
          "type": "address"
        },
        {
          "indexed": false,
          "internalType": "uint256",
          "name": "subscription",
          "type": "uint256"
        }
      ],
      "name": "settlements",
      "type": "event"
    },
    {
      "anonymous": false,
      "inputs": [
        {
          "indexed": true,
          "internalType": "address",
          "name": "security",
          "type": "address"
        },
        {
          "indexed": false,
          "internalType": "bytes32",
          "name": "poolId",
          "type": "bytes32"
        },
        {
          "indexed": false,
          "internalType": "address",
          "name": "investor",
          "type": "address"
        },
        {
          "indexed": false,
          "internalType": "address",
          "name": "currency",
          "type": "address"
        },
        {
          "indexed": false,
          "internalType": "uint256",
          "name": "cashSwapped",
          "type": "uint256"
        },
        {
          "indexed": false,
          "internalType": "uint256",
          "name": "securitySwapped",
          "type": "uint256"
        },
        {
          "indexed": false,
          "internalType": "uint256",
          "name": "timestamp",
          "type": "uint256"
        },
        {
          "indexed": false,
          "internalType": "bool",
          "name": "subscription",
          "type": "bool"
        }
      ],
      "name": "subscribers",
      "type": "event"
    },
    {
      "inputs": [],
      "name": "owner",
      "outputs": [
        {
          "internalType": "address",
          "name": "",
          "type": "address"
        }
      ],
      "stateMutability": "view",
      "type": "function"
    },
    {
      "inputs": [],
      "name": "renounceOwnership",
      "outputs": [],
      "stateMutability": "nonpayable",
      "type": "function"
    },
    {
      "inputs": [
        {
          "internalType": "address",
          "name": "newOwner",
          "type": "address"
        }
      ],
      "name": "transferOwnership",
      "outputs": [],
      "stateMutability": "nonpayable",
      "type": "function"
    },
    {
      "inputs": [
        {
          "internalType": "address",
          "name": "_factory",
          "type": "address"
        },
        {
          "internalType": "uint256",
          "name": "_swapFeePercentage",
          "type": "uint256"
        },
        {
          "internalType": "address",
          "name": "_vault",
          "type": "address"
        },
        {
          "internalType": "address",
          "name": "_products",
          "type": "address"
        },
        {
          "internalType": "address",
          "name": "_liquidity",
          "type": "address"
        },
        {
          "internalType": "address",
          "name": "_client",
          "type": "address"
        },
        {
          "internalType": "address",
          "name": "_distribution",
          "type": "address"
        }
      ],
      "name": "initialize",
      "outputs": [],
      "stateMutability": "nonpayable",
      "type": "function"
    },
    {
      "inputs": [
        {
          "internalType": "address",
          "name": "owned",
          "type": "address"
        },
        {
          "internalType": "bytes32",
          "name": "isin",
          "type": "bytes32"
        },
        {
          "internalType": "uint256",
          "name": "offered",
          "type": "uint256"
        },
        {
          "internalType": "address",
          "name": "tomatch",
          "type": "address"
        },
        {
          "internalType": "uint256",
          "name": "desired",
          "type": "uint256"
        },
        {
          "internalType": "uint256",
          "name": "min",
          "type": "uint256"
        },
        {
          "internalType": "address",
          "name": "owner",
          "type": "address"
        },
        {
          "internalType": "string",
          "name": "docs",
          "type": "string"
        }
      ],
      "name": "offer",
      "outputs": [],
      "stateMutability": "nonpayable",
      "type": "function"
    },
    {
      "inputs": [
        {
          "internalType": "address",
          "name": "owner",
          "type": "address"
        },
        {
          "internalType": "address",
          "name": "owned",
          "type": "address"
        },
        {
          "internalType": "address",
          "name": "tomatch",
          "type": "address"
        },
        {
          "internalType": "uint256",
          "name": "minOrderSize",
          "type": "uint256"
        }
      ],
      "name": "setOfferTerms",
      "outputs": [],
      "stateMutability": "nonpayable",
      "type": "function"
    },
    {
      "inputs": [
        {
          "internalType": "address",
          "name": "owner",
          "type": "address"
        },
        {
          "internalType": "address",
          "name": "owned",
          "type": "address"
        },
        {
          "internalType": "address",
          "name": "tomatch",
          "type": "address"
        },
        {
          "internalType": "uint256",
          "name": "swapfee",
          "type": "uint256"
        }
      ],
      "name": "setIssuingFee",
      "outputs": [],
      "stateMutability": "nonpayable",
      "type": "function"
    },
    {
      "inputs": [
        {
          "internalType": "address",
          "name": "offered",
          "type": "address"
        }
      ],
      "name": "getOffered",
      "outputs": [
        {
          "components": [
            {
              "internalType": "address",
              "name": "owner",
              "type": "address"
            },
            {
              "internalType": "address",
              "name": "offered",
              "type": "address"
            },
            {
              "internalType": "uint256",
              "name": "amountOffered",
              "type": "uint256"
            },
            {
              "internalType": "uint256",
              "name": "amountDesired",
              "type": "uint256"
            },
            {
              "internalType": "uint256",
              "name": "min",
              "type": "uint256"
            },
            {
              "internalType": "bytes32",
              "name": "isin",
              "type": "bytes32"
            },
            {
              "internalType": "uint256",
              "name": "minimumOrderSize",
              "type": "uint256"
            },
            {
              "internalType": "string",
              "name": "offeringdocs",
              "type": "string"
            }
          ],
          "internalType": "struct IMarketMaker.token[]",
          "name": "",
          "type": "tuple[]"
        }
      ],
      "stateMutability": "view",
      "type": "function"
    },
    {
      "inputs": [
        {
          "internalType": "address",
          "name": "_owned",
          "type": "address"
        },
        {
          "internalType": "address",
          "name": "_tomatch",
          "type": "address"
        }
      ],
      "name": "getOfferMade",
      "outputs": [
        {
          "components": [
            {
              "internalType": "address",
              "name": "owner",
              "type": "address"
            },
            {
              "internalType": "address",
              "name": "offered",
              "type": "address"
            },
            {
              "internalType": "uint256",
              "name": "amountOffered",
              "type": "uint256"
            },
            {
              "internalType": "uint256",
              "name": "amountDesired",
              "type": "uint256"
            },
            {
              "internalType": "uint256",
              "name": "min",
              "type": "uint256"
            },
            {
              "internalType": "bytes32",
              "name": "isin",
              "type": "bytes32"
            },
            {
              "internalType": "uint256",
              "name": "minimumOrderSize",
              "type": "uint256"
            },
            {
              "internalType": "string",
              "name": "offeringdocs",
              "type": "string"
            }
          ],
          "internalType": "struct IMarketMaker.token[]",
          "name": "",
          "type": "tuple[]"
        }
      ],
      "stateMutability": "view",
      "type": "function"
    },
    {
      "inputs": [
        {
          "internalType": "address",
          "name": "_security",
          "type": "address"
        }
      ],
      "name": "getLiquidityProviders",
      "outputs": [
        {
          "components": [
            {
              "internalType": "address",
              "name": "owner",
              "type": "address"
            },
            {
              "internalType": "address",
              "name": "tokenOffered",
              "type": "address"
            },
            {
              "internalType": "uint256",
              "name": "underwritten",
              "type": "uint256"
            },
            {
              "internalType": "uint256",
              "name": "subscribed",
              "type": "uint256"
            },
            {
              "internalType": "uint256",
              "name": "earned",
              "type": "uint256"
            }
          ],
          "internalType": "struct IMarketMaker.lp[]",
          "name": "",
          "type": "tuple[]"
        }
      ],
      "stateMutability": "view",
      "type": "function"
    },
    {
      "inputs": [
        {
          "internalType": "uint256",
          "name": "_amount",
          "type": "uint256"
        },
        {
          "internalType": "address",
          "name": "_token",
          "type": "address"
        },
        {
          "internalType": "address",
          "name": "_manager",
          "type": "address"
        }
      ],
      "name": "stake",
      "outputs": [],
      "stateMutability": "nonpayable",
      "type": "function"
    },
    {
      "inputs": [
        {
          "internalType": "address",
          "name": "_token",
          "type": "address"
        }
      ],
      "name": "getAllotedStake",
      "outputs": [
        {
          "internalType": "uint256",
          "name": "",
          "type": "uint256"
        }
      ],
      "stateMutability": "view",
      "type": "function"
    },
    {
      "inputs": [
        {
          "internalType": "address",
          "name": "security",
          "type": "address"
        },
        {
          "internalType": "uint256",
          "name": "cutoffTime",
          "type": "uint256"
        },
        {
          "internalType": "address",
          "name": "issuer",
          "type": "address"
        }
      ],
      "name": "issue",
      "outputs": [],
      "stateMutability": "nonpayable",
      "type": "function"
    },
    {
      "inputs": [
        {
          "internalType": "bytes32",
          "name": "poolId",
          "type": "bytes32"
        },
        {
          "internalType": "address",
          "name": "security",
          "type": "address"
        },
        {
          "internalType": "address",
          "name": "asset",
          "type": "address"
        },
        {
          "internalType": "uint256",
          "name": "cAmount",
          "type": "uint256"
        },
        {
          "internalType": "address",
          "name": "investor",
          "type": "address"
        },
        {
          "internalType": "uint256",
          "name": "sAmount",
          "type": "uint256"
        },
        {
          "internalType": "bool",
          "name": "paidIn",
          "type": "bool"
        }
      ],
      "name": "subscribe",
      "outputs": [],
      "stateMutability": "nonpayable",
      "type": "function"
    },
    {
      "inputs": [
        {
          "internalType": "bytes32",
          "name": "poolId",
          "type": "bytes32"
        }
      ],
      "name": "getSubscribers",
      "outputs": [
        {
          "components": [
            {
              "internalType": "address",
              "name": "investor",
              "type": "address"
            },
            {
              "internalType": "address",
              "name": "asset",
              "type": "address"
            },
            {
              "internalType": "string",
              "name": "name",
              "type": "string"
            },
            {
              "internalType": "uint256",
              "name": "amount",
              "type": "uint256"
            },
            {
              "internalType": "uint256",
              "name": "traded",
              "type": "uint256"
            }
          ],
          "internalType": "struct IMarketMaker.subscriptions[]",
          "name": "",
          "type": "tuple[]"
        }
      ],
      "stateMutability": "view",
      "type": "function"
    },
    {
      "inputs": [
        {
          "internalType": "address",
          "name": "security",
          "type": "address"
        }
      ],
      "name": "close",
      "outputs": [],
      "stateMutability": "nonpayable",
      "type": "function"
    },
    {
      "inputs": [
        {
          "internalType": "bytes32",
          "name": "poolid",
          "type": "bytes32"
        },
        {
          "internalType": "address",
          "name": "investor",
          "type": "address"
        },
        {
          "internalType": "uint256",
          "name": "amnt",
          "type": "uint256"
        },
        {
          "internalType": "address",
          "name": "asset",
          "type": "address"
        }
      ],
      "name": "accept",
      "outputs": [],
      "stateMutability": "nonpayable",
      "type": "function"
    },
    {
      "inputs": [
        {
          "internalType": "bytes32",
          "name": "poolid",
          "type": "bytes32"
        },
        {
          "internalType": "address",
          "name": "investor",
          "type": "address"
        }
      ],
      "name": "reject",
      "outputs": [],
      "stateMutability": "nonpayable",
      "type": "function"
    },
    {
      "inputs": [
        {
          "internalType": "bytes32",
          "name": "poolId",
          "type": "bytes32"
        }
      ],
      "name": "settle",
      "outputs": [],
      "stateMutability": "nonpayable",
      "type": "function"
    },
    {
      "inputs": [
        {
          "internalType": "address",
          "name": "_token",
          "type": "address"
        }
      ],
      "name": "getIssuingFeeCollected",
      "outputs": [
        {
          "internalType": "uint256",
          "name": "",
          "type": "uint256"
        }
      ],
      "stateMutability": "nonpayable",
      "type": "function"
    },
    {
      "inputs": [],
      "name": "getOwner",
      "outputs": [
        {
          "internalType": "address",
          "name": "",
          "type": "address"
        }
      ],
      "stateMutability": "view",
      "type": "function"
    }
  ],
  "bytecode": "0x6080604052600060035534801561001557600080fd5b50600080546001600160a01b0319163390811782556040519091907f8be0079c531659141344cd1fd0a4f28419497f9722a3daafe3b4186f6b6457e0908290a361584680620000656000396000f3fe608060405234801561001057600080fd5b50600436106101375760003560e01c80638ac316f1116100b8578063b329620b1161007c578063b329620b14610277578063bfa0caa71461028a578063c74073a1146102aa578063f2fde38b146102bd578063f3ea66ff146102d0578063f7efef10146102e357610137565b80638ac316f1146102165780638da5cb5b146102295780639701bbc314610231578063987757dd14610251578063a7d545db1461026457610137565b80636d78f47a116100ff5780636d78f47a146101b3578063715018a6146101c657806388c4b6ee146101ce578063893d20e8146101ee5780638a0c62f11461020357610137565b80633f0990281461013c57806341c8b2681461015157806359d3b2cd146101645780635bccd1771461018d5780636c78c894146101a0575b600080fd5b61014f61014a366004614d26565b6102f6565b005b61014f61015f366004614b82565b61078f565b6101776101723660046149ac565b610821565b6040516101849190615364565b60405180910390f35b61017761019b3660046149ac565b610849565b61014f6101ae366004614a1c565b61097c565b61014f6101c1366004614b41565b610ab0565b61014f610b6f565b6101e16101dc3660046149ac565b610bc5565b6040516101849190615190565b6101f6610c74565b6040516101849190615038565b61014f610211366004614db4565b610c83565b61014f610224366004614d4a565b610d5f565b6101f6611193565b61024461023f3660046149ac565b6111a2565b60405161018491906152b2565b61014f61025f366004614cf6565b6113b1565b61014f610272366004614e9d565b611514565b61014f610285366004614a1c565b61159f565b61029d610298366004614cf6565b6116e2565b6040516101849190615210565b61014f6102b83660046149ac565b6118dd565b61014f6102cb3660046149ac565b611d7a565b61014f6102de366004614a6c565b611df8565b6102446102f13660046149e4565b61234b565b6000828152601760205260408082205460048054925163e0a87de160e01b815233946001600160a01b03938416949093169163e0a87de19161033a91869101615038565b60206040518083038186803b15801561035257600080fd5b505afa158015610366573d6000803e3d6000fd5b505050506040513d601f19601f8201168201806040525081019061038a91906149c8565b9050826001600160a01b0316816001600160a01b0316146103c65760405162461bcd60e51b81526004016103bd90615588565b60405180910390fd5b60008581526014602090815260408083206001600160a01b0388168452909152902054806104065760405162461bcd60e51b81526004016103bd90615618565b60008681526013602052604090208054600019909201916001600160a01b03871691908390811061043357fe5b60009182526020909120600590910201546001600160a01b03161461046a5760405162461bcd60e51b81526004016103bd90615422565b6000868152601760209081526040808320546013909252822080546001600160a01b0390921692918490811061049c57fe5b60009182526020808320600160059093020191909101548a83526015825260408084206001600160a01b03909216808552918352808420548c85526013909352909220805492935061050992869081106104f257fe5b906000526020600020906005020160030154612567565b60008981526015602090815260408083206001600160a01b03861684528252808320939093558a82526013905220805489917fbd39de70db9f51c606065fcb0157b3d97984d1ec579fa55b555e78eb8460af7e918a9186918890811061056b57fe5b90600052602060002090600502016004015485601360008f8152602001908152602001600020898154811061059c57fe5b906000526020600020906005020160030154426040516105c19695949392919061513d565b60405180910390a260008881526014602090815260408083206001600160a01b03808c168552908352818420849055858116808552600b8452828520918616855292528220805491926323b872dd928b92919061061a57fe5b600091825260208083206008909202909101548d83526013909152604090912080546001600160a01b03909216918890811061065257fe5b9060005260206000209060050201600401546040518463ffffffff1660e01b81526004016106829392919061504c565b602060405180830381600087803b15801561069c57600080fd5b505af11580156106b0573d6000803e3d6000fd5b505050506040513d601f19601f820116820180604052508101906106d49190614cda565b50806001600160a01b031663a9059cbb88601360008c8152602001908152602001600020868154811061070357fe5b9060005260206000209060050201600301546040518363ffffffff1660e01b8152600401610732929190615177565b602060405180830381600087803b15801561074c57600080fd5b505af1158015610760573d6000803e3d6000fd5b505050506040513d601f19601f820116820180604052508101906107849190614cda565b505050505050505050565b6107ad3361079b611193565b6001600160a01b0316146101aa612582565b600180546001600160a01b03199081166001600160a01b03998a16179091556002805482169689169690961790955560048054861694881694909417909355600580548516918716919091179055600393909355600680548316938516939093179092556007805490911691909216179055565b3360009081526018602090815260408083206001600160a01b03949094168352929052205490565b6007546000906001600160a01b031633146108765760405162461bcd60e51b81526004016103bd9061551a565b6001600160a01b0382166000908152601960205260409020546108998180612567565b6001600160a01b038085166000818152601960205260409081902093909355600754925163a9059cbb60e01b8152909263a9059cbb926108e0929116908590600401615177565b602060405180830381600087803b1580156108fa57600080fd5b505af115801561090e573d6000803e3d6000fd5b505050506040513d601f19601f820116820180604052508101906109329190614cda565b50306001600160a01b03167feaad90c8664cdf61d60bd7ba6745a881fd1c38d9f4ff0b373b4365cdeeb0f9e8824260405161096e929190615748565b60405180910390a292915050565b6004805460405163e0a87de160e01b8152339286926000926001600160a01b039091169163e0a87de1916109b291869101615038565b60206040518083038186803b1580156109ca57600080fd5b505afa1580156109de573d6000803e3d6000fd5b505050506040513d601f19601f82011682018060405250810190610a0291906149c8565b9050826001600160a01b0316816001600160a01b031614610a355760405162461bcd60e51b81526004016103bd90615588565b6001600160a01b038087166000908152600b60209081526040808320938916835292905290812080548290610a6657fe5b6000918252602090912060089091020180549091506001600160a01b0389811691161415610aa657610aa085610a9b89612594565b61262f565b60068201555b5050505050505050565b600554604051634427673360e01b815233916000916001600160a01b0390911690634427673390610ae5908590600401615038565b60606040518083038186803b158015610afd57600080fd5b505afa158015610b11573d6000803e3d6000fd5b505050506040513d601f19601f82011682018060405250810190610b359190614dfd565b505090508061044560f41b14610b5d5760405162461bcd60e51b81526004016103bd90615551565b610b68858585612642565b5050505050565b610b7b3361079b611193565b600080546040516001600160a01b03909116907f8be0079c531659141344cd1fd0a4f28419497f9722a3daafe3b4186f6b6457e0908390a3600080546001600160a01b0319169055565b6001600160a01b0381166000908152600f60209081526040808320805482518185028101850190935280835260609492939192909184015b82821015610c695760008481526020908190206040805160a0810182526005860290920180546001600160a01b03908116845260018083015490911684860152600282015492840192909252600381015460608401526004015460808301529083529092019101610bfd565b505050509050919050565b6000610c7e611193565b905090565b6000848152601760205260408082205460048054925163e0a87de160e01b815233946001600160a01b03938416949093169163e0a87de191610cc791869101615038565b60206040518083038186803b158015610cdf57600080fd5b505afa158015610cf3573d6000803e3d6000fd5b505050506040513d601f19601f82011682018060405250810190610d1791906149c8565b9050826001600160a01b0316816001600160a01b031614610d4a5760405162461bcd60e51b81526004016103bd90615588565b610d5687878787612ce1565b50505050505050565b600087815260166020526040902054879033906001600160a01b03168114610d995760405162461bcd60e51b81526004016103bd90615645565b60008981526014602090815260408083206001600160a01b038916845290915281205490610dcf88610dca8b612594565b613216565b60008c815260176020526040908190205490519192506001600160a01b0316907f03e4d401f7446bde326c5951f40797b975fbe06e73f36b2a41646ea680cc40f290610e28908e908b908e9087908d9042908e906153a9565b60405180910390a2841561108a5760008b81526015602090815260408083206001600160a01b038d168452909152902054610e639082613222565b60008c81526015602090815260408083206001600160a01b038e1684529091529020558161100957610e936145fc565b6040518060a00160405280896001600160a01b031681526020018b6001600160a01b031681526020018b6001600160a01b03166306fdde036040518163ffffffff1660e01b815260040160006040518083038186803b158015610ef557600080fd5b505afa158015610f09573d6000803e3d6000fd5b505050506040513d6000823e601f3d908101601f19168201604052610f319190810190614e2a565b8152602001838152602001610f4989610dca8f612594565b905260008d815260136020908152604080832080546001818101835591855293839020855160059095020180546001600160a01b039586166001600160a01b03199182161782558487015192820180549390961692169190911790935583015180519394508493610fc0926002850192019061463d565b50606082015160038201556080909101516004909101555060008b815260136020908152604080832054601483528184206001600160a01b038c16855290925290912055611085565b60008b81526013602052604081208054600019850190811061102757fe5b6000918252602090912060059091020180549091506001600160a01b03898116911614156110835761105d816003015483613222565b6003820155600481015461107d9061107889610dca8f612594565b613222565b60048201555b505b611186565b81156111865760008b8152601360205260408120805460001985019081106110ae57fe5b6000918252602090912060059091020180549091506001600160a01b038981169116141561110a576110e4816003015483612567565b60038201556004810154611104906110ff89610dca8f612594565b612567565b60048201555b60008c81526015602090815260408083206001600160a01b038e16845290915290205482116111845760008c81526015602090815260408083206001600160a01b038e1684529091529020546111609083612567565b60008d81526015602090815260408083206001600160a01b038f1684529091529020555b505b5050505050505050505050565b6000546001600160a01b031690565b600554604051634427673360e01b815260609133916000916001600160a01b0316906344276733906111d8908590600401615038565b60606040518083038186803b1580156111f057600080fd5b505afa158015611204573d6000803e3d6000fd5b505050506040513d601f19601f820116820180604052508101906112289190614dfd565b505090508061414d60f01b148061124357508061044560f41b145b61125f5760405162461bcd60e51b81526004016103bd90615490565b6001600160a01b0384166000908152600a6020908152604080832080548251818502810185019093528083529193909284015b828210156113a45760008481526020908190206040805161010080820183526008870290930180546001600160a01b03908116835260018083015490911683870152600280830154848601526003830154606085015260048301546080850152600583015460a0850152600683015460c08501526007830180548651938116159097026000190190961604601f81018790048702820187019094528381529194909360e0860193909183018282801561138c5780601f106113615761010080835404028352916020019161138c565b820191906000526020600020905b81548152906001019060200180831161136f57829003601f168201915b50505050508152505081526020019060010190611292565b5050505092505050919050565b6000818152601760205260408082205460048054925163e0a87de160e01b815233946001600160a01b03938416949093169163e0a87de1916113f591869101615038565b60206040518083038186803b15801561140d57600080fd5b505afa158015611421573d6000803e3d6000fd5b505050506040513d601f19601f8201168201806040525081019061144591906149c8565b9050826001600160a01b0316816001600160a01b0316146114785760405162461bcd60e51b81526004016103bd90615588565b600760009054906101000a90046001600160a01b03166001600160a01b0316637d8e98316040518163ffffffff1660e01b815260040160806040518083038186803b1580156114c657600080fd5b505afa1580156114da573d6000803e3d6000fd5b505050506040513d601f19601f820116820180604052508101906114fe9190614ed3565b50601b555061150e905084613234565b50505050565b60065433906001600160a01b031681146115405760405162461bcd60e51b81526004016103bd906154bc565b6001600160a01b038083166000908152601860209081526040808320938716835292905220546115709085613222565b6001600160a01b0392831660009081526018602090815260408083209690951682529490945291909220555050565b6004805460405163e0a87de160e01b8152339286926000926001600160a01b039091169163e0a87de1916115d591869101615038565b60206040518083038186803b1580156115ed57600080fd5b505afa158015611601573d6000803e3d6000fd5b505050506040513d601f19601f8201168201806040525081019061162591906149c8565b9050826001600160a01b0316816001600160a01b0316146116585760405162461bcd60e51b81526004016103bd90615588565b6001600160a01b038087166000908152600b6020908152604080832093891683529290529081208054829061168957fe5b6000918252602090912060089091020180549091506001600160a01b0389811691161415610aa657505050506001600160a01b039283166000908152601a60209081526040808320949095168252929092529190205550565b6000818152601760205260408082205460048054925163e0a87de160e01b815260609433946001600160a01b0394851694919391169163e0a87de19161172a91869101615038565b60206040518083038186803b15801561174257600080fd5b505afa158015611756573d6000803e3d6000fd5b505050506040513d601f19601f8201168201806040525081019061177a91906149c8565b9050826001600160a01b0316816001600160a01b0316146117ad5760405162461bcd60e51b81526004016103bd90615588565b600085815260136020908152604080832080548251818502810185019093528083529193909284015b828210156118cf5760008481526020908190206040805160a0810182526005860290920180546001600160a01b039081168452600180830154909116848601526002808301805485516101009482161594909402600019011691909104601f81018790048702830187018552808352949592949386019391929091908301828280156118a35780601f10611878576101008083540402835291602001916118a3565b820191906000526020600020905b81548152906001019060200180831161188657829003601f168201915b5050505050815260200160038201548152602001600482015481525050815260200190600101906117d6565b505050509350505050919050565b6004805460405163e0a87de160e01b8152339284926000926001600160a01b039091169163e0a87de19161191391869101615038565b60206040518083038186803b15801561192b57600080fd5b505afa15801561193f573d6000803e3d6000fd5b505050506040513d601f19601f8201168201806040525081019061196391906149c8565b9050826001600160a01b0316816001600160a01b0316146119965760405162461bcd60e51b81526004016103bd90615588565b6001600160a01b0384166000908152601260205260408120600101548190815b81811015610aa6576001600160a01b03881660009081526012602052604090206001018054829081106119e557fe5b600091825260208083209091015480835260168252604092839020548351636945c1fd60e01b815293519196506001600160a01b031692636945c1fd926004808301939192829003018186803b158015611a3e57600080fd5b505afa158015611a52573d6000803e3d6000fd5b505050506040513d601f19601f82011682018060405250810190611a7691906149c8565b600254604051631f29a8cd60e31b81529195506060916001600160a01b039091169063f94d466890611aac908790600401615364565b60006040518083038186803b158015611ac457600080fd5b505afa158015611ad8573d6000803e3d6000fd5b505050506040513d6000823e601f3d908101601f19168201604052611b009190810190614c0e565b505090506060611b0f826138fb565b90506060825167ffffffffffffffff81118015611b2b57600080fd5b50604051908082528060200260200182016040528015611b55578160200160208202803683370190505b509050611b606146bb565b60405180608001604052808481526020018381526020016001620f42406dffffffffffffffffffffffffffff03604051602001611b9e9291906153e7565b60408051808303601f1901815291815290825260006020909201919091526002549051638bdb391360e01b81529192506001600160a01b031690638bdb391390611bf2908a9030908190879060040161536d565b600060405180830381600087803b158015611c0c57600080fd5b505af1158015611c20573d6000803e3d6000fd5b50505050867f56eadf552f1d54f8f73fbbf801097c1c4d7bb3d77d5ac2bebfd0a8151642d55a8d42604051611c56929190615177565b60405180910390a26001600160a01b03808d16600081815260126020526040908190206002015490516370a0823160e01b8152919263a9059cbb9291169083906370a0823190611caa903090600401615038565b60206040518083038186803b158015611cc257600080fd5b505afa158015611cd6573d6000803e3d6000fd5b505050506040513d601f19601f82011682018060405250810190611cfa9190614d0e565b6040518363ffffffff1660e01b8152600401611d17929190615177565b602060405180830381600087803b158015611d3157600080fd5b505af1158015611d45573d6000803e3d6000fd5b505050506040513d601f19601f82011682018060405250810190611d699190614cda565b5050600190930192506119b6915050565b611d863361079b611193565b611d9d6001600160a01b03821615156101ab612582565b600080546040516001600160a01b03808516939216917f8be0079c531659141344cd1fd0a4f28419497f9722a3daafe3b4186f6b6457e091a3600080546001600160a01b0319166001600160a01b0392909216919091179055565b600754600160a01b900460ff1615611e225760405162461bcd60e51b81526004016103bd906154f3565b6007805460ff60a01b1916600160a01b179055600554604051634427673360e01b81526000916001600160a01b031690634427673390611e66903390600401615038565b60606040518083038186803b158015611e7e57600080fd5b505afa158015611e92573d6000803e3d6000fd5b505050506040513d601f19601f82011682018060405250810190611eb69190614dfd565b505060048054604051633ea6c82d60e01b81529293506001600160a01b031691633ea6c82d91611ee8918d9101615038565b60206040518083038186803b158015611f0057600080fd5b505afa158015611f14573d6000803e3d6000fd5b505050506040513d601f19601f82011682018060405250810190611f389190614cda565b151560011480611f4c57508061414d60f01b145b611f685760405162461bcd60e51b81526004016103bd906155b4565b8061414d60f01b141561221d573360009081526018602090815260408083206001600160a01b038d168085529252918290205491516370a0823160e01b81526370a0823190611fbb903090600401615038565b60206040518083038186803b158015611fd357600080fd5b505afa158015611fe7573d6000803e3d6000fd5b505050506040513d601f19601f8201168201806040525081019061200b9190614d0e565b1015801561203c57503360009081526018602090815260408083206001600160a01b038d1684529091529020548711155b156120ab573360009081526018602090815260408083206001600160a01b038d16845290915290205461206f90886138fe565b3360008181526018602090815260408083206001600160a01b038f1684529091529020919091556120a6908a8a8a8a8a8a8961390c565b6121c1565b6040516370a0823160e01b815287906001600160a01b038b16906370a08231906120d9903390600401615038565b60206040518083038186803b1580156120f157600080fd5b505afa158015612105573d6000803e3d6000fd5b505050506040513d601f19601f820116820180604052508101906121299190614d0e565b106121c1576040516323b872dd60e01b81526001600160a01b038a16906323b872dd9061215e90339030908c9060040161504c565b602060405180830381600087803b15801561217857600080fd5b505af115801561218c573d6000803e3d6000fd5b505050506040513d601f19601f820116820180604052508101906121b09190614cda565b506121c1338a8a8a8a8a8a8961390c565b886001600160a01b03167f647111dfd26aa614f3a039ffe52dcfcd383ba2900b9ed21cde54b318f92707a733898989898e670de0b6b3a76400008a604051612210989796959493929190615070565b60405180910390a2612333565b6040516370a0823160e01b815287906001600160a01b038b16906370a082319061224b908790600401615038565b60206040518083038186803b15801561226357600080fd5b505afa158015612277573d6000803e3d6000fd5b505050506040513d601f19601f8201168201806040525081019061229b9190614d0e565b10612333576040516323b872dd60e01b81526001600160a01b038a16906323b872dd906122d090869030908c9060040161504c565b602060405180830381600087803b1580156122ea57600080fd5b505af11580156122fe573d6000803e3d6000fd5b505050506040513d601f19601f820116820180604052508101906123229190614cda565b50612333838a8a8a8a8a8a8961390c565b50506007805460ff60a01b1916905550505050505050565b600554604051634427673360e01b815260609133916000916001600160a01b031690634427673390612381908590600401615038565b60606040518083038186803b15801561239957600080fd5b505afa1580156123ad573d6000803e3d6000fd5b505050506040513d601f19601f820116820180604052508101906123d19190614dfd565b505090508061414d60f01b14806123ec57508061044560f41b145b6124085760405162461bcd60e51b81526004016103bd90615490565b6001600160a01b038086166000908152600b60209081526040808320938816835292815282822080548451818402810184019095528085529092909184015b828210156125595760008481526020908190206040805161010080820183526008870290930180546001600160a01b03908116835260018083015490911683870152600280830154848601526003830154606085015260048301546080850152600583015460a0850152600683015460c08501526007830180548651938116159097026000190190961604601f81018790048702820187019094528381529194909360e086019390918301828280156125415780601f1061251657610100808354040283529160200191612541565b820191906000526020600020905b81548152906001019060200180831161252457829003601f168201915b50505050508152505081526020019060010190612447565b505050509250505092915050565b6000612577838311156001612582565b508082035b92915050565b816125905761259081613c4d565b5050565b600080826001600160a01b031663313ce5676040518163ffffffff1660e01b815260040160206040518083038186803b1580156125d057600080fd5b505afa1580156125e4573d6000803e3d6000fd5b505050506040513d601f19601f820116820180604052508101906126089190614f08565b60ff169050600061261a601283612567565b600a0a670de0b6b3a764000002949350505050565b600061263b8383613ca0565b9392505050565b600080600080600080886001600160a01b031660086001600960008d6001600160a01b03166001600160a01b0316815260200190815260200160002054038154811061268a57fe5b6000918252602090912001546001600160a01b031614156107845760005b600854811015612c9757896001600160a01b0316600882815481106126c957fe5b6000918252602090912001546001600160a01b031614612c8f57600881815481106126f057fe5b60009182526020808320909101546001600160a01b03908116808452600b83526040808520928f16855291909252822054975095505b86811015612c8d576001600160a01b03808c166000908152600b60209081526040808320938a168352929052908120805490919061276057fe5b60009182526020808320600260089093020191909101546001600160a01b03808f168452600b83526040808520918b1685529252908220805491975091906127a457fe5b9060005260206000209060080201600401549350600b6000876001600160a01b03166001600160a01b0316815260200190815260200160002060008c6001600160a01b03166001600160a01b03168152602001908152602001600020818154811061280b57fe5b9060005260206000209060080201600201549250600b6000876001600160a01b03166001600160a01b0316815260200190815260200160002060008c6001600160a01b03166001600160a01b03168152602001908152602001600020818154811061287257fe5b60009182526020909120600890910201546001600160a01b031697508215612c85576001600160a01b038087166000908152600b60209081526040808320938f1683529290522080546128e4918591849081106128cb57fe5b9060005260206000209060080201600301546001613cd6565b6128f085876001613cd6565b11612c2e576001600160a01b03808c166000908152600d60209081526040808320938a1683529290522054612973576001600160a01b038b81166000818152600c6020908152604080832080546001810182558185528385200180546001600160a01b031916968d1696871790559383529254600d825283832094835293905220555b6001600160a01b03808c166000908152600e60209081526040808320938a16835292905220546129a585876001613cd6565b10806129d457506001600160a01b03808c166000908152600e60209081526040808320938a1683529290522054155b15612a22576129fb6129e985610a9b89612594565b6129f687610a9b8f612594565b613cfe565b6001600160a01b03808d166000908152600e60209081526040808320938b16835292905220555b6001600160a01b038b81166000908152600e60209081526040808320938a168352929052206002810186905560030154612a5c9084613222565b6001600160a01b03808d166000908152600e60209081526040808320938b1683529290522060030155612a8d6146e5565b6040518060a001604052808a6001600160a01b03168152602001886001600160a01b031681526020018581526020016000815260200160008152509050600f60008d6001600160a01b03166001600160a01b0316815260200190815260200160002081908060018154018082558091505060019003906000526020600020906005020160009091909190915060008201518160000160006101000a8154816001600160a01b0302191690836001600160a01b0316021790555060208201518160010160006101000a8154816001600160a01b0302191690836001600160a01b0316021790555060408201518160020155606082015181600301556080820151816004015550508b6001600160a01b03167f9426088b1d278a7af8f917da4fae1aa63b954ba475dd3b6ba9c6539508c29d7c308b8a8886606001518760800151604051612bde96959493929190615104565b60405180910390a26001600160a01b038c16600090815260106020526040902054612c099085613222565b6001600160a01b038d166000908152601060205260408120919091559350612c859050565b6001600160a01b038089166000908152601860209081526040808320938a1683529290522054612c5e9084613222565b6001600160a01b03808a166000908152601860209081526040808320938b16835292905220555b600101612726565b505b6001016126a8565b506001600160a01b0389166000908152600c60205260409020541561078457612cc08989613d4f565b6001600160a01b0389166000908152600c6020526040812061078491614726565b60008481526014602090815260408083206001600160a01b038716845290915290205480612d215760405162461bcd60e51b81526004016103bd90615618565b60008581526013602052604090208054600019909201916001600160a01b038616919083908110612d4e57fe5b60009182526020909120600590910201546001600160a01b031614612d855760405162461bcd60e51b81526004016103bd90615459565b6000858152601360205260409020805484919083908110612da257fe5b9060005260206000209060050201600301541015612dd25760405162461bcd60e51b81526004016103bd906155e1565b6000858152601660209081526040808320548151632541897f60e01b8152915184938493849384936001600160a01b0390911692632541897f9260048082019391829003018186803b158015612e2757600080fd5b505afa158015612e3b573d6000803e3d6000fd5b505050506040513d601f19601f82011682018060405250810190612e5f91906149c8565b9050612e9a88601360008d81526020019081526020016000208881548110612e8357fe5b906000526020600020906005020160030154613cfe565b60008b81526013602052604090208054919650612ed39188908110612ebb57fe5b90600052602060002090600502016003015489612567565b60008b8152601360205260409020805488908110612eed57fe5b906000526020600020906005020160030181905550601360008b81526020019081526020016000208681548110612f2057fe5b9060005260206000209060050201600301549150612fa0601360008c81526020019081526020016000208781548110612f5557fe5b9060005260206000209060050201600401546110ff601360008e81526020019081526020016000208981548110612f8857fe5b90600052602060002090600502016004015488613ca0565b9250612fc784611078601360008e81526020019081526020016000208981548110612f8857fe5b60008b81526015602090815260408083206001600160a01b038c168452909152902054909450612ff79083612567565b60008b81526015602090815260408083206001600160a01b038c1684529091529081902091909155518a907fbd39de70db9f51c606065fcb0157b3d97984d1ec579fa55b555e78eb8460af7e90613059908c90859088908d908990429061513d565b60405180910390a260008a81526014602090815260408083206001600160a01b038d16845290915280822091909155518a907f4bbb221ed2740b5d1fde83b4f627802ff5462a27e60c2edff0b88fdb1ea9b284906130c2908c90859089908d908f90429061513d565b60405180910390a26001600160a01b038082166000818152600b60209081526040808320948c168352939052918220805491926323b872dd928d92919061310557fe5b60009182526020909120600890910201546040516001600160e01b031960e085901b16815261314392916001600160a01b031690889060040161504c565b602060405180830381600087803b15801561315d57600080fd5b505af1158015613171573d6000803e3d6000fd5b505050506040513d601f19601f820116820180604052508101906131959190614cda565b5060405163a9059cbb60e01b81526001600160a01b0388169063a9059cbb906131c4908c908690600401615177565b602060405180830381600087803b1580156131de57600080fd5b505af11580156131f2573d6000803e3d6000fd5b505050506040513d601f19601f820116820180604052508101906111869190614cda565b600061263b8383613cfe565b600082820161263b8482101583612582565b6000818152601660209081526040808320548151636945c1fd60e01b815291516001600160a01b0390911692636945c1fd9260048082019391829003018186803b15801561328157600080fd5b505afa158015613295573d6000803e3d6000fd5b505050506040513d601f19601f820116820180604052508101906132b991906149c8565b6000838152601760209081526040808320546001600160a01b039081168452600b8352818420908516845290915281208054929350909182906132f857fe5b600091825260208083206008909202909101548583526015825260408084206001600160a01b03878116865293528320549116925061333a90610a9b85612594565b6000858152601760209081526040808320546001600160a01b039081168452601a8352818420908816845290915281205491925090156133b5576000858152601760209081526040808320546001600160a01b039081168452601a835281842090881684529091529020546133b0908390613ca0565b6133c1565b6133c182600354613ca0565b905060008060005b6000888152601760209081526040808320546001600160a01b03168352600f9091529020548110156137e6576000888152601760209081526040808320546001600160a01b03168352600f9091529020805461346691908390811061342a57fe5b60009182526020808320600260059093020191909101548b8352601782526040808420546001600160a01b031684526010909252912054613cfe565b925061347e6134758585613ca0565b6129f689612594565b60065460008a8152601760209081526040808320546001600160a01b039081168452600f909252909120805493955091169163451353f1918591859081106134c257fe5b60009182526020808320600160059093020191909101548d8352601782526040808420546001600160a01b039081168552600f90935290922080549190921691908690811061350d57fe5b60009182526020909120600590910201546040516001600160e01b031960e086901b16815261354a9392916001600160a01b031690600401615729565b600060405180830381600087803b15801561356457600080fd5b505af1158015613578573d6000803e3d6000fd5b5050506000898152601760209081526040808320546001600160a01b039081168452600f9092529091208054918a16925063a9059cbb91849081106135b957fe5b6000918252602090912060059091020154601b546001600160a01b03909116906135e4908690613ca0565b6040518363ffffffff1660e01b8152600401613601929190615177565b602060405180830381600087803b15801561361b57600080fd5b505af115801561362f573d6000803e3d6000fd5b505050506040513d601f19601f820116820180604052508101906136539190614cda565b506000888152601760209081526040808320546001600160a01b03168352600f909152902080546136a191908390811061368957fe5b90600052602060002090600502016004015483613222565b6000898152601760209081526040808320546001600160a01b03168352600f90915290208054839081106136d157fe5b9060005260206000209060050201600401819055506136fc613475846136f78888612567565b613ca0565b6000898152601760209081526040808320546001600160a01b03168352600f9091529020805491945061374b918390811061373357fe5b90600052602060002090600502016003015484613222565b506000888152601760209081526040808320546001600160a01b0316808452600f90925290912080548a927f5c520d8718b066e97bb13ab129eea39c9edcbf16de59770e2e191bc2421070b89290918b9190869081106137a757fe5b60009182526020909120600590910201546040516137d69392916001600160a01b03169088908d908b906150c9565b60405180910390a26001016133c9565b506137f4836129f688612594565b925061382f60196000886001600160a01b03166001600160a01b0316815260200190815260200160002054611078856110ff87601b54613ca0565b6001600160a01b0387166000818152601960209081526040808320949094558a8252601581528382208383529052919091205463a9059cbb9087906138749087612567565b6040518363ffffffff1660e01b8152600401613891929190615177565b602060405180830381600087803b1580156138ab57600080fd5b505af11580156138bf573d6000803e3d6000fd5b505050506040513d601f19601f820116820180604052508101906138e39190614cda565b506000878152601360205260408120610d5691614747565b90565b600061263b8383600161424d565b613914614768565b6040518061010001604052808a6001600160a01b03168152602001896001600160a01b03168152602001878152602001858152602001848152602001888152602001670de0b6b3a764000081526020018381525090506000600b60008a6001600160a01b03166001600160a01b031681526020019081526020016000206000876001600160a01b03166001600160a01b03168152602001908152602001600020805490509050600b60008a6001600160a01b03166001600160a01b031681526020019081526020016000206000876001600160a01b03166001600160a01b0316815260200190815260200160002082908060018154018082558091505060019003906000526020600020906008020160009091909190915060008201518160000160006101000a8154816001600160a01b0302191690836001600160a01b0316021790555060208201518160010160006101000a8154816001600160a01b0302191690836001600160a01b0316021790555060408201518160020155606082015181600301556080820151816004015560a0820151816005015560c0820151816006015560e0820151816007019080519060200190613ad492919061463d565b5050506001600160a01b038916600090815260096020526040902054613b4f57600880546001810182557ff3f7a9fe364faab93b216da50a3214154f22a0a2b415b23a84c8169e8b636ee30180546001600160a01b0319166001600160a01b038c169081179091559054600091825260096020526040909120555b6001600160a01b038087166000818152600a60209081526040808320948e168352600b825280832093835292905220805483908110613b8a57fe5b6000918252602080832084546001818101875595855291909320600892830290930180549190920290920180546001600160a01b03199081166001600160a01b039485161782558483015482860180549092169416939093179092556002808201548184015560038083015490840155600480830154908401556005808301549084015560068083015490840155600780830180549395613c3e9492860193919290811615610100026000190116046147c2565b50505050505050505050505050565b62461bcd60e51b6000908152602060045260076024526642414c23000030600a808404818106603090810160081b95839006959095019082900491820690940160101b939093010160c81b604452606490fd5b6000828202613cc4841580613cbd575083858381613cba57fe5b04145b6003612582565b670de0b6b3a764000090049392505050565b600081613cec57613ce78484614263565b613cf6565b613cf68484614283565b949350505050565b6000613d0d8215156004612582565b82613d1a5750600061257c565b670de0b6b3a764000083810290613d3d90858381613d3457fe5b04146005612582565b828181613d4657fe5b0491505061257c565b6001600160a01b0382166000908152600c6020526040812054905b8181101561150e576001600160a01b0384166000908152600c60205260408120805483908110613d9657fe5b6000918252602080832091909101546001600160a01b038881168452600e83526040808520919092168085529252909120600281015460039091015491925090613dde614837565b604080516101808101825260136101408201908152722b32b934b334b2b2102837b7b6102a37b5b2b760691b610160830152815281518083018352600381526215941560ea1b602082810191909152808301919091526001600160a01b03808c16838501819052908816606084018190526000828152600e84528581208282528452858120546080860152918252600b83528482209082529091529182208054919260a0840192613e8b57fe5b90600052602060002090600802016006015481526020018481526020016003548152602001888152602001600b60008b6001600160a01b03166001600160a01b031681526020019081526020016000206000876001600160a01b03166001600160a01b03168152602001908152602001600020600081548110613f0a57fe5b6000918252602091829020600760089092020101805460408051601f6002600019610100600187161502019094169390930492830185900485028101850190915281815292830182828015613fa05780601f10613f7557610100808354040283529160200191613fa0565b820191906000526020600020905b815481529060010190602001808311613f8357829003601f168201915b5050509190925250506002546040516372e0f85360e01b81529192506001600160a01b03808b16926372e0f85392613fde9216908790600401615177565b600060405180830381600087803b158015613ff857600080fd5b505af115801561400c573d6000803e3d6000fd5b505060015460405163088db13360e21b8152600093506001600160a01b039091169150632236c4cc9061404390859060040161566b565b602060405180830381600087803b15801561405d57600080fd5b505af1158015614071573d6000803e3d6000fd5b505050506040513d601f19601f8201168201806040525081019061409591906149c8565b6001600160a01b03808b166000908152600b60209081526040808320938a1683529290529081208054929350916140c857fe5b600091825260208083206008909202909101546001600160a01b038c811684526012835260408085206002810180546001600160a01b03191694841694909417909355918c9055815163038fff2d60e41b81529151908516926338fff2d09260048082019391829003018186803b15801561414257600080fd5b505afa158015614156573d6000803e3d6000fd5b505050506040513d601f19601f8201168201806040525081019061417a9190614d0e565b6001600160a01b03808c1660008181526012602090815260408083206001908101805491820181558452828420018690558583526016825280832080549589166001600160a01b031996871617905560179091529020805490921617905590506141e7818b8888886142b6565b5050506001600160a01b038088166000818152600e60209081526040808320979094168083529681528382208281556001808201849055600282018490556003909101839055928252600d81528382209682529590955290842093909355505001613d6a565b600061425c8484111583612582565b5050900390565b60006142728215156004612582565b81838161427b57fe5b049392505050565b60006142928215156004612582565b8261429f5750600061257c565b8160018403816142ab57fe5b04600101905061257c565b600254604051631f29a8cd60e31b81526060916001600160a01b03169063f94d4668906142e7908990600401615364565b60006040518083038186803b1580156142ff57600080fd5b505afa158015614313573d6000803e3d6000fd5b505050506040513d6000823e601f3d908101601f1916820160405261433b9190810190614c0e565b50509050606061434a826138fb565b90506060825167ffffffffffffffff8111801561436657600080fd5b50604051908082528060200260200182016040528015614390578160200160208202803683370190505b5060025460405163095ea7b360e01b81529192506001600160a01b03808a169263095ea7b3926143c69216908990600401615177565b602060405180830381600087803b1580156143e057600080fd5b505af11580156143f4573d6000803e3d6000fd5b505050506040513d601f19601f820116820180604052508101906144189190614cda565b5060025460405163095ea7b360e01b81526001600160a01b038881169263095ea7b39261444d92909116908890600401615177565b602060405180830381600087803b15801561446757600080fd5b505af115801561447b573d6000803e3d6000fd5b505050506040513d601f19601f8201168201806040525081019061449f9190614cda565b5060005b835181101561454657876001600160a01b03168482815181106144c257fe5b60200260200101516001600160a01b031614156144f757858282815181106144e657fe5b60200260200101818152505061453e565b866001600160a01b031684828151811061450d57fe5b60200260200101516001600160a01b0316141561453e578482828151811061453157fe5b6020026020010181815250505b6001016144a3565b5061454f6146bb565b604051806080016040528084815260200183815260200160008460405160200161457a9291906153ff565b60408051808303601f190181529181529082526000602090920191909152600254905163172b958560e31b81529192506001600160a01b03169063b95cac28906145ce908c9030908190879060040161536d565b600060405180830381600087803b1580156145e857600080fd5b505af1158015613c3e573d6000803e3d6000fd5b6040518060a0016040528060006001600160a01b0316815260200160006001600160a01b031681526020016060815260200160008152602001600081525090565b828054600181600116156101000203166002900490600052602060002090601f016020900481019282601f1061467e57805160ff19168380011785556146ab565b828001600101855582156146ab579182015b828111156146ab578251825591602001919060010190614690565b506146b792915061489c565b5090565b60405180608001604052806060815260200160608152602001606081526020016000151581525090565b6040518060a0016040528060006001600160a01b0316815260200160006001600160a01b031681526020016000815260200160008152602001600081525090565b5080546000825590600052602060002090810190614744919061489c565b50565b508054600082556005029060005260206000209081019061474491906148b1565b60405180610100016040528060006001600160a01b0316815260200160006001600160a01b031681526020016000815260200160008152602001600081526020016000801916815260200160008152602001606081525090565b828054600181600116156101000203166002900490600052602060002090601f016020900481019282601f106147fb57805485556146ab565b828001600101855582156146ab57600052602060002091601f016020900482015b828111156146ab57825482559160010191906001019061481c565b604051806101400160405280606081526020016060815260200160006001600160a01b0316815260200160006001600160a01b031681526020016000815260200160008152602001600081526020016000815260200160008152602001606081525090565b5b808211156146b7576000815560010161489d565b808211156146b75780546001600160a01b03199081168255600182018054909116905560006148e360028301826148fa565b5060006003820181905560048201556005016148b1565b50805460018160011615610100020316600290046000825580601f106149205750614744565b601f016020900490600052602060002090810190614744919061489c565b600082601f83011261494e578081fd5b815161496161495c8261577d565b615756565b81815291506020808301908481018184028601820187101561498257600080fd5b60005b848110156149a157815184529282019290820190600101614985565b505050505092915050565b6000602082840312156149bd578081fd5b813561263b816157ed565b6000602082840312156149d9578081fd5b815161263b816157ed565b600080604083850312156149f6578081fd5b8235614a01816157ed565b91506020830135614a11816157ed565b809150509250929050565b60008060008060808587031215614a31578182fd5b8435614a3c816157ed565b93506020850135614a4c816157ed565b92506040850135614a5c816157ed565b9396929550929360600135925050565b600080600080600080600080610100898b031215614a88578384fd5b8835614a93816157ed565b975060208901359650604089013595506060890135614ab1816157ed565b94506080890135935060a0890135925060c0890135614acf816157ed565b915060e089013567ffffffffffffffff811115614aea578182fd5b8901601f81018b13614afa578182fd5b8035614b0861495c8261579d565b8181528c6020838501011115614b1c578384fd5b8160208401602083013783602083830101528093505050509295985092959890939650565b600080600060608486031215614b55578283fd5b8335614b60816157ed565b9250602084013591506040840135614b77816157ed565b809150509250925092565b600080600080600080600060e0888a031215614b9c578283fd5b8735614ba7816157ed565b9650602088013595506040880135614bbe816157ed565b94506060880135614bce816157ed565b93506080880135614bde816157ed565b925060a0880135614bee816157ed565b915060c0880135614bfe816157ed565b8091505092959891949750929550565b600080600060608486031215614c22578081fd5b835167ffffffffffffffff80821115614c39578283fd5b818601915086601f830112614c4c578283fd5b8151614c5a61495c8261577d565b80828252602080830192508086018b828387028901011115614c7a578788fd5b8796505b84871015614ca5578051614c91816157ed565b845260019690960195928101928101614c7e565b508901519097509350505080821115614cbc578283fd5b50614cc98682870161493e565b925050604084015190509250925092565b600060208284031215614ceb578081fd5b815161263b81615802565b600060208284031215614d07578081fd5b5035919050565b600060208284031215614d1f578081fd5b5051919050565b60008060408385031215614d38578182fd5b823591506020830135614a11816157ed565b600080600080600080600060e0888a031215614d64578081fd5b873596506020880135614d76816157ed565b95506040880135614d86816157ed565b9450606088013593506080880135614d9d816157ed565b925060a0880135915060c0880135614bfe81615802565b60008060008060808587031215614dc9578182fd5b843593506020850135614ddb816157ed565b9250604085013591506060850135614df2816157ed565b939692955090935050565b600080600060608486031215614e11578081fd5b8351925060208401519150604084015190509250925092565b600060208284031215614e3b578081fd5b815167ffffffffffffffff811115614e51578182fd5b8201601f81018413614e61578182fd5b8051614e6f61495c8261579d565b818152856020838501011115614e83578384fd5b614e948260208301602086016157c1565b95945050505050565b600080600060608486031215614eb1578081fd5b833592506020840135614ec3816157ed565b91506040840135614b77816157ed565b60008060008060808587031215614ee8578182fd5b505082516020840151604085015160609095015191969095509092509050565b600060208284031215614f19578081fd5b815160ff8116811461263b578182fd5b6001600160a01b03169052565b6000815180845260208085019450808401835b83811015614f6557815187529582019590820190600101614f49565b509495945050505050565b15159052565b60008151808452614f8e8160208601602086016157c1565b601f01601f19169290920160200192915050565b8051608080845281519084018190526000916020919082019060a0860190845b81811015614fe75783516001600160a01b031683529284019291840191600101614fc2565b5050828501519150858103838701526150008183614f36565b925050506040830151848203604086015261501b8282614f76565b91505060608301516150306060860182614f70565b509392505050565b6001600160a01b0391909116815260200190565b6001600160a01b039384168152919092166020820152604081019190915260600190565b600061010060018060a01b03808c1684528a6020850152808a166040850152508760608401528660808401528560a08401528460c08401528060e08401526150ba81840185614f76565b9b9a5050505050505050505050565b6001600160a01b039687168152948616602086015292851660408501526060840191909152909216608082015260a081019190915260c00190565b6001600160a01b03968716815294861660208601529290941660408401526060830152608082019290925260a081019190915260c00190565b6001600160a01b0396871681529486166020860152604085019390935293166060830152608082019290925260a081019190915260c00190565b6001600160a01b03929092168252602082015260400190565b602080825282518282018190526000919060409081850190868401855b8281101561520357815180516001600160a01b03168552868101516151d488870182614f29565b508086015185870152606080820151908601526080908101519085015260a090930192908501906001016151ad565b5091979650505050505050565b60208082528251828201819052600091906040908185019080840286018301878501865b838110156152a457603f19898403018552815160a0615254858351614f29565b888201516152648a870182614f29565b5087820151818987015261527a82870182614f76565b60608481015190880152608093840151939096019290925250509386019390860190600101615234565b509098975050505050505050565b60208082528251828201819052600091906040908185019080840286018301878501865b838110156152a457603f1989840301855281516101006152f7858351614f29565b888201516153078a870182614f29565b508188015185890152606080830151908601526080808301519086015260a0808301519086015260c0808301519086015260e09182015191850181905261535081860183614f76565b9689019694505050908601906001016152d6565b90815260200190565b8481526001600160a01b0384811660208301528316604082015260806060820181905260009061539f90830184614fa2565b9695505050505050565b9687526001600160a01b0395861660208801529390941660408601526060850191909152608084015260a0830191909152151560c082015260e00190565b60408101600284106153f557fe5b9281526020015290565b60006004841061540b57fe5b83825260406020830152613cf66040830184614f36565b6020808252601f908201527f496e636f7272656374207375627363726962657220666f7220726566756e6400604082015260600190565b6020808252601c908201527f496e76616c696420616c6c6f746d656e74207375627363726962657200000000604082015260600190565b60208082526012908201527127b7363c9020b9b9b2ba1036b0b730b3b2b960711b604082015260600190565b60208082526017908201527f4f6e6c79204c697175696469747920636f6e7472616374000000000000000000604082015260600190565b6020808252600d908201526c1058d8d95cdcc81b1bd8dad959609a1b604082015260600190565b6020808252601b908201527f556e617574686f72697a65642066656520636f6c6c656374696f6e0000000000604082015260600190565b6020808252601b908201527f4f6e6c79204465706f736974617279207061727469636970616e740000000000604082015260600190565b60208082526012908201527127b7363c9024b9b9bab29036b0b730b3b2b960711b604082015260600190565b602080825260139082015272556e617574686f72697a65642061636365737360681b604082015260600190565b6020808252601a908201527f496e636f727265637420616c6c6f746d656e7420616d6f756e74000000000000604082015260600190565b602080825260139082015272139bc81cdd589cd8dc9a58995c88199bdd5b99606a1b604082015260600190565b6020808252600c908201526b125b9d985b1a59081c1bdbdb60a21b604082015260600190565b600060208252825161014080602085015261568a610160850183614f76565b91506020850151601f19808685030160408701526156a88483614f76565b9350604087015191506156be6060870183614f29565b606087015191506156d26080870183614f29565b608087015160a087015260a087015160c087015260c087015160e087015260e087015191506101008281880152808801519250506101208281880152808801519250508086850301838701525061539f8382614f76565b9283526001600160a01b03918216602084015216604082015260600190565b918252602082015260400190565b60405181810167ffffffffffffffff8111828210171561577557600080fd5b604052919050565b600067ffffffffffffffff821115615793578081fd5b5060209081020190565b600067ffffffffffffffff8211156157b3578081fd5b50601f01601f191660200190565b60005b838110156157dc5781810151838201526020016157c4565b8381111561150e5750506000910152565b6001600160a01b038116811461474457600080fd5b801515811461474457600080fdfea2646970667358221220cdd1228d9a06a970baf2229fbbc3a3b43abde7331cb5abf112dd754a2eac5aee64736f6c63430007010033",
  "immutableReferences": {},
  "source": "// Verified asset manager\r\n// (c) Kallol Borah, Verified Network, 2021\r\n\r\n//\"SPDX-License-Identifier: UNLICENSED\"\r\n\r\npragma solidity ^0.7.1;\r\npragma experimental ABIEncoderV2;\r\n\r\nimport \"@balancer-labs/v2-solidity-utils/contracts/openzeppelin/IERC20.sol\";\r\nimport \"@balancer-labs/v2-solidity-utils/contracts/openzeppelin/ERC20.sol\";\r\n//import \"@balancer-labs/v2-solidity-utils/contracts/openzeppelin/SafeERC20.sol\";\r\nimport \"@balancer-labs/v2-solidity-utils/contracts/openzeppelin/Ownable.sol\";\r\nimport \"@balancer-labs/v2-solidity-utils/contracts/math/Math.sol\";\r\nimport \"@balancer-labs/v2-solidity-utils/contracts/math/FixedPoint.sol\";\r\n\r\nimport \"@balancer-labs/v2-vault/contracts/interfaces/IVault.sol\";\r\nimport \"@balancer-labs/v2-vault/contracts/interfaces/IAsset.sol\";\r\n\r\nimport \"./interfaces/IPrimaryIssuePoolFactory.sol\";\r\nimport \"./interfaces/IPrimaryIssuePool.sol\";\r\n\r\nimport \"./interfaces/VerifiedClient.sol\";\r\nimport \"./interfaces/IMarketMaker.sol\";\r\nimport \"./interfaces/ILiquidity.sol\";\r\nimport \"./interfaces/IFactory.sol\";\r\nimport \"./interfaces/ISecurity.sol\";\r\nimport \"./interfaces/IDistribution.sol\";\r\n\r\ncontract PrimaryIssueManager is IMarketMaker, Ownable {\r\n\r\n    using Math for uint256;\r\n    using FixedPoint for uint256;\r\n    //using SafeERC20 for IERC20;\r\n\r\n    // balancer variables\r\n    address private factory;\r\n    address private vault;\r\n    uint256 private swapFeePercentage=0;\r\n\r\n    uint256 private constant _INITIAL_BPT_SUPPLY = 2**(112) - 1;\r\n    uint256 private constant _DEFAULT_MINIMUM_BPT = 1e6;\r\n\r\n    // reference to the Verified factory contract that this asset manager checks security token issues with\r\n    IFactory private products;\r\n\r\n    // reference to the Verified Client contract\r\n    VerifiedClient private client;\r\n\r\n    // reference to the Verified Liquidity contract that provides liquidity (ie, VITTA) to the asset manager to underwrite investments in tokenized securities\r\n    address private LiquidityContract;\r\n\r\n    //distribution contract \r\n    address private distribution;\r\n\r\n    //mutex\r\n    bool private lock;\r\n\r\n    // modifiers\r\n    modifier onlyPool(bytes32 poolId, address caller) {\r\n        require(caller == pools[poolId], \"Invalid pool\");\r\n        _;\r\n    }\r\n\r\n    modifier onlyLP(address sender) {\r\n        require(sender==LiquidityContract, \"Only Liquidity contract\");\r\n        _;\r\n    }\r\n\r\n    modifier onlyAssetManager(address sender){\r\n        (bytes32 role, , ) = client.getRole(sender);\r\n        require(role==\"AM\" || role==\"DP\", \"Only Asset manager\");\r\n        _;\r\n    }   \r\n\r\n    modifier onlyDP(address sender){\r\n        (bytes32 role, , ) = client.getRole(sender);\r\n        require(role==\"DP\", \"Only Depositary participant\");\r\n        _;\r\n    } \r\n\r\n    modifier onlyIssueManager(address sender, address security){\r\n        address DP = products.getDP(security);\r\n        require(DP==sender, \"Only Issue manager\");\r\n        _;\r\n    }\r\n\r\n    // list of offered tokens\r\n    address[] internal offeredTokens;\r\n\r\n    // mapping token offered to its position in the list of offered tokens\r\n    mapping(address => uint256) private offeredTokenIndex;\r\n\r\n    // list of tokens to match\r\n    mapping(address => token[]) internal toMatchTokens;\r\n\r\n    // mapping offered token (eg, security token) to a token to match (eg, settlement token)\r\n    mapping(address => mapping(address => token[])) internal mmtokens;\r\n\r\n    // mapping offered token (ie security token) to its paired token \r\n    mapping(address => address[]) internal pairedTokens;\r\n\r\n    // mapping liqudity token to its position in the list of liquidity tokens\r\n    mapping(address => mapping(address => uint256)) private pairedTokenIndex;    \r\n\r\n    // mapping qualified liquidity token to its price and amount offered by market makers (LPs)\r\n    mapping(address => mapping(address => liquidity)) internal qlTokens;\r\n\r\n    // mapping security to liquidity providers\r\n    mapping(address => lp[]) private liquidityProviders;\r\n\r\n    // mapping securities issued in the primary issue pool to total liquidity offered\r\n    mapping(address => uint256) private totalUnderwritten;\r\n\r\n    // mapping pool ids to LPs to the amounts of liquidity they offer\r\n    mapping(bytes32 => mapping(address => uint256)) private underwriters;    \r\n\r\n    // mapping security to new issues in the primary issue pool\r\n    mapping(address => primary) internal issues;\r\n\r\n    // mapping primary issue pool id to subscribers that swap in assets into pool\r\n    mapping(bytes32 => subscriptions[]) internal investors; \r\n\r\n    // mapping primary issue pool id to subscriber and its position in the list of subscribers to the pool\r\n    mapping(bytes32 => mapping(address => uint256)) private subscriberIndex;\r\n\r\n    // mapping pool id to asset to subscription amounts\r\n    mapping(bytes32 => mapping(address => uint256)) private subscribed;\r\n\r\n    // mapping pool id to pool address\r\n    mapping(bytes32 => address) private pools;\r\n\r\n    // mapping pool id to security token offered\r\n    mapping(bytes32 => address) private poolSecurity;   \r\n    \r\n    // LP token allotted\r\n    mapping(address => mapping (address => uint256)) private LPTokenAllotted;\r\n\r\n    // mapping token address to issuing fee collected\r\n    mapping(address => uint256) private fees;\r\n    // mapping security to currency to fee set for it by DP\r\n    mapping(address => mapping(address => uint256)) private customFee;\r\n    // revenue share for asset managers\r\n    uint256 private revshare;\r\n\r\n    event marketmakers(address indexed security, address platform, address provider, address currency, uint256 tokenOffered, uint256 underwritten, uint256 earnings);\r\n    event subscribers(address indexed security, bytes32 poolId, address investor, address currency, uint256 cashSwapped, uint256 securitySwapped, uint256 timestamp, bool subscription);\r\n    event offers(address party, address indexed offered, uint256 amountOffered, address tomatch, uint256 amountDesired, uint256 minAmount, bytes32 isin, uint256 minimumOrderSize, string offeringDocs);\r\n    event closures(bytes32 indexed poolId, address security, uint256 timestamp);\r\n    event allotments(bytes32 indexed poolId, address investor, address security, uint256 securitySubscription, address currency, uint256 allotedAmount, uint256 timestamp);\r\n    event refunds(bytes32 indexed poolId, address investor, address security, uint256 securitySubscription, address currency, uint256 refundAmount, uint256 timestamp);\r\n    event settlements(bytes32 indexed poolId, address security, address currency, address liquidityProvider, uint256 underwritingFee, address issuer, uint256 subscription);\r\n    event feecollection(address indexed platform, uint256 collection, uint256 timestamp);\r\n\r\n    /**\r\n        Initializes this asset management contract\r\n        @param  _factory            reference to the primary issue pool factory contract\r\n        @param  _swapFeePercentage  percentage of trading fee to be charged by the asset manager\r\n        @param  _vault              reference to the Balancer vault\r\n        @param  _products           reference to the Verified Products contract that this contract reports created primary issue pools to\r\n     */\r\n    function initialize(address _factory, uint256 _swapFeePercentage, address _vault, address _products, address _liquidity, address _client, address _distribution) public onlyOwner {\r\n        factory = _factory;\r\n        vault = _vault;        \r\n        products = IFactory(_products);        \r\n        client = VerifiedClient(_client);\r\n        swapFeePercentage = _swapFeePercentage;\r\n        LiquidityContract = _liquidity;\r\n        distribution = _distribution;\r\n    }\r\n\r\n    /**\r\n        Called by market maker and issuer for adding liquidity\r\n        @param  owned       is the security or settlement token on offer \r\n        @param  offered     is the amount offered\r\n        @param  tomatch     is the liquidity token that is required to be paired\r\n        @param  desired     is the amount required of the liquidity token to be paired\r\n        @param  min         is the minimum amount to be swapped of the 'offered' token \r\n        @param  isin        is the identifier for the security token offered\r\n        @param  owner       is the current holder of the owned token that is offered\r\n        @param  docs        is the ipfs address of the offering docs\r\n     */ \r\n    function offer(address owned, bytes32 isin, uint offered, address tomatch, uint desired, uint min, address owner, string memory docs) override external {\r\n        require(!lock, \"Access locked\");\r\n        lock = true;\r\n        (bytes32 role, , ) = client.getRole(msg.sender);\r\n        require(products.checkProduct(owned)==true || role==\"AM\", \"Unauthorized access\");\r\n        if(role==\"AM\"){\r\n            if(ERC20(owned).balanceOf(address(this))>=LPTokenAllotted[msg.sender][owned] && LPTokenAllotted[msg.sender][owned]>=offered){                 \r\n                LPTokenAllotted[msg.sender][owned] = SafeMath.sub(LPTokenAllotted[msg.sender][owned], offered);\r\n                make(msg.sender, owned, isin, offered, tomatch, desired, min, docs); \r\n            }\r\n            else if(ERC20(owned).balanceOf(msg.sender)>=offered){\r\n                ERC20(owned).transferFrom(msg.sender, address(this), offered);\r\n                make(msg.sender, owned, isin, offered, tomatch, desired, min, docs);\r\n            }\r\n            emit offers(msg.sender, owned, offered, tomatch, desired, min, isin, 1e18, docs);\r\n        }\r\n        else if(ERC20(owned).balanceOf(owner)>=offered){             \r\n            ERC20(owned).transferFrom(owner, address(this), offered);\r\n            make(owner, owned, isin, offered, tomatch, desired, min, docs); \r\n        }\r\n        lock = false;\r\n    }\r\n\r\n    function make(address _owner, address owned, bytes32 _isin, uint _offered, address tomatch, uint _desired, uint _min, string memory _docs) private {\r\n        IMarketMaker.token memory t = IMarketMaker.token({\r\n            owner: _owner,\r\n            offered: owned,\r\n            amountDesired: _desired,\r\n            amountOffered: _offered,\r\n            min: _min,\r\n            isin: _isin,\r\n            minimumOrderSize: 1e18,\r\n            offeringdocs: _docs\r\n        });\r\n        uint256 index = mmtokens[owned][tomatch].length;\r\n        mmtokens[owned][tomatch].push(t);        \r\n        if(offeredTokenIndex[owned]==0){            \r\n            offeredTokens.push(owned);\r\n            offeredTokenIndex[owned] = offeredTokens.length;\r\n        }\r\n        toMatchTokens[tomatch].push(mmtokens[owned][tomatch][index]);                      \r\n    }\r\n\r\n    function setOfferTerms(address owner, address owned, address tomatch, uint256 minOrderSize) override external onlyIssueManager(msg.sender, owned) {\r\n        IMarketMaker.token storage t = mmtokens[owned][tomatch][0];\r\n        if(t.owner==owner){\r\n            t.minimumOrderSize = _upscale(minOrderSize, _computeScalingFactor(IERC20(owned)));\r\n        }\r\n    }\r\n\r\n    function setIssuingFee(address owner, address owned, address tomatch, uint256 swapfee) override external onlyIssueManager(msg.sender, owned) {\r\n        IMarketMaker.token storage t = mmtokens[owned][tomatch][0];\r\n        if(t.owner==owner){\r\n            customFee[owned][tomatch]=swapfee;\r\n        }\r\n    }\r\n\r\n    /**\r\n        Gets tokens to match for offered token\r\n        @param  offered address of offered token\r\n     */\r\n    function getOffered(address offered) override external view onlyAssetManager(msg.sender) returns(IMarketMaker.token[] memory){\r\n        return toMatchTokens[offered];\r\n    }\r\n\r\n    /**\r\n        Gets offer made previously\r\n        @param  _owned      address of token offered\r\n        @param  _tomatch    address of token to match\r\n     */\r\n    function getOfferMade(address _owned, address _tomatch) override external view onlyAssetManager(msg.sender) returns(IMarketMaker.token[] memory){\r\n        return mmtokens[_owned][_tomatch];\r\n    }\r\n\r\n    /**\r\n        Fetches liquidity providers for a security token\r\n        @param  _security   identifier for the security token offered\r\n     */\r\n    function getLiquidityProviders(address _security) override external view returns(lp[] memory){        \r\n        return liquidityProviders[_security];\r\n    }\r\n\r\n    /**\r\n        Called by Liquidity token contract to stake tokens by investors\r\n        @param  _amount     amount of tokens staked to provide liquidity for underwriting investments in tokenized securities\r\n        @param  _token      address of token staked\r\n        @param  _manager    address of asset manager\r\n     */\r\n    function stake(uint256 _amount, address _token, address _manager) override external onlyLP(msg.sender) {\r\n        LPTokenAllotted[_manager][_token] = SafeMath.add(LPTokenAllotted[_manager][_token], _amount);\r\n    }\r\n\r\n    /**\r\n        Gets liquidity allotted for asset manager (message sender)\r\n        @param  _token  address of token allocated earlier to asset manager (message sender)\r\n     */\r\n    function getAllotedStake(address _token) override external view returns(uint256){\r\n        return LPTokenAllotted[msg.sender][_token];\r\n    }    \r\n    \r\n    /**\r\n        Called by issuer of 'security' token to open an issue which will last till 'cutoffTime'\r\n        @param  security    security offered to the primary issue pool\r\n        @param  cutoffTime  time in milliseconds by when offer closes\r\n     */\r\n    function issue(address security, uint256 cutoffTime, address issuer) override external onlyDP(msg.sender) {\r\n        onIssue(security, cutoffTime, issuer);\r\n    }\r\n    \r\n    function onIssue(address security, uint256 cutoffTime, address issuer) private {\r\n        // check if security to be issued has been offered by the issuer, and if yes, initialize the issuance\r\n        \r\n        address marketmaker;\r\n        uint256 matchedTokens;\r\n        address cash;\r\n        uint256 securityOffered;\r\n        uint256 minCashDesired;\r\n        uint256 cashOffered;\r\n\r\n        if(offeredTokens[offeredTokenIndex[security]-1]==security){            \r\n            // check all offered securities that is not the security to be issued\r\n            for(uint j=0; j<offeredTokens.length; j++){\r\n                \r\n                if(offeredTokens[j]!=security){                    \r\n                    cash = offeredTokens[j];                     \r\n                    \r\n                    // check if the request to issue has come from the issuer\r\n                    //if(mmtokens[security][cash][0].owner==issuer && mmtokens[security][cash][0].amountOffered>0){\r\n                        \r\n                        matchedTokens = mmtokens[cash][security].length;\r\n                        for(uint k=0; k<matchedTokens; k++){\r\n\r\n                            securityOffered = mmtokens[security][cash][0].amountOffered;\r\n                            minCashDesired = mmtokens[security][cash][0].min;\r\n                            cashOffered = mmtokens[cash][security][k].amountOffered;\r\n                            marketmaker = mmtokens[cash][security][k].owner;\r\n                            \r\n                            // find tokens offered against security to be issued\r\n                            if(cashOffered!=0){\r\n                                \r\n                                // if min offer price for security issued is less than price desired by market maker (LP)\r\n                                if( Math.div(minCashDesired,\r\n                                    securityOffered, true) <=\r\n                                    Math.div(cashOffered,\r\n                                    mmtokens[cash][security][k].amountDesired, true))\r\n                                {   \r\n                                    // store liquidity tokens    \r\n                                    if(pairedTokenIndex[security][cash]==0){\r\n                                        pairedTokens[security].push(cash);\r\n                                        pairedTokenIndex[security][cash] = pairedTokens[security].length;                                            \r\n                                    }\r\n                                    \r\n                                    // find and store min price for token offered\r\n                                    if(Math.div(minCashDesired,\r\n                                        securityOffered, true) < \r\n                                        qlTokens[security][cash].minPrice  || \r\n                                        qlTokens[security][cash].minPrice==0)\r\n                                    {   \r\n                                        qlTokens[security][cash].minPrice =\r\n                                            FixedPoint.divDown(_upscale(minCashDesired, _computeScalingFactor(IERC20(cash))),\r\n                                                    _upscale(securityOffered, _computeScalingFactor(IERC20(security))));\r\n                                    }                                    \r\n                                     \r\n                                    qlTokens[security][cash].amountIssued = \r\n                                                    //Math.add(qlTokens[security][cash].amountIssued,\r\n                                                    securityOffered;\r\n                                                    //);\r\n                                    qlTokens[security][cash].amountOffered = \r\n                                                    Math.add(qlTokens[security][cash].amountOffered,\r\n                                                    cashOffered); \r\n                                    \r\n                                    // store qualified liquidity provider info\r\n                                    lp memory provider = lp({\r\n                                        owner : marketmaker,\r\n                                        tokenOffered : cash,\r\n                                        underwritten : cashOffered,\r\n                                        subscribed : 0,\r\n                                        earned : 0\r\n                                    });\r\n                                    liquidityProviders[security].push(provider);  \r\n                                    emit marketmakers(security, address(this), marketmaker, cash, cashOffered, provider.subscribed, provider.earned);\r\n\r\n                                    totalUnderwritten[security] = \r\n                                        SafeMath.add(totalUnderwritten[security], cashOffered);\r\n                                    cashOffered = 0;\r\n                                }\r\n                                else{\r\n                                    //adjust amount underwritten from asset manager's allocated stake                                            \r\n                                    LPTokenAllotted[marketmaker][cash] = \r\n                                        SafeMath.add(LPTokenAllotted[marketmaker][cash], cashOffered);\r\n                                }\r\n                            }\r\n                        }\r\n                    //}\r\n                }\r\n            }\r\n            if(pairedTokens[security].length >0){\r\n                createPool(security, cutoffTime);\r\n                delete pairedTokens[security];\r\n            }\r\n        }\r\n    }\r\n    \r\n    function createPool(address security, uint256 cutoffTime) internal {\r\n        uint256 matchedTokens = pairedTokens[security].length;\r\n        //create primary issue pool if it does not exist already\r\n        for(uint x=0; x<matchedTokens; x++){\r\n            address lptoken = pairedTokens[security][x];\r\n            uint256 securityAmount = qlTokens[security][lptoken].amountIssued;\r\n            uint256 cashAmount = qlTokens[security][lptoken].amountOffered;            \r\n            IPrimaryIssuePoolFactory.FactoryPoolParams memory poolparams = IPrimaryIssuePoolFactory.FactoryPoolParams({\r\n                name : \"Verified Pool Token\",\r\n                symbol : \"VPT\",\r\n                security : security,\r\n                currency : lptoken,\r\n                minimumPrice: qlTokens[security][lptoken].minPrice,\r\n                minimumOrderSize : mmtokens[security][lptoken][0].minimumOrderSize,\r\n                maxAmountsIn : securityAmount,\r\n                swapFeePercentage : swapFeePercentage,\r\n                cutOffTime : cutoffTime,\r\n                offeringDocs: mmtokens[security][lptoken][0].offeringdocs\r\n            });                \r\n            ISecurity(security).whiteList(vault, securityAmount); \r\n            address newIssue = IPrimaryIssuePoolFactory(factory).create(poolparams);  \r\n            // store details of new pool created\r\n            issues[security].issuer = mmtokens[security][lptoken][0].owner;\r\n            issues[security].deadline = cutoffTime;\r\n            bytes32 pool = IPrimaryIssuePool(newIssue).getPoolId();                \r\n            issues[security].pools.push(pool);\r\n            pools[pool] = newIssue;\r\n            poolSecurity[pool] = security;\r\n            // join the pool here   \r\n            joinPool(pool, security, lptoken, securityAmount, cashAmount);\r\n            delete qlTokens[security][lptoken];\r\n            pairedTokenIndex[security][lptoken]=0;\r\n        }\r\n    }\r\n    \r\n    function joinPool(bytes32 pool, address security, address lptoken, uint256 securityAmount, uint256 cashAmount) private {\r\n        (IERC20[] memory tokens, , ) = IVault(vault).getPoolTokens(pool);\r\n        IAsset[] memory assets = _convertERC20sToAssets(tokens);\r\n        uint256[] memory maxAmountsIn = new uint256[](tokens.length);                \r\n        ERC20(security).approve(vault, securityAmount);\r\n        ERC20(lptoken).approve(vault, cashAmount);\r\n        for(uint256 t; t < tokens.length; t++) {\r\n            if(tokens[t]==IERC20(security))\r\n                maxAmountsIn[t] = securityAmount;\r\n            else if(tokens[t]==IERC20(lptoken))\r\n                maxAmountsIn[t] = cashAmount;\r\n        }\r\n        IVault.JoinPoolRequest memory request = IVault.JoinPoolRequest({\r\n            assets: assets,\r\n            maxAmountsIn: maxAmountsIn,\r\n            userData: abi.encode(JoinKind.INIT, maxAmountsIn),\r\n            fromInternalBalance: false\r\n        });         \r\n        IVault(vault).joinPool(pool, address(this), address(this), request);\r\n    }\r\n\r\n    // called by pool when assets are swapped in by investors against security tokens issued\r\n    function subscribe(bytes32 poolId, address security, address asset, uint256 cAmount, address investor, uint256 sAmount, bool paidIn) override external onlyPool(poolId, msg.sender) {\r\n        uint256 index = subscriberIndex[poolId][investor];\r\n        uint256 amount = _downscaleDown(cAmount, _computeScalingFactor(IERC20(asset)));\r\n        emit subscribers(poolSecurity[poolId], poolId, investor, asset, amount, sAmount, block.timestamp, paidIn);\r\n        if(paidIn){\r\n            subscribed[poolId][asset] = Math.add(subscribed[poolId][asset], amount);\r\n            if(index==0){\r\n                IMarketMaker.subscriptions memory subscription = IMarketMaker.subscriptions({\r\n                    investor: investor,\r\n                    asset: asset,\r\n                    name: ERC20(asset).name(),\r\n                    amount: amount,\r\n                    traded: _downscaleDown(sAmount, _computeScalingFactor(IERC20(security)))\r\n                });\r\n                investors[poolId].push(subscription);   \r\n                subscriberIndex[poolId][investor] = investors[poolId].length; \r\n            }\r\n            else{\r\n                IMarketMaker.subscriptions storage subscription = investors[poolId][index-1];\r\n                if(subscription.investor==investor){\r\n                    subscription.amount = Math.add(subscription.amount, amount);\r\n                    subscription.traded = Math.add(subscription.traded, _downscaleDown(sAmount, _computeScalingFactor(IERC20(security))));\r\n                }\r\n            }        \r\n        }\r\n        else{\r\n            if(index > 0){\r\n                IMarketMaker.subscriptions storage subscription = investors[poolId][index-1];\r\n                if(subscription.investor==investor){\r\n                    subscription.amount = Math.sub(subscription.amount, amount);\r\n                    subscription.traded = Math.sub(subscription.traded, _downscaleDown(sAmount, _computeScalingFactor(IERC20(security))));\r\n                }\r\n                if(subscribed[poolId][asset] >= amount)\r\n                    subscribed[poolId][asset] = Math.sub(subscribed[poolId][asset], amount);\r\n            }\r\n        }\r\n    }\r\n\r\n    /**\r\n        Fetches investors (subscribers) to a primary issue pool\r\n        @param   poolId identifier for a primary issue pool for which subscribers are to be returned\r\n     */\r\n    function getSubscribers(bytes32 poolId) override external view onlyIssueManager(msg.sender, poolSecurity[poolId]) returns(IMarketMaker.subscriptions[] memory){\r\n        return investors[poolId];\r\n    }\r\n\r\n    /**\r\n        Called by issuer to close subscription of 'security' issued by it\r\n        @param  security    address of security token\r\n     */  \r\n    function close(address security) override external onlyIssueManager(msg.sender, security) {\r\n        address currency;\r\n        bytes32 poolId;\r\n        uint256 length = issues[security].pools.length;\r\n        for(uint256 i=0; i<length; i++){  \r\n            poolId = issues[security].pools[i];\r\n            currency = IPrimaryIssuePool(pools[poolId]).getCurrency(); \r\n            // exit the pool here   \r\n            (IERC20[] memory tokens, , ) = IVault(vault).getPoolTokens(poolId);\r\n            IAsset[] memory assets = _convertERC20sToAssets(tokens);\r\n            uint256[] memory amountsOut = new uint256[](tokens.length);\r\n            IVault.ExitPoolRequest memory request = IVault.ExitPoolRequest({\r\n                assets: assets,\r\n                minAmountsOut: amountsOut,\r\n                userData: abi.encode(ExitKind.EXACT_BPT_IN_FOR_TOKENS_OUT, _INITIAL_BPT_SUPPLY - _DEFAULT_MINIMUM_BPT),\r\n                toInternalBalance: false\r\n            });         \r\n            IVault(vault).exitPool(poolId, address(this), payable(address(this)), request);\r\n            emit closures(poolId, security, block.timestamp);\r\n            IERC20(security).transfer(issues[security].issuer, IERC20(security).balanceOf(address(this)));\r\n        }\r\n    }    \r\n\r\n    /**\r\n        Called by issuer to accept subscription to issue by investor\r\n        @param  poolid      identifier of primary issue pool in which subscription is made by investor\r\n        @param  investor    address of investor (subscriber)\r\n        @param  amnt        amount of investment (subscription capital) accepted by issuer for which allotment of security tokens are made to investor\r\n        @param  asset       address of asset which is used by investor to subscribe to the issue\r\n     */ \r\n    function accept(bytes32 poolid, address investor, uint256 amnt, address asset) override external onlyIssueManager(msg.sender, poolSecurity[poolid]) {\r\n        onAccept(poolid, investor, amnt, asset);\r\n    }\r\n        \r\n    function onAccept(bytes32 poolid, address investor, uint256 amnt, address asset) private {\r\n        uint256 i = subscriberIndex[poolid][investor];\r\n        require(i>0, \"No subscriber found\");\r\n        i = i-1;\r\n        require(investors[poolid][i].investor==investor, \"Invalid allotment subscriber\");\r\n        require(investors[poolid][i].amount >= amnt, \"Incorrect allotment amount\");\r\n        \r\n        uint256 prorataAllotment;\r\n        uint256 securitiesAlloted;\r\n        uint256 securityReturned;\r\n        uint256 cashRefund;\r\n        // transfer subscriptions for allotments to asset manager for asset subscribed with\r\n        address issued = IPrimaryIssuePool(pools[poolid]).getSecurity();\r\n        // refund balance to investors\r\n        prorataAllotment = FixedPoint.divDown(amnt, investors[poolid][i].amount);\r\n        investors[poolid][i].amount = Math.sub(investors[poolid][i].amount, amnt);\r\n        cashRefund = investors[poolid][i].amount;\r\n        securityReturned = Math.sub(investors[poolid][i].traded, FixedPoint.mulDown(investors[poolid][i].traded, prorataAllotment));\r\n        securitiesAlloted = Math.add(securitiesAlloted, FixedPoint.mulDown(investors[poolid][i].traded, prorataAllotment));          \r\n        subscribed[poolid][asset] = Math.sub(subscribed[poolid][asset], cashRefund);\r\n        emit refunds(poolid, investor, issued, securityReturned, asset, cashRefund, block.timestamp);                                \r\n        subscriberIndex[poolid][investor] = 0;\r\n        emit allotments(poolid, investor, issued, securitiesAlloted, asset, amnt, block.timestamp);\r\n\r\n        IERC20(issued).transferFrom(investor, mmtokens[issued][asset][0].owner, securityReturned);\r\n        IERC20(asset).transfer(investor, cashRefund);\r\n    }\r\n    \r\n    /**\r\n        Called by issuer to reject subscription to issue by investor\r\n        @param  poolid      identifier for primary issue pool to which investor has subscribed\r\n        @param  investor    address of investor (subscriber)\r\n     */ \r\n    function reject(bytes32 poolid, address investor) override external onlyIssueManager(msg.sender, poolSecurity[poolid]) {\r\n        uint256 i = subscriberIndex[poolid][investor];\r\n        require(i>0, \"No subscriber found\");\r\n        i = i-1;\r\n        require(investors[poolid][i].investor==investor, \"Incorrect subscriber for refund\");\r\n        \r\n        address issuedSecurity = poolSecurity[poolid];\r\n        address currencySubscribed = investors[poolid][i].asset;         \r\n        subscribed[poolid][currencySubscribed] = Math.sub(subscribed[poolid][currencySubscribed], investors[poolid][i].amount);\r\n        emit refunds(poolid, investor, issuedSecurity, investors[poolid][i].traded, currencySubscribed, investors[poolid][i].amount, block.timestamp);              \r\n        subscriberIndex[poolid][investor] = 0;    \r\n        IERC20(issuedSecurity).transferFrom(investor, mmtokens[issuedSecurity][currencySubscribed][0].owner, investors[poolid][i].traded);\r\n        IERC20(currencySubscribed).transfer(investor, investors[poolid][i].amount);                 \r\n    }    \r\n    \r\n    /**\r\n        Called by product issuer to settle distribution of fee income arising from investment underwritten in the primary issue pool\r\n        @param  poolId  identifier for primary issue pool\r\n     */  \r\n    function settle(bytes32 poolId) override external onlyIssueManager(msg.sender, poolSecurity[poolId]) {\r\n        (, , revshare,) = IDistribution(distribution).getRevenueShares();\r\n        onSettle(poolId);\r\n    }\r\n    \r\n    function onSettle(bytes32 poolId) private {        \r\n        address currency = IPrimaryIssuePool(pools[poolId]).getCurrency(); \r\n        address issuer = mmtokens[poolSecurity[poolId]][currency][0].owner;\r\n        uint256 subscription = _upscale(subscribed[poolId][currency], _computeScalingFactor(IERC20(currency)));\r\n        uint256 issuingFee = customFee[poolSecurity[poolId]][currency]==0 ? FixedPoint.mulDown(subscription, swapFeePercentage) \r\n                                                : FixedPoint.mulDown(subscription, customFee[poolSecurity[poolId]][currency]);\r\n        uint256 prorataLiquidityProvided =0;\r\n        uint256 underwritingFee = 0;        \r\n        for(uint i=0; i<liquidityProviders[poolSecurity[poolId]].length; i++){\r\n            prorataLiquidityProvided = FixedPoint.divDown(liquidityProviders[poolSecurity[poolId]][i].underwritten, totalUnderwritten[poolSecurity[poolId]]);\r\n            underwritingFee = FixedPoint.divDown(FixedPoint.mulDown(issuingFee, prorataLiquidityProvided), _computeScalingFactor(IERC20(currency)));\r\n            ILiquidity(LiquidityContract).distribute(underwritingFee, \r\n                                                    liquidityProviders[poolSecurity[poolId]][i].tokenOffered,\r\n                                                    liquidityProviders[poolSecurity[poolId]][i].owner);\r\n            IERC20(currency).transfer(liquidityProviders[poolSecurity[poolId]][i].owner, FixedPoint.mulDown(underwritingFee, revshare));\r\n            liquidityProviders[poolSecurity[poolId]][i].earned = Math.add(liquidityProviders[poolSecurity[poolId]][i].earned, underwritingFee);\r\n            prorataLiquidityProvided = FixedPoint.divDown(FixedPoint.mulDown(prorataLiquidityProvided, Math.sub(subscription, issuingFee)), _computeScalingFactor(IERC20(currency)));\r\n            SafeMath.add(liquidityProviders[poolSecurity[poolId]][i].subscribed, prorataLiquidityProvided);\r\n            emit settlements(poolId, poolSecurity[poolId], currency, liquidityProviders[poolSecurity[poolId]][i].owner, underwritingFee, issuer, prorataLiquidityProvided);\r\n        }\r\n        issuingFee = FixedPoint.divDown(issuingFee, _computeScalingFactor(IERC20(currency)));\r\n        fees[currency] = Math.add(fees[currency], FixedPoint.sub(issuingFee, FixedPoint.mulDown(issuingFee, revshare)));\r\n        IERC20(currency).transfer(issuer, Math.sub(subscribed[poolId][currency], issuingFee));\r\n        delete investors[poolId];                 \r\n    }   \r\n\r\n    function getIssuingFeeCollected(address _token) override external returns(uint256){\r\n        require(msg.sender==distribution, \"Unauthorized fee collection\");\r\n        uint256 feeCollected = fees[_token];        \r\n        fees[_token] = Math.sub(fees[_token], feeCollected);\r\n        IERC20(_token).transfer(distribution, feeCollected);\r\n        emit feecollection(address(this), feeCollected, block.timestamp);\r\n        return feeCollected;\r\n    }\r\n\r\n    function getOwner() override external view returns(address){\r\n        return owner();\r\n    }\r\n\r\n    /**\r\n     * @dev This helper function is a fast and cheap way to convert between IERC20[] and IAsset[] types\r\n     */\r\n    function _convertERC20sToAssets(IERC20[] memory tokens) internal pure returns (IAsset[] memory assets) {\r\n        // solhint-disable-next-line no-inline-assembly\r\n        assembly {\r\n            assets := tokens\r\n        }\r\n    }\r\n\r\n    /**\r\n     * @dev Returns a scaling factor that, when multiplied to a token amount for `token`, normalizes its balance as if\r\n     * it had 18 decimals.\r\n     */\r\n    function _computeScalingFactor(IERC20 token) internal view returns (uint256) {\r\n        // Tokens that don't implement the `decimals` method are not supported.\r\n        uint256 tokenDecimals = ERC20(address(token)).decimals();\r\n\r\n        // Tokens with more than 18 decimals are not supported.\r\n        uint256 decimalsDifference = Math.sub(18, tokenDecimals);\r\n        return FixedPoint.ONE * 10**decimalsDifference;\r\n    }\r\n\r\n    /**\r\n     * @dev Reverses the `scalingFactor` applied to `amount`, resulting in a smaller or equal value depending on\r\n     * whether it needed scaling or not. The result is rounded down.\r\n     */\r\n    function _downscaleDown(uint256 amount, uint256 scalingFactor) internal pure returns (uint256) {\r\n        return FixedPoint.divDown(amount, scalingFactor);\r\n    }\r\n\r\n    /**\r\n     * @dev Applies `scalingFactor` to `amount`, resulting in a larger or equal value depending on whether it needed\r\n     * scaling or not.\r\n     */\r\n    function _upscale(uint256 amount, uint256 scalingFactor) internal pure returns (uint256) {\r\n        // Upscale rounding wouldn't necessarily always go in the same direction: in a swap for example the balance of\r\n        // token in should be rounded up, and that of token out rounded down. This is the only place where we round in\r\n        // the same direction for all amounts, as the impact of this rounding is expected to be minimal (and there's no\r\n        // rounding error unless `_scalingFactor()` is overriden).\r\n        return FixedPoint.mulDown(amount, scalingFactor);\r\n    }\r\n\r\n}",
  "sourcePath": "D:\\Code\\verified-balancer\\contracts\\PrimaryIssueManager.sol",
  "compiler": {
    "name": "solc",
    "version": "0.7.1+commit.f4a555be.Emscripten.clang"
  },
  "schemaVersion": "3.4.3",
  "updatedAt": "2023-08-02T18:12:36.607Z",
  "devdoc": {
    "kind": "dev",
    "methods": {
      "accept(bytes32,address,uint256,address)": {
        "params": {
          "amnt": "amount of investment (subscription capital) accepted by issuer for which allotment of security tokens are made to investor",
          "asset": "address of asset which is used by investor to subscribe to the issue",
          "investor": "address of investor (subscriber)",
          "poolid": "identifier of primary issue pool in which subscription is made by investor"
        }
      },
      "close(address)": {
        "params": {
          "security": "address of security token"
        }
      },
      "getAllotedStake(address)": {
        "params": {
          "_token": "address of token allocated earlier to asset manager (message sender)"
        }
      },
      "getLiquidityProviders(address)": {
        "params": {
          "_security": "identifier for the security token offered"
        }
      },
      "getOfferMade(address,address)": {
        "params": {
          "_owned": "address of token offered",
          "_tomatch": "address of token to match"
        }
      },
      "getOffered(address)": {
        "params": {
          "offered": "address of offered token"
        }
      },
      "getSubscribers(bytes32)": {
        "params": {
          "poolId": "identifier for a primary issue pool for which subscribers are to be returned"
        }
      },
      "initialize(address,uint256,address,address,address,address,address)": {
        "params": {
          "_factory": "reference to the primary issue pool factory contract",
          "_products": "reference to the Verified Products contract that this contract reports created primary issue pools to",
          "_swapFeePercentage": "percentage of trading fee to be charged by the asset manager",
          "_vault": "reference to the Balancer vault"
        }
      },
      "issue(address,uint256,address)": {
        "params": {
          "cutoffTime": "time in milliseconds by when offer closes",
          "security": "security offered to the primary issue pool"
        }
      },
      "offer(address,bytes32,uint256,address,uint256,uint256,address,string)": {
        "params": {
          "desired": "is the amount required of the liquidity token to be paired",
          "docs": "is the ipfs address of the offering docs",
          "isin": "is the identifier for the security token offered",
          "min": "is the minimum amount to be swapped of the 'offered' token ",
          "offered": "is the amount offered",
          "owned": "is the security or settlement token on offer ",
          "owner": "is the current holder of the owned token that is offered",
          "tomatch": "is the liquidity token that is required to be paired"
        }
      },
      "owner()": {
        "details": "Returns the address of the current owner."
      },
      "reject(bytes32,address)": {
        "params": {
          "investor": "address of investor (subscriber)",
          "poolid": "identifier for primary issue pool to which investor has subscribed"
        }
      },
      "renounceOwnership()": {
        "details": "Leaves the contract without owner. It will not be possible to call `onlyOwner` functions anymore. Can only be called by the current owner. NOTE: Renouncing ownership will leave the contract without an owner, thereby removing any functionality that is only available to the owner."
      },
      "settle(bytes32)": {
        "params": {
          "poolId": "identifier for primary issue pool"
        }
      },
      "stake(uint256,address,address)": {
        "params": {
          "_amount": "amount of tokens staked to provide liquidity for underwriting investments in tokenized securities",
          "_manager": "address of asset manager",
          "_token": "address of token staked"
        }
      },
      "transferOwnership(address)": {
        "details": "Transfers ownership of the contract to a new account (`newOwner`). Can only be called by the current owner."
      }
    },
    "version": 1
  },
  "userdoc": {
    "kind": "user",
    "methods": {
      "accept(bytes32,address,uint256,address)": {
        "notice": "Called by issuer to accept subscription to issue by investor"
      },
      "close(address)": {
        "notice": "Called by issuer to close subscription of 'security' issued by it"
      },
      "getAllotedStake(address)": {
        "notice": "Gets liquidity allotted for asset manager (message sender)"
      },
      "getLiquidityProviders(address)": {
        "notice": "Fetches liquidity providers for a security token"
      },
      "getOfferMade(address,address)": {
        "notice": "Gets offer made previously"
      },
      "getOffered(address)": {
        "notice": "Gets tokens to match for offered token"
      },
      "getSubscribers(bytes32)": {
        "notice": "Fetches investors (subscribers) to a primary issue pool"
      },
      "initialize(address,uint256,address,address,address,address,address)": {
        "notice": "Initializes this asset management contract"
      },
      "issue(address,uint256,address)": {
        "notice": "Called by issuer of 'security' token to open an issue which will last till 'cutoffTime'"
      },
      "offer(address,bytes32,uint256,address,uint256,uint256,address,string)": {
        "notice": "Called by market maker and issuer for adding liquidity"
      },
      "reject(bytes32,address)": {
        "notice": "Called by issuer to reject subscription to issue by investor"
      },
      "settle(bytes32)": {
        "notice": "Called by product issuer to settle distribution of fee income arising from investment underwritten in the primary issue pool"
      },
      "stake(uint256,address,address)": {
        "notice": "Called by Liquidity token contract to stake tokens by investors"
      }
    },
    "version": 1
  }
}