{
  "address": "0x7d27C66e3a8015e6B1fDA17FfAB4DD8dc36bf0C2",
  "abi": [
    {
      "inputs": [],
      "name": "DECIMAL_PRECISION",
      "outputs": [
        {
          "internalType": "uint256",
          "name": "",
          "type": "uint256"
        }
      ],
      "stateMutability": "view",
      "type": "function"
    },
    {
      "inputs": [
        {
          "internalType": "address",
          "name": "_vaultFactory",
          "type": "address"
        }
      ],
      "name": "getAllVaults",
      "outputs": [
        {
          "internalType": "address[]",
          "name": "",
          "type": "address[]"
        }
      ],
      "stateMutability": "view",
      "type": "function"
    },
    {
      "inputs": [
        {
          "internalType": "address",
          "name": "_vaultFactory",
          "type": "address"
        }
      ],
      "name": "getLiquidatableVaults",
      "outputs": [
        {
          "internalType": "address[]",
          "name": "",
          "type": "address[]"
        }
      ],
      "stateMutability": "view",
      "type": "function"
    },
    {
      "inputs": [
        {
          "internalType": "address",
          "name": "_vaultFactory",
          "type": "address"
        }
      ],
      "name": "getProtocolTvl",
      "outputs": [
        {
          "internalType": "uint256",
          "name": "",
          "type": "uint256"
        }
      ],
      "stateMutability": "view",
      "type": "function"
    },
    {
      "inputs": [
        {
          "internalType": "address",
          "name": "_vault",
          "type": "address"
        }
      ],
      "name": "getVaultTvl",
      "outputs": [
        {
          "internalType": "uint256",
          "name": "",
          "type": "uint256"
        }
      ],
      "stateMutability": "view",
      "type": "function"
    },
    {
      "inputs": [
        {
          "internalType": "address",
          "name": "_vaultAddress",
          "type": "address"
        },
        {
          "internalType": "address",
          "name": "_collateralAddress",
          "type": "address"
        }
      ],
      "name": "getVaultTvlByCollateral",
      "outputs": [
        {
          "internalType": "uint256",
          "name": "",
          "type": "uint256"
        }
      ],
      "stateMutability": "view",
      "type": "function"
    }
  ],
  "transactionHash": "0x8419a1fc5a5c7577c6166449dbe68695642db2d806d70ff7f16eeec6a6994514",
  "args": [],
  "numDeployments": 1,
  "solcInputHash": "3d7ac3cd8c655c7d05e6510673d0ef5d",
  "bytecode": "0x608060405234801561001057600080fd5b50610da3806100206000396000f3fe608060405234801561001057600080fd5b50600436106100725760003560e01c80637e966cae116100505780637e966cae146100c3578063a20baee6146100e3578063a2e5437c146100f257600080fd5b80633e3e50a21461007757806347d700101461009d5780636cd66aa2146100b0575b600080fd5b61008a610085366004610ac1565b610105565b6040519081526020015b60405180910390f35b61008a6100ab366004610ac1565b6101e9565b61008a6100be366004610ae5565b610311565b6100d66100d1366004610ac1565b6105c5565b6040516100949190610b1e565b61008a670de0b6b3a764000081565b6100d6610100366004610ac1565b61085f565b6000808290506000816001600160a01b031663a7c6a1006040518163ffffffff1660e01b8152600401602060405180830381865afa15801561014b573d6000803e3d6000fd5b505050506040513d601f19601f8201168201806040525081019061016f9190610b6b565b905060008160000361018657506000949350505050565b60006101918661085f565b905060005b838110156101de576101c08282815181106101b3576101b3610b84565b60200260200101516101e9565b6101ca9084610bb0565b9250806101d681610bc3565b915050610196565b509095945050505050565b60008181805b826001600160a01b03166329ad2fb26040518163ffffffff1660e01b8152600401602060405180830381865afa15801561022d573d6000803e3d6000fd5b505050506040513d601f19601f820116820180604052508101906102519190610b6b565b811015610309576040517f1f665646000000000000000000000000000000000000000000000000000000008152600481018290526000906001600160a01b03851690631f66564690602401602060405180830381865afa1580156102b9573d6000803e3d6000fd5b505050506040513d601f19601f820116820180604052508101906102dd9190610bdc565b90506102e98682610311565b6102f39084610bb0565b925050808061030190610bc3565b9150506101ef565b509392505050565b6040517fa5fdc5de0000000000000000000000000000000000000000000000000000000081526001600160a01b038281166004830152600091849183919083169063a5fdc5de90602401602060405180830381865afa158015610378573d6000803e3d6000fd5b505050506040513d601f19601f8201168201806040525081019061039c9190610b6b565b90506000826001600160a01b031663c45a01556040518163ffffffff1660e01b8152600401602060405180830381865afa1580156103de573d6000803e3d6000fd5b505050506040513d601f19601f820116820180604052508101906104029190610bdc565b6001600160a01b031663741bef1a6040518163ffffffff1660e01b8152600401602060405180830381865afa15801561043f573d6000803e3d6000fd5b505050506040513d601f19601f820116820180604052508101906104639190610bdc565b6040517f84ba3f690000000000000000000000000000000000000000000000000000000081526001600160a01b0387811660048301529192506000918316906384ba3f6990602401602060405180830381865afa1580156104c8573d6000803e3d6000fd5b505050506040513d601f19601f820116820180604052508101906104ec9190610b6b565b6040517fd449a8320000000000000000000000000000000000000000000000000000000081526001600160a01b03888116600483015291925060009184169063d449a83290602401602060405180830381865afa158015610551573d6000803e3d6000fd5b505050506040513d601f19601f820116820180604052508101906105759190610b6b565b610580906012610bf9565b61058b90600a610cf0565b6105959085610cfc565b90506000670de0b6b3a76400006105ac8484610cfc565b6105b69190610d13565b96505050505050505b92915050565b606060008290506000816001600160a01b031663a7c6a1006040518163ffffffff1660e01b8152600401602060405180830381865afa15801561060c573d6000803e3d6000fd5b505050506040513d601f19601f820116820180604052508101906106309190610b6b565b90506000816000036106545750506040805160008152602081019091529392505050565b600061065f8661085f565b905060008367ffffffffffffffff81111561067c5761067c610d35565b6040519080825280602002602001820160405280156106a5578160200160208202803683370190505b50905060005b848110156107aa5760008382815181106106c7576106c7610b84565b60209081029190910101516040517f042e02cf0000000000000000000000000000000000000000000000000000000081526001600160a01b0380831660048301529192509088169063042e02cf90602401602060405180830381865afa158015610735573d6000803e3d6000fd5b505050506040513d601f19601f820116820180604052508101906107599190610d4b565b15610797578083868151811061077157610771610b84565b6001600160a01b03909216602092830291909101909101528461079381610bc3565b9550505b50806107a281610bc3565b9150506106ab565b5060008367ffffffffffffffff8111156107c6576107c6610d35565b6040519080825280602002602001820160405280156107ef578160200160208202803683370190505b50905060005b848110156108535782818151811061080f5761080f610b84565b602002602001015182828151811061082957610829610b84565b6001600160a01b03909216602092830291909101909101528061084b81610bc3565b9150506107f5565b50979650505050505050565b606060008290506000816001600160a01b031663a7c6a1006040518163ffffffff1660e01b8152600401602060405180830381865afa1580156108a6573d6000803e3d6000fd5b505050506040513d601f19601f820116820180604052508101906108ca9190610b6b565b9050806000036108ef5760408051600080825260208201909252905b50949350505050565b60008167ffffffffffffffff81111561090a5761090a610d35565b604051908082528060200260200182016040528015610933578160200160208202803683370190505b509050826001600160a01b03166396f57b6e6040518163ffffffff1660e01b8152600401602060405180830381865afa158015610974573d6000803e3d6000fd5b505050506040513d601f19601f820116820180604052508101906109989190610bdc565b816000815181106109ab576109ab610b84565b6001600160a01b039092166020928302919091019091015260015b828110156108e6576001600160a01b038416635b8b5770836109e9600185610bf9565b815181106109f9576109f9610b84565b60200260200101516040518263ffffffff1660e01b8152600401610a2c91906001600160a01b0391909116815260200190565b602060405180830381865afa158015610a49573d6000803e3d6000fd5b505050506040513d601f19601f82011682018060405250810190610a6d9190610bdc565b828281518110610a7f57610a7f610b84565b6001600160a01b039092166020928302919091019091015280610aa181610bc3565b9150506109c6565b6001600160a01b0381168114610abe57600080fd5b50565b600060208284031215610ad357600080fd5b8135610ade81610aa9565b9392505050565b60008060408385031215610af857600080fd5b8235610b0381610aa9565b91506020830135610b1381610aa9565b809150509250929050565b6020808252825182820181905260009190848201906040850190845b81811015610b5f5783516001600160a01b031683529284019291840191600101610b3a565b50909695505050505050565b600060208284031215610b7d57600080fd5b5051919050565b634e487b7160e01b600052603260045260246000fd5b634e487b7160e01b600052601160045260246000fd5b808201808211156105bf576105bf610b9a565b600060018201610bd557610bd5610b9a565b5060010190565b600060208284031215610bee57600080fd5b8151610ade81610aa9565b818103818111156105bf576105bf610b9a565b600181815b80851115610c47578160001904821115610c2d57610c2d610b9a565b80851615610c3a57918102915b93841c9390800290610c11565b509250929050565b600082610c5e575060016105bf565b81610c6b575060006105bf565b8160018114610c815760028114610c8b57610ca7565b60019150506105bf565b60ff841115610c9c57610c9c610b9a565b50506001821b6105bf565b5060208310610133831016604e8410600b8410161715610cca575081810a6105bf565b610cd48383610c0c565b8060001904821115610ce857610ce8610b9a565b029392505050565b6000610ade8383610c4f565b80820281158282048414176105bf576105bf610b9a565b600082610d3057634e487b7160e01b600052601260045260246000fd5b500490565b634e487b7160e01b600052604160045260246000fd5b600060208284031215610d5d57600080fd5b81518015158114610ade57600080fdfea2646970667358221220678b49ac0fe80b3f79ddea5a167aaa0c40b34bd5d21e1978b1dc40c6684c5f2864736f6c63430008130033",
  "devdoc": {
    "kind": "dev",
    "methods": {},
    "version": 1
  },
  "userdoc": {
    "kind": "user",
    "methods": {},
    "version": 1
  },
  "storageLayout": {
    "storage": [],
    "types": null
  }
}