{"abi":[{"type":"constructor","inputs":[{"name":"_name","type":"string","internalType":"string"},{"name":"_symbol","type":"string","internalType":"string"},{"name":"_sharedDecimals","type":"uint8","internalType":"uint8"},{"name":"_lzEndpoint","type":"address","internalType":"address"}],"stateMutability":"nonpayable"},{"type":"function","name":"DEFAULT_PAYLOAD_SIZE_LIMIT","inputs":[],"outputs":[{"name":"","type":"uint256","internalType":"uint256"}],"stateMutability":"view"},{"type":"function","name":"NO_EXTRA_GAS","inputs":[],"outputs":[{"name":"","type":"uint256","internalType":"uint256"}],"stateMutability":"view"},{"type":"function","name":"PT_SEND","inputs":[],"outputs":[{"name":"","type":"uint8","internalType":"uint8"}],"stateMutability":"view"},{"type":"function","name":"PT_SEND_AND_CALL","inputs":[],"outputs":[{"name":"","type":"uint8","internalType":"uint8"}],"stateMutability":"view"},{"type":"function","name":"allowance","inputs":[{"name":"owner","type":"address","internalType":"address"},{"name":"spender","type":"address","internalType":"address"}],"outputs":[{"name":"","type":"uint256","internalType":"uint256"}],"stateMutability":"view"},{"type":"function","name":"approve","inputs":[{"name":"spender","type":"address","internalType":"address"},{"name":"value","type":"uint256","internalType":"uint256"}],"outputs":[{"name":"","type":"bool","internalType":"bool"}],"stateMutability":"nonpayable"},{"type":"function","name":"balanceOf","inputs":[{"name":"account","type":"address","internalType":"address"}],"outputs":[{"name":"","type":"uint256","internalType":"uint256"}],"stateMutability":"view"},{"type":"function","name":"burn","inputs":[{"name":"_from","type":"address","internalType":"address"},{"name":"_amount","type":"uint256","internalType":"uint256"}],"outputs":[],"stateMutability":"nonpayable"},{"type":"function","name":"callOnOFTReceived","inputs":[{"name":"_srcChainId","type":"uint16","internalType":"uint16"},{"name":"_srcAddress","type":"bytes","internalType":"bytes"},{"name":"_nonce","type":"uint64","internalType":"uint64"},{"name":"_from","type":"bytes32","internalType":"bytes32"},{"name":"_to","type":"address","internalType":"address"},{"name":"_amount","type":"uint256","internalType":"uint256"},{"name":"_payload","type":"bytes","internalType":"bytes"},{"name":"_gasForCall","type":"uint256","internalType":"uint256"}],"outputs":[],"stateMutability":"nonpayable"},{"type":"function","name":"circulatingSupply","inputs":[],"outputs":[{"name":"","type":"uint256","internalType":"uint256"}],"stateMutability":"view"},{"type":"function","name":"creditedPackets","inputs":[{"name":"","type":"uint16","internalType":"uint16"},{"name":"","type":"bytes","internalType":"bytes"},{"name":"","type":"uint64","internalType":"uint64"}],"outputs":[{"name":"","type":"bool","internalType":"bool"}],"stateMutability":"view"},{"type":"function","name":"decimals","inputs":[],"outputs":[{"name":"","type":"uint8","internalType":"uint8"}],"stateMutability":"view"},{"type":"function","name":"estimateSendAndCallFee","inputs":[{"name":"_dstChainId","type":"uint16","internalType":"uint16"},{"name":"_toAddress","type":"bytes32","internalType":"bytes32"},{"name":"_amount","type":"uint256","internalType":"uint256"},{"name":"_payload","type":"bytes","internalType":"bytes"},{"name":"_dstGasForCall","type":"uint64","internalType":"uint64"},{"name":"_useZro","type":"bool","internalType":"bool"},{"name":"_adapterParams","type":"bytes","internalType":"bytes"}],"outputs":[{"name":"nativeFee","type":"uint256","internalType":"uint256"},{"name":"zroFee","type":"uint256","internalType":"uint256"}],"stateMutability":"view"},{"type":"function","name":"estimateSendFee","inputs":[{"name":"_dstChainId","type":"uint16","internalType":"uint16"},{"name":"_toAddress","type":"bytes32","internalType":"bytes32"},{"name":"_amount","type":"uint256","internalType":"uint256"},{"name":"_useZro","type":"bool","internalType":"bool"},{"name":"_adapterParams","type":"bytes","internalType":"bytes"}],"outputs":[{"name":"nativeFee","type":"uint256","internalType":"uint256"},{"name":"zroFee","type":"uint256","internalType":"uint256"}],"stateMutability":"view"},{"type":"function","name":"failedMessages","inputs":[{"name":"","type":"uint16","internalType":"uint16"},{"name":"","type":"bytes","internalType":"bytes"},{"name":"","type":"uint64","internalType":"uint64"}],"outputs":[{"name":"","type":"bytes32","internalType":"bytes32"}],"stateMutability":"view"},{"type":"function","name":"forceResumeReceive","inputs":[{"name":"_srcChainId","type":"uint16","internalType":"uint16"},{"name":"_srcAddress","type":"bytes","internalType":"bytes"}],"outputs":[],"stateMutability":"nonpayable"},{"type":"function","name":"getConfig","inputs":[{"name":"_version","type":"uint16","internalType":"uint16"},{"name":"_chainId","type":"uint16","internalType":"uint16"},{"name":"","type":"address","internalType":"address"},{"name":"_configType","type":"uint256","internalType":"uint256"}],"outputs":[{"name":"","type":"bytes","internalType":"bytes"}],"stateMutability":"view"},{"type":"function","name":"getTrustedRemoteAddress","inputs":[{"name":"_remoteChainId","type":"uint16","internalType":"uint16"}],"outputs":[{"name":"","type":"bytes","internalType":"bytes"}],"stateMutability":"view"},{"type":"function","name":"isTrustedRemote","inputs":[{"name":"_srcChainId","type":"uint16","internalType":"uint16"},{"name":"_srcAddress","type":"bytes","internalType":"bytes"}],"outputs":[{"name":"","type":"bool","internalType":"bool"}],"stateMutability":"view"},{"type":"function","name":"lzEndpoint","inputs":[],"outputs":[{"name":"","type":"address","internalType":"contract ILayerZeroEndpoint"}],"stateMutability":"view"},{"type":"function","name":"lzReceive","inputs":[{"name":"_srcChainId","type":"uint16","internalType":"uint16"},{"name":"_srcAddress","type":"bytes","internalType":"bytes"},{"name":"_nonce","type":"uint64","internalType":"uint64"},{"name":"_payload","type":"bytes","internalType":"bytes"}],"outputs":[],"stateMutability":"nonpayable"},{"type":"function","name":"minDstGasLookup","inputs":[{"name":"","type":"uint16","internalType":"uint16"},{"name":"","type":"uint16","internalType":"uint16"}],"outputs":[{"name":"","type":"uint256","internalType":"uint256"}],"stateMutability":"view"},{"type":"function","name":"mint","inputs":[{"name":"_to","type":"address","internalType":"address"},{"name":"_amount","type":"uint256","internalType":"uint256"}],"outputs":[],"stateMutability":"nonpayable"},{"type":"function","name":"name","inputs":[],"outputs":[{"name":"","type":"string","internalType":"string"}],"stateMutability":"view"},{"type":"function","name":"nonblockingLzReceive","inputs":[{"name":"_srcChainId","type":"uint16","internalType":"uint16"},{"name":"_srcAddress","type":"bytes","internalType":"bytes"},{"name":"_nonce","type":"uint64","internalType":"uint64"},{"name":"_payload","type":"bytes","internalType":"bytes"}],"outputs":[],"stateMutability":"nonpayable"},{"type":"function","name":"owner","inputs":[],"outputs":[{"name":"","type":"address","internalType":"address"}],"stateMutability":"view"},{"type":"function","name":"payloadSizeLimitLookup","inputs":[{"name":"","type":"uint16","internalType":"uint16"}],"outputs":[{"name":"","type":"uint256","internalType":"uint256"}],"stateMutability":"view"},{"type":"function","name":"precrime","inputs":[],"outputs":[{"name":"","type":"address","internalType":"address"}],"stateMutability":"view"},{"type":"function","name":"renounceOwnership","inputs":[],"outputs":[],"stateMutability":"nonpayable"},{"type":"function","name":"retryMessage","inputs":[{"name":"_srcChainId","type":"uint16","internalType":"uint16"},{"name":"_srcAddress","type":"bytes","internalType":"bytes"},{"name":"_nonce","type":"uint64","internalType":"uint64"},{"name":"_payload","type":"bytes","internalType":"bytes"}],"outputs":[],"stateMutability":"payable"},{"type":"function","name":"sendAndCall","inputs":[{"name":"_from","type":"address","internalType":"address"},{"name":"_dstChainId","type":"uint16","internalType":"uint16"},{"name":"_toAddress","type":"bytes32","internalType":"bytes32"},{"name":"_amount","type":"uint256","internalType":"uint256"},{"name":"_payload","type":"bytes","internalType":"bytes"},{"name":"_dstGasForCall","type":"uint64","internalType":"uint64"},{"name":"_callParams","type":"tuple","internalType":"struct ICommonOFT.LzCallParams","components":[{"name":"refundAddress","type":"address","internalType":"address payable"},{"name":"zroPaymentAddress","type":"address","internalType":"address"},{"name":"adapterParams","type":"bytes","internalType":"bytes"}]}],"outputs":[],"stateMutability":"payable"},{"type":"function","name":"sendFrom","inputs":[{"name":"_from","type":"address","internalType":"address"},{"name":"_dstChainId","type":"uint16","internalType":"uint16"},{"name":"_toAddress","type":"bytes32","internalType":"bytes32"},{"name":"_amount","type":"uint256","internalType":"uint256"},{"name":"_callParams","type":"tuple","internalType":"struct ICommonOFT.LzCallParams","components":[{"name":"refundAddress","type":"address","internalType":"address payable"},{"name":"zroPaymentAddress","type":"address","internalType":"address"},{"name":"adapterParams","type":"bytes","internalType":"bytes"}]}],"outputs":[],"stateMutability":"payable"},{"type":"function","name":"setConfig","inputs":[{"name":"_version","type":"uint16","internalType":"uint16"},{"name":"_chainId","type":"uint16","internalType":"uint16"},{"name":"_configType","type":"uint256","internalType":"uint256"},{"name":"_config","type":"bytes","internalType":"bytes"}],"outputs":[],"stateMutability":"nonpayable"},{"type":"function","name":"setMinDstGas","inputs":[{"name":"_dstChainId","type":"uint16","internalType":"uint16"},{"name":"_packetType","type":"uint16","internalType":"uint16"},{"name":"_minGas","type":"uint256","internalType":"uint256"}],"outputs":[],"stateMutability":"nonpayable"},{"type":"function","name":"setPayloadSizeLimit","inputs":[{"name":"_dstChainId","type":"uint16","internalType":"uint16"},{"name":"_size","type":"uint256","internalType":"uint256"}],"outputs":[],"stateMutability":"nonpayable"},{"type":"function","name":"setPrecrime","inputs":[{"name":"_precrime","type":"address","internalType":"address"}],"outputs":[],"stateMutability":"nonpayable"},{"type":"function","name":"setReceiveVersion","inputs":[{"name":"_version","type":"uint16","internalType":"uint16"}],"outputs":[],"stateMutability":"nonpayable"},{"type":"function","name":"setSendVersion","inputs":[{"name":"_version","type":"uint16","internalType":"uint16"}],"outputs":[],"stateMutability":"nonpayable"},{"type":"function","name":"setTrustedRemote","inputs":[{"name":"_remoteChainId","type":"uint16","internalType":"uint16"},{"name":"_path","type":"bytes","internalType":"bytes"}],"outputs":[],"stateMutability":"nonpayable"},{"type":"function","name":"setTrustedRemoteAddress","inputs":[{"name":"_remoteChainId","type":"uint16","internalType":"uint16"},{"name":"_remoteAddress","type":"bytes","internalType":"bytes"}],"outputs":[],"stateMutability":"nonpayable"},{"type":"function","name":"sharedDecimals","inputs":[],"outputs":[{"name":"","type":"uint8","internalType":"uint8"}],"stateMutability":"view"},{"type":"function","name":"supportsInterface","inputs":[{"name":"interfaceId","type":"bytes4","internalType":"bytes4"}],"outputs":[{"name":"","type":"bool","internalType":"bool"}],"stateMutability":"view"},{"type":"function","name":"symbol","inputs":[],"outputs":[{"name":"","type":"string","internalType":"string"}],"stateMutability":"view"},{"type":"function","name":"token","inputs":[],"outputs":[{"name":"","type":"address","internalType":"address"}],"stateMutability":"view"},{"type":"function","name":"totalSupply","inputs":[],"outputs":[{"name":"","type":"uint256","internalType":"uint256"}],"stateMutability":"view"},{"type":"function","name":"transfer","inputs":[{"name":"to","type":"address","internalType":"address"},{"name":"value","type":"uint256","internalType":"uint256"}],"outputs":[{"name":"","type":"bool","internalType":"bool"}],"stateMutability":"nonpayable"},{"type":"function","name":"transferFrom","inputs":[{"name":"from","type":"address","internalType":"address"},{"name":"to","type":"address","internalType":"address"},{"name":"value","type":"uint256","internalType":"uint256"}],"outputs":[{"name":"","type":"bool","internalType":"bool"}],"stateMutability":"nonpayable"},{"type":"function","name":"transferOwnership","inputs":[{"name":"newOwner","type":"address","internalType":"address"}],"outputs":[],"stateMutability":"nonpayable"},{"type":"function","name":"trustedRemoteLookup","inputs":[{"name":"","type":"uint16","internalType":"uint16"}],"outputs":[{"name":"","type":"bytes","internalType":"bytes"}],"stateMutability":"view"},{"type":"event","name":"Approval","inputs":[{"name":"owner","type":"address","indexed":true,"internalType":"address"},{"name":"spender","type":"address","indexed":true,"internalType":"address"},{"name":"value","type":"uint256","indexed":false,"internalType":"uint256"}],"anonymous":false},{"type":"event","name":"CallOFTReceivedSuccess","inputs":[{"name":"_srcChainId","type":"uint16","indexed":true,"internalType":"uint16"},{"name":"_srcAddress","type":"bytes","indexed":false,"internalType":"bytes"},{"name":"_nonce","type":"uint64","indexed":false,"internalType":"uint64"},{"name":"_hash","type":"bytes32","indexed":false,"internalType":"bytes32"}],"anonymous":false},{"type":"event","name":"MessageFailed","inputs":[{"name":"_srcChainId","type":"uint16","indexed":false,"internalType":"uint16"},{"name":"_srcAddress","type":"bytes","indexed":false,"internalType":"bytes"},{"name":"_nonce","type":"uint64","indexed":false,"internalType":"uint64"},{"name":"_payload","type":"bytes","indexed":false,"internalType":"bytes"},{"name":"_reason","type":"bytes","indexed":false,"internalType":"bytes"}],"anonymous":false},{"type":"event","name":"NonContractAddress","inputs":[{"name":"_address","type":"address","indexed":false,"internalType":"address"}],"anonymous":false},{"type":"event","name":"OwnershipTransferred","inputs":[{"name":"previousOwner","type":"address","indexed":true,"internalType":"address"},{"name":"newOwner","type":"address","indexed":true,"internalType":"address"}],"anonymous":false},{"type":"event","name":"ReceiveFromChain","inputs":[{"name":"_srcChainId","type":"uint16","indexed":true,"internalType":"uint16"},{"name":"_to","type":"address","indexed":true,"internalType":"address"},{"name":"_amount","type":"uint256","indexed":false,"internalType":"uint256"}],"anonymous":false},{"type":"event","name":"RetryMessageSuccess","inputs":[{"name":"_srcChainId","type":"uint16","indexed":false,"internalType":"uint16"},{"name":"_srcAddress","type":"bytes","indexed":false,"internalType":"bytes"},{"name":"_nonce","type":"uint64","indexed":false,"internalType":"uint64"},{"name":"_payloadHash","type":"bytes32","indexed":false,"internalType":"bytes32"}],"anonymous":false},{"type":"event","name":"SendToChain","inputs":[{"name":"_dstChainId","type":"uint16","indexed":true,"internalType":"uint16"},{"name":"_from","type":"address","indexed":true,"internalType":"address"},{"name":"_toAddress","type":"bytes32","indexed":true,"internalType":"bytes32"},{"name":"_amount","type":"uint256","indexed":false,"internalType":"uint256"}],"anonymous":false},{"type":"event","name":"SetMinDstGas","inputs":[{"name":"_dstChainId","type":"uint16","indexed":false,"internalType":"uint16"},{"name":"_type","type":"uint16","indexed":false,"internalType":"uint16"},{"name":"_minDstGas","type":"uint256","indexed":false,"internalType":"uint256"}],"anonymous":false},{"type":"event","name":"SetPrecrime","inputs":[{"name":"precrime","type":"address","indexed":false,"internalType":"address"}],"anonymous":false},{"type":"event","name":"SetTrustedRemote","inputs":[{"name":"_remoteChainId","type":"uint16","indexed":false,"internalType":"uint16"},{"name":"_path","type":"bytes","indexed":false,"internalType":"bytes"}],"anonymous":false},{"type":"event","name":"SetTrustedRemoteAddress","inputs":[{"name":"_remoteChainId","type":"uint16","indexed":false,"internalType":"uint16"},{"name":"_remoteAddress","type":"bytes","indexed":false,"internalType":"bytes"}],"anonymous":false},{"type":"event","name":"Transfer","inputs":[{"name":"from","type":"address","indexed":true,"internalType":"address"},{"name":"to","type":"address","indexed":true,"internalType":"address"},{"name":"value","type":"uint256","indexed":false,"internalType":"uint256"}],"anonymous":false},{"type":"error","name":"ERC20InsufficientAllowance","inputs":[{"name":"spender","type":"address","internalType":"address"},{"name":"allowance","type":"uint256","internalType":"uint256"},{"name":"needed","type":"uint256","internalType":"uint256"}]},{"type":"error","name":"ERC20InsufficientBalance","inputs":[{"name":"sender","type":"address","internalType":"address"},{"name":"balance","type":"uint256","internalType":"uint256"},{"name":"needed","type":"uint256","internalType":"uint256"}]},{"type":"error","name":"ERC20InvalidApprover","inputs":[{"name":"approver","type":"address","internalType":"address"}]},{"type":"error","name":"ERC20InvalidReceiver","inputs":[{"name":"receiver","type":"address","internalType":"address"}]},{"type":"error","name":"ERC20InvalidSender","inputs":[{"name":"sender","type":"address","internalType":"address"}]},{"type":"error","name":"ERC20InvalidSpender","inputs":[{"name":"spender","type":"address","internalType":"address"}]},{"type":"error","name":"OwnableInvalidOwner","inputs":[{"name":"owner","type":"address","internalType":"address"}]},{"type":"error","name":"OwnableUnauthorizedAccount","inputs":[{"name":"account","type":"address","internalType":"address"}]}],"bytecode":{"object":"0x60e060405234801562000010575f80fd5b50604051620043c7380380620043c7833981016040819052620000339162000272565b83838383838383838181808033806200006657604051631e4fbdf760e01b81525f60048201526024015b60405180910390fd5b62000071816200015d565b506001600160a01b0316608052505060ff1660a05250600a905062000097838262000399565b50600b620000a6828262000399565b5050505f620000ba620001ac60201b60201c565b90508060ff168360ff161115620001245760405162461bcd60e51b815260206004820152602760248201527f4f46543a20736861726564446563696d616c73206d757374206265203c3d20646044820152666563696d616c7360c81b60648201526084016200005d565b62000130838262000479565b6200013d90600a62000594565b60c05250620001539350339250506200015d9050565b50505050620005ab565b5f80546001600160a01b038381166001600160a01b0319831681178455604051919092169283917f8be0079c531659141344cd1fd0a4f28419497f9722a3daafe3b4186f6b6457e09190a35050565b601290565b634e487b7160e01b5f52604160045260245ffd5b5f82601f830112620001d5575f80fd5b81516001600160401b0380821115620001f257620001f2620001b1565b604051601f8301601f19908116603f011681019082821181831017156200021d576200021d620001b1565b81604052838152602092508660208588010111156200023a575f80fd5b5f91505b838210156200025d57858201830151818301840152908201906200023e565b5f602085830101528094505050505092915050565b5f805f806080858703121562000286575f80fd5b84516001600160401b03808211156200029d575f80fd5b620002ab88838901620001c5565b95506020870151915080821115620002c1575f80fd5b50620002d087828801620001c5565b935050604085015160ff81168114620002e7575f80fd5b60608601519092506001600160a01b038116811462000304575f80fd5b939692955090935050565b600181811c908216806200032457607f821691505b6020821081036200034357634e487b7160e01b5f52602260045260245ffd5b50919050565b601f8211156200039457805f5260205f20601f840160051c81016020851015620003705750805b601f840160051c820191505b8181101562000391575f81556001016200037c565b50505b505050565b81516001600160401b03811115620003b557620003b5620001b1565b620003cd81620003c684546200030f565b8462000349565b602080601f83116001811462000403575f8415620003eb5750858301515b5f19600386901b1c1916600185901b1785556200045d565b5f85815260208120601f198616915b82811015620004335788860151825594840194600190910190840162000412565b50858210156200045157878501515f19600388901b60f8161c191681555b505060018460011b0185555b505050505050565b634e487b7160e01b5f52601160045260245ffd5b60ff828116828216039081111562000495576200049562000465565b92915050565b600181815b80851115620004db57815f1904821115620004bf57620004bf62000465565b80851615620004cd57918102915b93841c9390800290620004a0565b509250929050565b5f82620004f35750600162000495565b816200050157505f62000495565b81600181146200051a5760028114620005255762000545565b600191505062000495565b60ff84111562000539576200053962000465565b50506001821b62000495565b5060208310610133831016604e8410600b84101617156200056a575081810a62000495565b6200057683836200049b565b805f19048211156200058c576200058c62000465565b029392505050565b5f620005a460ff841683620004e3565b9392505050565b60805160a05160c051613da4620006235f395f8181612491015281816128d50152612ba601525f6105e401525f81816107af0152818161093f01528181610c4e01528181610d0701528181610eb20152818161148c0152818161194c01528181611bbc015281816120970152612a630152613da45ff3fe6080604052600436106102a4575f3560e01c8063857749b01161016f578063b353aaa7116100d8578063df2a5b3b11610092578063eb8d72b71161006d578063eb8d72b7146108cd578063f2fde38b146108ec578063f5ecbdbc1461090b578063fc0c546a1461092a575f80fd5b8063df2a5b3b1461087b578063e6a20ae61461089a578063eaffd49a146108ae575f80fd5b8063b353aaa71461079e578063baf3292d146107d1578063c4461834146107f0578063cbed8b9c14610805578063d1deba1f14610824578063dd62ed3e14610837575f80fd5b80639bdb9812116101295780639bdb9812146106b35780639dc29fac146107035780639f38369a14610722578063a4c51df514610741578063a6c3d16514610760578063a9059cbb1461077f575f80fd5b8063857749b0146105d35780638cfd8f5c146106065780638da5cb5b1461063c5780639358928b1461066c578063950c8a741461068057806395d89b411461069f575f80fd5b80633f1f4fa41161021157806366ad5c8a116101cb57806366ad5c8a14610527578063695ef6bf1461054657806370a0823114610559578063715018a61461058d5780637533d788146105a157806376203b48146105c0575f80fd5b80633f1f4fa41461044b57806340c10f191461047657806342d65a8d1461049557806344770515146104b45780634c42899a146104c75780635b8c41e6146104da575f80fd5b806310ddb1371161026257806310ddb1371461037b57806318160ddd1461039a57806323b872dd146103b8578063313ce567146103d7578063365260b4146103f85780633d8b38f61461042c575f80fd5b80621d3567146102a857806301ffc9a7146102c957806306fdde03146102fd57806307e0db171461031e578063095ea7b31461033d5780630df374831461035c575b5f80fd5b3480156102b3575f80fd5b506102c76102c2366004612ef4565b61093c565b005b3480156102d4575f80fd5b506102e86102e3366004612f81565b610b67565b60405190151581526020015b60405180910390f35b348015610308575f80fd5b50610311610b9d565b6040516102f49190612ff5565b348015610329575f80fd5b506102c7610338366004613007565b610c2d565b348015610348575f80fd5b506102e8610357366004613034565b610cb1565b348015610367575f80fd5b506102c761037636600461305e565b610cc8565b348015610386575f80fd5b506102c7610395366004613007565b610ce6565b3480156103a5575f80fd5b506009545b6040519081526020016102f4565b3480156103c3575f80fd5b506102e86103d2366004613078565b610d3e565b3480156103e2575f80fd5b5060125b60405160ff90911681526020016102f4565b348015610403575f80fd5b506104176104123660046130c5565b610d61565b604080519283526020830191909152016102f4565b348015610437575f80fd5b506102e8610446366004613125565b610db4565b348015610456575f80fd5b506103aa610465366004613007565b60036020525f908152604090205481565b348015610481575f80fd5b506102c7610490366004613034565b610e7d565b3480156104a0575f80fd5b506102c76104af366004613125565b610e93565b3480156104bf575f80fd5b506103aa5f81565b3480156104d2575f80fd5b506103e65f81565b3480156104e5575f80fd5b506103aa6104f43660046131dd565b600560209081525f9384526040808520845180860184018051928152908401958401959095209452929052825290205481565b348015610532575f80fd5b506102c7610541366004612ef4565b610f14565b6102c761055436600461328c565b610fee565b348015610564575f80fd5b506103aa6105733660046132fa565b6001600160a01b03165f9081526007602052604090205490565b348015610598575f80fd5b506102c7611058565b3480156105ac575f80fd5b506103116105bb366004613007565b61106b565b6102c76105ce366004613315565b611102565b3480156105de575f80fd5b506103e67f000000000000000000000000000000000000000000000000000000000000000081565b348015610611575f80fd5b506103aa6106203660046133c0565b600260209081525f928352604080842090915290825290205481565b348015610647575f80fd5b505f546001600160a01b03165b6040516001600160a01b0390911681526020016102f4565b348015610677575f80fd5b506103aa6111af565b34801561068b575f80fd5b50600454610654906001600160a01b031681565b3480156106aa575f80fd5b506103116111be565b3480156106be575f80fd5b506102e86106cd3660046131dd565b600660209081525f9384526040808520845180860184018051928152908401958401959095209452929052825290205460ff1681565b34801561070e575f80fd5b506102c761071d366004613034565b6111cd565b34801561072d575f80fd5b5061031161073c366004613007565b6111df565b34801561074c575f80fd5b5061041761075b3660046133f1565b6112f0565b34801561076b575f80fd5b506102c761077a366004613125565b61137c565b34801561078a575f80fd5b506102e8610799366004613034565b611404565b3480156107a9575f80fd5b506106547f000000000000000000000000000000000000000000000000000000000000000081565b3480156107dc575f80fd5b506102c76107eb3660046132fa565b611411565b3480156107fb575f80fd5b506103aa61271081565b348015610810575f80fd5b506102c761081f3660046134a2565b61146d565b6102c7610832366004612ef4565b6114f2565b348015610842575f80fd5b506103aa61085136600461350b565b6001600160a01b039182165f90815260086020908152604080832093909416825291909152205490565b348015610886575f80fd5b506102c7610895366004613542565b611702565b3480156108a5575f80fd5b506103e6600181565b3480156108b9575f80fd5b506102c76108c836600461357b565b61176b565b3480156108d8575f80fd5b506102c76108e7366004613125565b611885565b3480156108f7575f80fd5b506102c76109063660046132fa565b6118de565b348015610916575f80fd5b5061031161092536600461363b565b61191b565b348015610935575f80fd5b5030610654565b337f00000000000000000000000000000000000000000000000000000000000000006001600160a01b0316146109b95760405162461bcd60e51b815260206004820152601e60248201527f4c7a4170703a20696e76616c696420656e64706f696e742063616c6c6572000060448201526064015b60405180910390fd5b61ffff86165f90815260016020526040812080546109d690613685565b80601f0160208091040260200160405190810160405280929190818152602001828054610a0290613685565b8015610a4d5780601f10610a2457610100808354040283529160200191610a4d565b820191905f5260205f20905b815481529060010190602001808311610a3057829003601f168201915b50505050509050805186869050148015610a6757505f8151115b8015610a8f575080516020820120604051610a8590889088906136b7565b6040518091039020145b610aea5760405162461bcd60e51b815260206004820152602660248201527f4c7a4170703a20696e76616c696420736f757263652073656e64696e6720636f6044820152651b9d1c9858dd60d21b60648201526084016109b0565b610b5e8787878080601f0160208091040260200160405190810160405280939291908181526020018383808284375f9201919091525050604080516020601f8a018190048102820181019092528881528a9350915088908890819084018382808284375f920191909152506119c892505050565b50505050505050565b5f6001600160e01b03198216631f7ecdf760e01b1480610b9757506301ffc9a760e01b6001600160e01b03198316145b92915050565b6060600a8054610bac90613685565b80601f0160208091040260200160405190810160405280929190818152602001828054610bd890613685565b8015610c235780601f10610bfa57610100808354040283529160200191610c23565b820191905f5260205f20905b815481529060010190602001808311610c0657829003601f168201915b5050505050905090565b610c35611a40565b6040516307e0db1760e01b815261ffff821660048201527f00000000000000000000000000000000000000000000000000000000000000006001600160a01b0316906307e0db17906024015b5f604051808303815f87803b158015610c98575f80fd5b505af1158015610caa573d5f803e3d5ffd5b5050505050565b5f33610cbe818585611a6c565b5060019392505050565b610cd0611a40565b61ffff9091165f90815260036020526040902055565b610cee611a40565b6040516310ddb13760e01b815261ffff821660048201527f00000000000000000000000000000000000000000000000000000000000000006001600160a01b0316906310ddb13790602401610c81565b5f33610d4b858285611a7e565b610d56858585611afa565b506001949350505050565b5f80610da58888888888888080601f0160208091040260200160405190810160405280939291908181526020018383808284375f92019190915250611b5792505050565b91509150965096945050505050565b61ffff83165f9081526001602052604081208054829190610dd490613685565b80601f0160208091040260200160405190810160405280929190818152602001828054610e0090613685565b8015610e4b5780601f10610e2257610100808354040283529160200191610e4b565b820191905f5260205f20905b815481529060010190602001808311610e2e57829003601f168201915b505050505090508383604051610e629291906136b7565b60405180910390208180519060200120149150509392505050565b610e85611a40565b610e8f8282611c46565b5050565b610e9b611a40565b6040516342d65a8d60e01b81526001600160a01b037f000000000000000000000000000000000000000000000000000000000000000016906342d65a8d90610eeb908690869086906004016136ee565b5f604051808303815f87803b158015610f02575f80fd5b505af1158015610b5e573d5f803e3d5ffd5b333014610f725760405162461bcd60e51b815260206004820152602660248201527f4e6f6e626c6f636b696e674c7a4170703a2063616c6c6572206d7573742062656044820152650204c7a4170760d41b60648201526084016109b0565b610fe68686868080601f0160208091040260200160405190810160405280939291908181526020018383808284375f9201919091525050604080516020601f8901819004810282018101909252878152899350915087908790819084018382808284375f92019190915250611c7a92505050565b505050505050565b610fe68585858561100260208701876132fa565b61101260408801602089016132fa565b61101f604089018961370b565b8080601f0160208091040260200160405190810160405280939291908181526020018383808284375f92019190915250611cff92505050565b611060611a40565b6110695f611de4565b565b60016020525f90815260409020805461108390613685565b80601f01602080910402602001604051908101604052809291908181526020018280546110af90613685565b80156110fa5780601f106110d1576101008083540402835291602001916110fa565b820191905f5260205f20905b8154815290600101906020018083116110dd57829003601f168201915b505050505081565b6111a48888888888888080601f0160208091040260200160405190810160405280939291908181526020018383808284375f920191909152508a925061114e91505060208901896132fa565b61115e60408a0160208b016132fa565b61116b60408b018b61370b565b8080601f0160208091040260200160405190810160405280939291908181526020018383808284375f92019190915250611e3392505050565b505050505050505050565b5f6111b960095490565b905090565b6060600b8054610bac90613685565b6111d5611a40565b610e8f8282611f2c565b61ffff81165f9081526001602052604081208054606092919061120190613685565b80601f016020809104026020016040519081016040528092919081815260200182805461122d90613685565b80156112785780601f1061124f57610100808354040283529160200191611278565b820191905f5260205f20905b81548152906001019060200180831161125b57829003601f168201915b5050505050905080515f036112cf5760405162461bcd60e51b815260206004820152601d60248201527f4c7a4170703a206e6f20747275737465642070617468207265636f726400000060448201526064016109b0565b6112e95f601483516112e19190613761565b839190611f60565b9392505050565b5f8061136a8b8b8b8b8b8080601f0160208091040260200160405190810160405280939291908181526020018383808284375f9201919091525050604080516020601f8d018190048102820181019092528b81528e93508d9250908c908c90819084018382808284375f9201919091525061206c92505050565b91509150995099975050505050505050565b611384611a40565b81813060405160200161139993929190613774565b60408051601f1981840301815291815261ffff85165f908152600160205220906113c390826137de565b507f8c0400cfe2d1199b1a725c78960bcc2a344d869b80590d0f2bd005db15a572ce8383836040516113f7939291906136ee565b60405180910390a1505050565b5f33610cbe818585611afa565b611419611a40565b600480546001600160a01b0319166001600160a01b0383169081179091556040519081527f5db758e995a17ec1ad84bdef7e8c3293a0bd6179bcce400dff5d4c3d87db726b9060200160405180910390a150565b611475611a40565b6040516332fb62e760e21b81526001600160a01b037f0000000000000000000000000000000000000000000000000000000000000000169063cbed8b9c906114c99088908890889088908890600401613899565b5f604051808303815f87803b1580156114e0575f80fd5b505af11580156111a4573d5f803e3d5ffd5b61ffff86165f90815260056020526040808220905161151490889088906136b7565b90815260408051602092819003830190206001600160401b0387165f90815292529020549050806115935760405162461bcd60e51b815260206004820152602360248201527f4e6f6e626c6f636b696e674c7a4170703a206e6f2073746f726564206d65737360448201526261676560e81b60648201526084016109b0565b8083836040516115a49291906136b7565b6040518091039020146116035760405162461bcd60e51b815260206004820152602160248201527f4e6f6e626c6f636b696e674c7a4170703a20696e76616c6964207061796c6f616044820152601960fa1b60648201526084016109b0565b61ffff87165f90815260056020526040808220905161162590899089906136b7565b90815260408051602092819003830181206001600160401b0389165f90815290845282902093909355601f880182900482028301820190528682526116ba91899189908990819084018382808284375f9201919091525050604080516020601f8a018190048102820181019092528881528a9350915088908890819084018382808284375f92019190915250611c7a92505050565b7fc264d91f3adc5588250e1551f547752ca0cfa8f6b530d243b9f9f4cab10ea8e587878787856040516116f19594939291906138d1565b60405180910390a150505050505050565b61170a611a40565b61ffff8381165f8181526002602090815260408083209487168084529482529182902085905581519283528201929092529081018290527f9d5c7c0b934da8fefa9c7760c98383778a12dfbfc0c3b3106518f43fb9508ac0906060016113f7565b3330146117ba5760405162461bcd60e51b815260206004820152601f60248201527f4f4654436f72653a2063616c6c6572206d757374206265204f4654436f72650060448201526064016109b0565b6117c5308686612123565b9350846001600160a01b03168a61ffff167fbf551ec93859b170f9b2141bd9298bf3f64322c6f7beb2543a0cb669834118bf8660405161180791815260200190565b60405180910390a3604051633fe79aed60e11b81526001600160a01b03861690637fcf35da90839061184b908e908e908e908e908e908d908d908d9060040161390b565b5f604051808303815f88803b158015611862575f80fd5b5087f1158015611874573d5f803e3d5ffd5b505050505050505050505050505050565b61188d611a40565b61ffff83165f9081526001602052604090206118aa828483613965565b507ffa41487ad5d6728f0b19276fa1eddc16558578f5109fc39d2dc33c3230470dab8383836040516113f7939291906136ee565b6118e6611a40565b6001600160a01b03811661190f57604051631e4fbdf760e01b81525f60048201526024016109b0565b61191881611de4565b50565b604051633d7b2f6f60e21b815261ffff808616600483015284166024820152306044820152606481018290526060907f00000000000000000000000000000000000000000000000000000000000000006001600160a01b03169063f5ecbdbc906084015f60405180830381865afa158015611998573d5f803e3d5ffd5b505050506040513d5f823e601f3d908101601f191682016040526119bf9190810190613a1e565b95945050505050565b5f80611a2a5a60966366ad5c8a60e01b898989896040516024016119ef9493929190613a86565b60408051601f198184030181529190526020810180516001600160e01b03166001600160e01b03199093169290921790915230929190612174565b9150915081610fe657610fe686868686856121f8565b5f546001600160a01b031633146110695760405163118cdaa760e01b81523360048201526024016109b0565b611a798383836001612292565b505050565b6001600160a01b038381165f908152600860209081526040808320938616835292905220545f19811015611af45781811015611ae657604051637dc7a0d960e11b81526001600160a01b038416600482015260248101829052604481018390526064016109b0565b611af484848484035f612292565b50505050565b6001600160a01b038316611b2357604051634b637e8f60e11b81525f60048201526024016109b0565b6001600160a01b038216611b4c5760405163ec442f0560e01b81525f60048201526024016109b0565b611a79838383612364565b5f805f611ba287611b678861248a565b604080515f6020820152602181019390935260c09190911b6001600160c01b0319166041830152805160298184030181526049909201905290565b60405163040a7bb160e41b81529091506001600160a01b037f000000000000000000000000000000000000000000000000000000000000000016906340a7bb1090611bf9908b90309086908b908b90600401613ac3565b6040805180830381865afa158015611c13573d5f803e3d5ffd5b505050506040513d601f19601f82011682018060405250810190611c379190613b16565b92509250509550959350505050565b6001600160a01b038216611c6f5760405163ec442f0560e01b81525f60048201526024016109b0565b610e8f5f8383612364565b5f611c85828261250f565b905060ff8116611ca057611c9b8585858561256a565b610caa565b5f1960ff821601611cb757611c9b858585856125f8565b60405162461bcd60e51b815260206004820152601c60248201527f4f4654436f72653a20756e6b6e6f776e207061636b657420747970650000000060448201526064016109b0565b5f611d0c878284816127fb565b611d15856128ce565b509050611d248888888461290d565b90505f8111611d715760405162461bcd60e51b815260206004820152601960248201527813d19510dbdc994e88185b5bdd5b9d081d1bdbc81cdb585b1b603a1b60448201526064016109b0565b5f611d7f87611b678461248a565b9050611d8f88828787873461293e565b86896001600160a01b03168961ffff167fd81fc9b8523134ed613870ed029d6170cbb73aa6a6bc311b9a642689fb9df59a85604051611dd091815260200190565b60405180910390a450979650505050505050565b5f80546001600160a01b038381166001600160a01b0319831681178455604051919092169283917f8be0079c531659141344cd1fd0a4f28419497f9722a3daafe3b4186f6b6457e09190a35050565b5f611e4a896001846001600160401b0389166127fb565b611e53876128ce565b509050611e628a8a8a8461290d565b90505f8111611eaf5760405162461bcd60e51b815260206004820152601960248201527813d19510dbdc994e88185b5bdd5b9d081d1bdbc81cdb585b1b603a1b60448201526064016109b0565b5f611ec5338a611ebe8561248a565b8a8a612adb565b9050611ed58a828787873461293e565b888b6001600160a01b03168b61ffff167fd81fc9b8523134ed613870ed029d6170cbb73aa6a6bc311b9a642689fb9df59a85604051611f1691815260200190565b60405180910390a4509998505050505050505050565b6001600160a01b038216611f5557604051634b637e8f60e11b81525f60048201526024016109b0565b610e8f825f83612364565b606081611f6e81601f613b38565b1015611fad5760405162461bcd60e51b815260206004820152600e60248201526d736c6963655f6f766572666c6f7760901b60448201526064016109b0565b611fb78284613b38565b84511015611ffb5760405162461bcd60e51b8152602060048201526011602482015270736c6963655f6f75744f66426f756e647360781b60448201526064016109b0565b6060821580156120195760405191505f825260208201604052612063565b6040519150601f8416801560200281840101858101878315602002848b0101015b8183101561205257805183526020928301920161203a565b5050858452601f01601f1916604052505b50949350505050565b5f805f61207d338a611ebe8b61248a565b60405163040a7bb160e41b81529091506001600160a01b037f000000000000000000000000000000000000000000000000000000000000000016906340a7bb10906120d4908d90309086908b908b90600401613ac3565b6040805180830381865afa1580156120ee573d5f803e3d5ffd5b505050506040513d601f19601f820116820180604052508101906121129190613b16565b925092505097509795505050505050565b5f33306001600160a01b038616148015906121505750806001600160a01b0316856001600160a01b031614155b1561216057612160858285611a7e565b61216b858585611afa565b50909392505050565b5f60605f805f8661ffff166001600160401b0381111561219657612196613173565b6040519080825280601f01601f1916602001820160405280156121c0576020820181803683370190505b5090505f808751602089015f8d8df191503d9250868311156121e0578692505b828152825f602083013e909890975095505050505050565b818051906020012060055f8761ffff1661ffff1681526020019081526020015f20856040516122279190613b4b565b9081526040805191829003602090810183206001600160401b0388165f908152915220919091557fe183f33de2837795525b4792ca4cd60535bd77c53b7e7030060bfcf5734d6b0c906122839087908790879087908790613b66565b60405180910390a15050505050565b6001600160a01b0384166122bb5760405163e602df0560e01b81525f60048201526024016109b0565b6001600160a01b0383166122e457604051634a1406b160e11b81525f60048201526024016109b0565b6001600160a01b038085165f9081526008602090815260408083209387168352929052208290558015611af457826001600160a01b0316846001600160a01b03167f8c5be1e5ebec7d5bd14f71427d1e84f3dd0314c0f7b2291e5b200ac8c7c3b9258460405161235691815260200190565b60405180910390a350505050565b6001600160a01b03831661238e578060095f8282546123839190613b38565b909155506123fe9050565b6001600160a01b0383165f90815260076020526040902054818110156123e05760405163391434e360e21b81526001600160a01b038516600482015260248101829052604481018390526064016109b0565b6001600160a01b0384165f9081526007602052604090209082900390555b6001600160a01b03821661241a57600980548290039055612438565b6001600160a01b0382165f9081526007602052604090208054820190555b816001600160a01b0316836001600160a01b03167fddf252ad1be2c89b69c2b068fc378daa952ba7f163c4a11628f55a4df523b3ef8360405161247d91815260200190565b60405180910390a3505050565b5f806124b67f000000000000000000000000000000000000000000000000000000000000000084613bcb565b90506001600160401b03811115610b975760405162461bcd60e51b815260206004820152601a60248201527f4f4654436f72653a20616d6f756e745344206f766572666c6f7700000000000060448201526064016109b0565b5f61251b826001613b38565b835110156125615760405162461bcd60e51b8152602060048201526013602482015272746f55696e74385f6f75744f66426f756e647360681b60448201526064016109b0565b50016001015190565b5f8061257583612b1c565b90925090506001600160a01b03821661258e5761dead91505b5f61259882612ba0565b90506125a5878483612bd4565b9050826001600160a01b03168761ffff167fbf551ec93859b170f9b2141bd9298bf3f64322c6f7beb2543a0cb669834118bf836040516125e791815260200190565b60405180910390a350505050505050565b5f805f805f61260686612be6565b945094509450945094505f60065f8b61ffff1661ffff1681526020019081526020015f20896040516126389190613b4b565b90815260408051602092819003830190206001600160401b038b165f908152925281205460ff16915061266a85612ba0565b9050816126d65761267c8b3083612bd4565b61ffff8c165f908152600660205260409081902090519192506001916126a3908d90613b4b565b90815260408051602092819003830190206001600160401b038d165f90815292529020805460ff19169115159190911790555b6001600160a01b0386163b61272d576040516001600160a01b03871681527f9aedf5fdba8716db3b6705ca00150643309995d4f818a249ed6dde6677e7792d9060200160405180910390a150505050505050611af4565b8a8a8a8a8a8a868a5f8a61274a578b6001600160401b031661274c565b5a5b90505f8061277d5a609663eaffd49a60e01b8e8e8e8d8d8d8d8d6040516024016119ef989796959493929190613bde565b9150915081156127d6578751602089012060405161ffff8d16907fb8890edbfc1c74692f527444645f95489c3703cc2df42e4a366f5d06fa6cd884906127c8908e908e908690613c51565b60405180910390a2506127e3565b6127e38b8b8b8b856121f8565b50505050505050505050505050505050505050505050565b5f61280583612c9c565b61ffff8087165f90815260026020908152604080832093891683529290522054909150806128755760405162461bcd60e51b815260206004820152601a60248201527f4c7a4170703a206d696e4761734c696d6974206e6f742073657400000000000060448201526064016109b0565b61287f8382613b38565b821015610fe65760405162461bcd60e51b815260206004820152601b60248201527f4c7a4170703a20676173206c696d697420697320746f6f206c6f77000000000060448201526064016109b0565b5f806128fa7f000000000000000000000000000000000000000000000000000000000000000084613c7e565b90506129068184613761565b9150915091565b5f336001600160a01b038616811461292a5761292a868285611a7e565b6129348684611f2c565b5090949350505050565b61ffff86165f908152600160205260408120805461295b90613685565b80601f016020809104026020016040519081016040528092919081815260200182805461298790613685565b80156129d25780601f106129a9576101008083540402835291602001916129d2565b820191905f5260205f20905b8154815290600101906020018083116129b557829003601f168201915b5050505050905080515f03612a425760405162461bcd60e51b815260206004820152603060248201527f4c7a4170703a2064657374696e6174696f6e20636861696e206973206e6f742060448201526f61207472757374656420736f7572636560801b60648201526084016109b0565b612a4d878751612cf7565b60405162c5803160e81b81526001600160a01b037f0000000000000000000000000000000000000000000000000000000000000000169063c5803100908490612aa4908b9086908c908c908c908c90600401613c91565b5f604051808303818588803b158015612abb575f80fd5b505af1158015612acd573d5f803e3d5ffd5b505050505050505050505050565b6060600185856001600160a01b0389168587604051602001612b0296959493929190613cf7565b604051602081830303815290604052905095945050505050565b5f8080612b29848261250f565b60ff16148015612b3a575082516029145b612b815760405162461bcd60e51b815260206004820152601860248201527713d19510dbdc994e881a5b9d985b1a59081c185e5b1bd85960421b60448201526064016109b0565b612b8c83600d612d67565b9150612b99836021612dcb565b9050915091565b5f610b977f00000000000000000000000000000000000000000000000000000000000000006001600160401b038416613d57565b5f612bdf8383611c46565b5092915050565b5f80806060816001612bf8878361250f565b60ff1614612c435760405162461bcd60e51b815260206004820152601860248201527713d19510dbdc994e881a5b9d985b1a59081c185e5b1bd85960421b60448201526064016109b0565b612c4e86600d612d67565b9350612c5b866021612dcb565b9250612c68866029612e27565b9450612c75866049612dcb565b9050612c916051808851612c899190613761565b889190611f60565b915091939590929450565b5f602282511015612cef5760405162461bcd60e51b815260206004820152601c60248201527f4c7a4170703a20696e76616c69642061646170746572506172616d730000000060448201526064016109b0565b506022015190565b61ffff82165f9081526003602052604081205490819003612d1757506127105b80821115611a795760405162461bcd60e51b815260206004820181905260248201527f4c7a4170703a207061796c6f61642073697a6520697320746f6f206c6172676560448201526064016109b0565b5f612d73826014613b38565b83511015612dbb5760405162461bcd60e51b8152602060048201526015602482015274746f416464726573735f6f75744f66426f756e647360581b60448201526064016109b0565b500160200151600160601b900490565b5f612dd7826008613b38565b83511015612e1e5760405162461bcd60e51b8152602060048201526014602482015273746f55696e7436345f6f75744f66426f756e647360601b60448201526064016109b0565b50016008015190565b5f612e33826020613b38565b83511015612e7b5760405162461bcd60e51b8152602060048201526015602482015274746f427974657333325f6f75744f66426f756e647360581b60448201526064016109b0565b50016020015190565b803561ffff81168114612e95575f80fd5b919050565b5f8083601f840112612eaa575f80fd5b5081356001600160401b03811115612ec0575f80fd5b602083019150836020828501011115612ed7575f80fd5b9250929050565b80356001600160401b0381168114612e95575f80fd5b5f805f805f8060808789031215612f09575f80fd5b612f1287612e84565b955060208701356001600160401b0380821115612f2d575f80fd5b612f398a838b01612e9a565b9097509550859150612f4d60408a01612ede565b94506060890135915080821115612f62575f80fd5b50612f6f89828a01612e9a565b979a9699509497509295939492505050565b5f60208284031215612f91575f80fd5b81356001600160e01b0319811681146112e9575f80fd5b5f5b83811015612fc2578181015183820152602001612faa565b50505f910152565b5f8151808452612fe1816020860160208601612fa8565b601f01601f19169290920160200192915050565b602081525f6112e96020830184612fca565b5f60208284031215613017575f80fd5b6112e982612e84565b6001600160a01b0381168114611918575f80fd5b5f8060408385031215613045575f80fd5b823561305081613020565b946020939093013593505050565b5f806040838503121561306f575f80fd5b61305083612e84565b5f805f6060848603121561308a575f80fd5b833561309581613020565b925060208401356130a581613020565b929592945050506040919091013590565b80358015158114612e95575f80fd5b5f805f805f8060a087890312156130da575f80fd5b6130e387612e84565b955060208701359450604087013593506130ff606088016130b6565b925060808701356001600160401b03811115613119575f80fd5b612f6f89828a01612e9a565b5f805f60408486031215613137575f80fd5b61314084612e84565b925060208401356001600160401b0381111561315a575f80fd5b61316686828701612e9a565b9497909650939450505050565b634e487b7160e01b5f52604160045260245ffd5b604051601f8201601f191681016001600160401b03811182821017156131af576131af613173565b604052919050565b5f6001600160401b038211156131cf576131cf613173565b50601f01601f191660200190565b5f805f606084860312156131ef575f80fd5b6131f884612e84565b925060208401356001600160401b03811115613212575f80fd5b8401601f81018613613222575f80fd5b8035613235613230826131b7565b613187565b818152876020838501011115613249575f80fd5b816020840160208301375f6020838301015280945050505061326d60408501612ede565b90509250925092565b5f60608284031215613286575f80fd5b50919050565b5f805f805f60a086880312156132a0575f80fd5b85356132ab81613020565b94506132b960208701612e84565b9350604086013592506060860135915060808601356001600160401b038111156132e1575f80fd5b6132ed88828901613276565b9150509295509295909350565b5f6020828403121561330a575f80fd5b81356112e981613020565b5f805f805f805f8060e0898b03121561332c575f80fd5b883561333781613020565b975061334560208a01612e84565b9650604089013595506060890135945060808901356001600160401b038082111561336e575f80fd5b61337a8c838d01612e9a565b909650945084915061338e60a08c01612ede565b935060c08b01359150808211156133a3575f80fd5b506133b08b828c01613276565b9150509295985092959890939650565b5f80604083850312156133d1575f80fd5b6133da83612e84565b91506133e860208401612e84565b90509250929050565b5f805f805f805f805f60e08a8c031215613409575f80fd5b6134128a612e84565b985060208a0135975060408a0135965060608a01356001600160401b038082111561343b575f80fd5b6134478d838e01612e9a565b909850965086915061345b60808d01612ede565b955061346960a08d016130b6565b945060c08c013591508082111561347e575f80fd5b5061348b8c828d01612e9a565b915080935050809150509295985092959850929598565b5f805f805f608086880312156134b6575f80fd5b6134bf86612e84565b94506134cd60208701612e84565b93506040860135925060608601356001600160401b038111156134ee575f80fd5b6134fa88828901612e9a565b969995985093965092949392505050565b5f806040838503121561351c575f80fd5b823561352781613020565b9150602083013561353781613020565b809150509250929050565b5f805f60608486031215613554575f80fd5b61355d84612e84565b925061356b60208501612e84565b9150604084013590509250925092565b5f805f805f805f805f806101008b8d031215613595575f80fd5b61359e8b612e84565b995060208b01356001600160401b03808211156135b9575f80fd5b6135c58e838f01612e9a565b909b5099508991506135d960408e01612ede565b985060608d0135975060808d013591506135f282613020565b90955060a08c0135945060c08c0135908082111561360e575f80fd5b5061361b8d828e01612e9a565b9150809450508092505060e08b013590509295989b9194979a5092959850565b5f805f806080858703121561364e575f80fd5b61365785612e84565b935061366560208601612e84565b9250604085013561367581613020565b9396929550929360600135925050565b600181811c9082168061369957607f821691505b60208210810361328657634e487b7160e01b5f52602260045260245ffd5b818382375f9101908152919050565b81835281816020850137505f828201602090810191909152601f909101601f19169091010190565b61ffff84168152604060208201525f6119bf6040830184866136c6565b5f808335601e19843603018112613720575f80fd5b8301803591506001600160401b03821115613739575f80fd5b602001915036819003821315612ed7575f80fd5b634e487b7160e01b5f52601160045260245ffd5b81810381811115610b9757610b9761374d565b8284823760609190911b6bffffffffffffffffffffffff19169101908152601401919050565b601f821115611a7957805f5260205f20601f840160051c810160208510156137bf5750805b601f840160051c820191505b81811015610caa575f81556001016137cb565b81516001600160401b038111156137f7576137f7613173565b61380b816138058454613685565b8461379a565b602080601f83116001811461383e575f84156138275750858301515b5f19600386901b1c1916600185901b178555610fe6565b5f85815260208120601f198616915b8281101561386c5788860151825594840194600190910190840161384d565b508582101561388957878501515f19600388901b60f8161c191681555b5050505050600190811b01905550565b5f61ffff8088168352808716602084015250846040830152608060608301526138c66080830184866136c6565b979650505050505050565b61ffff86168152608060208201525f6138ee6080830186886136c6565b6001600160401b0394909416604083015250606001529392505050565b61ffff8916815260c060208201525f61392860c08301898b6136c6565b6001600160401b038816604084015286606084015285608084015282810360a08401526139568185876136c6565b9b9a5050505050505050505050565b6001600160401b0383111561397c5761397c613173565b6139908361398a8354613685565b8361379a565b5f601f8411600181146139c1575f85156139aa5750838201355b5f19600387901b1c1916600186901b178355610caa565b5f83815260208120601f198716915b828110156139f057868501358255602094850194600190920191016139d0565b5086821015613a0c575f1960f88860031b161c19848701351681555b505060018560011b0183555050505050565b5f60208284031215613a2e575f80fd5b81516001600160401b03811115613a43575f80fd5b8201601f81018413613a53575f80fd5b8051613a61613230826131b7565b818152856020838501011115613a75575f80fd5b6119bf826020830160208601612fa8565b61ffff85168152608060208201525f613aa26080830186612fca565b6001600160401b038516604084015282810360608401526138c68185612fca565b61ffff861681526001600160a01b038516602082015260a0604082018190525f90613af090830186612fca565b84151560608401528281036080840152613b0a8185612fca565b98975050505050505050565b5f8060408385031215613b27575f80fd5b505080516020909101519092909150565b80820180821115610b9757610b9761374d565b5f8251613b5c818460208701612fa8565b9190910192915050565b61ffff8616815260a060208201525f613b8260a0830187612fca565b6001600160401b03861660408401528281036060840152613ba38186612fca565b90508281036080840152613b0a8185612fca565b634e487b7160e01b5f52601260045260245ffd5b5f82613bd957613bd9613bb7565b500490565b5f61010061ffff8b168352806020840152613bfb8184018b612fca565b6001600160401b038a166040850152606084018990526001600160a01b038816608085015260a0840187905283810360c08501529050613c3b8186612fca565b9150508260e08301529998505050505050505050565b606081525f613c636060830186612fca565b6001600160401b039490941660208301525060400152919050565b5f82613c8c57613c8c613bb7565b500690565b61ffff8716815260c060208201525f613cad60c0830188612fca565b8281036040840152613cbf8188612fca565b6001600160a01b0387811660608601528616608085015283810360a08501529050613cea8185612fca565b9998505050505050505050565b60ff60f81b8760f81b1681528560018201525f6001600160401b0360c01b808760c01b166021840152856029840152808560c01b166049840152508251613d45816051850160208701612fa8565b91909101605101979650505050505050565b8082028115828204841417610b9757610b9761374d56fea26469706673582212209028d70879fc1fc29ebea8cdebf963643a78139210e179e67413bb10e3a1a76864736f6c63430008180033","linkReferences":{}},"methodIdentifiers":{"DEFAULT_PAYLOAD_SIZE_LIMIT()":"c4461834","NO_EXTRA_GAS()":"44770515","PT_SEND()":"4c42899a","PT_SEND_AND_CALL()":"e6a20ae6","allowance(address,address)":"dd62ed3e","approve(address,uint256)":"095ea7b3","balanceOf(address)":"70a08231","burn(address,uint256)":"9dc29fac","callOnOFTReceived(uint16,bytes,uint64,bytes32,address,uint256,bytes,uint256)":"eaffd49a","circulatingSupply()":"9358928b","creditedPackets(uint16,bytes,uint64)":"9bdb9812","decimals()":"313ce567","estimateSendAndCallFee(uint16,bytes32,uint256,bytes,uint64,bool,bytes)":"a4c51df5","estimateSendFee(uint16,bytes32,uint256,bool,bytes)":"365260b4","failedMessages(uint16,bytes,uint64)":"5b8c41e6","forceResumeReceive(uint16,bytes)":"42d65a8d","getConfig(uint16,uint16,address,uint256)":"f5ecbdbc","getTrustedRemoteAddress(uint16)":"9f38369a","isTrustedRemote(uint16,bytes)":"3d8b38f6","lzEndpoint()":"b353aaa7","lzReceive(uint16,bytes,uint64,bytes)":"001d3567","minDstGasLookup(uint16,uint16)":"8cfd8f5c","mint(address,uint256)":"40c10f19","name()":"06fdde03","nonblockingLzReceive(uint16,bytes,uint64,bytes)":"66ad5c8a","owner()":"8da5cb5b","payloadSizeLimitLookup(uint16)":"3f1f4fa4","precrime()":"950c8a74","renounceOwnership()":"715018a6","retryMessage(uint16,bytes,uint64,bytes)":"d1deba1f","sendAndCall(address,uint16,bytes32,uint256,bytes,uint64,(address,address,bytes))":"76203b48","sendFrom(address,uint16,bytes32,uint256,(address,address,bytes))":"695ef6bf","setConfig(uint16,uint16,uint256,bytes)":"cbed8b9c","setMinDstGas(uint16,uint16,uint256)":"df2a5b3b","setPayloadSizeLimit(uint16,uint256)":"0df37483","setPrecrime(address)":"baf3292d","setReceiveVersion(uint16)":"10ddb137","setSendVersion(uint16)":"07e0db17","setTrustedRemote(uint16,bytes)":"eb8d72b7","setTrustedRemoteAddress(uint16,bytes)":"a6c3d165","sharedDecimals()":"857749b0","supportsInterface(bytes4)":"01ffc9a7","symbol()":"95d89b41","token()":"fc0c546a","totalSupply()":"18160ddd","transfer(address,uint256)":"a9059cbb","transferFrom(address,address,uint256)":"23b872dd","transferOwnership(address)":"f2fde38b","trustedRemoteLookup(uint16)":"7533d788"},"id":76}