{"abi":[{"type":"constructor","inputs":[{"name":"_asset","type":"address","internalType":"address"}],"stateMutability":"nonpayable"},{"type":"function","name":"asset","inputs":[],"outputs":[{"name":"","type":"address","internalType":"address"}],"stateMutability":"view"},{"type":"function","name":"claim","inputs":[{"name":"recipient","type":"address","internalType":"address"},{"name":"amount","type":"uint256","internalType":"uint256"}],"outputs":[],"stateMutability":"nonpayable"},{"type":"function","name":"deposit","inputs":[{"name":"amount","type":"uint256","internalType":"uint256"}],"outputs":[],"stateMutability":"nonpayable"},{"type":"function","name":"getBalance","inputs":[],"outputs":[{"name":"","type":"uint256","internalType":"uint256"}],"stateMutability":"view"},{"type":"function","name":"owner","inputs":[],"outputs":[{"name":"","type":"address","internalType":"address"}],"stateMutability":"view"},{"type":"function","name":"renounceOwnership","inputs":[],"outputs":[],"stateMutability":"nonpayable"},{"type":"function","name":"totalCovered","inputs":[],"outputs":[{"name":"","type":"uint256","internalType":"uint256"}],"stateMutability":"view"},{"type":"function","name":"transferOwnership","inputs":[{"name":"newOwner","type":"address","internalType":"address"}],"outputs":[],"stateMutability":"nonpayable"},{"type":"event","name":"CoverageClaimed","inputs":[{"name":"recipient","type":"address","indexed":true,"internalType":"address"},{"name":"amount","type":"uint256","indexed":false,"internalType":"uint256"}],"anonymous":false},{"type":"event","name":"FundsDeposited","inputs":[{"name":"amount","type":"uint256","indexed":false,"internalType":"uint256"}],"anonymous":false},{"type":"event","name":"OwnershipTransferred","inputs":[{"name":"previousOwner","type":"address","indexed":true,"internalType":"address"},{"name":"newOwner","type":"address","indexed":true,"internalType":"address"}],"anonymous":false},{"type":"error","name":"OwnableInvalidOwner","inputs":[{"name":"owner","type":"address","internalType":"address"}]},{"type":"error","name":"OwnableUnauthorizedAccount","inputs":[{"name":"account","type":"address","internalType":"address"}]},{"type":"error","name":"ReentrancyGuardReentrantCall","inputs":[]}],"bytecode":{"object":"0x60a060405234801561000f575f80fd5b5060405161082238038061082283398101604081905261002e916100e1565b338061005357604051631e4fbdf760e01b81525f600482015260240160405180910390fd5b61005c81610092565b5060017f9b779b17422d0df92223018b32b4d1fa46e071723d6817e2486d003becc55f00556001600160a01b031660805261010e565b5f80546001600160a01b038381166001600160a01b0319831681178455604051919092169283917f8be0079c531659141344cd1fd0a4f28419497f9722a3daafe3b4186f6b6457e09190a35050565b5f602082840312156100f1575f80fd5b81516001600160a01b0381168114610107575f80fd5b9392505050565b6080516106e16101415f395f818160a90152818161015601528181610206015281816102f401526103f801526106e15ff3fe608060405234801561000f575f80fd5b5060043610610085575f3560e01c8063aad3ec9611610058578063aad3ec96146100fd578063b6b55f2514610110578063dc0bfcb514610123578063f2fde38b1461012c575f80fd5b806312065fe01461008957806338d52e0f146100a4578063715018a6146100e35780638da5cb5b146100ed575b5f80fd5b61009161013f565b6040519081526020015b60405180910390f35b6100cb7f000000000000000000000000000000000000000000000000000000000000000081565b6040516001600160a01b03909116815260200161009b565b6100eb6101cc565b005b5f546001600160a01b03166100cb565b6100eb61010b3660046105d1565b6101df565b6100eb61011e3660046105f9565b6103ce565b61009160015481565b6100eb61013a366004610610565b6104b7565b6040516370a0823160e01b81523060048201525f907f00000000000000000000000000000000000000000000000000000000000000006001600160a01b0316906370a0823190602401602060405180830381865afa1580156101a3573d5f803e3d5ffd5b505050506040513d601f19601f820116820180604052508101906101c79190610630565b905090565b6101d46104f1565b6101dd5f61051d565b565b6101e76104f1565b6101ef61056c565b6040516370a0823160e01b81523060048201525f907f00000000000000000000000000000000000000000000000000000000000000006001600160a01b0316906370a0823190602401602060405180830381865afa158015610253573d5f803e3d5ffd5b505050506040513d601f19601f820116820180604052508101906102779190610630565b9050808211156102ce5760405162461bcd60e51b815260206004820152601e60248201527f496e73756666696369656e7420696e737572616e63652062616c616e6365000060448201526064015b60405180910390fd5b60405163a9059cbb60e01b81526001600160a01b038481166004830152602482018490527f0000000000000000000000000000000000000000000000000000000000000000169063a9059cbb906044016020604051808303815f875af115801561033a573d5f803e3d5ffd5b505050506040513d601f19601f8201168201806040525081019061035e9190610647565b508160015f8282546103709190610666565b90915550506040518281526001600160a01b038416907f95aa986e6afd37e83232d17b5f546a23373f3a37af1265854393c9dc911bd4c59060200160405180910390a2506103ca60015f8051602061068c83398151915255565b5050565b6103d661056c565b6040516323b872dd60e01b8152336004820152306024820152604481018290527f00000000000000000000000000000000000000000000000000000000000000006001600160a01b0316906323b872dd906064016020604051808303815f875af1158015610446573d5f803e3d5ffd5b505050506040513d601f19601f8201168201806040525081019061046a9190610647565b506040518181527f7cb5d45c1071f219bd2da1ea101758715bd52f23f2a707f2d9a0387dea18d9069060200160405180910390a16104b460015f8051602061068c83398151915255565b50565b6104bf6104f1565b6001600160a01b0381166104e857604051631e4fbdf760e01b81525f60048201526024016102c5565b6104b48161051d565b5f546001600160a01b031633146101dd5760405163118cdaa760e01b81523360048201526024016102c5565b5f80546001600160a01b038381166001600160a01b0319831681178455604051919092169283917f8be0079c531659141344cd1fd0a4f28419497f9722a3daafe3b4186f6b6457e09190a35050565b610574610587565b60025f8051602061068c83398151915255565b5f8051602061068c833981519152546002036101dd57604051633ee5aeb560e01b815260040160405180910390fd5b80356001600160a01b03811681146105cc575f80fd5b919050565b5f80604083850312156105e2575f80fd5b6105eb836105b6565b946020939093013593505050565b5f60208284031215610609575f80fd5b5035919050565b5f60208284031215610620575f80fd5b610629826105b6565b9392505050565b5f60208284031215610640575f80fd5b5051919050565b5f60208284031215610657575f80fd5b81518015158114610629575f80fd5b8082018082111561068557634e487b7160e01b5f52601160045260245ffd5b9291505056fe9b779b17422d0df92223018b32b4d1fa46e071723d6817e2486d003becc55f00a26469706673582212209ad84815e788570c5d93b482d2996aef8ec639b807fe7e1de5a86b92e014b3aa64736f6c63430008180033","linkReferences":{}},"methodIdentifiers":{"asset()":"38d52e0f","claim(address,uint256)":"aad3ec96","deposit(uint256)":"b6b55f25","getBalance()":"12065fe0","owner()":"8da5cb5b","renounceOwnership()":"715018a6","totalCovered()":"dc0bfcb5","transferOwnership(address)":"f2fde38b"},"id":71}