{"abi":[{"type":"constructor","inputs":[{"name":"_kerne","type":"address","internalType":"address"},{"name":"_rewardToken","type":"address","internalType":"address"},{"name":"_admin","type":"address","internalType":"address"}],"stateMutability":"nonpayable"},{"type":"function","name":"DEFAULT_ADMIN_ROLE","inputs":[],"outputs":[{"name":"","type":"bytes32","internalType":"bytes32"}],"stateMutability":"view"},{"type":"function","name":"DISTRIBUTOR_ROLE","inputs":[],"outputs":[{"name":"","type":"bytes32","internalType":"bytes32"}],"stateMutability":"view"},{"type":"function","name":"PRECISION","inputs":[],"outputs":[{"name":"","type":"uint256","internalType":"uint256"}],"stateMutability":"view"},{"type":"function","name":"accRewardPerShare","inputs":[],"outputs":[{"name":"","type":"uint256","internalType":"uint256"}],"stateMutability":"view"},{"type":"function","name":"claimRewards","inputs":[],"outputs":[],"stateMutability":"nonpayable"},{"type":"function","name":"distributeRewards","inputs":[{"name":"amount","type":"uint256","internalType":"uint256"}],"outputs":[],"stateMutability":"nonpayable"},{"type":"function","name":"getPendingRewards","inputs":[{"name":"user","type":"address","internalType":"address"}],"outputs":[{"name":"","type":"uint256","internalType":"uint256"}],"stateMutability":"view"},{"type":"function","name":"getRoleAdmin","inputs":[{"name":"role","type":"bytes32","internalType":"bytes32"}],"outputs":[{"name":"","type":"bytes32","internalType":"bytes32"}],"stateMutability":"view"},{"type":"function","name":"grantRole","inputs":[{"name":"role","type":"bytes32","internalType":"bytes32"},{"name":"account","type":"address","internalType":"address"}],"outputs":[],"stateMutability":"nonpayable"},{"type":"function","name":"hasRole","inputs":[{"name":"role","type":"bytes32","internalType":"bytes32"},{"name":"account","type":"address","internalType":"address"}],"outputs":[{"name":"","type":"bool","internalType":"bool"}],"stateMutability":"view"},{"type":"function","name":"kerne","inputs":[],"outputs":[{"name":"","type":"address","internalType":"contract KerneToken"}],"stateMutability":"view"},{"type":"function","name":"renounceRole","inputs":[{"name":"role","type":"bytes32","internalType":"bytes32"},{"name":"callerConfirmation","type":"address","internalType":"address"}],"outputs":[],"stateMutability":"nonpayable"},{"type":"function","name":"revokeRole","inputs":[{"name":"role","type":"bytes32","internalType":"bytes32"},{"name":"account","type":"address","internalType":"address"}],"outputs":[],"stateMutability":"nonpayable"},{"type":"function","name":"rewardToken","inputs":[],"outputs":[{"name":"","type":"address","internalType":"contract IERC20"}],"stateMutability":"view"},{"type":"function","name":"stake","inputs":[{"name":"amount","type":"uint256","internalType":"uint256"},{"name":"duration","type":"uint256","internalType":"uint256"}],"outputs":[],"stateMutability":"nonpayable"},{"type":"function","name":"stakes","inputs":[{"name":"","type":"address","internalType":"address"}],"outputs":[{"name":"amount","type":"uint256","internalType":"uint256"},{"name":"lockEnd","type":"uint256","internalType":"uint256"},{"name":"rewardDebt","type":"uint256","internalType":"uint256"}],"stateMutability":"view"},{"type":"function","name":"supportsInterface","inputs":[{"name":"interfaceId","type":"bytes4","internalType":"bytes4"}],"outputs":[{"name":"","type":"bool","internalType":"bool"}],"stateMutability":"view"},{"type":"function","name":"totalStaked","inputs":[],"outputs":[{"name":"","type":"uint256","internalType":"uint256"}],"stateMutability":"view"},{"type":"function","name":"withdraw","inputs":[],"outputs":[],"stateMutability":"nonpayable"},{"type":"event","name":"RewardClaimed","inputs":[{"name":"user","type":"address","indexed":true,"internalType":"address"},{"name":"amount","type":"uint256","indexed":false,"internalType":"uint256"}],"anonymous":false},{"type":"event","name":"RewardDistributed","inputs":[{"name":"amount","type":"uint256","indexed":false,"internalType":"uint256"}],"anonymous":false},{"type":"event","name":"RoleAdminChanged","inputs":[{"name":"role","type":"bytes32","indexed":true,"internalType":"bytes32"},{"name":"previousAdminRole","type":"bytes32","indexed":true,"internalType":"bytes32"},{"name":"newAdminRole","type":"bytes32","indexed":true,"internalType":"bytes32"}],"anonymous":false},{"type":"event","name":"RoleGranted","inputs":[{"name":"role","type":"bytes32","indexed":true,"internalType":"bytes32"},{"name":"account","type":"address","indexed":true,"internalType":"address"},{"name":"sender","type":"address","indexed":true,"internalType":"address"}],"anonymous":false},{"type":"event","name":"RoleRevoked","inputs":[{"name":"role","type":"bytes32","indexed":true,"internalType":"bytes32"},{"name":"account","type":"address","indexed":true,"internalType":"address"},{"name":"sender","type":"address","indexed":true,"internalType":"address"}],"anonymous":false},{"type":"event","name":"Staked","inputs":[{"name":"user","type":"address","indexed":true,"internalType":"address"},{"name":"amount","type":"uint256","indexed":false,"internalType":"uint256"},{"name":"lockDuration","type":"uint256","indexed":false,"internalType":"uint256"}],"anonymous":false},{"type":"event","name":"Withdrawn","inputs":[{"name":"user","type":"address","indexed":true,"internalType":"address"},{"name":"amount","type":"uint256","indexed":false,"internalType":"uint256"}],"anonymous":false},{"type":"error","name":"AccessControlBadConfirmation","inputs":[]},{"type":"error","name":"AccessControlUnauthorizedAccount","inputs":[{"name":"account","type":"address","internalType":"address"},{"name":"neededRole","type":"bytes32","internalType":"bytes32"}]},{"type":"error","name":"ReentrancyGuardReentrantCall","inputs":[]},{"type":"error","name":"SafeERC20FailedOperation","inputs":[{"name":"token","type":"address","internalType":"address"}]}],"bytecode":{"object":"0x60c060405234801561000f575f80fd5b5060405162000f9738038062000f978339810160408190526100309161013e565b60017f9b779b17422d0df92223018b32b4d1fa46e071723d6817e2486d003becc55f00556001600160a01b03808416608052821660a0526100715f8261007a565b5050505061017e565b5f828152602081815260408083206001600160a01b038516845290915281205460ff1661011a575f838152602081815260408083206001600160a01b03861684529091529020805460ff191660011790556100d23390565b6001600160a01b0316826001600160a01b0316847f2f8788117e7eff1d82e926ec794901d17c78024a50270940304540a733656f0d60405160405180910390a450600161011d565b505f5b92915050565b80516001600160a01b0381168114610139575f80fd5b919050565b5f805f60608486031215610150575f80fd5b61015984610123565b925061016760208501610123565b915061017560408501610123565b90509250925092565b60805160a051610ddb620001bc5f395f81816102ea015281816105cb0152610a4801525f81816102100152818161049e01526106c00152610ddb5ff3fe608060405234801561000f575f80fd5b506004361061011c575f3560e01c80637b0472f0116100a9578063aaf5eb681161006e578063aaf5eb6814610289578063d547741f14610298578063f0bd87cc146102ab578063f6ed2017146102d2578063f7c618c1146102e5575f80fd5b80637b0472f01461024a578063817b1cd21461025d57806391d1485414610266578063939d623714610279578063a217fddf14610282575f80fd5b806336568abe116100ef57806336568abe146101d5578063372500ab146101e85780633ccfd60b146101f057806359974e38146101f85780636b0d2d021461020b575f80fd5b806301ffc9a71461012057806316934fc414610148578063248a9ca3146101905780632f2ff15d146101c0575b5f80fd5b61013361012e366004610c59565b61030c565b60405190151581526020015b60405180910390f35b610175610156366004610c9b565b600160208190525f918252604090912080549181015460029091015483565b6040805193845260208401929092529082015260600161013f565b6101b261019e366004610cb4565b5f9081526020819052604090206001015490565b60405190815260200161013f565b6101d36101ce366004610ccb565b610342565b005b6101d36101e3366004610ccb565b61036c565b6101d36103a4565b6101d36103cd565b6101d3610206366004610cb4565b610512565b6102327f000000000000000000000000000000000000000000000000000000000000000081565b6040516001600160a01b03909116815260200161013f565b6101d3610258366004610cf5565b61065e565b6101b260025481565b610133610274366004610ccb565b6107dc565b6101b260035481565b6101b25f81565b6101b2670de0b6b3a764000081565b6101d36102a6366004610ccb565b610804565b6101b27ffbd454f36a7e1a388bd6fc3ab10d434aa4578f811acbbcf33afb1c697486313c81565b6101b26102e0366004610c9b565b610828565b6102327f000000000000000000000000000000000000000000000000000000000000000081565b5f6001600160e01b03198216637965db0b60e01b148061033c57506301ffc9a760e01b6001600160e01b03198316145b92915050565b5f8281526020819052604090206001015461035c8161089a565b61036683836108a7565b50505050565b6001600160a01b03811633146103955760405163334bd91960e11b815260040160405180910390fd5b61039f8282610936565b505050565b6103ac61099f565b6103b5336109ba565b6103cb60015f80516020610d8683398151915255565b565b6103d561099f565b335f908152600160208190526040909120908101544210156104315760405162461bcd60e51b815260206004820152601060248201526f131bd8dac81b9bdd08195e1c1a5c995960821b60448201526064015b60405180910390fd5b805461046a5760405162461bcd60e51b81526020600482015260086024820152674e6f207374616b6560c01b6044820152606401610428565b610473336109ba565b80545f8083556002805483929061048b908490610d29565b909155506104c590506001600160a01b037f0000000000000000000000000000000000000000000000000000000000000000163383610ab7565b60405181815233907f7084f5476618d8e60b11ef0d7d3f06914655adb8793e28ff7f018d4c76d505d59060200160405180910390a250506103cb60015f80516020610d8683398151915255565b7ffbd454f36a7e1a388bd6fc3ab10d434aa4578f811acbbcf33afb1c697486313c61053c8161089a565b5f82116105805760405162461bcd60e51b81526020600482015260126024820152710416d6f756e74206d757374206265203e20360741b6044820152606401610428565b5f600254116105be5760405162461bcd60e51b815260206004820152600a6024820152694e6f207374616b65727360b01b6044820152606401610428565b6105f36001600160a01b037f000000000000000000000000000000000000000000000000000000000000000016333085610aec565b600254610608670de0b6b3a764000084610d3c565b6106129190610d53565b60035f8282546106229190610d72565b90915550506040518281527f04944120d2e185fc95ba63f3ca24c385ec4c5215a801c8766c96486d7fc4ed8e9060200160405180910390a15050565b61066661099f565b5f82116106aa5760405162461bcd60e51b81526020600482015260126024820152710416d6f756e74206d757374206265203e20360741b6044820152606401610428565b6106b3336109ba565b6106e86001600160a01b037f000000000000000000000000000000000000000000000000000000000000000016333085610aec565b335f9081526001602052604081208054849290610706908490610d72565b9091555061071690508142610d72565b335f908152600160208190526040822001919091556002805484929061073d908490610d72565b9091555050600354335f90815260016020526040902054670de0b6b3a76400009161076791610d3c565b6107719190610d53565b335f8181526001602090815260409182902060020193909355805185815292830184905290917f1449c6dd7851abc30abf37f57715f492010519147cc2652fbc38202c18a6ee90910160405180910390a26107d860015f80516020610d8683398151915255565b5050565b5f918252602082815260408084206001600160a01b0393909316845291905290205460ff1690565b5f8281526020819052604090206001015461081e8161089a565b6103668383610936565b6001600160a01b0381165f9081526001602081815260408084208151606081018352815480825294820154938101939093526002015490820181905260035491929091670de0b6b3a76400009161087f9190610d3c565b6108899190610d53565b6108939190610d29565b9392505050565b6108a48133610b22565b50565b5f6108b283836107dc565b61092f575f838152602081815260408083206001600160a01b03861684529091529020805460ff191660011790556108e73390565b6001600160a01b0316826001600160a01b0316847f2f8788117e7eff1d82e926ec794901d17c78024a50270940304540a733656f0d60405160405180910390a450600161033c565b505f61033c565b5f61094183836107dc565b1561092f575f838152602081815260408083206001600160a01b0386168085529252808320805460ff1916905551339286917ff6391f5c32d9c69d2a47ea670b442974b53935d1edc7fd64eb21e047a839171b9190a450600161033c565b6109a7610b5b565b60025f80516020610d8683398151915255565b6001600160a01b0381165f9081526001602052604090208054156107d8575f8160020154670de0b6b3a7640000600354845f01546109f89190610d3c565b610a029190610d53565b610a0c9190610d29565b9050801561039f576003548254670de0b6b3a764000091610a2c91610d3c565b610a369190610d53565b6002830155610a6f6001600160a01b037f0000000000000000000000000000000000000000000000000000000000000000168483610ab7565b826001600160a01b03167f106f923f993c2149d49b4255ff723acafa1f2d94393f561d3eda32ae348f724182604051610aaa91815260200190565b60405180910390a2505050565b610ac48383836001610b8a565b61039f57604051635274afe760e01b81526001600160a01b0384166004820152602401610428565b610afa848484846001610bec565b61036657604051635274afe760e01b81526001600160a01b0385166004820152602401610428565b610b2c82826107dc565b6107d85760405163e2517d3f60e01b81526001600160a01b038216600482015260248101839052604401610428565b5f80516020610d86833981519152546002036103cb57604051633ee5aeb560e01b815260040160405180910390fd5b60405163a9059cbb60e01b5f8181526001600160a01b038616600452602485905291602083604481808b5af1925060015f51148316610be0578383151615610bd4573d5f823e3d81fd5b5f873b113d1516831692505b60405250949350505050565b6040516323b872dd60e01b5f8181526001600160a01b038781166004528616602452604485905291602083606481808c5af1925060015f51148316610c48578383151615610c3c573d5f823e3d81fd5b5f883b113d1516831692505b604052505f60605295945050505050565b5f60208284031215610c69575f80fd5b81356001600160e01b031981168114610893575f80fd5b80356001600160a01b0381168114610c96575f80fd5b919050565b5f60208284031215610cab575f80fd5b61089382610c80565b5f60208284031215610cc4575f80fd5b5035919050565b5f8060408385031215610cdc575f80fd5b82359150610cec60208401610c80565b90509250929050565b5f8060408385031215610d06575f80fd5b50508035926020909101359150565b634e487b7160e01b5f52601160045260245ffd5b8181038181111561033c5761033c610d15565b808202811582820484141761033c5761033c610d15565b5f82610d6d57634e487b7160e01b5f52601260045260245ffd5b500490565b8082018082111561033c5761033c610d1556fe9b779b17422d0df92223018b32b4d1fa46e071723d6817e2486d003becc55f00a26469706673582212200422de7ba67926c6b2f105e683638e5589adb697f13eb08a33f7437f45707f1564736f6c63430008180033","linkReferences":{}},"methodIdentifiers":{"DEFAULT_ADMIN_ROLE()":"a217fddf","DISTRIBUTOR_ROLE()":"f0bd87cc","PRECISION()":"aaf5eb68","accRewardPerShare()":"939d6237","claimRewards()":"372500ab","distributeRewards(uint256)":"59974e38","getPendingRewards(address)":"f6ed2017","getRoleAdmin(bytes32)":"248a9ca3","grantRole(bytes32,address)":"2f2ff15d","hasRole(bytes32,address)":"91d14854","kerne()":"6b0d2d02","renounceRole(bytes32,address)":"36568abe","revokeRole(bytes32,address)":"d547741f","rewardToken()":"f7c618c1","stake(uint256,uint256)":"7b0472f0","stakes(address)":"16934fc4","supportsInterface(bytes4)":"01ffc9a7","totalStaked()":"817b1cd2","withdraw()":"3ccfd60b"},"id":72}