{"abi":[{"type":"constructor","inputs":[{"name":"_founder","type":"address","internalType":"address"},{"name":"_kerneToken","type":"address","internalType":"address"},{"name":"_stakingContract","type":"address","internalType":"address"}],"stateMutability":"nonpayable"},{"type":"function","name":"BPS_DENOMINATOR","inputs":[],"outputs":[{"name":"","type":"uint256","internalType":"uint256"}],"stateMutability":"view"},{"type":"function","name":"BUYBACK_SHARE","inputs":[],"outputs":[{"name":"","type":"uint256","internalType":"uint256"}],"stateMutability":"view"},{"type":"function","name":"FOUNDER_SHARE","inputs":[],"outputs":[{"name":"","type":"uint256","internalType":"uint256"}],"stateMutability":"view"},{"type":"function","name":"distribute","inputs":[{"name":"token","type":"address","internalType":"address"}],"outputs":[],"stateMutability":"nonpayable"},{"type":"function","name":"emergencyWithdraw","inputs":[{"name":"token","type":"address","internalType":"address"}],"outputs":[],"stateMutability":"nonpayable"},{"type":"function","name":"executeBuyback","inputs":[{"name":"token","type":"address","internalType":"address"},{"name":"amount","type":"uint256","internalType":"uint256"},{"name":"minKerne","type":"uint256","internalType":"uint256"}],"outputs":[],"stateMutability":"nonpayable"},{"type":"function","name":"founder","inputs":[],"outputs":[{"name":"","type":"address","internalType":"address"}],"stateMutability":"view"},{"type":"function","name":"kerneToken","inputs":[],"outputs":[{"name":"","type":"address","internalType":"address"}],"stateMutability":"view"},{"type":"function","name":"owner","inputs":[],"outputs":[{"name":"","type":"address","internalType":"address"}],"stateMutability":"view"},{"type":"function","name":"renounceOwnership","inputs":[],"outputs":[],"stateMutability":"nonpayable"},{"type":"function","name":"stakingContract","inputs":[],"outputs":[{"name":"","type":"address","internalType":"address"}],"stateMutability":"view"},{"type":"function","name":"transferOwnership","inputs":[{"name":"newOwner","type":"address","internalType":"address"}],"outputs":[],"stateMutability":"nonpayable"},{"type":"function","name":"updateFounder","inputs":[{"name":"_newFounder","type":"address","internalType":"address"}],"outputs":[],"stateMutability":"nonpayable"},{"type":"event","name":"BuybackExecuted","inputs":[{"name":"amountIn","type":"uint256","indexed":false,"internalType":"uint256"},{"name":"amountOut","type":"uint256","indexed":false,"internalType":"uint256"}],"anonymous":false},{"type":"event","name":"FeesDistributed","inputs":[{"name":"token","type":"address","indexed":true,"internalType":"address"},{"name":"founderAmount","type":"uint256","indexed":false,"internalType":"uint256"},{"name":"buybackAmount","type":"uint256","indexed":false,"internalType":"uint256"}],"anonymous":false},{"type":"event","name":"FounderUpdated","inputs":[{"name":"newFounder","type":"address","indexed":true,"internalType":"address"}],"anonymous":false},{"type":"event","name":"OwnershipTransferred","inputs":[{"name":"previousOwner","type":"address","indexed":true,"internalType":"address"},{"name":"newOwner","type":"address","indexed":true,"internalType":"address"}],"anonymous":false},{"type":"error","name":"OwnableInvalidOwner","inputs":[{"name":"owner","type":"address","internalType":"address"}]},{"type":"error","name":"OwnableUnauthorizedAccount","inputs":[{"name":"account","type":"address","internalType":"address"}]},{"type":"error","name":"ReentrancyGuardReentrantCall","inputs":[]}],"bytecode":{"object":"0x608060405234801561000f575f80fd5b506040516109f03803806109f083398101604081905261002e9161012d565b338061005357604051631e4fbdf760e01b81525f600482015260240160405180910390fd5b61005c816100c3565b5060017f9b779b17422d0df92223018b32b4d1fa46e071723d6817e2486d003becc55f0055600180546001600160a01b039485166001600160a01b03199182161790915560028054938516938216939093179092556003805491909316911617905561016d565b5f80546001600160a01b038381166001600160a01b0319831681178455604051919092169283917f8be0079c531659141344cd1fd0a4f28419497f9722a3daafe3b4186f6b6457e09190a35050565b80516001600160a01b0381168114610128575f80fd5b919050565b5f805f6060848603121561013f575f80fd5b61014884610112565b925061015660208501610112565b915061016460408501610112565b90509250925092565b6108768061017a5f395ff3fe608060405234801561000f575f80fd5b50600436106100cb575f3560e01c80637f44a9bb11610088578063eb72e4f511610063578063eb72e4f514610185578063ee99205c1461018e578063eed19be3146101a1578063f2fde38b146101b4575f80fd5b80637f44a9bb146101555780638da5cb5b1461016c578063e1a452181461017c575f80fd5b806348372b86146100cf5780634d853ee5146100e457806363453ae1146101145780636ff1c9bc14610127578063715018a61461013a5780637df416ed14610142575b5f80fd5b6100e26100dd366004610757565b6101c7565b005b6001546100f7906001600160a01b031681565b6040516001600160a01b0390911681526020015b60405180910390f35b6100e2610122366004610787565b61020d565b6100e2610135366004610787565b610459565b6100e261055e565b6002546100f7906001600160a01b031681565b61015e611f4081565b60405190815260200161010b565b5f546001600160a01b03166100f7565b61015e61271081565b61015e6107d081565b6003546100f7906001600160a01b031681565b6100e26101af366004610787565b610571565b6100e26101c2366004610787565b610617565b6101cf610651565b60408051838152602081018390527f8e8412cac6b961b95ef832e2bac486977bbd29eb9725f9eddd97f3380c31f649910160405180910390a1505050565b61021561067d565b6040516370a0823160e01b81523060048201525f906001600160a01b038316906370a0823190602401602060405180830381865afa158015610259573d5f803e3d5ffd5b505050506040513d601f19601f8201168201806040525081019061027d91906107a7565b90505f81116102d35760405162461bcd60e51b815260206004820152601860248201527f4e6f2062616c616e636520746f2064697374726962757465000000000000000060448201526064015b60405180910390fd5b5f6127106102e3611f40846107d2565b6102ed91906107ef565b90505f6102fa828461080e565b60015460405163a9059cbb60e01b81526001600160a01b0391821660048201526024810185905291925085169063a9059cbb906044016020604051808303815f875af115801561034c573d5f803e3d5ffd5b505050506040513d601f19601f820116820180604052508101906103709190610821565b5060035460405163a9059cbb60e01b81526001600160a01b039182166004820152602481018390529085169063a9059cbb906044016020604051808303815f875af11580156103c1573d5f803e3d5ffd5b505050506040513d601f19601f820116820180604052508101906103e59190610821565b5060408051838152602081018390526001600160a01b038616917f85da6ab72d2b48932522aea80adb8ca4fab6cdeb87bc2e7f6c03fd78d3b2100e910160405180910390a250505061045660017f9b779b17422d0df92223018b32b4d1fa46e071723d6817e2486d003becc55f0055565b50565b610461610651565b6040516370a0823160e01b81523060048201525f906001600160a01b038316906370a0823190602401602060405180830381865afa1580156104a5573d5f803e3d5ffd5b505050506040513d601f19601f820116820180604052508101906104c991906107a7565b9050816001600160a01b031663a9059cbb6104eb5f546001600160a01b031690565b6040516001600160e01b031960e084901b1681526001600160a01b039091166004820152602481018490526044016020604051808303815f875af1158015610535573d5f803e3d5ffd5b505050506040513d601f19601f820116820180604052508101906105599190610821565b505050565b610566610651565b61056f5f6106ab565b565b6001546001600160a01b031633148061059357505f546001600160a01b031633145b6105ce5760405162461bcd60e51b815260206004820152600c60248201526b155b985d5d1a1bdc9a5e995960a21b60448201526064016102ca565b600180546001600160a01b0319166001600160a01b0383169081179091556040517fc8986b19e73a52c95e360c03f068336596a223a5d5cf23a1e0c06fe3c53fa263905f90a250565b61061f610651565b6001600160a01b03811661064857604051631e4fbdf760e01b81525f60048201526024016102ca565b610456816106ab565b5f546001600160a01b0316331461056f5760405163118cdaa760e01b81523360048201526024016102ca565b6106856106fa565b60027f9b779b17422d0df92223018b32b4d1fa46e071723d6817e2486d003becc55f0055565b5f80546001600160a01b038381166001600160a01b0319831681178455604051919092169283917f8be0079c531659141344cd1fd0a4f28419497f9722a3daafe3b4186f6b6457e09190a35050565b7f9b779b17422d0df92223018b32b4d1fa46e071723d6817e2486d003becc55f005460020361056f57604051633ee5aeb560e01b815260040160405180910390fd5b80356001600160a01b0381168114610752575f80fd5b919050565b5f805f60608486031215610769575f80fd5b6107728461073c565b95602085013595506040909401359392505050565b5f60208284031215610797575f80fd5b6107a08261073c565b9392505050565b5f602082840312156107b7575f80fd5b5051919050565b634e487b7160e01b5f52601160045260245ffd5b80820281158282048414176107e9576107e96107be565b92915050565b5f8261080957634e487b7160e01b5f52601260045260245ffd5b500490565b818103818111156107e9576107e96107be565b5f60208284031215610831575f80fd5b815180151581146107a0575f80fdfea264697066735822122073e51bcf7d1a3c773bc7be8ff140d211d4cedca7a8541cef59efb3aaf4019b9864736f6c63430008180033","linkReferences":{}},"methodIdentifiers":{"BPS_DENOMINATOR()":"e1a45218","BUYBACK_SHARE()":"eb72e4f5","FOUNDER_SHARE()":"7f44a9bb","distribute(address)":"63453ae1","emergencyWithdraw(address)":"6ff1c9bc","executeBuyback(address,uint256,uint256)":"48372b86","founder()":"4d853ee5","kerneToken()":"7df416ed","owner()":"8da5cb5b","renounceOwnership()":"715018a6","stakingContract()":"ee99205c","transferOwnership(address)":"f2fde38b","updateFounder(address)":"eed19be3"},"id":74}