{"abi":[{"type":"constructor","inputs":[{"name":"_kusd","type":"address","internalType":"address"},{"name":"_vault","type":"address","internalType":"address"},{"name":"_usdc","type":"address","internalType":"address"},{"name":"_admin","type":"address","internalType":"address"}],"stateMutability":"nonpayable"},{"type":"function","name":"DEFAULT_ADMIN_ROLE","inputs":[],"outputs":[{"name":"","type":"bytes32","internalType":"bytes32"}],"stateMutability":"view"},{"type":"function","name":"DEVIATION_THRESHOLD","inputs":[],"outputs":[{"name":"","type":"uint256","internalType":"uint256"}],"stateMutability":"view"},{"type":"function","name":"PEG_PRICE","inputs":[],"outputs":[{"name":"","type":"uint256","internalType":"uint256"}],"stateMutability":"view"},{"type":"function","name":"STRATEGIST_ROLE","inputs":[],"outputs":[{"name":"","type":"bytes32","internalType":"bytes32"}],"stateMutability":"view"},{"type":"function","name":"defendPeg","inputs":[{"name":"usdcAmount","type":"uint256","internalType":"uint256"},{"name":"minKUSD","type":"uint256","internalType":"uint256"}],"outputs":[],"stateMutability":"nonpayable"},{"type":"function","name":"emergencyWithdraw","inputs":[{"name":"token","type":"address","internalType":"address"},{"name":"amount","type":"uint256","internalType":"uint256"}],"outputs":[],"stateMutability":"nonpayable"},{"type":"function","name":"getRoleAdmin","inputs":[{"name":"role","type":"bytes32","internalType":"bytes32"}],"outputs":[{"name":"","type":"bytes32","internalType":"bytes32"}],"stateMutability":"view"},{"type":"function","name":"grantRole","inputs":[{"name":"role","type":"bytes32","internalType":"bytes32"},{"name":"account","type":"address","internalType":"address"}],"outputs":[],"stateMutability":"nonpayable"},{"type":"function","name":"harvestYield","inputs":[{"name":"amount","type":"uint256","internalType":"uint256"}],"outputs":[],"stateMutability":"nonpayable"},{"type":"function","name":"hasRole","inputs":[{"name":"role","type":"bytes32","internalType":"bytes32"},{"name":"account","type":"address","internalType":"address"}],"outputs":[{"name":"","type":"bool","internalType":"bool"}],"stateMutability":"view"},{"type":"function","name":"kusd","inputs":[],"outputs":[{"name":"","type":"address","internalType":"contract kUSD"}],"stateMutability":"view"},{"type":"function","name":"renounceRole","inputs":[{"name":"role","type":"bytes32","internalType":"bytes32"},{"name":"callerConfirmation","type":"address","internalType":"address"}],"outputs":[],"stateMutability":"nonpayable"},{"type":"function","name":"revokeRole","inputs":[{"name":"role","type":"bytes32","internalType":"bytes32"},{"name":"account","type":"address","internalType":"address"}],"outputs":[],"stateMutability":"nonpayable"},{"type":"function","name":"supportsInterface","inputs":[{"name":"interfaceId","type":"bytes4","internalType":"bytes4"}],"outputs":[{"name":"","type":"bool","internalType":"bool"}],"stateMutability":"view"},{"type":"function","name":"usdc","inputs":[],"outputs":[{"name":"","type":"address","internalType":"contract IERC20"}],"stateMutability":"view"},{"type":"function","name":"vault","inputs":[],"outputs":[{"name":"","type":"address","internalType":"contract KerneVault"}],"stateMutability":"view"},{"type":"event","name":"PegDefended","inputs":[{"name":"amountSpent","type":"uint256","indexed":false,"internalType":"uint256"},{"name":"kusdBought","type":"uint256","indexed":false,"internalType":"uint256"}],"anonymous":false},{"type":"event","name":"RoleAdminChanged","inputs":[{"name":"role","type":"bytes32","indexed":true,"internalType":"bytes32"},{"name":"previousAdminRole","type":"bytes32","indexed":true,"internalType":"bytes32"},{"name":"newAdminRole","type":"bytes32","indexed":true,"internalType":"bytes32"}],"anonymous":false},{"type":"event","name":"RoleGranted","inputs":[{"name":"role","type":"bytes32","indexed":true,"internalType":"bytes32"},{"name":"account","type":"address","indexed":true,"internalType":"address"},{"name":"sender","type":"address","indexed":true,"internalType":"address"}],"anonymous":false},{"type":"event","name":"RoleRevoked","inputs":[{"name":"role","type":"bytes32","indexed":true,"internalType":"bytes32"},{"name":"account","type":"address","indexed":true,"internalType":"address"},{"name":"sender","type":"address","indexed":true,"internalType":"address"}],"anonymous":false},{"type":"event","name":"YieldHarvested","inputs":[{"name":"amount","type":"uint256","indexed":false,"internalType":"uint256"}],"anonymous":false},{"type":"error","name":"AccessControlBadConfirmation","inputs":[]},{"type":"error","name":"AccessControlUnauthorizedAccount","inputs":[{"name":"account","type":"address","internalType":"address"},{"name":"neededRole","type":"bytes32","internalType":"bytes32"}]},{"type":"error","name":"SafeERC20FailedOperation","inputs":[{"name":"token","type":"address","internalType":"address"}]}],"bytecode":{"object":"0x60e060405234801561000f575f80fd5b50604051610ae4380380610ae483398101604081905261002e9161014a565b6001600160a01b0380851660805283811660a052821660c0526100515f82610086565b5061007c7f17a8e30262c1f919c33056d877a3c22b95c2f5e4dac44683c1c2323cd79fbdb082610086565b505050505061019b565b5f828152602081815260408083206001600160a01b038516845290915281205460ff16610126575f838152602081815260408083206001600160a01b03861684529091529020805460ff191660011790556100de3390565b6001600160a01b0316826001600160a01b0316847f2f8788117e7eff1d82e926ec794901d17c78024a50270940304540a733656f0d60405160405180910390a4506001610129565b505f5b92915050565b80516001600160a01b0381168114610145575f80fd5b919050565b5f805f806080858703121561015d575f80fd5b6101668561012f565b93506101746020860161012f565b92506101826040860161012f565b91506101906060860161012f565b905092959194509250565b60805160a05160c0516109116101d35f395f6101cd01525f818161028a01528181610420015261044301525f61012c01526109115ff3fe608060405234801561000f575f80fd5b50600436106100fb575f3560e01c80635c63ac5911610093578063a378a32411610063578063a378a32414610242578063b849116414610269578063d547741f14610272578063fbfa77cf14610285575f80fd5b80635c63ac591461020257806391d148541461021557806395ccea6714610228578063a217fddf1461023b575f80fd5b806336568abe116100ce57806336568abe146101ab5780633be79a4e146101be5780633e413bee146101c857806358c8887d146101ef575f80fd5b806301ffc9a7146100ff5780632398a4d714610127578063248a9ca3146101665780632f2ff15d14610196575b5f80fd5b61011261010d3660046107ef565b6102ac565b60405190151581526020015b60405180910390f35b61014e7f000000000000000000000000000000000000000000000000000000000000000081565b6040516001600160a01b03909116815260200161011e565b61018861017436600461081d565b5f9081526020819052604090206001015490565b60405190815260200161011e565b6101a96101a4366004610848565b6102e2565b005b6101a96101b9366004610848565b61030c565b610188620f424081565b61014e7f000000000000000000000000000000000000000000000000000000000000000081565b6101a96101fd366004610876565b610344565b6101a961021036600461081d565b6103f1565b610112610223366004610848565b610509565b6101a9610236366004610896565b610531565b6101885f81565b6101887f17a8e30262c1f919c33056d877a3c22b95c2f5e4dac44683c1c2323cd79fbdb081565b61018861138881565b6101a9610280366004610848565b61054f565b61014e7f000000000000000000000000000000000000000000000000000000000000000081565b5f6001600160e01b03198216637965db0b60e01b14806102dc57506301ffc9a760e01b6001600160e01b03198316145b92915050565b5f828152602081905260409020600101546102fc81610573565b6103068383610580565b50505050565b6001600160a01b03811633146103355760405163334bd91960e11b815260040160405180910390fd5b61033f828261060f565b505050565b7f17a8e30262c1f919c33056d877a3c22b95c2f5e4dac44683c1c2323cd79fbdb061036e81610573565b5f83116103b35760405162461bcd60e51b815260206004820152600e60248201526d125b9d985b1a5908185b5bdd5b9d60921b60448201526064015b60405180910390fd5b60408051848152602081018490527fd9b3f3a3f030ade5aad29160451f86b0861e54d51631feb5336e80a1fa4aa701910160405180910390a1505050565b7f17a8e30262c1f919c33056d877a3c22b95c2f5e4dac44683c1c2323cd79fbdb061041b81610573565b6104d27f000000000000000000000000000000000000000000000000000000000000000030847f00000000000000000000000000000000000000000000000000000000000000006001600160a01b03166338d52e0f6040518163ffffffff1660e01b8152600401602060405180830381865afa15801561049d573d5f803e3d5ffd5b505050506040513d601f19601f820116820180604052508101906104c191906108c0565b6001600160a01b0316929190610678565b6040518281527feb2d114a827fe0da3db4c0e374010959cf461f7ed76987aeff51666dea9add9b9060200160405180910390a15050565b5f918252602082815260408084206001600160a01b0393909316845291905290205460ff1690565b5f61053b81610573565b61033f6001600160a01b03841633846106ae565b5f8281526020819052604090206001015461056981610573565b610306838361060f565b61057d81336106e3565b50565b5f61058b8383610509565b610608575f838152602081815260408083206001600160a01b03861684529091529020805460ff191660011790556105c03390565b6001600160a01b0316826001600160a01b0316847f2f8788117e7eff1d82e926ec794901d17c78024a50270940304540a733656f0d60405160405180910390a45060016102dc565b505f6102dc565b5f61061a8383610509565b15610608575f838152602081815260408083206001600160a01b0386168085529252808320805460ff1916905551339286917ff6391f5c32d9c69d2a47ea670b442974b53935d1edc7fd64eb21e047a839171b9190a45060016102dc565b610686848484846001610720565b61030657604051635274afe760e01b81526001600160a01b03851660048201526024016103aa565b6106bb838383600161078d565b61033f57604051635274afe760e01b81526001600160a01b03841660048201526024016103aa565b6106ed8282610509565b61071c5760405163e2517d3f60e01b81526001600160a01b0382166004820152602481018390526044016103aa565b5050565b6040516323b872dd60e01b5f8181526001600160a01b038781166004528616602452604485905291602083606481808c5af1925060015f5114831661077c578383151615610770573d5f823e3d81fd5b5f883b113d1516831692505b604052505f60605295945050505050565b60405163a9059cbb60e01b5f8181526001600160a01b038616600452602485905291602083604481808b5af1925060015f511483166107e35783831516156107d7573d5f823e3d81fd5b5f873b113d1516831692505b60405250949350505050565b5f602082840312156107ff575f80fd5b81356001600160e01b031981168114610816575f80fd5b9392505050565b5f6020828403121561082d575f80fd5b5035919050565b6001600160a01b038116811461057d575f80fd5b5f8060408385031215610859575f80fd5b82359150602083013561086b81610834565b809150509250929050565b5f8060408385031215610887575f80fd5b50508035926020909101359150565b5f80604083850312156108a7575f80fd5b82356108b281610834565b946020939093013593505050565b5f602082840312156108d0575f80fd5b81516108168161083456fea26469706673582212208a46eddb5390d7c51b5f733655ee8350f77755b1feec541c14adf476734974fb64736f6c63430008180033","linkReferences":{}},"methodIdentifiers":{"DEFAULT_ADMIN_ROLE()":"a217fddf","DEVIATION_THRESHOLD()":"b8491164","PEG_PRICE()":"3be79a4e","STRATEGIST_ROLE()":"a378a324","defendPeg(uint256,uint256)":"58c8887d","emergencyWithdraw(address,uint256)":"95ccea67","getRoleAdmin(bytes32)":"248a9ca3","grantRole(bytes32,address)":"2f2ff15d","harvestYield(uint256)":"5c63ac59","hasRole(bytes32,address)":"91d14854","kusd()":"2398a4d7","renounceRole(bytes32,address)":"36568abe","revokeRole(bytes32,address)":"d547741f","supportsInterface(bytes4)":"01ffc9a7","usdc()":"3e413bee","vault()":"fbfa77cf"},"id":63}