{"abi":[{"type":"constructor","inputs":[{"name":"_kusd","type":"address","internalType":"address"},{"name":"_vault","type":"address","internalType":"address"},{"name":"_admin","type":"address","internalType":"address"}],"stateMutability":"nonpayable"},{"type":"function","name":"DEFAULT_ADMIN_ROLE","inputs":[],"outputs":[{"name":"","type":"bytes32","internalType":"bytes32"}],"stateMutability":"view"},{"type":"function","name":"LIQUIDATION_BONUS","inputs":[],"outputs":[{"name":"","type":"uint256","internalType":"uint256"}],"stateMutability":"view"},{"type":"function","name":"LIQUIDATION_THRESHOLD","inputs":[],"outputs":[{"name":"","type":"uint256","internalType":"uint256"}],"stateMutability":"view"},{"type":"function","name":"MANAGER_ROLE","inputs":[],"outputs":[{"name":"","type":"bytes32","internalType":"bytes32"}],"stateMutability":"view"},{"type":"function","name":"MINT_COLLATERAL_RATIO","inputs":[],"outputs":[{"name":"","type":"uint256","internalType":"uint256"}],"stateMutability":"view"},{"type":"function","name":"PRECISION","inputs":[],"outputs":[{"name":"","type":"uint256","internalType":"uint256"}],"stateMutability":"view"},{"type":"function","name":"burn","inputs":[{"name":"kusdAmount","type":"uint256","internalType":"uint256"},{"name":"kLPAmount","type":"uint256","internalType":"uint256"}],"outputs":[],"stateMutability":"nonpayable"},{"type":"function","name":"flashMint","inputs":[{"name":"receiver","type":"address","internalType":"address"},{"name":"amount","type":"uint256","internalType":"uint256"},{"name":"data","type":"bytes","internalType":"bytes"}],"outputs":[],"stateMutability":"nonpayable"},{"type":"function","name":"fold","inputs":[{"name":"amountToBorrow","type":"uint256","internalType":"uint256"},{"name":"minKLPOut","type":"uint256","internalType":"uint256"}],"outputs":[],"stateMutability":"nonpayable"},{"type":"function","name":"getHealthFactor","inputs":[{"name":"user","type":"address","internalType":"address"}],"outputs":[{"name":"","type":"uint256","internalType":"uint256"}],"stateMutability":"view"},{"type":"function","name":"getKLPPrice","inputs":[],"outputs":[{"name":"","type":"uint256","internalType":"uint256"}],"stateMutability":"view"},{"type":"function","name":"getRoleAdmin","inputs":[{"name":"role","type":"bytes32","internalType":"bytes32"}],"outputs":[{"name":"","type":"bytes32","internalType":"bytes32"}],"stateMutability":"view"},{"type":"function","name":"grantRole","inputs":[{"name":"role","type":"bytes32","internalType":"bytes32"},{"name":"account","type":"address","internalType":"address"}],"outputs":[],"stateMutability":"nonpayable"},{"type":"function","name":"hasRole","inputs":[{"name":"role","type":"bytes32","internalType":"bytes32"},{"name":"account","type":"address","internalType":"address"}],"outputs":[{"name":"","type":"bool","internalType":"bool"}],"stateMutability":"view"},{"type":"function","name":"isHealthy","inputs":[{"name":"user","type":"address","internalType":"address"},{"name":"threshold","type":"uint256","internalType":"uint256"}],"outputs":[{"name":"","type":"bool","internalType":"bool"}],"stateMutability":"view"},{"type":"function","name":"isHealthy","inputs":[{"name":"user","type":"address","internalType":"address"}],"outputs":[{"name":"","type":"bool","internalType":"bool"}],"stateMutability":"view"},{"type":"function","name":"kusd","inputs":[],"outputs":[{"name":"","type":"address","internalType":"contract kUSD"}],"stateMutability":"view"},{"type":"function","name":"leverage","inputs":[{"name":"wethAmount","type":"uint256","internalType":"uint256"},{"name":"kusdAmount","type":"uint256","internalType":"uint256"}],"outputs":[],"stateMutability":"nonpayable"},{"type":"function","name":"liquidate","inputs":[{"name":"user","type":"address","internalType":"address"}],"outputs":[],"stateMutability":"nonpayable"},{"type":"function","name":"mint","inputs":[{"name":"kLPAmount","type":"uint256","internalType":"uint256"},{"name":"kusdAmount","type":"uint256","internalType":"uint256"}],"outputs":[],"stateMutability":"nonpayable"},{"type":"function","name":"onFlashMint","inputs":[{"name":"initiator","type":"address","internalType":"address"},{"name":"token","type":"address","internalType":"address"},{"name":"amount","type":"uint256","internalType":"uint256"},{"name":"fee","type":"uint256","internalType":"uint256"},{"name":"data","type":"bytes","internalType":"bytes"}],"outputs":[{"name":"","type":"bytes32","internalType":"bytes32"}],"stateMutability":"nonpayable"},{"type":"function","name":"pause","inputs":[],"outputs":[],"stateMutability":"nonpayable"},{"type":"function","name":"paused","inputs":[],"outputs":[{"name":"","type":"bool","internalType":"bool"}],"stateMutability":"view"},{"type":"function","name":"positions","inputs":[{"name":"","type":"address","internalType":"address"}],"outputs":[{"name":"collateralAmount","type":"uint256","internalType":"uint256"},{"name":"debtAmount","type":"uint256","internalType":"uint256"}],"stateMutability":"view"},{"type":"function","name":"rebalance","inputs":[{"name":"user","type":"address","internalType":"address"},{"name":"kLPToRedeem","type":"uint256","internalType":"uint256"}],"outputs":[],"stateMutability":"nonpayable"},{"type":"function","name":"renounceRole","inputs":[{"name":"role","type":"bytes32","internalType":"bytes32"},{"name":"callerConfirmation","type":"address","internalType":"address"}],"outputs":[],"stateMutability":"nonpayable"},{"type":"function","name":"revokeRole","inputs":[{"name":"role","type":"bytes32","internalType":"bytes32"},{"name":"account","type":"address","internalType":"address"}],"outputs":[],"stateMutability":"nonpayable"},{"type":"function","name":"supportsInterface","inputs":[{"name":"interfaceId","type":"bytes4","internalType":"bytes4"}],"outputs":[{"name":"","type":"bool","internalType":"bool"}],"stateMutability":"view"},{"type":"function","name":"unpause","inputs":[],"outputs":[],"stateMutability":"nonpayable"},{"type":"function","name":"vault","inputs":[],"outputs":[{"name":"","type":"address","internalType":"contract KerneVault"}],"stateMutability":"view"},{"type":"event","name":"Burned","inputs":[{"name":"user","type":"address","indexed":true,"internalType":"address"},{"name":"collateralAmount","type":"uint256","indexed":false,"internalType":"uint256"},{"name":"kusdAmount","type":"uint256","indexed":false,"internalType":"uint256"}],"anonymous":false},{"type":"event","name":"Leveraged","inputs":[{"name":"user","type":"address","indexed":true,"internalType":"address"},{"name":"wethAmount","type":"uint256","indexed":false,"internalType":"uint256"},{"name":"kLPMinted","type":"uint256","indexed":false,"internalType":"uint256"},{"name":"kusdMinted","type":"uint256","indexed":false,"internalType":"uint256"}],"anonymous":false},{"type":"event","name":"Liquidated","inputs":[{"name":"user","type":"address","indexed":true,"internalType":"address"},{"name":"liquidator","type":"address","indexed":true,"internalType":"address"},{"name":"collateralLiquidated","type":"uint256","indexed":false,"internalType":"uint256"},{"name":"debtRepaid","type":"uint256","indexed":false,"internalType":"uint256"}],"anonymous":false},{"type":"event","name":"Minted","inputs":[{"name":"user","type":"address","indexed":true,"internalType":"address"},{"name":"collateralAmount","type":"uint256","indexed":false,"internalType":"uint256"},{"name":"kusdAmount","type":"uint256","indexed":false,"internalType":"uint256"}],"anonymous":false},{"type":"event","name":"Paused","inputs":[{"name":"account","type":"address","indexed":false,"internalType":"address"}],"anonymous":false},{"type":"event","name":"RoleAdminChanged","inputs":[{"name":"role","type":"bytes32","indexed":true,"internalType":"bytes32"},{"name":"previousAdminRole","type":"bytes32","indexed":true,"internalType":"bytes32"},{"name":"newAdminRole","type":"bytes32","indexed":true,"internalType":"bytes32"}],"anonymous":false},{"type":"event","name":"RoleGranted","inputs":[{"name":"role","type":"bytes32","indexed":true,"internalType":"bytes32"},{"name":"account","type":"address","indexed":true,"internalType":"address"},{"name":"sender","type":"address","indexed":true,"internalType":"address"}],"anonymous":false},{"type":"event","name":"RoleRevoked","inputs":[{"name":"role","type":"bytes32","indexed":true,"internalType":"bytes32"},{"name":"account","type":"address","indexed":true,"internalType":"address"},{"name":"sender","type":"address","indexed":true,"internalType":"address"}],"anonymous":false},{"type":"event","name":"Unpaused","inputs":[{"name":"account","type":"address","indexed":false,"internalType":"address"}],"anonymous":false},{"type":"error","name":"AccessControlBadConfirmation","inputs":[]},{"type":"error","name":"AccessControlUnauthorizedAccount","inputs":[{"name":"account","type":"address","internalType":"address"},{"name":"neededRole","type":"bytes32","internalType":"bytes32"}]},{"type":"error","name":"EnforcedPause","inputs":[]},{"type":"error","name":"ExpectedPause","inputs":[]},{"type":"error","name":"ReentrancyGuardReentrantCall","inputs":[]},{"type":"error","name":"SafeERC20FailedOperation","inputs":[{"name":"token","type":"address","internalType":"address"}]}],"bytecode":{"object":"0x60c060405234801562000010575f80fd5b506040516200251738038062002517833981016040819052620000339162000175565b60017f9b779b17422d0df92223018b32b4d1fa46e071723d6817e2486d003becc55f00556001600160a01b03808416608052821660a052620000765f82620000ad565b50620000a37f241ecf16d79d0f8dbfb92cbc07fe17840425976cf0667f022fe9877caa831b0882620000ad565b50505050620001bc565b5f828152602081815260408083206001600160a01b038516845290915281205460ff1662000150575f838152602081815260408083206001600160a01b03861684529091529020805460ff19166001179055620001073390565b6001600160a01b0316826001600160a01b0316847f2f8788117e7eff1d82e926ec794901d17c78024a50270940304540a733656f0d60405160405180910390a450600162000153565b505f5b92915050565b80516001600160a01b038116811462000170575f80fd5b919050565b5f805f6060848603121562000188575f80fd5b620001938462000159565b9250620001a36020850162000159565b9150620001b36040850162000159565b90509250925092565b60805160a0516122a6620002715f395f81816104300152818161050e0152818161084401528181610a2b01528181610e9001528181610f3c01528181610fd4015281816112f90152818161138e0152818161142a015281816118cd0152818161196001526119e301525f8181610217015281816105f2015281816107d801528181610b6901528181610d110152818161111801528181611239015281816115a0015281816115cf015261175d01526122a65ff3fe608060405234801561000f575f80fd5b50600436106101d1575f3560e01c80635e96263c116100fe578063b390c0ab1161009e578063eb0e0e671161006e578063eb0e0e67146103fc578063ec87621c14610404578063fbfa77cf1461042b578063fe6bcd7c14610452575f80fd5b8063b390c0ab146103bb578063d4d9bc68146103ce578063d547741f146103e1578063e0cbf4f4146103f4575f80fd5b806391d14854116100d957806391d148541461037f578063a217fddf14610392578063a7c118be14610399578063aaf5eb68146103ac575f80fd5b80635e96263c1461035c5780638456cb591461036f57806390a8ae9b14610377575f80fd5b806336568abe1161017457806353ebb8991161014457806353ebb899146102f057806355f575101461030357806358cd8c221461033e5780635c975abb14610351575f80fd5b806336568abe146102af5780633da9b9d0146102c25780633ea21465146102d55780633f4ba83a146102e8575f80fd5b8063248a9ca3116101af578063248a9ca3146102515780632f2ff15d146102815780632f865568146102945780633574d4c4146102a7575f80fd5b806301ffc9a7146101d55780631b2ef1ca146101fd5780632398a4d714610212575b5f80fd5b6101e86101e3366004611ee5565b610465565b60405190151581526020015b60405180910390f35b61021061020b366004611f13565b61049b565b005b6102397f000000000000000000000000000000000000000000000000000000000000000081565b6040516001600160a01b0390911681526020016101f4565b61027361025f366004611f33565b5f9081526020819052604090206001015490565b6040519081526020016101f4565b61021061028f366004611f5e565b6106a8565b6102106102a2366004611f8c565b6106d2565b610273600581565b6102106102bd366004611f5e565b6108d0565b6102106102d0366004611fa7565b610908565b6102106102e3366004612016565b610b42565b610210610be7565b6101e86102fe366004611fa7565b610bf9565b610329610311366004611f8c565b60026020525f90815260409020805460019091015482565b604080519283526020830191909152016101f4565b61021061034c366004611f13565b610c8c565b60015460ff166101e8565b61021061036a366004611f13565b610e38565b6102106111d3565b610273607881565b6101e861038d366004611f5e565b611205565b6102735f81565b6102736103a736600461206e565b61122d565b610273670de0b6b3a764000081565b6102106103c9366004611f13565b611698565b6101e86103dc366004611f8c565b61192c565b6102106103ef366004611f5e565b611938565b61027361195c565b610273609681565b6102737f241ecf16d79d0f8dbfb92cbc07fe17840425976cf0667f022fe9877caa831b0881565b6102397f000000000000000000000000000000000000000000000000000000000000000081565b610273610460366004611f8c565b611a9e565b5f6001600160e01b03198216637965db0b60e01b148061049557506301ffc9a760e01b6001600160e01b03198316145b92915050565b6104a3611b50565b6104ab611b6b565b5f8211806104b857505f81115b6104fb5760405162461bcd60e51b815260206004820152600f60248201526e496e76616c696420616d6f756e747360881b60448201526064015b60405180910390fd5b811561055a576105366001600160a01b037f000000000000000000000000000000000000000000000000000000000000000016333085611b91565b335f90815260026020526040812080548492906105549084906120f9565b90915550505b801561065257335f90815260026020526040812060010180548392906105819084906120f9565b9091555061059090503361192c565b6105d65760405162461bcd60e51b8152602060048201526017602482015276125b9cdd59999a58da595b9d0818dbdb1b185d195c985b604a1b60448201526064016104f2565b6040516340c10f1960e01b8152336004820152602481018290527f00000000000000000000000000000000000000000000000000000000000000006001600160a01b0316906340c10f19906044015f604051808303815f87803b15801561063b575f80fd5b505af115801561064d573d5f803e3d5ffd5b505050505b604080518381526020810183905233917f25b428dfde728ccfaddad7e29e4ac23c24ed7fd1a6e3e3f91894a9a073f5dfff91015b60405180910390a26106a460015f8051602061225183398151915255565b5050565b5f828152602081905260409020600101546106c281611bc7565b6106cc8383611bd1565b50505050565b6106da611b50565b6106e5816078610bf9565b156107285760405162461bcd60e51b8152602060048201526013602482015272506f736974696f6e206973206865616c74687960681b60448201526064016104f2565b6001600160a01b0381165f9081526002602052604081206001810154909160646107536005826120f9565b61075d908461210c565b6107679190612123565b90505f61077261195c565b610784670de0b6b3a76400008461210c565b61078e9190612123565b845490915081111561079e575082545b5f600185018190558454829186916107b7908490612142565b909155505060405163079cc67960e41b8152336004820152602481018490527f00000000000000000000000000000000000000000000000000000000000000006001600160a01b0316906379cc6790906044015f604051808303815f87803b158015610821575f80fd5b505af1158015610833573d5f803e3d5ffd5b5061086d9250506001600160a01b037f00000000000000000000000000000000000000000000000000000000000000001690503383611c60565b604080518281526020810185905233916001600160a01b038816917f1f0c6615429d1cdae0dfa233abf91d3b31cdbdd82c8081389832a61e1072f1ea910160405180910390a3505050506108cd60015f8051602061225183398151915255565b50565b6001600160a01b03811633146108f95760405163334bd91960e11b815260040160405180910390fd5b6109038282611c95565b505050565b7f241ecf16d79d0f8dbfb92cbc07fe17840425976cf0667f022fe9877caa831b0861093281611bc7565b61093a611b50565b670e92596fd629000061094c84611a9e565b106109a45760405162461bcd60e51b815260206004820152602260248201527f506f736974696f6e20746f6f206865616c74687920666f7220726562616c616e604482015261636560f01b60648201526084016104f2565b6001600160a01b0383165f9081526002602052604090208054831115610a065760405162461bcd60e51b8152602060048201526017602482015276125b9cdd59999a58da595b9d0818dbdb1b185d195c985b604a1b60448201526064016104f2565b604051635d043b2960e11b815260048101849052306024820181905260448201525f907f00000000000000000000000000000000000000000000000000000000000000006001600160a01b03169063ba087652906064016020604051808303815f875af1158015610a79573d5f803e3d5ffd5b505050506040513d601f19601f82011682018060405250810190610a9d9190612155565b60018301549091508190811115610ab5575060018201545b80836001015f828254610ac89190612142565b90915550508254859084905f90610ae0908490612142565b909155505060408051868152602081018390526001600160a01b038816917f23ff0e75edf108e3d0392d92e13e8c8a868ef19001bd49f9e94876dc46dff87f910160405180910390a250505061090360015f8051602061225183398151915255565b610b4a611b50565b610b52611b6b565b604051633ea2146560e01b81526001600160a01b037f00000000000000000000000000000000000000000000000000000000000000001690633ea2146590610ba490879087908790879060040161216c565b5f604051808303815f87803b158015610bbb575f80fd5b505af1158015610bcd573d5f803e3d5ffd5b505050506106cc60015f8051602061225183398151915255565b5f610bf181611bc7565b6108cd611cfe565b6001600160a01b0382165f90815260026020908152604080832081518083019092528054825260010154918101829052908203610c3a576001915050610495565b5f670de0b6b3a7640000610c4c61195c565b8351610c58919061210c565b610c629190612123565b9050838260200151826064610c77919061210c565b610c819190612123565b101595945050505050565b610c94611b50565b610c9c611b6b565b5f8211610ce35760405162461bcd60e51b8152602060048201526015602482015274125b9d985b1a5908189bdc9c9bddc8185b5bdd5b9d605a1b60448201526064016104f2565b604080513360208201528082018390528151808203830181526060820192839052633ea2146560e01b9092527f00000000000000000000000000000000000000000000000000000000000000006001600160a01b031690633ea2146590610d52903090879086906064016121b3565b5f604051808303815f87803b158015610d69575f80fd5b505af1158015610d7b573d5f803e3d5ffd5b50505050670f43fc2c04ee0000610d9133611a9e565b1015610ddf5760405162461bcd60e51b815260206004820181905260248201527f4865616c746820666163746f7220746f6f206c6f7720616674657220666f6c6460448201526064016104f2565b604080515f808252602082015290810184905233907ff946b9487f64a82140e76e36f411a8edc7d9c9b311c80d7c078c04d4f2c769c99060600160405180910390a2506106a460015f8051602061225183398151915255565b610e40611b50565b610e48611b6b565b5f8211610e8d5760405162461bcd60e51b8152602060048201526013602482015272125b9d985b1a590815d1551208185b5bdd5b9d606a1b60448201526064016104f2565b5f7f00000000000000000000000000000000000000000000000000000000000000006001600160a01b03166338d52e0f6040518163ffffffff1660e01b8152600401602060405180830381865afa158015610eea573d5f803e3d5ffd5b505050506040513d601f19601f82011682018060405250810190610f0e9190612216565b9050610f256001600160a01b038216333086611b91565b60405163095ea7b360e01b81526001600160a01b037f0000000000000000000000000000000000000000000000000000000000000000811660048301526024820185905282169063095ea7b3906044016020604051808303815f875af1158015610f91573d5f803e3d5ffd5b505050506040513d601f19601f82011682018060405250810190610fb59190612231565b50604051636e553f6560e01b8152600481018490523060248201525f907f00000000000000000000000000000000000000000000000000000000000000006001600160a01b031690636e553f65906044016020604051808303815f875af1158015611022573d5f803e3d5ffd5b505050506040513d601f19601f820116820180604052508101906110469190612155565b335f908152600260205260408120805492935083929091906110699084906120f9565b9091555050821561117857335f90815260026020526040812060010180548592906110959084906120f9565b909155506110a490503361192c565b6110fc5760405162461bcd60e51b8152602060048201526024808201527f496e73756666696369656e7420636f6c6c61746572616c20666f72206c6576656044820152637261676560e01b60648201526084016104f2565b6040516340c10f1960e01b8152336004820152602481018490527f00000000000000000000000000000000000000000000000000000000000000006001600160a01b0316906340c10f19906044015f604051808303815f87803b158015611161575f80fd5b505af1158015611173573d5f803e3d5ffd5b505050505b604080518581526020810183905290810184905233907ff946b9487f64a82140e76e36f411a8edc7d9c9b311c80d7c078c04d4f2c769c99060600160405180910390a250506106a460015f8051602061225183398151915255565b7f241ecf16d79d0f8dbfb92cbc07fe17840425976cf0667f022fe9877caa831b086111fd81611bc7565b6108cd611d50565b5f918252602082815260408084206001600160a01b0393909316845291905290205460ff1690565b5f336001600160a01b037f000000000000000000000000000000000000000000000000000000000000000016146112925760405162461bcd60e51b815260206004820152600960248201526813db9b1e481ad554d160ba1b60448201526064016104f2565b6001600160a01b03871630146112e05760405162461bcd60e51b815260206004820152601360248201527213db9b1e481cd95b198b5a5b9a5d1a585d1959606a1b60448201526064016104f2565b5f806112ee84860186611fa7565b915091505f8790505f7f00000000000000000000000000000000000000000000000000000000000000006001600160a01b03166338d52e0f6040518163ffffffff1660e01b8152600401602060405180830381865afa158015611353573d5f803e3d5ffd5b505050506040513d601f19601f820116820180604052508101906113779190612216565b60405163095ea7b360e01b81526001600160a01b037f000000000000000000000000000000000000000000000000000000000000000081166004830152602482018590529192509082169063095ea7b3906044016020604051808303815f875af11580156113e7573d5f803e3d5ffd5b505050506040513d601f19601f8201168201806040525081019061140b9190612231565b50604051636e553f6560e01b8152600481018390523060248201525f907f00000000000000000000000000000000000000000000000000000000000000006001600160a01b031690636e553f65906044016020604051808303815f875af1158015611478573d5f803e3d5ffd5b505050506040513d601f19601f8201168201806040525081019061149c9190612155565b9050838110156114e25760405162461bcd60e51b81526020600482015260116024820152700a6d8d2e0e0c2ceca40e8dede40d0d2ced607b1b60448201526064016104f2565b6001600160a01b0385165f90815260026020526040812080548392906115099084906120f9565b909155506115199050898b6120f9565b6001600160a01b0386165f90815260026020526040812060010180549091906115439084906120f9565b9091555061155290508561192c565b61159e5760405162461bcd60e51b815260206004820181905260248201527f506f736974696f6e20756e6865616c74687920616674657220666f6c64696e6760448201526064016104f2565b7f00000000000000000000000000000000000000000000000000000000000000006001600160a01b031663095ea7b37f00000000000000000000000000000000000000000000000000000000000000008b8d6115fa91906120f9565b6040516001600160e01b031960e085901b1681526001600160a01b03909216600483015260248201526044016020604051808303815f875af1158015611642573d5f803e3d5ffd5b505050506040513d601f19601f820116820180604052508101906116669190612231565b507fe39ea12ae4cb29596526a30b476abc2f60bda238b2b65462e921e6d6be438eb69c9b505050505050505050505050565b6116a0611b50565b5f8211806116ad57505f81115b6116eb5760405162461bcd60e51b815260206004820152600f60248201526e496e76616c696420616d6f756e747360881b60448201526064016104f2565b81156117e457335f908152600260205260409020600101548211156117415760405162461bcd60e51b815260206004820152600c60248201526b115e18d959591cc81919589d60a21b60448201526064016104f2565b60405163079cc67960e41b8152336004820152602481018390527f00000000000000000000000000000000000000000000000000000000000000006001600160a01b0316906379cc6790906044015f604051808303815f87803b1580156117a6575f80fd5b505af11580156117b8573d5f803e3d5ffd5b5050335f90815260026020526040812060010180548694509092506117de908490612142565b90915550505b80156118f457335f9081526002602052604090205481111561183d5760405162461bcd60e51b8152602060048201526012602482015271115e18d959591cc818dbdb1b185d195c985b60721b60448201526064016104f2565b335f908152600260205260408120805483929061185b908490612142565b9091555061186a90503361192c565b6118c05760405162461bcd60e51b815260206004820152602160248201527f496e73756666696369656e7420636f6c6c61746572616c2072656d61696e696e6044820152606760f81b60648201526084016104f2565b6118f46001600160a01b037f0000000000000000000000000000000000000000000000000000000000000000163383611c60565b604080518281526020810184905233917f23ff0e75edf108e3d0392d92e13e8c8a868ef19001bd49f9e94876dc46dff87f9101610686565b5f610495826096610bf9565b5f8281526020819052604090206001015461195281611bc7565b6106cc8383611c95565b5f807f00000000000000000000000000000000000000000000000000000000000000006001600160a01b03166301e1d1146040518163ffffffff1660e01b8152600401602060405180830381865afa1580156119ba573d5f803e3d5ffd5b505050506040513d601f19601f820116820180604052508101906119de9190612155565b90505f7f00000000000000000000000000000000000000000000000000000000000000006001600160a01b03166318160ddd6040518163ffffffff1660e01b8152600401602060405180830381865afa158015611a3d573d5f803e3d5ffd5b505050506040513d601f19601f82011682018060405250810190611a619190612155565b9050805f03611a7a57670de0b6b3a76400009250505090565b80611a8d670de0b6b3a76400008461210c565b611a979190612123565b9250505090565b6001600160a01b0381165f90815260026020908152604080832081518083019092528054825260010154918101829052908203611ae55750671bc16d674ec8000092915050565b5f670de0b6b3a7640000611af761195c565b8351611b03919061210c565b611b0d9190612123565b905060788260200151611b20919061210c565b670de0b6b3a7640000611b3483606461210c565b611b3e919061210c565b611b489190612123565b949350505050565b611b58611d8b565b60025f8051602061225183398151915255565b60015460ff1615611b8f5760405163d93c066560e01b815260040160405180910390fd5b565b611b9f848484846001611dba565b6106cc57604051635274afe760e01b81526001600160a01b03851660048201526024016104f2565b6108cd8133611e27565b5f611bdc8383611205565b611c59575f838152602081815260408083206001600160a01b03861684529091529020805460ff19166001179055611c113390565b6001600160a01b0316826001600160a01b0316847f2f8788117e7eff1d82e926ec794901d17c78024a50270940304540a733656f0d60405160405180910390a4506001610495565b505f610495565b611c6d8383836001611e60565b61090357604051635274afe760e01b81526001600160a01b03841660048201526024016104f2565b5f611ca08383611205565b15611c59575f838152602081815260408083206001600160a01b0386168085529252808320805460ff1916905551339286917ff6391f5c32d9c69d2a47ea670b442974b53935d1edc7fd64eb21e047a839171b9190a4506001610495565b611d06611ec2565b6001805460ff191690557f5db9ee0a495bf2e6ff9c91a7834c1ba4fdd244a5e8aa4e537bd38aeae4b073aa335b6040516001600160a01b03909116815260200160405180910390a1565b611d58611b6b565b6001805460ff1916811790557f62e78cea01bee320cd4e420270b5ea74000d11b0c9f74754ebdbfc544b05a25833611d33565b5f8051602061225183398151915254600203611b8f57604051633ee5aeb560e01b815260040160405180910390fd5b6040516323b872dd60e01b5f8181526001600160a01b038781166004528616602452604485905291602083606481808c5af1925060015f51148316611e16578383151615611e0a573d5f823e3d81fd5b5f883b113d1516831692505b604052505f60605295945050505050565b611e318282611205565b6106a45760405163e2517d3f60e01b81526001600160a01b0382166004820152602481018390526044016104f2565b60405163a9059cbb60e01b5f8181526001600160a01b038616600452602485905291602083604481808b5af1925060015f51148316611eb6578383151615611eaa573d5f823e3d81fd5b5f873b113d1516831692505b60405250949350505050565b60015460ff16611b8f57604051638dfc202b60e01b815260040160405180910390fd5b5f60208284031215611ef5575f80fd5b81356001600160e01b031981168114611f0c575f80fd5b9392505050565b5f8060408385031215611f24575f80fd5b50508035926020909101359150565b5f60208284031215611f43575f80fd5b5035919050565b6001600160a01b03811681146108cd575f80fd5b5f8060408385031215611f6f575f80fd5b823591506020830135611f8181611f4a565b809150509250929050565b5f60208284031215611f9c575f80fd5b8135611f0c81611f4a565b5f8060408385031215611fb8575f80fd5b8235611fc381611f4a565b946020939093013593505050565b5f8083601f840112611fe1575f80fd5b50813567ffffffffffffffff811115611ff8575f80fd5b60208301915083602082850101111561200f575f80fd5b9250929050565b5f805f8060608587031215612029575f80fd5b843561203481611f4a565b935060208501359250604085013567ffffffffffffffff811115612056575f80fd5b61206287828801611fd1565b95989497509550505050565b5f805f805f8060a08789031215612083575f80fd5b863561208e81611f4a565b9550602087013561209e81611f4a565b94506040870135935060608701359250608087013567ffffffffffffffff8111156120c7575f80fd5b6120d389828a01611fd1565b979a9699509497509295939492505050565b634e487b7160e01b5f52601160045260245ffd5b80820180821115610495576104956120e5565b8082028115828204841417610495576104956120e5565b5f8261213d57634e487b7160e01b5f52601260045260245ffd5b500490565b81810381811115610495576104956120e5565b5f60208284031215612165575f80fd5b5051919050565b6001600160a01b0385168152602081018490526060604082018190528101829052818360808301375f818301608090810191909152601f909201601f191601019392505050565b60018060a01b03841681525f60208460208401526060604084015283518060608501525f5b818110156121f4578581018301518582016080015282016121d8565b505f608082860101526080601f19601f83011685010192505050949350505050565b5f60208284031215612226575f80fd5b8151611f0c81611f4a565b5f60208284031215612241575f80fd5b81518015158114611f0c575f80fdfe9b779b17422d0df92223018b32b4d1fa46e071723d6817e2486d003becc55f00a2646970667358221220326efbb3f35de83adc85f1cdbb83746ec1827308c0b1332331a93bb9ef36ba6764736f6c63430008180033","linkReferences":{}},"methodIdentifiers":{"DEFAULT_ADMIN_ROLE()":"a217fddf","LIQUIDATION_BONUS()":"3574d4c4","LIQUIDATION_THRESHOLD()":"90a8ae9b","MANAGER_ROLE()":"ec87621c","MINT_COLLATERAL_RATIO()":"eb0e0e67","PRECISION()":"aaf5eb68","burn(uint256,uint256)":"b390c0ab","flashMint(address,uint256,bytes)":"3ea21465","fold(uint256,uint256)":"58cd8c22","getHealthFactor(address)":"fe6bcd7c","getKLPPrice()":"e0cbf4f4","getRoleAdmin(bytes32)":"248a9ca3","grantRole(bytes32,address)":"2f2ff15d","hasRole(bytes32,address)":"91d14854","isHealthy(address)":"d4d9bc68","isHealthy(address,uint256)":"53ebb899","kusd()":"2398a4d7","leverage(uint256,uint256)":"5e96263c","liquidate(address)":"2f865568","mint(uint256,uint256)":"1b2ef1ca","onFlashMint(address,address,uint256,uint256,bytes)":"a7c118be","pause()":"8456cb59","paused()":"5c975abb","positions(address)":"55f57510","rebalance(address,uint256)":"3da9b9d0","renounceRole(bytes32,address)":"36568abe","revokeRole(bytes32,address)":"d547741f","supportsInterface(bytes4)":"01ffc9a7","unpause()":"3f4ba83a","vault()":"fbfa77cf"},"id":62}