{"abi":[{"type":"constructor","inputs":[{"name":"defaultAdmin","type":"address","internalType":"address"}],"stateMutability":"nonpayable"},{"type":"function","name":"CLOCK_MODE","inputs":[],"outputs":[{"name":"","type":"string","internalType":"string"}],"stateMutability":"view"},{"type":"function","name":"DEFAULT_ADMIN_ROLE","inputs":[],"outputs":[{"name":"","type":"bytes32","internalType":"bytes32"}],"stateMutability":"view"},{"type":"function","name":"DOMAIN_SEPARATOR","inputs":[],"outputs":[{"name":"","type":"bytes32","internalType":"bytes32"}],"stateMutability":"view"},{"type":"function","name":"MINTER_ROLE","inputs":[],"outputs":[{"name":"","type":"bytes32","internalType":"bytes32"}],"stateMutability":"view"},{"type":"function","name":"PAUSER_ROLE","inputs":[],"outputs":[{"name":"","type":"bytes32","internalType":"bytes32"}],"stateMutability":"view"},{"type":"function","name":"allowance","inputs":[{"name":"owner","type":"address","internalType":"address"},{"name":"spender","type":"address","internalType":"address"}],"outputs":[{"name":"","type":"uint256","internalType":"uint256"}],"stateMutability":"view"},{"type":"function","name":"approve","inputs":[{"name":"spender","type":"address","internalType":"address"},{"name":"value","type":"uint256","internalType":"uint256"}],"outputs":[{"name":"","type":"bool","internalType":"bool"}],"stateMutability":"nonpayable"},{"type":"function","name":"balanceOf","inputs":[{"name":"account","type":"address","internalType":"address"}],"outputs":[{"name":"","type":"uint256","internalType":"uint256"}],"stateMutability":"view"},{"type":"function","name":"burn","inputs":[{"name":"value","type":"uint256","internalType":"uint256"}],"outputs":[],"stateMutability":"nonpayable"},{"type":"function","name":"burnFrom","inputs":[{"name":"account","type":"address","internalType":"address"},{"name":"value","type":"uint256","internalType":"uint256"}],"outputs":[],"stateMutability":"nonpayable"},{"type":"function","name":"checkpoints","inputs":[{"name":"account","type":"address","internalType":"address"},{"name":"pos","type":"uint32","internalType":"uint32"}],"outputs":[{"name":"","type":"tuple","internalType":"struct Checkpoints.Checkpoint208","components":[{"name":"_key","type":"uint48","internalType":"uint48"},{"name":"_value","type":"uint208","internalType":"uint208"}]}],"stateMutability":"view"},{"type":"function","name":"clock","inputs":[],"outputs":[{"name":"","type":"uint48","internalType":"uint48"}],"stateMutability":"view"},{"type":"function","name":"decimals","inputs":[],"outputs":[{"name":"","type":"uint8","internalType":"uint8"}],"stateMutability":"view"},{"type":"function","name":"delegate","inputs":[{"name":"delegatee","type":"address","internalType":"address"}],"outputs":[],"stateMutability":"nonpayable"},{"type":"function","name":"delegateBySig","inputs":[{"name":"delegatee","type":"address","internalType":"address"},{"name":"nonce","type":"uint256","internalType":"uint256"},{"name":"expiry","type":"uint256","internalType":"uint256"},{"name":"v","type":"uint8","internalType":"uint8"},{"name":"r","type":"bytes32","internalType":"bytes32"},{"name":"s","type":"bytes32","internalType":"bytes32"}],"outputs":[],"stateMutability":"nonpayable"},{"type":"function","name":"delegates","inputs":[{"name":"account","type":"address","internalType":"address"}],"outputs":[{"name":"","type":"address","internalType":"address"}],"stateMutability":"view"},{"type":"function","name":"eip712Domain","inputs":[],"outputs":[{"name":"fields","type":"bytes1","internalType":"bytes1"},{"name":"name","type":"string","internalType":"string"},{"name":"version","type":"string","internalType":"string"},{"name":"chainId","type":"uint256","internalType":"uint256"},{"name":"verifyingContract","type":"address","internalType":"address"},{"name":"salt","type":"bytes32","internalType":"bytes32"},{"name":"extensions","type":"uint256[]","internalType":"uint256[]"}],"stateMutability":"view"},{"type":"function","name":"getPastTotalSupply","inputs":[{"name":"timepoint","type":"uint256","internalType":"uint256"}],"outputs":[{"name":"","type":"uint256","internalType":"uint256"}],"stateMutability":"view"},{"type":"function","name":"getPastVotes","inputs":[{"name":"account","type":"address","internalType":"address"},{"name":"timepoint","type":"uint256","internalType":"uint256"}],"outputs":[{"name":"","type":"uint256","internalType":"uint256"}],"stateMutability":"view"},{"type":"function","name":"getRoleAdmin","inputs":[{"name":"role","type":"bytes32","internalType":"bytes32"}],"outputs":[{"name":"","type":"bytes32","internalType":"bytes32"}],"stateMutability":"view"},{"type":"function","name":"getVotes","inputs":[{"name":"account","type":"address","internalType":"address"}],"outputs":[{"name":"","type":"uint256","internalType":"uint256"}],"stateMutability":"view"},{"type":"function","name":"grantRole","inputs":[{"name":"role","type":"bytes32","internalType":"bytes32"},{"name":"account","type":"address","internalType":"address"}],"outputs":[],"stateMutability":"nonpayable"},{"type":"function","name":"hasRole","inputs":[{"name":"role","type":"bytes32","internalType":"bytes32"},{"name":"account","type":"address","internalType":"address"}],"outputs":[{"name":"","type":"bool","internalType":"bool"}],"stateMutability":"view"},{"type":"function","name":"mint","inputs":[{"name":"to","type":"address","internalType":"address"},{"name":"amount","type":"uint256","internalType":"uint256"}],"outputs":[],"stateMutability":"nonpayable"},{"type":"function","name":"name","inputs":[],"outputs":[{"name":"","type":"string","internalType":"string"}],"stateMutability":"view"},{"type":"function","name":"nonces","inputs":[{"name":"owner","type":"address","internalType":"address"}],"outputs":[{"name":"","type":"uint256","internalType":"uint256"}],"stateMutability":"view"},{"type":"function","name":"numCheckpoints","inputs":[{"name":"account","type":"address","internalType":"address"}],"outputs":[{"name":"","type":"uint32","internalType":"uint32"}],"stateMutability":"view"},{"type":"function","name":"pause","inputs":[],"outputs":[],"stateMutability":"nonpayable"},{"type":"function","name":"paused","inputs":[],"outputs":[{"name":"","type":"bool","internalType":"bool"}],"stateMutability":"view"},{"type":"function","name":"permit","inputs":[{"name":"owner","type":"address","internalType":"address"},{"name":"spender","type":"address","internalType":"address"},{"name":"value","type":"uint256","internalType":"uint256"},{"name":"deadline","type":"uint256","internalType":"uint256"},{"name":"v","type":"uint8","internalType":"uint8"},{"name":"r","type":"bytes32","internalType":"bytes32"},{"name":"s","type":"bytes32","internalType":"bytes32"}],"outputs":[],"stateMutability":"nonpayable"},{"type":"function","name":"reflexiveBurn","inputs":[{"name":"amount","type":"uint256","internalType":"uint256"}],"outputs":[],"stateMutability":"nonpayable"},{"type":"function","name":"renounceRole","inputs":[{"name":"role","type":"bytes32","internalType":"bytes32"},{"name":"callerConfirmation","type":"address","internalType":"address"}],"outputs":[],"stateMutability":"nonpayable"},{"type":"function","name":"revokeRole","inputs":[{"name":"role","type":"bytes32","internalType":"bytes32"},{"name":"account","type":"address","internalType":"address"}],"outputs":[],"stateMutability":"nonpayable"},{"type":"function","name":"supportsInterface","inputs":[{"name":"interfaceId","type":"bytes4","internalType":"bytes4"}],"outputs":[{"name":"","type":"bool","internalType":"bool"}],"stateMutability":"view"},{"type":"function","name":"symbol","inputs":[],"outputs":[{"name":"","type":"string","internalType":"string"}],"stateMutability":"view"},{"type":"function","name":"totalSupply","inputs":[],"outputs":[{"name":"","type":"uint256","internalType":"uint256"}],"stateMutability":"view"},{"type":"function","name":"transfer","inputs":[{"name":"to","type":"address","internalType":"address"},{"name":"value","type":"uint256","internalType":"uint256"}],"outputs":[{"name":"","type":"bool","internalType":"bool"}],"stateMutability":"nonpayable"},{"type":"function","name":"transferFrom","inputs":[{"name":"from","type":"address","internalType":"address"},{"name":"to","type":"address","internalType":"address"},{"name":"value","type":"uint256","internalType":"uint256"}],"outputs":[{"name":"","type":"bool","internalType":"bool"}],"stateMutability":"nonpayable"},{"type":"function","name":"unpause","inputs":[],"outputs":[],"stateMutability":"nonpayable"},{"type":"event","name":"Approval","inputs":[{"name":"owner","type":"address","indexed":true,"internalType":"address"},{"name":"spender","type":"address","indexed":true,"internalType":"address"},{"name":"value","type":"uint256","indexed":false,"internalType":"uint256"}],"anonymous":false},{"type":"event","name":"DelegateChanged","inputs":[{"name":"delegator","type":"address","indexed":true,"internalType":"address"},{"name":"fromDelegate","type":"address","indexed":true,"internalType":"address"},{"name":"toDelegate","type":"address","indexed":true,"internalType":"address"}],"anonymous":false},{"type":"event","name":"DelegateVotesChanged","inputs":[{"name":"delegate","type":"address","indexed":true,"internalType":"address"},{"name":"previousVotes","type":"uint256","indexed":false,"internalType":"uint256"},{"name":"newVotes","type":"uint256","indexed":false,"internalType":"uint256"}],"anonymous":false},{"type":"event","name":"EIP712DomainChanged","inputs":[],"anonymous":false},{"type":"event","name":"Paused","inputs":[{"name":"account","type":"address","indexed":false,"internalType":"address"}],"anonymous":false},{"type":"event","name":"RoleAdminChanged","inputs":[{"name":"role","type":"bytes32","indexed":true,"internalType":"bytes32"},{"name":"previousAdminRole","type":"bytes32","indexed":true,"internalType":"bytes32"},{"name":"newAdminRole","type":"bytes32","indexed":true,"internalType":"bytes32"}],"anonymous":false},{"type":"event","name":"RoleGranted","inputs":[{"name":"role","type":"bytes32","indexed":true,"internalType":"bytes32"},{"name":"account","type":"address","indexed":true,"internalType":"address"},{"name":"sender","type":"address","indexed":true,"internalType":"address"}],"anonymous":false},{"type":"event","name":"RoleRevoked","inputs":[{"name":"role","type":"bytes32","indexed":true,"internalType":"bytes32"},{"name":"account","type":"address","indexed":true,"internalType":"address"},{"name":"sender","type":"address","indexed":true,"internalType":"address"}],"anonymous":false},{"type":"event","name":"Transfer","inputs":[{"name":"from","type":"address","indexed":true,"internalType":"address"},{"name":"to","type":"address","indexed":true,"internalType":"address"},{"name":"value","type":"uint256","indexed":false,"internalType":"uint256"}],"anonymous":false},{"type":"event","name":"Unpaused","inputs":[{"name":"account","type":"address","indexed":false,"internalType":"address"}],"anonymous":false},{"type":"error","name":"AccessControlBadConfirmation","inputs":[]},{"type":"error","name":"AccessControlUnauthorizedAccount","inputs":[{"name":"account","type":"address","internalType":"address"},{"name":"neededRole","type":"bytes32","internalType":"bytes32"}]},{"type":"error","name":"CheckpointUnorderedInsertion","inputs":[]},{"type":"error","name":"ECDSAInvalidSignature","inputs":[]},{"type":"error","name":"ECDSAInvalidSignatureLength","inputs":[{"name":"length","type":"uint256","internalType":"uint256"}]},{"type":"error","name":"ECDSAInvalidSignatureS","inputs":[{"name":"s","type":"bytes32","internalType":"bytes32"}]},{"type":"error","name":"ERC20ExceededSafeSupply","inputs":[{"name":"increasedSupply","type":"uint256","internalType":"uint256"},{"name":"cap","type":"uint256","internalType":"uint256"}]},{"type":"error","name":"ERC20InsufficientAllowance","inputs":[{"name":"spender","type":"address","internalType":"address"},{"name":"allowance","type":"uint256","internalType":"uint256"},{"name":"needed","type":"uint256","internalType":"uint256"}]},{"type":"error","name":"ERC20InsufficientBalance","inputs":[{"name":"sender","type":"address","internalType":"address"},{"name":"balance","type":"uint256","internalType":"uint256"},{"name":"needed","type":"uint256","internalType":"uint256"}]},{"type":"error","name":"ERC20InvalidApprover","inputs":[{"name":"approver","type":"address","internalType":"address"}]},{"type":"error","name":"ERC20InvalidReceiver","inputs":[{"name":"receiver","type":"address","internalType":"address"}]},{"type":"error","name":"ERC20InvalidSender","inputs":[{"name":"sender","type":"address","internalType":"address"}]},{"type":"error","name":"ERC20InvalidSpender","inputs":[{"name":"spender","type":"address","internalType":"address"}]},{"type":"error","name":"ERC2612ExpiredSignature","inputs":[{"name":"deadline","type":"uint256","internalType":"uint256"}]},{"type":"error","name":"ERC2612InvalidSigner","inputs":[{"name":"signer","type":"address","internalType":"address"},{"name":"owner","type":"address","internalType":"address"}]},{"type":"error","name":"ERC5805FutureLookup","inputs":[{"name":"timepoint","type":"uint256","internalType":"uint256"},{"name":"clock","type":"uint48","internalType":"uint48"}]},{"type":"error","name":"ERC6372InconsistentClock","inputs":[]},{"type":"error","name":"EnforcedPause","inputs":[]},{"type":"error","name":"ExpectedPause","inputs":[]},{"type":"error","name":"InvalidAccountNonce","inputs":[{"name":"account","type":"address","internalType":"address"},{"name":"currentNonce","type":"uint256","internalType":"uint256"}]},{"type":"error","name":"InvalidShortString","inputs":[]},{"type":"error","name":"SafeCastOverflowedUintDowncast","inputs":[{"name":"bits","type":"uint8","internalType":"uint8"},{"name":"value","type":"uint256","internalType":"uint256"}]},{"type":"error","name":"StringTooLong","inputs":[{"name":"str","type":"string","internalType":"string"}]},{"type":"error","name":"VotesExpiredSignature","inputs":[{"name":"expiry","type":"uint256","internalType":"uint256"}]}],"bytecode":{"object":"0x61016060405234801562000011575f80fd5b5060405162003178380380620031788339810160408190526200003491620009e2565b604051806040016040528060058152602001644b65726e6560d81b81525080604051806040016040528060018152602001603160f81b815250604051806040016040528060058152602001644b65726e6560d81b815250604051806040016040528060058152602001644b45524e4560d81b8152508160039081620000ba919062000aa7565b506004620000c9828262000aa7565b50620000db91508390506007620001ed565b61012052620000ec816008620001ed565b61014052815160208084019190912060e052815190820120610100524660a0526200017960e05161010051604080517f8b73c3c69bb8fe3d512ecc4cf759cc79239f7b179b0ffacaa9a75d522b39400f60208201529081019290925260608201524660808201523060a08201525f9060c00160405160208183030381529060405280519060200120905090565b60805250503060c052506200018f5f8262000225565b50620001bc7f65d7a28e3265b37a6474929f336521b332c1681b933f6cb9f3376673440d862a8262000225565b50620001e633620001d06012600a62000c80565b620001e0906305f5e10062000c90565b620002d4565b5062000d95565b5f6020835110156200020c57620002048362000314565b90506200021f565b8162000219848262000aa7565b5060ff90505b92915050565b5f8281526006602090815260408083206001600160a01b038516845290915281205460ff16620002cc575f8381526006602090815260408083206001600160a01b03861684529091529020805460ff19166001179055620002833390565b6001600160a01b0316826001600160a01b0316847f2f8788117e7eff1d82e926ec794901d17c78024a50270940304540a733656f0d60405160405180910390a45060016200021f565b505f6200021f565b6001600160a01b038216620003035760405163ec442f0560e01b81525f60048201526024015b60405180910390fd5b620003105f838362000356565b5050565b5f80829050601f8151111562000341578260405163305a27a960e01b8152600401620002fa919062000caa565b80516200034e8262000cf8565b179392505050565b6200036383838362000368565b505050565b62000375838383620003d6565b6001600160a01b038316620003c9575f6200038f60025490565b90506001600160d01b0380821115620003c657604051630e58ae9360e11b81526004810183905260248101829052604401620002fa565b50505b62000363838383620003ed565b620003e062000484565b62000363838383620004ab565b6001600160a01b03831662000422576200041f600c62000bdc620005da60201b176200041984620005ee565b62000627565b50505b6001600160a01b03821662000451576200044e600c62000be76200066360201b176200041984620005ee565b50505b6001600160a01b038381165f908152600a6020526040808220548584168352912054620003639291821691168362000670565b60055460ff1615620004a95760405163d93c066560e01b815260040160405180910390fd5b565b6001600160a01b038316620004d9578060025f828254620004cd919062000d1c565b909155506200054b9050565b6001600160a01b0383165f90815260208190526040902054818110156200052d5760405163391434e360e21b81526001600160a01b03851660048201526024810182905260448101839052606401620002fa565b6001600160a01b0384165f9081526020819052604090209082900390555b6001600160a01b038216620005695760028054829003905562000587565b6001600160a01b0382165f9081526020819052604090208054820190555b816001600160a01b0316836001600160a01b03167fddf252ad1be2c89b69c2b068fc378daa952ba7f163c4a11628f55a4df523b3ef83604051620005cd91815260200190565b60405180910390a3505050565b5f620005e7828462000d32565b9392505050565b5f6001600160d01b0382111562000623576040516306dfcc6560e41b815260d0600482015260248101839052604401620002fa565b5090565b5f806200065662000637620007d2565b6200064d6200064688620007e2565b868860201c565b8791906200082e565b915091505b935093915050565b5f620005e7828462000d5c565b816001600160a01b0316836001600160a01b0316141580156200069257505f81115b1562000363576001600160a01b0383161562000733576001600160a01b0383165f908152600b6020908152604082208291620006df919062000663901b62000be7176200041986620005ee565b6001600160d01b031691506001600160d01b03169150846001600160a01b03165f8051602062003158833981519152838360405162000728929190918252602082015260400190565b60405180910390a250505b6001600160a01b0382161562000363576001600160a01b0382165f908152600b60209081526040822082916200077a9190620005da901b62000bdc176200041986620005ee565b6001600160d01b031691506001600160d01b03169150836001600160a01b03165f80516020620031588339815191528383604051620007c3929190918252602082015260400190565b60405180910390a25050505050565b5f620007dd6200083d565b905090565b80545f90801562000826576200080c83620007ff60018462000d7f565b5f91825260209091200190565b54660100000000000090046001600160d01b0316620005e7565b5f9392505050565b5f806200065685858562000849565b5f620007dd43620009ae565b82545f908190801562000950575f6200086987620007ff60018562000d7f565b805490915065ffffffffffff80821691660100000000000090046001600160d01b0316908816821115620008b057604051632520601d60e01b815260040160405180910390fd5b8765ffffffffffff168265ffffffffffff1603620008ee57825465ffffffffffff1666010000000000006001600160d01b0389160217835562000941565b6040805180820190915265ffffffffffff808a1682526001600160d01b03808a1660208085019182528d54600181018f555f8f815291909120945191519092166601000000000000029216919091179101555b94508593506200065b92505050565b50506040805180820190915265ffffffffffff80851682526001600160d01b0380851660208085019182528854600181018a555f8a81529182209551925190931666010000000000000291909316179201919091559050816200065b565b5f65ffffffffffff82111562000623576040516306dfcc6560e41b81526030600482015260248101839052604401620002fa565b5f60208284031215620009f3575f80fd5b81516001600160a01b0381168114620005e7575f80fd5b634e487b7160e01b5f52604160045260245ffd5b600181811c9082168062000a3357607f821691505b60208210810362000a5257634e487b7160e01b5f52602260045260245ffd5b50919050565b601f8211156200036357805f5260205f20601f840160051c8101602085101562000a7f5750805b601f840160051c820191505b8181101562000aa0575f815560010162000a8b565b5050505050565b81516001600160401b0381111562000ac35762000ac362000a0a565b62000adb8162000ad4845462000a1e565b8462000a58565b602080601f83116001811462000b11575f841562000af95750858301515b5f19600386901b1c1916600185901b17855562000b6b565b5f85815260208120601f198616915b8281101562000b415788860151825594840194600190910190840162000b20565b508582101562000b5f57878501515f19600388901b60f8161c191681555b505060018460011b0185555b505050505050565b634e487b7160e01b5f52601160045260245ffd5b600181815b8085111562000bc757815f190482111562000bab5762000bab62000b73565b8085161562000bb957918102915b93841c939080029062000b8c565b509250929050565b5f8262000bdf575060016200021f565b8162000bed57505f6200021f565b816001811462000c06576002811462000c115762000c31565b60019150506200021f565b60ff84111562000c255762000c2562000b73565b50506001821b6200021f565b5060208310610133831016604e8410600b841016171562000c56575081810a6200021f565b62000c62838362000b87565b805f190482111562000c785762000c7862000b73565b029392505050565b5f620005e760ff84168362000bcf565b80820281158282048414176200021f576200021f62000b73565b5f602080835283518060208501525f5b8181101562000cd85785810183015185820160400152820162000cba565b505f604082860101526040601f19601f8301168501019250505092915050565b8051602080830151919081101562000a52575f1960209190910360031b1b16919050565b808201808211156200021f576200021f62000b73565b6001600160d01b0381811683821601908082111562000d555762000d5562000b73565b5092915050565b6001600160d01b0382811682821603908082111562000d555762000d5562000b73565b818103818111156200021f576200021f62000b73565b60805160a05160c05160e05161010051610120516101405161237162000de75f395f6111e301525f6111b601525f610e4601525f610e1e01525f610d7901525f610da301525f610dcd01526123715ff3fe608060405234801561000f575f80fd5b5060043610610234575f3560e01c80636fcfff45116101355780639ab24eb0116100b4578063d539139311610079578063d5391393146104f1578063d547741f14610518578063dd62ed3e1461052b578063e63ab1e914610563578063f1127ed81461058a575f80fd5b80639ab24eb01461049e578063a217fddf146104b1578063a9059cbb146104b8578063c3cda520146104cb578063d505accf146104de575f80fd5b806384b0196e116100fa57806384b0196e146104365780638e539e8c1461045157806391d148541461046457806391ddadf41461047757806395d89b4114610496575f80fd5b80636fcfff45146103b857806370a08231146103e057806379cc6790146104085780637ecebe001461041b5780638456cb591461042e575f80fd5b806336568abe116101c157806342966c681161018657806342966c68146103215780634bf5d7e91461034f578063587cde1e146103575780635c19a95c1461039a5780635c975abb146103ad575f80fd5b806336568abe146102fb5780633a46b1a81461030e5780633b3a2b65146103215780633f4ba83a1461033457806340c10f191461033c575f80fd5b806323b872dd1161020757806323b872dd1461029a578063248a9ca3146102ad5780632f2ff15d146102cf578063313ce567146102e45780633644e515146102f3575f80fd5b806301ffc9a71461023857806306fdde0314610260578063095ea7b31461027557806318160ddd14610288575b5f80fd5b61024b610246366004611f10565b6105c9565b60405190151581526020015b60405180910390f35b6102686105ff565b6040516102579190611f7a565b61024b610283366004611fa7565b61068f565b6002545b604051908152602001610257565b61024b6102a8366004611fcf565b6106a6565b61028c6102bb366004612008565b5f9081526006602052604090206001015490565b6102e26102dd36600461201f565b6106c9565b005b60405160128152602001610257565b61028c6106f3565b6102e261030936600461201f565b610701565b61028c61031c366004611fa7565b610739565b6102e261032f366004612008565b610773565b6102e2610780565b6102e261034a366004611fa7565b6107b2565b6102686107e6565b610382610365366004612049565b6001600160a01b039081165f908152600a60205260409020541690565b6040516001600160a01b039091168152602001610257565b6102e26103a8366004612049565b61085e565b60055460ff1661024b565b6103cb6103c6366004612049565b61086d565b60405163ffffffff9091168152602001610257565b61028c6103ee366004612049565b6001600160a01b03165f9081526020819052604090205490565b6102e2610416366004611fa7565b610877565b61028c610429366004612049565b61088c565b6102e2610896565b61043e6108c8565b6040516102579796959493929190612062565b61028c61045f366004612008565b61090a565b61024b61047236600461201f565b61092e565b61047f610958565b60405165ffffffffffff9091168152602001610257565b610268610961565b61028c6104ac366004612049565b610970565b61028c5f81565b61024b6104c6366004611fa7565b610990565b6102e26104d9366004612109565b61099d565b6102e26104ec36600461215d565b610a5e565b61028c7f9f2df0fed2c77648de5860a4cc508cd0818c85b8b8a1ab4ceeef8d981c8956a681565b6102e261052636600461201f565b610b94565b61028c6105393660046121c2565b6001600160a01b039182165f90815260016020908152604080832093909416825291909152205490565b61028c7f65d7a28e3265b37a6474929f336521b332c1681b933f6cb9f3376673440d862a81565b61059d6105983660046121ea565b610bb8565b60408051825165ffffffffffff1681526020928301516001600160d01b03169281019290925201610257565b5f6001600160e01b03198216637965db0b60e01b14806105f957506301ffc9a760e01b6001600160e01b03198316145b92915050565b60606003805461060e90612227565b80601f016020809104026020016040519081016040528092919081815260200182805461063a90612227565b80156106855780601f1061065c57610100808354040283529160200191610685565b820191905f5260205f20905b81548152906001019060200180831161066857829003601f168201915b5050505050905090565b5f3361069c818585610bf2565b5060019392505050565b5f336106b3858285610bff565b6106be858585610c75565b506001949350505050565b5f828152600660205260409020600101546106e381610cd2565b6106ed8383610cdc565b50505050565b5f6106fc610d6d565b905090565b6001600160a01b038116331461072a5760405163334bd91960e11b815260040160405180910390fd5b6107348282610e96565b505050565b5f61076361074683610f01565b6001600160a01b0385165f908152600b6020526040902090610f4f565b6001600160d01b03169392505050565b61077d3382610fff565b50565b7f65d7a28e3265b37a6474929f336521b332c1681b933f6cb9f3376673440d862a6107aa81610cd2565b61077d611033565b7f9f2df0fed2c77648de5860a4cc508cd0818c85b8b8a1ab4ceeef8d981c8956a66107dc81610cd2565b6107348383611085565b60606107f06110b9565b65ffffffffffff16610800610958565b65ffffffffffff1614610826576040516301bfc1c560e61b815260040160405180910390fd5b5060408051808201909152601d81527f6d6f64653d626c6f636b6e756d6265722666726f6d3d64656661756c74000000602082015290565b3361086981836110c3565b5050565b5f6105f982611134565b610882823383610bff565b6108698282610fff565b5f6105f982611155565b7f65d7a28e3265b37a6474929f336521b332c1681b933f6cb9f3376673440d862a6108c081610cd2565b61077d611172565b5f6060805f805f60606108d96111af565b6108e16111dc565b604080515f80825260208201909252600f60f81b9b939a50919850469750309650945092509050565b5f61091f61091783610f01565b600c90610f4f565b6001600160d01b031692915050565b5f9182526006602090815260408084206001600160a01b0393909316845291905290205460ff1690565b5f6106fc6110b9565b60606004805461060e90612227565b6001600160a01b0381165f908152600b6020526040812061091f90611209565b5f3361069c818585610c75565b834211156109c657604051632341d78760e11b8152600481018590526024015b60405180910390fd5b604080517fe48329057bfd03d55e49b547132e39cffd9c1820ad7b9d4c5307691425d15adf60208201526001600160a01b0388169181019190915260608101869052608081018590525f90610a3f90610a379060a00160405160208183030381529060405280519060200120611240565b85858561126c565b9050610a4b8187611298565b610a5581886110c3565b50505050505050565b83421115610a825760405163313c898160e11b8152600481018590526024016109bd565b5f7f6e71edae12b1b97f4d1f60370fef10105fa2faae0126114a169c64845d6126c9888888610acd8c6001600160a01b03165f90815260096020526040902080546001810190915590565b6040805160208101969096526001600160a01b0394851690860152929091166060840152608083015260a082015260c0810186905260e0016040516020818303038152906040528051906020012090505f610b2782611240565b90505f610b368287878761126c565b9050896001600160a01b0316816001600160a01b031614610b7d576040516325c0072360e11b81526001600160a01b0380831660048301528b1660248201526044016109bd565b610b888a8a8a610bf2565b50505050505050505050565b5f82815260066020526040902060010154610bae81610cd2565b6106ed8383610e96565b604080518082019091525f8082526020820152610bd583836112ea565b9392505050565b5f610bd58284612273565b5f610bd5828461229a565b610734838383600161131e565b6001600160a01b038381165f908152600160209081526040808320938616835292905220545f198110156106ed5781811015610c6757604051637dc7a0d960e11b81526001600160a01b038416600482015260248101829052604481018390526064016109bd565b6106ed84848484035f61131e565b6001600160a01b038316610c9e57604051634b637e8f60e11b81525f60048201526024016109bd565b6001600160a01b038216610cc75760405163ec442f0560e01b81525f60048201526024016109bd565b6107348383836113f0565b61077d81336113fb565b5f610ce7838361092e565b610d66575f8381526006602090815260408083206001600160a01b03861684529091529020805460ff19166001179055610d1e3390565b6001600160a01b0316826001600160a01b0316847f2f8788117e7eff1d82e926ec794901d17c78024a50270940304540a733656f0d60405160405180910390a45060016105f9565b505f6105f9565b5f306001600160a01b037f000000000000000000000000000000000000000000000000000000000000000016148015610dc557507f000000000000000000000000000000000000000000000000000000000000000046145b15610def57507f000000000000000000000000000000000000000000000000000000000000000090565b6106fc604080517f8b73c3c69bb8fe3d512ecc4cf759cc79239f7b179b0ffacaa9a75d522b39400f60208201527f0000000000000000000000000000000000000000000000000000000000000000918101919091527f000000000000000000000000000000000000000000000000000000000000000060608201524660808201523060a08201525f9060c00160405160208183030381529060405280519060200120905090565b5f610ea1838361092e565b15610d66575f8381526006602090815260408083206001600160a01b0386168085529252808320805460ff1916905551339286917ff6391f5c32d9c69d2a47ea670b442974b53935d1edc7fd64eb21e047a839171b9190a45060016105f9565b5f80610f0b610958565b90508065ffffffffffff168310610f4657604051637669fc0f60e11b81526004810184905265ffffffffffff821660248201526044016109bd565b610bd583611434565b81545f9081816005811115610fab575f610f688461146a565b610f7290856122ba565b5f8881526020902090915081015465ffffffffffff9081169087161015610f9b57809150610fa9565b610fa68160016122cd565b92505b505b5f610fb8878785856115c2565b90508015610ff257610fdc87610fcf6001846122ba565b5f91825260209091200190565b54600160301b90046001600160d01b0316610ff4565b5f5b979650505050505050565b6001600160a01b03821661102857604051634b637e8f60e11b81525f60048201526024016109bd565b610869825f836113f0565b61103b611621565b6005805460ff191690557f5db9ee0a495bf2e6ff9c91a7834c1ba4fdd244a5e8aa4e537bd38aeae4b073aa335b6040516001600160a01b03909116815260200160405180910390a1565b6001600160a01b0382166110ae5760405163ec442f0560e01b81525f60048201526024016109bd565b6108695f83836113f0565b5f6106fc43611434565b6001600160a01b038281165f818152600a602052604080822080548686166001600160a01b0319821681179092559151919094169392849290917f3134e8a2e6d97e929a7e54011ea5485d7d196dd5f0ba4d4ef95803e8e3fc257f9190a4610734818361112f86611646565b611663565b6001600160a01b0381165f908152600b60205260408120546105f9906117cc565b6001600160a01b0381165f908152600960205260408120546105f9565b61117a6117fc565b6005805460ff191660011790557f62e78cea01bee320cd4e420270b5ea74000d11b0c9f74754ebdbfc544b05a2586110683390565b60606106fc7f00000000000000000000000000000000000000000000000000000000000000006007611820565b60606106fc7f00000000000000000000000000000000000000000000000000000000000000006008611820565b80545f9080156112385761122283610fcf6001846122ba565b54600160301b90046001600160d01b0316610bd5565b5f9392505050565b5f6105f961124c610d6d565b8360405161190160f01b8152600281019290925260228201526042902090565b5f805f8061127c888888886118c9565b92509250925061128c8282611991565b50909695505050505050565b6001600160a01b0382165f908152600960205260409020805460018101909155818114610734576040516301d4b62360e61b81526001600160a01b0384166004820152602481018290526044016109bd565b604080518082019091525f80825260208201526001600160a01b0383165f908152600b60205260409020610bd59083611a49565b6001600160a01b0384166113475760405163e602df0560e01b81525f60048201526024016109bd565b6001600160a01b03831661137057604051634a1406b160e11b81525f60048201526024016109bd565b6001600160a01b038085165f90815260016020908152604080832093871683529290522082905580156106ed57826001600160a01b0316846001600160a01b03167f8c5be1e5ebec7d5bd14f71427d1e84f3dd0314c0f7b2291e5b200ac8c7c3b925846040516113e291815260200190565b60405180910390a350505050565b610734838383611ab6565b611405828261092e565b6108695760405163e2517d3f60e01b81526001600160a01b0382166004820152602481018390526044016109bd565b5f65ffffffffffff821115611466576040516306dfcc6560e41b815260306004820152602481018390526044016109bd565b5090565b5f60018211611477575090565b816001600160801b82106114905760809190911c9060401b5b6801000000000000000082106114ab5760409190911c9060201b5b64010000000082106114c25760209190911c9060101b5b6201000082106114d75760109190911c9060081b5b61010082106114eb5760089190911c9060041b5b601082106114fe5760049190911c9060021b5b6004821061150a5760011b5b600302600190811c90818581611522576115226122e0565b048201901c9050600181858161153a5761153a6122e0565b048201901c90506001818581611552576115526122e0565b048201901c9050600181858161156a5761156a6122e0565b048201901c90506001818581611582576115826122e0565b048201901c9050600181858161159a5761159a6122e0565b048201901c90506115b98185816115b3576115b36122e0565b04821190565b90039392505050565b5f5b81831015611619575f6115d78484611b1c565b5f8781526020902090915065ffffffffffff86169082015465ffffffffffff16111561160557809250611613565b6116108160016122cd565b93505b506115c4565b509392505050565b60055460ff1661164457604051638dfc202b60e01b815260040160405180910390fd5b565b6001600160a01b0381165f908152602081905260408120546105f9565b816001600160a01b0316836001600160a01b03161415801561168457505f81115b15610734576001600160a01b0383161561172b576001600160a01b0383165f908152600b6020526040812081906116c690610be76116c186611b36565b611b69565b6001600160d01b031691506001600160d01b03169150846001600160a01b03167fdec2bacdd2f05b59de34da9b523dff8be42e5e38e818c82fdb0bae774387a7248383604051611720929190918252602082015260400190565b60405180910390a250505b6001600160a01b03821615610734576001600160a01b0382165f908152600b60205260408120819061176390610bdc6116c186611b36565b6001600160d01b031691506001600160d01b03169150836001600160a01b03167fdec2bacdd2f05b59de34da9b523dff8be42e5e38e818c82fdb0bae774387a72483836040516117bd929190918252602082015260400190565b60405180910390a25050505050565b5f63ffffffff821115611466576040516306dfcc6560e41b815260206004820152602481018390526044016109bd565b60055460ff16156116445760405163d93c066560e01b815260040160405180910390fd5b606060ff831461183a5761183383611ba1565b90506105f9565b81805461184690612227565b80601f016020809104026020016040519081016040528092919081815260200182805461187290612227565b80156118bd5780601f10611894576101008083540402835291602001916118bd565b820191905f5260205f20905b8154815290600101906020018083116118a057829003601f168201915b505050505090506105f9565b5f80807f7fffffffffffffffffffffffffffffff5d576e7357a4501ddfe92f46681b20a084111561190257505f91506003905082611987565b604080515f808252602082018084528a905260ff891692820192909252606081018790526080810186905260019060a0016020604051602081039080840390855afa158015611953573d5f803e3d5ffd5b5050604051601f1901519150506001600160a01b03811661197e57505f925060019150829050611987565b92505f91508190505b9450945094915050565b5f8260038111156119a4576119a46122f4565b036119ad575050565b60018260038111156119c1576119c16122f4565b036119df5760405163f645eedf60e01b815260040160405180910390fd5b60028260038111156119f3576119f36122f4565b03611a145760405163fce698f760e01b8152600481018290526024016109bd565b6003826003811115611a2857611a286122f4565b03610869576040516335e2f38360e21b8152600481018290526024016109bd565b604080518082019091525f8082526020820152825f018263ffffffff1681548110611a7657611a76612308565b5f9182526020918290206040805180820190915291015465ffffffffffff81168252600160301b90046001600160d01b0316918101919091529392505050565b611ac1838383611bde565b6001600160a01b038316611b11575f611ad960025490565b90506001600160d01b0380821115611b0e57604051630e58ae9360e11b815260048101839052602481018290526044016109bd565b50505b610734838383611bf1565b5f611b2a600284841861231c565b610bd5908484166122cd565b5f6001600160d01b03821115611466576040516306dfcc6560e41b815260d06004820152602481018390526044016109bd565b5f80611b94611b76610958565b611b8c611b8288611209565b868863ffffffff16565b879190611c66565b915091505b935093915050565b60605f611bad83611c73565b6040805160208082528183019092529192505f91906020820181803683375050509182525060208101929092525090565b611be66117fc565b610734838383611c9a565b6001600160a01b038316611c1357611c10600c610bdc6116c184611b36565b50505b6001600160a01b038216611c3557611c32600c610be76116c184611b36565b50505b6001600160a01b038381165f908152600a602052604080822054858416835291205461073492918216911683611663565b5f80611b94858585611dc0565b5f60ff8216601f8111156105f957604051632cd44ac360e21b815260040160405180910390fd5b6001600160a01b038316611cc4578060025f828254611cb991906122cd565b90915550611d349050565b6001600160a01b0383165f9081526020819052604090205481811015611d165760405163391434e360e21b81526001600160a01b038516600482015260248101829052604481018390526064016109bd565b6001600160a01b0384165f9081526020819052604090209082900390555b6001600160a01b038216611d5057600280548290039055611d6e565b6001600160a01b0382165f9081526020819052604090208054820190555b816001600160a01b0316836001600160a01b03167fddf252ad1be2c89b69c2b068fc378daa952ba7f163c4a11628f55a4df523b3ef83604051611db391815260200190565b60405180910390a3505050565b82545f9081908015611eb6575f611ddc87610fcf6001856122ba565b805490915065ffffffffffff80821691600160301b90046001600160d01b0316908816821115611e1f57604051632520601d60e01b815260040160405180910390fd5b8765ffffffffffff168265ffffffffffff1603611e5857825465ffffffffffff16600160301b6001600160d01b03891602178355611ea8565b6040805180820190915265ffffffffffff808a1682526001600160d01b03808a1660208085019182528d54600181018f555f8f81529190912094519151909216600160301b029216919091179101555b9450859350611b9992505050565b50506040805180820190915265ffffffffffff80851682526001600160d01b0380851660208085019182528854600181018a555f8a815291822095519251909316600160301b029190931617920191909155905081611b99565b5f60208284031215611f20575f80fd5b81356001600160e01b031981168114610bd5575f80fd5b5f81518084525f5b81811015611f5b57602081850181015186830182015201611f3f565b505f602082860101526020601f19601f83011685010191505092915050565b602081525f610bd56020830184611f37565b80356001600160a01b0381168114611fa2575f80fd5b919050565b5f8060408385031215611fb8575f80fd5b611fc183611f8c565b946020939093013593505050565b5f805f60608486031215611fe1575f80fd5b611fea84611f8c565b9250611ff860208501611f8c565b9150604084013590509250925092565b5f60208284031215612018575f80fd5b5035919050565b5f8060408385031215612030575f80fd5b8235915061204060208401611f8c565b90509250929050565b5f60208284031215612059575f80fd5b610bd582611f8c565b60ff60f81b881681525f602060e0602084015261208260e084018a611f37565b8381036040850152612094818a611f37565b606085018990526001600160a01b038816608086015260a0850187905284810360c0860152855180825260208088019350909101905f5b818110156120e7578351835292840192918401916001016120cb565b50909c9b505050505050505050505050565b803560ff81168114611fa2575f80fd5b5f805f805f8060c0878903121561211e575f80fd5b61212787611f8c565b95506020870135945060408701359350612143606088016120f9565b92506080870135915060a087013590509295509295509295565b5f805f805f805f60e0888a031215612173575f80fd5b61217c88611f8c565b965061218a60208901611f8c565b955060408801359450606088013593506121a6608089016120f9565b925060a0880135915060c0880135905092959891949750929550565b5f80604083850312156121d3575f80fd5b6121dc83611f8c565b915061204060208401611f8c565b5f80604083850312156121fb575f80fd5b61220483611f8c565b9150602083013563ffffffff8116811461221c575f80fd5b809150509250929050565b600181811c9082168061223b57607f821691505b60208210810361225957634e487b7160e01b5f52602260045260245ffd5b50919050565b634e487b7160e01b5f52601160045260245ffd5b6001600160d01b038181168382160190808211156122935761229361225f565b5092915050565b6001600160d01b038281168282160390808211156122935761229361225f565b818103818111156105f9576105f961225f565b808201808211156105f9576105f961225f565b634e487b7160e01b5f52601260045260245ffd5b634e487b7160e01b5f52602160045260245ffd5b634e487b7160e01b5f52603260045260245ffd5b5f8261233657634e487b7160e01b5f52601260045260245ffd5b50049056fea26469706673582212209e94987d3e0087feee76b9411d7dd24bc8a618753b87f9208535e4c7a5c61d4364736f6c63430008180033dec2bacdd2f05b59de34da9b523dff8be42e5e38e818c82fdb0bae774387a724","linkReferences":{}},"methodIdentifiers":{"CLOCK_MODE()":"4bf5d7e9","DEFAULT_ADMIN_ROLE()":"a217fddf","DOMAIN_SEPARATOR()":"3644e515","MINTER_ROLE()":"d5391393","PAUSER_ROLE()":"e63ab1e9","allowance(address,address)":"dd62ed3e","approve(address,uint256)":"095ea7b3","balanceOf(address)":"70a08231","burn(uint256)":"42966c68","burnFrom(address,uint256)":"79cc6790","checkpoints(address,uint32)":"f1127ed8","clock()":"91ddadf4","decimals()":"313ce567","delegate(address)":"5c19a95c","delegateBySig(address,uint256,uint256,uint8,bytes32,bytes32)":"c3cda520","delegates(address)":"587cde1e","eip712Domain()":"84b0196e","getPastTotalSupply(uint256)":"8e539e8c","getPastVotes(address,uint256)":"3a46b1a8","getRoleAdmin(bytes32)":"248a9ca3","getVotes(address)":"9ab24eb0","grantRole(bytes32,address)":"2f2ff15d","hasRole(bytes32,address)":"91d14854","mint(address,uint256)":"40c10f19","name()":"06fdde03","nonces(address)":"7ecebe00","numCheckpoints(address)":"6fcfff45","pause()":"8456cb59","paused()":"5c975abb","permit(address,address,uint256,uint256,uint8,bytes32,bytes32)":"d505accf","reflexiveBurn(uint256)":"3b3a2b65","renounceRole(bytes32,address)":"36568abe","revokeRole(bytes32,address)":"d547741f","supportsInterface(bytes4)":"01ffc9a7","symbol()":"95d89b41","totalSupply()":"18160ddd","transfer(address,uint256)":"a9059cbb","transferFrom(address,address,uint256)":"23b872dd","unpause()":"3f4ba83a"},"id":73}