{"abi":[{"type":"constructor","inputs":[{"name":"defaultAdmin","type":"address","internalType":"address"}],"stateMutability":"nonpayable"},{"type":"function","name":"DEFAULT_ADMIN_ROLE","inputs":[],"outputs":[{"name":"","type":"bytes32","internalType":"bytes32"}],"stateMutability":"view"},{"type":"function","name":"DOMAIN_SEPARATOR","inputs":[],"outputs":[{"name":"","type":"bytes32","internalType":"bytes32"}],"stateMutability":"view"},{"type":"function","name":"MINTER_ROLE","inputs":[],"outputs":[{"name":"","type":"bytes32","internalType":"bytes32"}],"stateMutability":"view"},{"type":"function","name":"allowance","inputs":[{"name":"owner","type":"address","internalType":"address"},{"name":"spender","type":"address","internalType":"address"}],"outputs":[{"name":"","type":"uint256","internalType":"uint256"}],"stateMutability":"view"},{"type":"function","name":"approve","inputs":[{"name":"spender","type":"address","internalType":"address"},{"name":"value","type":"uint256","internalType":"uint256"}],"outputs":[{"name":"","type":"bool","internalType":"bool"}],"stateMutability":"nonpayable"},{"type":"function","name":"balanceOf","inputs":[{"name":"account","type":"address","internalType":"address"}],"outputs":[{"name":"","type":"uint256","internalType":"uint256"}],"stateMutability":"view"},{"type":"function","name":"burn","inputs":[{"name":"value","type":"uint256","internalType":"uint256"}],"outputs":[],"stateMutability":"nonpayable"},{"type":"function","name":"burnFrom","inputs":[{"name":"account","type":"address","internalType":"address"},{"name":"value","type":"uint256","internalType":"uint256"}],"outputs":[],"stateMutability":"nonpayable"},{"type":"function","name":"decimals","inputs":[],"outputs":[{"name":"","type":"uint8","internalType":"uint8"}],"stateMutability":"view"},{"type":"function","name":"eip712Domain","inputs":[],"outputs":[{"name":"fields","type":"bytes1","internalType":"bytes1"},{"name":"name","type":"string","internalType":"string"},{"name":"version","type":"string","internalType":"string"},{"name":"chainId","type":"uint256","internalType":"uint256"},{"name":"verifyingContract","type":"address","internalType":"address"},{"name":"salt","type":"bytes32","internalType":"bytes32"},{"name":"extensions","type":"uint256[]","internalType":"uint256[]"}],"stateMutability":"view"},{"type":"function","name":"flashMint","inputs":[{"name":"receiver","type":"address","internalType":"address"},{"name":"amount","type":"uint256","internalType":"uint256"},{"name":"data","type":"bytes","internalType":"bytes"}],"outputs":[],"stateMutability":"nonpayable"},{"type":"function","name":"getRoleAdmin","inputs":[{"name":"role","type":"bytes32","internalType":"bytes32"}],"outputs":[{"name":"","type":"bytes32","internalType":"bytes32"}],"stateMutability":"view"},{"type":"function","name":"grantRole","inputs":[{"name":"role","type":"bytes32","internalType":"bytes32"},{"name":"account","type":"address","internalType":"address"}],"outputs":[],"stateMutability":"nonpayable"},{"type":"function","name":"hasRole","inputs":[{"name":"role","type":"bytes32","internalType":"bytes32"},{"name":"account","type":"address","internalType":"address"}],"outputs":[{"name":"","type":"bool","internalType":"bool"}],"stateMutability":"view"},{"type":"function","name":"mint","inputs":[{"name":"to","type":"address","internalType":"address"},{"name":"amount","type":"uint256","internalType":"uint256"}],"outputs":[],"stateMutability":"nonpayable"},{"type":"function","name":"name","inputs":[],"outputs":[{"name":"","type":"string","internalType":"string"}],"stateMutability":"view"},{"type":"function","name":"nonces","inputs":[{"name":"owner","type":"address","internalType":"address"}],"outputs":[{"name":"","type":"uint256","internalType":"uint256"}],"stateMutability":"view"},{"type":"function","name":"permit","inputs":[{"name":"owner","type":"address","internalType":"address"},{"name":"spender","type":"address","internalType":"address"},{"name":"value","type":"uint256","internalType":"uint256"},{"name":"deadline","type":"uint256","internalType":"uint256"},{"name":"v","type":"uint8","internalType":"uint8"},{"name":"r","type":"bytes32","internalType":"bytes32"},{"name":"s","type":"bytes32","internalType":"bytes32"}],"outputs":[],"stateMutability":"nonpayable"},{"type":"function","name":"renounceRole","inputs":[{"name":"role","type":"bytes32","internalType":"bytes32"},{"name":"callerConfirmation","type":"address","internalType":"address"}],"outputs":[],"stateMutability":"nonpayable"},{"type":"function","name":"revokeRole","inputs":[{"name":"role","type":"bytes32","internalType":"bytes32"},{"name":"account","type":"address","internalType":"address"}],"outputs":[],"stateMutability":"nonpayable"},{"type":"function","name":"supportsInterface","inputs":[{"name":"interfaceId","type":"bytes4","internalType":"bytes4"}],"outputs":[{"name":"","type":"bool","internalType":"bool"}],"stateMutability":"view"},{"type":"function","name":"symbol","inputs":[],"outputs":[{"name":"","type":"string","internalType":"string"}],"stateMutability":"view"},{"type":"function","name":"totalSupply","inputs":[],"outputs":[{"name":"","type":"uint256","internalType":"uint256"}],"stateMutability":"view"},{"type":"function","name":"transfer","inputs":[{"name":"to","type":"address","internalType":"address"},{"name":"value","type":"uint256","internalType":"uint256"}],"outputs":[{"name":"","type":"bool","internalType":"bool"}],"stateMutability":"nonpayable"},{"type":"function","name":"transferFrom","inputs":[{"name":"from","type":"address","internalType":"address"},{"name":"to","type":"address","internalType":"address"},{"name":"value","type":"uint256","internalType":"uint256"}],"outputs":[{"name":"","type":"bool","internalType":"bool"}],"stateMutability":"nonpayable"},{"type":"event","name":"Approval","inputs":[{"name":"owner","type":"address","indexed":true,"internalType":"address"},{"name":"spender","type":"address","indexed":true,"internalType":"address"},{"name":"value","type":"uint256","indexed":false,"internalType":"uint256"}],"anonymous":false},{"type":"event","name":"EIP712DomainChanged","inputs":[],"anonymous":false},{"type":"event","name":"RoleAdminChanged","inputs":[{"name":"role","type":"bytes32","indexed":true,"internalType":"bytes32"},{"name":"previousAdminRole","type":"bytes32","indexed":true,"internalType":"bytes32"},{"name":"newAdminRole","type":"bytes32","indexed":true,"internalType":"bytes32"}],"anonymous":false},{"type":"event","name":"RoleGranted","inputs":[{"name":"role","type":"bytes32","indexed":true,"internalType":"bytes32"},{"name":"account","type":"address","indexed":true,"internalType":"address"},{"name":"sender","type":"address","indexed":true,"internalType":"address"}],"anonymous":false},{"type":"event","name":"RoleRevoked","inputs":[{"name":"role","type":"bytes32","indexed":true,"internalType":"bytes32"},{"name":"account","type":"address","indexed":true,"internalType":"address"},{"name":"sender","type":"address","indexed":true,"internalType":"address"}],"anonymous":false},{"type":"event","name":"Transfer","inputs":[{"name":"from","type":"address","indexed":true,"internalType":"address"},{"name":"to","type":"address","indexed":true,"internalType":"address"},{"name":"value","type":"uint256","indexed":false,"internalType":"uint256"}],"anonymous":false},{"type":"error","name":"AccessControlBadConfirmation","inputs":[]},{"type":"error","name":"AccessControlUnauthorizedAccount","inputs":[{"name":"account","type":"address","internalType":"address"},{"name":"neededRole","type":"bytes32","internalType":"bytes32"}]},{"type":"error","name":"ECDSAInvalidSignature","inputs":[]},{"type":"error","name":"ECDSAInvalidSignatureLength","inputs":[{"name":"length","type":"uint256","internalType":"uint256"}]},{"type":"error","name":"ECDSAInvalidSignatureS","inputs":[{"name":"s","type":"bytes32","internalType":"bytes32"}]},{"type":"error","name":"ERC20InsufficientAllowance","inputs":[{"name":"spender","type":"address","internalType":"address"},{"name":"allowance","type":"uint256","internalType":"uint256"},{"name":"needed","type":"uint256","internalType":"uint256"}]},{"type":"error","name":"ERC20InsufficientBalance","inputs":[{"name":"sender","type":"address","internalType":"address"},{"name":"balance","type":"uint256","internalType":"uint256"},{"name":"needed","type":"uint256","internalType":"uint256"}]},{"type":"error","name":"ERC20InvalidApprover","inputs":[{"name":"approver","type":"address","internalType":"address"}]},{"type":"error","name":"ERC20InvalidReceiver","inputs":[{"name":"receiver","type":"address","internalType":"address"}]},{"type":"error","name":"ERC20InvalidSender","inputs":[{"name":"sender","type":"address","internalType":"address"}]},{"type":"error","name":"ERC20InvalidSpender","inputs":[{"name":"spender","type":"address","internalType":"address"}]},{"type":"error","name":"ERC2612ExpiredSignature","inputs":[{"name":"deadline","type":"uint256","internalType":"uint256"}]},{"type":"error","name":"ERC2612InvalidSigner","inputs":[{"name":"signer","type":"address","internalType":"address"},{"name":"owner","type":"address","internalType":"address"}]},{"type":"error","name":"InvalidAccountNonce","inputs":[{"name":"account","type":"address","internalType":"address"},{"name":"currentNonce","type":"uint256","internalType":"uint256"}]},{"type":"error","name":"InvalidShortString","inputs":[]},{"type":"error","name":"StringTooLong","inputs":[{"name":"str","type":"string","internalType":"string"}]}],"bytecode":{"object":"0x61016060405234801562000011575f80fd5b5060405162001aee38038062001aee8339810160408190526200003491620002f8565b6040518060400160405280601681526020017f4b65726e652053796e74686574696320446f6c6c61720000000000000000000081525080604051806040016040528060018152602001603160f81b8152506040518060400160405280601681526020017f4b65726e652053796e74686574696320446f6c6c617200000000000000000000815250604051806040016040528060048152602001631ad554d160e21b8152508160039081620000e99190620003c5565b506004620000f88282620003c5565b506200010a91508390506006620001c6565b610120526200011b816007620001c6565b61014052815160208084019190912060e052815190820120610100524660a052620001a860e05161010051604080517f8b73c3c69bb8fe3d512ecc4cf759cc79239f7b179b0ffacaa9a75d522b39400f60208201529081019290925260608201524660808201523060a08201525f9060c00160405160208183030381529060405280519060200120905090565b60805250503060c05250620001be5f82620001fe565b505062000503565b5f602083511015620001e557620001dd83620002ad565b9050620001f8565b81620001f28482620003c5565b5060ff90505b92915050565b5f8281526005602090815260408083206001600160a01b038516845290915281205460ff16620002a5575f8381526005602090815260408083206001600160a01b03861684529091529020805460ff191660011790556200025c3390565b6001600160a01b0316826001600160a01b0316847f2f8788117e7eff1d82e926ec794901d17c78024a50270940304540a733656f0d60405160405180910390a4506001620001f8565b505f620001f8565b5f80829050601f81511115620002e3578260405163305a27a960e01b8152600401620002da919062000491565b60405180910390fd5b8051620002f082620004df565b179392505050565b5f6020828403121562000309575f80fd5b81516001600160a01b038116811462000320575f80fd5b9392505050565b634e487b7160e01b5f52604160045260245ffd5b600181811c908216806200035057607f821691505b6020821081036200036f57634e487b7160e01b5f52602260045260245ffd5b50919050565b601f821115620003c057805f5260205f20601f840160051c810160208510156200039c5750805b601f840160051c820191505b81811015620003bd575f8155600101620003a8565b50505b505050565b81516001600160401b03811115620003e157620003e162000327565b620003f981620003f284546200033b565b8462000375565b602080601f8311600181146200042f575f8415620004175750858301515b5f19600386901b1c1916600185901b17855562000489565b5f85815260208120601f198616915b828110156200045f578886015182559484019460019091019084016200043e565b50858210156200047d57878501515f19600388901b60f8161c191681555b505060018460011b0185555b505050505050565b5f602080835283518060208501525f5b81811015620004bf57858101830151858201604001528201620004a1565b505f604082860101526040601f19601f8301168501019250505092915050565b805160208083015191908110156200036f575f1960209190910360031b1b16919050565b60805160a05160c05160e051610100516101205161014051611599620005555f395f610c4601525f610c1901525f610aef01525f610ac701525f610a2201525f610a4c01525f610a7601526115995ff3fe608060405234801561000f575f80fd5b506004361061016d575f3560e01c806342966c68116100d957806395d89b4111610093578063d505accf1161006e578063d505accf1461031e578063d539139314610331578063d547741f14610358578063dd62ed3e1461036b575f80fd5b806395d89b41146102fc578063a217fddf14610304578063a9059cbb1461030b575f80fd5b806342966c681461026d57806370a082311461028057806379cc6790146102a85780637ecebe00146102bb57806384b0196e146102ce57806391d14854146102e9575f80fd5b80632f2ff15d1161012a5780632f2ff15d14610208578063313ce5671461021d5780633644e5151461022c57806336568abe146102345780633ea214651461024757806340c10f191461025a575f80fd5b806301ffc9a71461017157806306fdde0314610199578063095ea7b3146101ae57806318160ddd146101c157806323b872dd146101d3578063248a9ca3146101e6575b5f80fd5b61018461017f366004611182565b6103a3565b60405190151581526020015b60405180910390f35b6101a16103d9565b60405161019091906111f3565b6101846101bc366004611220565b610469565b6002545b604051908152602001610190565b6101846101e1366004611248565b610480565b6101c56101f4366004611281565b5f9081526005602052604090206001015490565b61021b610216366004611298565b6104a3565b005b60405160128152602001610190565b6101c56104cd565b61021b610242366004611298565b6104db565b61021b6102553660046112c2565b610513565b61021b610268366004611220565b610642565b61021b61027b366004611281565b610676565b6101c561028e366004611342565b6001600160a01b03165f9081526020819052604090205490565b61021b6102b6366004611220565b610683565b6101c56102c9366004611342565b61069c565b6102d66106b9565b604051610190979695949392919061135b565b6101846102f7366004611298565b6106fb565b6101a1610725565b6101c55f81565b610184610319366004611220565b610734565b61021b61032c3660046113f2565b610741565b6101c57f9f2df0fed2c77648de5860a4cc508cd0818c85b8b8a1ab4ceeef8d981c8956a681565b61021b610366366004611298565b610877565b6101c561037936600461145f565b6001600160a01b039182165f90815260016020908152604080832093909416825291909152205490565b5f6001600160e01b03198216637965db0b60e01b14806103d357506301ffc9a760e01b6001600160e01b03198316145b92915050565b6060600380546103e890611487565b80601f016020809104026020016040519081016040528092919081815260200182805461041490611487565b801561045f5780601f106104365761010080835404028352916020019161045f565b820191905f5260205f20905b81548152906001019060200180831161044257829003601f168201915b5050505050905090565b5f3361047681858561089b565b5060019392505050565b5f3361048d8582856108a8565b61049885858561091e565b506001949350505050565b5f828152600560205260409020600101546104bd8161097b565b6104c78383610985565b50505050565b5f6104d6610a16565b905090565b6001600160a01b03811633146105045760405163334bd91960e11b815260040160405180910390fd5b61050e8282610b3f565b505050565b7f9f2df0fed2c77648de5860a4cc508cd0818c85b8b8a1ab4ceeef8d981c8956a661053d8161097b565b6105478585610baa565b6040516353e08c5f60e11b81527fe39ea12ae4cb29596526a30b476abc2f60bda238b2b65462e921e6d6be438eb6906001600160a01b0387169063a7c118be9061059f90339030908a905f908b908b906004016114bf565b6020604051808303815f875af11580156105bb573d5f803e3d5ffd5b505050506040513d601f19601f820116820180604052508101906105df9190611519565b146106315760405162461bcd60e51b815260206004820152601a60248201527f466c6173684d696e743a2043616c6c6261636b206661696c656400000000000060448201526064015b60405180910390fd5b61063b8585610bde565b5050505050565b7f9f2df0fed2c77648de5860a4cc508cd0818c85b8b8a1ab4ceeef8d981c8956a661066c8161097b565b61050e8383610baa565b6106803382610bde565b50565b61068e8233836108a8565b6106988282610bde565b5050565b6001600160a01b0381165f908152600860205260408120546103d3565b5f6060805f805f60606106ca610c12565b6106d2610c3f565b604080515f80825260208201909252600f60f81b9b939a50919850469750309650945092509050565b5f9182526005602090815260408084206001600160a01b0393909316845291905290205460ff1690565b6060600480546103e890611487565b5f3361047681858561091e565b834211156107655760405163313c898160e11b815260048101859052602401610628565b5f7f6e71edae12b1b97f4d1f60370fef10105fa2faae0126114a169c64845d6126c98888886107b08c6001600160a01b03165f90815260086020526040902080546001810190915590565b6040805160208101969096526001600160a01b0394851690860152929091166060840152608083015260a082015260c0810186905260e0016040516020818303038152906040528051906020012090505f61080a82610c6c565b90505f61081982878787610c98565b9050896001600160a01b0316816001600160a01b031614610860576040516325c0072360e11b81526001600160a01b0380831660048301528b166024820152604401610628565b61086b8a8a8a61089b565b50505050505050505050565b5f828152600560205260409020600101546108918161097b565b6104c78383610b3f565b61050e8383836001610cc4565b6001600160a01b038381165f908152600160209081526040808320938616835292905220545f198110156104c7578181101561091057604051637dc7a0d960e11b81526001600160a01b03841660048201526024810182905260448101839052606401610628565b6104c784848484035f610cc4565b6001600160a01b03831661094757604051634b637e8f60e11b81525f6004820152602401610628565b6001600160a01b0382166109705760405163ec442f0560e01b81525f6004820152602401610628565b61050e838383610d96565b6106808133610ebc565b5f61099083836106fb565b610a0f575f8381526005602090815260408083206001600160a01b03861684529091529020805460ff191660011790556109c73390565b6001600160a01b0316826001600160a01b0316847f2f8788117e7eff1d82e926ec794901d17c78024a50270940304540a733656f0d60405160405180910390a45060016103d3565b505f6103d3565b5f306001600160a01b037f000000000000000000000000000000000000000000000000000000000000000016148015610a6e57507f000000000000000000000000000000000000000000000000000000000000000046145b15610a9857507f000000000000000000000000000000000000000000000000000000000000000090565b6104d6604080517f8b73c3c69bb8fe3d512ecc4cf759cc79239f7b179b0ffacaa9a75d522b39400f60208201527f0000000000000000000000000000000000000000000000000000000000000000918101919091527f000000000000000000000000000000000000000000000000000000000000000060608201524660808201523060a08201525f9060c00160405160208183030381529060405280519060200120905090565b5f610b4a83836106fb565b15610a0f575f8381526005602090815260408083206001600160a01b0386168085529252808320805460ff1916905551339286917ff6391f5c32d9c69d2a47ea670b442974b53935d1edc7fd64eb21e047a839171b9190a45060016103d3565b6001600160a01b038216610bd35760405163ec442f0560e01b81525f6004820152602401610628565b6106985f8383610d96565b6001600160a01b038216610c0757604051634b637e8f60e11b81525f6004820152602401610628565b610698825f83610d96565b60606104d67f00000000000000000000000000000000000000000000000000000000000000006006610ef5565b60606104d67f00000000000000000000000000000000000000000000000000000000000000006007610ef5565b5f6103d3610c78610a16565b8360405161190160f01b8152600281019290925260228201526042902090565b5f805f80610ca888888888610f9e565b925092509250610cb88282611066565b50909695505050505050565b6001600160a01b038416610ced5760405163e602df0560e01b81525f6004820152602401610628565b6001600160a01b038316610d1657604051634a1406b160e11b81525f6004820152602401610628565b6001600160a01b038085165f90815260016020908152604080832093871683529290522082905580156104c757826001600160a01b0316846001600160a01b03167f8c5be1e5ebec7d5bd14f71427d1e84f3dd0314c0f7b2291e5b200ac8c7c3b92584604051610d8891815260200190565b60405180910390a350505050565b6001600160a01b038316610dc0578060025f828254610db59190611530565b90915550610e309050565b6001600160a01b0383165f9081526020819052604090205481811015610e125760405163391434e360e21b81526001600160a01b03851660048201526024810182905260448101839052606401610628565b6001600160a01b0384165f9081526020819052604090209082900390555b6001600160a01b038216610e4c57600280548290039055610e6a565b6001600160a01b0382165f9081526020819052604090208054820190555b816001600160a01b0316836001600160a01b03167fddf252ad1be2c89b69c2b068fc378daa952ba7f163c4a11628f55a4df523b3ef83604051610eaf91815260200190565b60405180910390a3505050565b610ec682826106fb565b6106985760405163e2517d3f60e01b81526001600160a01b038216600482015260248101839052604401610628565b606060ff8314610f0f57610f088361111e565b90506103d3565b818054610f1b90611487565b80601f0160208091040260200160405190810160405280929190818152602001828054610f4790611487565b8015610f925780601f10610f6957610100808354040283529160200191610f92565b820191905f5260205f20905b815481529060010190602001808311610f7557829003601f168201915b505050505090506103d3565b5f80807f7fffffffffffffffffffffffffffffff5d576e7357a4501ddfe92f46681b20a0841115610fd757505f9150600390508261105c565b604080515f808252602082018084528a905260ff891692820192909252606081018790526080810186905260019060a0016020604051602081039080840390855afa158015611028573d5f803e3d5ffd5b5050604051601f1901519150506001600160a01b03811661105357505f92506001915082905061105c565b92505f91508190505b9450945094915050565b5f8260038111156110795761107961154f565b03611082575050565b60018260038111156110965761109661154f565b036110b45760405163f645eedf60e01b815260040160405180910390fd5b60028260038111156110c8576110c861154f565b036110e95760405163fce698f760e01b815260048101829052602401610628565b60038260038111156110fd576110fd61154f565b03610698576040516335e2f38360e21b815260048101829052602401610628565b60605f61112a8361115b565b6040805160208082528183019092529192505f91906020820181803683375050509182525060208101929092525090565b5f60ff8216601f8111156103d357604051632cd44ac360e21b815260040160405180910390fd5b5f60208284031215611192575f80fd5b81356001600160e01b0319811681146111a9575f80fd5b9392505050565b5f81518084525f5b818110156111d4576020818501810151868301820152016111b8565b505f602082860101526020601f19601f83011685010191505092915050565b602081525f6111a960208301846111b0565b80356001600160a01b038116811461121b575f80fd5b919050565b5f8060408385031215611231575f80fd5b61123a83611205565b946020939093013593505050565b5f805f6060848603121561125a575f80fd5b61126384611205565b925061127160208501611205565b9150604084013590509250925092565b5f60208284031215611291575f80fd5b5035919050565b5f80604083850312156112a9575f80fd5b823591506112b960208401611205565b90509250929050565b5f805f80606085870312156112d5575f80fd5b6112de85611205565b935060208501359250604085013567ffffffffffffffff80821115611301575f80fd5b818701915087601f830112611314575f80fd5b813581811115611322575f80fd5b886020828501011115611333575f80fd5b95989497505060200194505050565b5f60208284031215611352575f80fd5b6111a982611205565b60ff60f81b881681525f602060e0602084015261137b60e084018a6111b0565b838103604085015261138d818a6111b0565b606085018990526001600160a01b038816608086015260a0850187905284810360c0860152855180825260208088019350909101905f5b818110156113e0578351835292840192918401916001016113c4565b50909c9b505050505050505050505050565b5f805f805f805f60e0888a031215611408575f80fd5b61141188611205565b965061141f60208901611205565b95506040880135945060608801359350608088013560ff81168114611442575f80fd5b9699959850939692959460a0840135945060c09093013592915050565b5f8060408385031215611470575f80fd5b61147983611205565b91506112b960208401611205565b600181811c9082168061149b57607f821691505b6020821081036114b957634e487b7160e01b5f52602260045260245ffd5b50919050565b6001600160a01b03878116825286166020820152604081018590526060810184905260a06080820181905281018290525f828460c08401375f60c0848401015260c0601f19601f8501168301019050979650505050505050565b5f60208284031215611529575f80fd5b5051919050565b808201808211156103d357634e487b7160e01b5f52601160045260245ffd5b634e487b7160e01b5f52602160045260245ffdfea2646970667358221220b93afbc32ea730ac316016b0ef712293b1fa988c7f145f639e18980da6dceb0864736f6c63430008180033","linkReferences":{}},"methodIdentifiers":{"DEFAULT_ADMIN_ROLE()":"a217fddf","DOMAIN_SEPARATOR()":"3644e515","MINTER_ROLE()":"d5391393","allowance(address,address)":"dd62ed3e","approve(address,uint256)":"095ea7b3","balanceOf(address)":"70a08231","burn(uint256)":"42966c68","burnFrom(address,uint256)":"79cc6790","decimals()":"313ce567","eip712Domain()":"84b0196e","flashMint(address,uint256,bytes)":"3ea21465","getRoleAdmin(bytes32)":"248a9ca3","grantRole(bytes32,address)":"2f2ff15d","hasRole(bytes32,address)":"91d14854","mint(address,uint256)":"40c10f19","name()":"06fdde03","nonces(address)":"7ecebe00","permit(address,address,uint256,uint256,uint8,bytes32,bytes32)":"d505accf","renounceRole(bytes32,address)":"36568abe","revokeRole(bytes32,address)":"d547741f","supportsInterface(bytes4)":"01ffc9a7","symbol()":"95d89b41","totalSupply()":"18160ddd","transfer(address,uint256)":"a9059cbb","transferFrom(address,address,uint256)":"23b872dd"},"id":77}