{"abi":[{"type":"constructor","inputs":[{"name":"asset_","type":"address","internalType":"contract IERC20"},{"name":"name_","type":"string","internalType":"string"},{"name":"symbol_","type":"string","internalType":"string"},{"name":"admin_","type":"address","internalType":"address"},{"name":"strategist_","type":"address","internalType":"address"},{"name":"exchangeDepositAddress_","type":"address","internalType":"address"}],"stateMutability":"nonpayable"},{"type":"function","name":"DEFAULT_ADMIN_ROLE","inputs":[],"outputs":[{"name":"","type":"bytes32","internalType":"bytes32"}],"stateMutability":"view"},{"type":"function","name":"PAUSER_ROLE","inputs":[],"outputs":[{"name":"","type":"bytes32","internalType":"bytes32"}],"stateMutability":"view"},{"type":"function","name":"STRATEGIST_ROLE","inputs":[],"outputs":[{"name":"","type":"bytes32","internalType":"bytes32"}],"stateMutability":"view"},{"type":"function","name":"allowance","inputs":[{"name":"owner","type":"address","internalType":"address"},{"name":"spender","type":"address","internalType":"address"}],"outputs":[{"name":"","type":"uint256","internalType":"uint256"}],"stateMutability":"view"},{"type":"function","name":"approve","inputs":[{"name":"spender","type":"address","internalType":"address"},{"name":"value","type":"uint256","internalType":"uint256"}],"outputs":[{"name":"","type":"bool","internalType":"bool"}],"stateMutability":"nonpayable"},{"type":"function","name":"asset","inputs":[],"outputs":[{"name":"","type":"address","internalType":"address"}],"stateMutability":"view"},{"type":"function","name":"balanceOf","inputs":[{"name":"account","type":"address","internalType":"address"}],"outputs":[{"name":"","type":"uint256","internalType":"uint256"}],"stateMutability":"view"},{"type":"function","name":"captureFounderWealth","inputs":[{"name":"grossYieldAmount","type":"uint256","internalType":"uint256"}],"outputs":[],"stateMutability":"nonpayable"},{"type":"function","name":"convertToAssets","inputs":[{"name":"shares","type":"uint256","internalType":"uint256"}],"outputs":[{"name":"","type":"uint256","internalType":"uint256"}],"stateMutability":"view"},{"type":"function","name":"convertToShares","inputs":[{"name":"assets","type":"uint256","internalType":"uint256"}],"outputs":[{"name":"","type":"uint256","internalType":"uint256"}],"stateMutability":"view"},{"type":"function","name":"decimals","inputs":[],"outputs":[{"name":"","type":"uint8","internalType":"uint8"}],"stateMutability":"view"},{"type":"function","name":"deposit","inputs":[{"name":"assets","type":"uint256","internalType":"uint256"},{"name":"receiver","type":"address","internalType":"address"}],"outputs":[{"name":"","type":"uint256","internalType":"uint256"}],"stateMutability":"nonpayable"},{"type":"function","name":"drawFromInsuranceFund","inputs":[{"name":"amount","type":"uint256","internalType":"uint256"}],"outputs":[],"stateMutability":"nonpayable"},{"type":"function","name":"exchangeDepositAddress","inputs":[],"outputs":[{"name":"","type":"address","internalType":"address"}],"stateMutability":"view"},{"type":"function","name":"founder","inputs":[],"outputs":[{"name":"","type":"address","internalType":"address"}],"stateMutability":"view"},{"type":"function","name":"founderFeeBps","inputs":[],"outputs":[{"name":"","type":"uint256","internalType":"uint256"}],"stateMutability":"view"},{"type":"function","name":"getExchangeDepositAddress","inputs":[],"outputs":[{"name":"","type":"address","internalType":"address"}],"stateMutability":"view"},{"type":"function","name":"getRoleAdmin","inputs":[{"name":"role","type":"bytes32","internalType":"bytes32"}],"outputs":[{"name":"","type":"bytes32","internalType":"bytes32"}],"stateMutability":"view"},{"type":"function","name":"grantRole","inputs":[{"name":"role","type":"bytes32","internalType":"bytes32"},{"name":"account","type":"address","internalType":"address"}],"outputs":[],"stateMutability":"nonpayable"},{"type":"function","name":"grossPerformanceFeeBps","inputs":[],"outputs":[{"name":"","type":"uint256","internalType":"uint256"}],"stateMutability":"view"},{"type":"function","name":"hasRole","inputs":[{"name":"role","type":"bytes32","internalType":"bytes32"},{"name":"account","type":"address","internalType":"address"}],"outputs":[{"name":"","type":"bool","internalType":"bool"}],"stateMutability":"view"},{"type":"function","name":"hedgingReserve","inputs":[],"outputs":[{"name":"","type":"uint256","internalType":"uint256"}],"stateMutability":"view"},{"type":"function","name":"initialize","inputs":[{"name":"asset_","type":"address","internalType":"address"},{"name":"name_","type":"string","internalType":"string"},{"name":"symbol_","type":"string","internalType":"string"},{"name":"admin_","type":"address","internalType":"address"},{"name":"strategist_","type":"address","internalType":"address"},{"name":"founder_","type":"address","internalType":"address"},{"name":"founderFeeBps_","type":"uint256","internalType":"uint256"}],"outputs":[],"stateMutability":"nonpayable"},{"type":"function","name":"insuranceFund","inputs":[],"outputs":[{"name":"","type":"address","internalType":"address"}],"stateMutability":"view"},{"type":"function","name":"insuranceFundBalance","inputs":[],"outputs":[{"name":"","type":"uint256","internalType":"uint256"}],"stateMutability":"view"},{"type":"function","name":"insuranceFundBps","inputs":[],"outputs":[{"name":"","type":"uint256","internalType":"uint256"}],"stateMutability":"view"},{"type":"function","name":"maxDeposit","inputs":[{"name":"","type":"address","internalType":"address"}],"outputs":[{"name":"","type":"uint256","internalType":"uint256"}],"stateMutability":"view"},{"type":"function","name":"maxMint","inputs":[{"name":"","type":"address","internalType":"address"}],"outputs":[{"name":"","type":"uint256","internalType":"uint256"}],"stateMutability":"view"},{"type":"function","name":"maxRedeem","inputs":[{"name":"owner","type":"address","internalType":"address"}],"outputs":[{"name":"","type":"uint256","internalType":"uint256"}],"stateMutability":"view"},{"type":"function","name":"maxWithdraw","inputs":[{"name":"owner","type":"address","internalType":"address"}],"outputs":[{"name":"","type":"uint256","internalType":"uint256"}],"stateMutability":"view"},{"type":"function","name":"mint","inputs":[{"name":"shares","type":"uint256","internalType":"uint256"},{"name":"receiver","type":"address","internalType":"address"}],"outputs":[{"name":"","type":"uint256","internalType":"uint256"}],"stateMutability":"nonpayable"},{"type":"function","name":"name","inputs":[],"outputs":[{"name":"","type":"string","internalType":"string"}],"stateMutability":"view"},{"type":"function","name":"offChainAssets","inputs":[],"outputs":[{"name":"","type":"uint256","internalType":"uint256"}],"stateMutability":"view"},{"type":"function","name":"pause","inputs":[],"outputs":[],"stateMutability":"nonpayable"},{"type":"function","name":"paused","inputs":[],"outputs":[{"name":"","type":"bool","internalType":"bool"}],"stateMutability":"view"},{"type":"function","name":"previewDeposit","inputs":[{"name":"assets","type":"uint256","internalType":"uint256"}],"outputs":[{"name":"","type":"uint256","internalType":"uint256"}],"stateMutability":"view"},{"type":"function","name":"previewMint","inputs":[{"name":"shares","type":"uint256","internalType":"uint256"}],"outputs":[{"name":"","type":"uint256","internalType":"uint256"}],"stateMutability":"view"},{"type":"function","name":"previewRedeem","inputs":[{"name":"shares","type":"uint256","internalType":"uint256"}],"outputs":[{"name":"","type":"uint256","internalType":"uint256"}],"stateMutability":"view"},{"type":"function","name":"previewWithdraw","inputs":[{"name":"assets","type":"uint256","internalType":"uint256"}],"outputs":[{"name":"","type":"uint256","internalType":"uint256"}],"stateMutability":"view"},{"type":"function","name":"redeem","inputs":[{"name":"shares","type":"uint256","internalType":"uint256"},{"name":"receiver","type":"address","internalType":"address"},{"name":"owner","type":"address","internalType":"address"}],"outputs":[{"name":"","type":"uint256","internalType":"uint256"}],"stateMutability":"nonpayable"},{"type":"function","name":"renounceRole","inputs":[{"name":"role","type":"bytes32","internalType":"bytes32"},{"name":"callerConfirmation","type":"address","internalType":"address"}],"outputs":[],"stateMutability":"nonpayable"},{"type":"function","name":"returnFromPrime","inputs":[{"name":"amount","type":"uint256","internalType":"uint256"}],"outputs":[],"stateMutability":"nonpayable"},{"type":"function","name":"revokeRole","inputs":[{"name":"role","type":"bytes32","internalType":"bytes32"},{"name":"account","type":"address","internalType":"address"}],"outputs":[],"stateMutability":"nonpayable"},{"type":"function","name":"setFounder","inputs":[{"name":"_founder","type":"address","internalType":"address"}],"outputs":[],"stateMutability":"nonpayable"},{"type":"function","name":"setFounderFee","inputs":[{"name":"bps","type":"uint256","internalType":"uint256"}],"outputs":[],"stateMutability":"nonpayable"},{"type":"function","name":"setInsuranceFund","inputs":[{"name":"_insuranceFund","type":"address","internalType":"address"}],"outputs":[],"stateMutability":"nonpayable"},{"type":"function","name":"setInsuranceFundBps","inputs":[{"name":"bps","type":"uint256","internalType":"uint256"}],"outputs":[],"stateMutability":"nonpayable"},{"type":"function","name":"setPerformanceFee","inputs":[{"name":"bps","type":"uint256","internalType":"uint256"}],"outputs":[],"stateMutability":"nonpayable"},{"type":"function","name":"setTreasury","inputs":[{"name":"_treasury","type":"address","internalType":"address"}],"outputs":[],"stateMutability":"nonpayable"},{"type":"function","name":"setWhitelistEnabled","inputs":[{"name":"enabled","type":"bool","internalType":"bool"}],"outputs":[],"stateMutability":"nonpayable"},{"type":"function","name":"setWhitelisted","inputs":[{"name":"account","type":"address","internalType":"address"},{"name":"status","type":"bool","internalType":"bool"}],"outputs":[],"stateMutability":"nonpayable"},{"type":"function","name":"supportsInterface","inputs":[{"name":"interfaceId","type":"bytes4","internalType":"bytes4"}],"outputs":[{"name":"","type":"bool","internalType":"bool"}],"stateMutability":"view"},{"type":"function","name":"sweepToExchange","inputs":[{"name":"amount","type":"uint256","internalType":"uint256"}],"outputs":[],"stateMutability":"nonpayable"},{"type":"function","name":"symbol","inputs":[],"outputs":[{"name":"","type":"string","internalType":"string"}],"stateMutability":"view"},{"type":"function","name":"totalAssets","inputs":[],"outputs":[{"name":"","type":"uint256","internalType":"uint256"}],"stateMutability":"view"},{"type":"function","name":"totalSupply","inputs":[],"outputs":[{"name":"","type":"uint256","internalType":"uint256"}],"stateMutability":"view"},{"type":"function","name":"transfer","inputs":[{"name":"to","type":"address","internalType":"address"},{"name":"value","type":"uint256","internalType":"uint256"}],"outputs":[{"name":"","type":"bool","internalType":"bool"}],"stateMutability":"nonpayable"},{"type":"function","name":"transferFrom","inputs":[{"name":"from","type":"address","internalType":"address"},{"name":"to","type":"address","internalType":"address"},{"name":"value","type":"uint256","internalType":"uint256"}],"outputs":[{"name":"","type":"bool","internalType":"bool"}],"stateMutability":"nonpayable"},{"type":"function","name":"transferToPrime","inputs":[{"name":"prime","type":"address","internalType":"address"},{"name":"amount","type":"uint256","internalType":"uint256"}],"outputs":[],"stateMutability":"nonpayable"},{"type":"function","name":"treasury","inputs":[],"outputs":[{"name":"","type":"address","internalType":"address"}],"stateMutability":"view"},{"type":"function","name":"unpause","inputs":[],"outputs":[],"stateMutability":"nonpayable"},{"type":"function","name":"updateHedgingReserve","inputs":[{"name":"amount","type":"uint256","internalType":"uint256"}],"outputs":[],"stateMutability":"nonpayable"},{"type":"function","name":"updateOffChainAssets","inputs":[{"name":"amount","type":"uint256","internalType":"uint256"}],"outputs":[],"stateMutability":"nonpayable"},{"type":"function","name":"whitelistEnabled","inputs":[],"outputs":[{"name":"","type":"bool","internalType":"bool"}],"stateMutability":"view"},{"type":"function","name":"whitelisted","inputs":[{"name":"","type":"address","internalType":"address"}],"outputs":[{"name":"","type":"bool","internalType":"bool"}],"stateMutability":"view"},{"type":"function","name":"withdraw","inputs":[{"name":"assets","type":"uint256","internalType":"uint256"},{"name":"receiver","type":"address","internalType":"address"},{"name":"owner","type":"address","internalType":"address"}],"outputs":[{"name":"","type":"uint256","internalType":"uint256"}],"stateMutability":"nonpayable"},{"type":"event","name":"Approval","inputs":[{"name":"owner","type":"address","indexed":true,"internalType":"address"},{"name":"spender","type":"address","indexed":true,"internalType":"address"},{"name":"value","type":"uint256","indexed":false,"internalType":"uint256"}],"anonymous":false},{"type":"event","name":"Deposit","inputs":[{"name":"sender","type":"address","indexed":true,"internalType":"address"},{"name":"owner","type":"address","indexed":true,"internalType":"address"},{"name":"assets","type":"uint256","indexed":false,"internalType":"uint256"},{"name":"shares","type":"uint256","indexed":false,"internalType":"uint256"}],"anonymous":false},{"type":"event","name":"FundsSwept","inputs":[{"name":"amount","type":"uint256","indexed":false,"internalType":"uint256"},{"name":"destination","type":"address","indexed":false,"internalType":"address"}],"anonymous":false},{"type":"event","name":"OffChainAssetsUpdated","inputs":[{"name":"oldAmount","type":"uint256","indexed":false,"internalType":"uint256"},{"name":"newAmount","type":"uint256","indexed":false,"internalType":"uint256"},{"name":"timestamp","type":"uint256","indexed":false,"internalType":"uint256"}],"anonymous":false},{"type":"event","name":"Paused","inputs":[{"name":"account","type":"address","indexed":false,"internalType":"address"}],"anonymous":false},{"type":"event","name":"RoleAdminChanged","inputs":[{"name":"role","type":"bytes32","indexed":true,"internalType":"bytes32"},{"name":"previousAdminRole","type":"bytes32","indexed":true,"internalType":"bytes32"},{"name":"newAdminRole","type":"bytes32","indexed":true,"internalType":"bytes32"}],"anonymous":false},{"type":"event","name":"RoleGranted","inputs":[{"name":"role","type":"bytes32","indexed":true,"internalType":"bytes32"},{"name":"account","type":"address","indexed":true,"internalType":"address"},{"name":"sender","type":"address","indexed":true,"internalType":"address"}],"anonymous":false},{"type":"event","name":"RoleRevoked","inputs":[{"name":"role","type":"bytes32","indexed":true,"internalType":"bytes32"},{"name":"account","type":"address","indexed":true,"internalType":"address"},{"name":"sender","type":"address","indexed":true,"internalType":"address"}],"anonymous":false},{"type":"event","name":"Transfer","inputs":[{"name":"from","type":"address","indexed":true,"internalType":"address"},{"name":"to","type":"address","indexed":true,"internalType":"address"},{"name":"value","type":"uint256","indexed":false,"internalType":"uint256"}],"anonymous":false},{"type":"event","name":"Unpaused","inputs":[{"name":"account","type":"address","indexed":false,"internalType":"address"}],"anonymous":false},{"type":"event","name":"Withdraw","inputs":[{"name":"sender","type":"address","indexed":true,"internalType":"address"},{"name":"receiver","type":"address","indexed":true,"internalType":"address"},{"name":"owner","type":"address","indexed":true,"internalType":"address"},{"name":"assets","type":"uint256","indexed":false,"internalType":"uint256"},{"name":"shares","type":"uint256","indexed":false,"internalType":"uint256"}],"anonymous":false},{"type":"error","name":"AccessControlBadConfirmation","inputs":[]},{"type":"error","name":"AccessControlUnauthorizedAccount","inputs":[{"name":"account","type":"address","internalType":"address"},{"name":"neededRole","type":"bytes32","internalType":"bytes32"}]},{"type":"error","name":"ERC20InsufficientAllowance","inputs":[{"name":"spender","type":"address","internalType":"address"},{"name":"allowance","type":"uint256","internalType":"uint256"},{"name":"needed","type":"uint256","internalType":"uint256"}]},{"type":"error","name":"ERC20InsufficientBalance","inputs":[{"name":"sender","type":"address","internalType":"address"},{"name":"balance","type":"uint256","internalType":"uint256"},{"name":"needed","type":"uint256","internalType":"uint256"}]},{"type":"error","name":"ERC20InvalidApprover","inputs":[{"name":"approver","type":"address","internalType":"address"}]},{"type":"error","name":"ERC20InvalidReceiver","inputs":[{"name":"receiver","type":"address","internalType":"address"}]},{"type":"error","name":"ERC20InvalidSender","inputs":[{"name":"sender","type":"address","internalType":"address"}]},{"type":"error","name":"ERC20InvalidSpender","inputs":[{"name":"spender","type":"address","internalType":"address"}]},{"type":"error","name":"ERC4626ExceededMaxDeposit","inputs":[{"name":"receiver","type":"address","internalType":"address"},{"name":"assets","type":"uint256","internalType":"uint256"},{"name":"max","type":"uint256","internalType":"uint256"}]},{"type":"error","name":"ERC4626ExceededMaxMint","inputs":[{"name":"receiver","type":"address","internalType":"address"},{"name":"shares","type":"uint256","internalType":"uint256"},{"name":"max","type":"uint256","internalType":"uint256"}]},{"type":"error","name":"ERC4626ExceededMaxRedeem","inputs":[{"name":"owner","type":"address","internalType":"address"},{"name":"shares","type":"uint256","internalType":"uint256"},{"name":"max","type":"uint256","internalType":"uint256"}]},{"type":"error","name":"ERC4626ExceededMaxWithdraw","inputs":[{"name":"owner","type":"address","internalType":"address"},{"name":"assets","type":"uint256","internalType":"uint256"},{"name":"max","type":"uint256","internalType":"uint256"}]},{"type":"error","name":"EnforcedPause","inputs":[]},{"type":"error","name":"ExpectedPause","inputs":[]},{"type":"error","name":"ReentrancyGuardReentrantCall","inputs":[]},{"type":"error","name":"SafeERC20FailedOperation","inputs":[{"name":"token","type":"address","internalType":"address"}]}],"bytecode":{"object":"0x60e06040526103e86009556103e8600d553480156200001c575f80fd5b5060405162003405380380620034058339810160408190526200003f916200061e565b858585600362000050838262000762565b5060046200005f828262000762565b5050505f806200007583620000df60201b60201c565b91509150816200008757601262000089565b805b60ff1660a05250506001600160a01b031660805260017f9b779b17422d0df92223018b32b4d1fa46e071723d6817e2486d003becc55f0055620000d38686868686865f8062000178565b5050505050506200084e565b5f8080620000ec60405190565b6040805160048152602481019091526020810180516001600160e01b0390811663313ce56760e01b179091529192505f9182916200012e91889190620002bf16565b5090925090506200013e83604052565b8180156200014d575060203d10155b80156200015b575060ff8111155b62000168575f806200016c565b6001815b94509450505050915091565b6001600160a01b038516620001d45760405162461bcd60e51b815260206004820152601c60248201527f41646d696e2063616e6e6f74206265207a65726f20616464726573730000000060448201526064015b60405180910390fd5b6012620001e2888262000762565b506013620001f1878262000762565b50620001fe5f86620002e0565b50620002195f80516020620033e583398151915285620002e0565b50620002345f80516020620033c583398151915286620002e0565b50620002415f33620002e0565b506200025c5f80516020620033e58339815191525f62000390565b620002765f80516020620033c58339815191525f62000390565b600880546001600160a01b0319166001600160a01b038416179055600a819055620002a060025490565b5f03620002b557620002b5856103e8620003da565b5050505050505050565b5f805f60405f855160208701885afa92505f51915060205190509250925092565b5f8281526005602090815260408083206001600160a01b038516845290915281205460ff1662000387575f8381526005602090815260408083206001600160a01b03861684529091529020805460ff191660011790556200033e3390565b6001600160a01b0316826001600160a01b0316847f2f8788117e7eff1d82e926ec794901d17c78024a50270940304540a733656f0d60405160405180910390a45060016200038a565b505f5b92915050565b5f82815260056020526040808220600101805490849055905190918391839186917fbd79b86ffe0ab8e8776151514217cd7cacd52c909f66475c3af44e129f0b00ff9190a4505050565b6001600160a01b038216620004055760405163ec442f0560e01b81525f6004820152602401620001cb565b620004125f838362000416565b5050565b6001600160a01b03831662000444578060025f8282546200043891906200082e565b90915550620004b69050565b6001600160a01b0383165f9081526020819052604090205481811015620004985760405163391434e360e21b81526001600160a01b03851660048201526024810182905260448101839052606401620001cb565b6001600160a01b0384165f9081526020819052604090209082900390555b6001600160a01b038216620004d457600280548290039055620004f2565b6001600160a01b0382165f9081526020819052604090208054820190555b816001600160a01b0316836001600160a01b03167fddf252ad1be2c89b69c2b068fc378daa952ba7f163c4a11628f55a4df523b3ef836040516200053891815260200190565b60405180910390a3505050565b6001600160a01b03811681146200055a575f80fd5b50565b634e487b7160e01b5f52604160045260245ffd5b5f82601f83011262000581575f80fd5b81516001600160401b03808211156200059e576200059e6200055d565b604051601f8301601f19908116603f01168101908282118183101715620005c957620005c96200055d565b8160405283815260209250866020858801011115620005e6575f80fd5b5f91505b83821015620006095785820183015181830184015290820190620005ea565b5f602085830101528094505050505092915050565b5f805f805f8060c0878903121562000634575f80fd5b8651620006418162000545565b60208801519096506001600160401b03808211156200065e575f80fd5b6200066c8a838b0162000571565b9650604089015191508082111562000682575f80fd5b506200069189828a0162000571565b9450506060870151620006a48162000545565b6080880151909350620006b78162000545565b60a0880151909250620006ca8162000545565b809150509295509295509295565b600181811c90821680620006ed57607f821691505b6020821081036200070c57634e487b7160e01b5f52602260045260245ffd5b50919050565b601f8211156200075d57805f5260205f20601f840160051c81016020851015620007395750805b601f840160051c820191505b818110156200075a575f815560010162000745565b50505b505050565b81516001600160401b038111156200077e576200077e6200055d565b62000796816200078f8454620006d8565b8462000712565b602080601f831160018114620007cc575f8415620007b45750858301515b5f19600386901b1c1916600185901b17855562000826565b5f85815260208120601f198616915b82811015620007fc57888601518255948401946001909101908401620007db565b50858210156200081a57878501515f19600388901b60f8161c191681555b505060018460011b0185555b505050505050565b808201808211156200038a57634e487b7160e01b5f52601160045260245ffd5b60805160a05160c051612af1620008d45f395f81816104fb0152818161059e01528181610b4f0152610baf01525f610ce901525f818161057501528181610a0901528181610c2301528181610e2d01528181611180015281816111e6015281816113850152818161152f015281816117280152818161215f01526122110152612af15ff3fe608060405234801561000f575f80fd5b50600436106103d5575f3560e01c806370a0823111610200578063b9d7bd331161011f578063ce96cb77116100b4578063dd62ed3e11610084578063dd62ed3e1461085e578063de50e43714610896578063e63ab1e9146108a9578063ef8b30f7146107de578063f0f44260146108bd575f80fd5b8063ce96cb7714610803578063d547741f14610816578063d905777e14610829578063d936547e1461083c575f80fd5b8063c63d75b6116100ef578063c63d75b6146105d1578063c6e6f592146107de578063cb0ee680146107f1578063cbde2cdc146107fa575f80fd5b8063b9d7bd331461079c578063ba087652146107af578063ba9312a8146107c2578063c3c05293146107cb575f80fd5b806395d89b4111610195578063a9059cbb11610165578063a9059cbb14610750578063b3d7f6b914610763578063b460af9414610776578063b790230314610789575f80fd5b806395d89b411461071a57806396d0d17414610722578063a217fddf14610735578063a378a3241461073c575f80fd5b80638b788622116101d05780638b788622146106ce57806391d14854146106e15780639281aa0b146106f457806394bf804d14610707575f80fd5b806370a0823114610682578063792f9683146106aa5780637a341bc7146106b35780638456cb59146106c6575f80fd5b8063313ce567116102f75780634d853ee51161028c57806361d027b31161025c57806361d027b3146106235780636635466e146106365780636e553f65146106495780636fef958a1461065c57806370897b231461066f575f80fd5b80634d853ee5146105e55780634ee07649146105f857806351fb012d1461060b5780635c975abb14610618575f80fd5b80633dbc645d116102c75780633dbc645d146105c05780633f4ba83a146105c9578063402d267d146105d15780634cdad50614610441575f80fd5b8063313ce5671461054657806336568abe1461056057806338d52e0f146105735780633d9524cb14610599575f80fd5b806317881aac1161036d5780632736d5711161033d5780632736d571146104d357806328833a9f146104e65780632eaa41d1146104f95780632f2ff15d14610533575f80fd5b806317881aac1461048d57806318160ddd1461049657806323b872dd1461049e578063248a9ca3146104b1575f80fd5b806307a2d13a116103a857806307a2d13a1461044157806308fe7d7f14610454578063095ea7b3146104675780630a28a4771461047a575f80fd5b806301e1d114146103d957806301ffc9a7146103f4578063052d9e7e1461041757806306fdde031461042c575b5f80fd5b6103e16108d0565b6040519081526020015b60405180910390f35b6104076104023660046123db565b6108f8565b60405190151581526020016103eb565b61042a61042536600461240f565b61092e565b005b61043461094c565b6040516103eb919061244c565b6103e161044f36600461247e565b6109f9565b61042a61046236600461247e565b610a04565b6104076104753660046124b0565b610a33565b6103e161048836600461247e565b610a4a565b6103e1600e5481565b6002546103e1565b6104076104ac3660046124d8565b610a56565b6103e16104bf36600461247e565b5f9081526005602052604090206001015490565b61042a6104e136600461247e565b610a7b565b61042a6104f436600461247e565b610ade565b7f00000000000000000000000000000000000000000000000000000000000000005b6040516001600160a01b0390911681526020016103eb565b61042a610541366004612511565b610cb8565b61054e610ce2565b60405160ff90911681526020016103eb565b61042a61056e366004612511565b610d0d565b7f000000000000000000000000000000000000000000000000000000000000000061051b565b61051b7f000000000000000000000000000000000000000000000000000000000000000081565b6103e1600b5481565b61042a610d45565b6103e16105df36600461253b565b505f1990565b60085461051b906001600160a01b031681565b61042a61060636600461247e565b610d57565b600f546104079060ff1681565b60065460ff16610407565b60115461051b906001600160a01b031681565b61042a6106443660046125f1565b610d74565b6103e1610657366004612511565b610d9d565b61042a61066a3660046124b0565b610e28565b61042a61067d36600461247e565b610e53565b6103e161069036600461253b565b6001600160a01b03165f9081526020819052604090205490565b6103e1600a5481565b61042a6106c136600461253b565b610ea4565b61042a610f27565b61042a6106dc36600461247e565b610f46565b6104076106ef366004612511565b610fae565b61042a61070236600461269a565b610fd8565b6103e1610715366004612511565b61100d565b610434611098565b61042a61073036600461247e565b6110c4565b6103e15f81565b6103e15f80516020612a9c83398151915281565b61040761075e3660046124b0565b611360565b6103e161077136600461247e565b61136d565b6103e16107843660046126cf565b611379565b600c5461051b906001600160a01b031681565b61042a6107aa36600461247e565b61146d565b6103e16107bd3660046126cf565b611517565b6103e160075481565b61042a6107d936600461253b565b611618565b6103e16107ec36600461247e565b611645565b6103e1600d5481565b6103e160095481565b6103e161081136600461253b565b611650565b61042a610824366004612511565b61165d565b6103e161083736600461253b565b611681565b61040761084a36600461253b565b60106020525f908152604090205460ff1681565b6103e161086c366004612708565b6001600160a01b039182165f90815260016020908152604080832093909416825291909152205490565b61042a6108a436600461247e565b61169e565b6103e15f80516020612a7c83398151915281565b61042a6108cb36600461253b565b6116f8565b5f600e546007546108df611725565b6108e99190612744565b6108f39190612744565b905090565b5f6001600160e01b03198216637965db0b60e01b148061092857506301ffc9a760e01b6001600160e01b03198316145b92915050565b5f610938816117af565b50600f805460ff1916911515919091179055565b60605f6012805461095c90612757565b90501161096b576108f36117b9565b6012805461097890612757565b80601f01602080910402602001604051908101604052809291908181526020018280546109a490612757565b80156109ef5780601f106109c6576101008083540402835291602001916109ef565b820191905f5260205f20905b8154815290600101906020018083116109d257829003601f168201915b5050505050905090565b5f610928825f6117c8565b610a307f0000000000000000000000000000000000000000000000000000000000000000333084611800565b50565b5f33610a40818585611836565b5060019392505050565b5f610928826001611843565b5f33610a63858285611872565b610a6e8585856118d5565b60019150505b9392505050565b5f80516020612a9c833981519152610a92816117af565b60078054908390556040805182815260208101859052428183015290517ff763735ff81e09c9cdefbd8533319faa4bb0c253bf82065323e7fc36f2ab15409181900360600190a1505050565b5f610ae8816117af565b610af0611932565b610af8611960565b5f8211610b4c5760405162461bcd60e51b815260206004820181905260248201527f416d6f756e74206d7573742062652067726561746572207468616e207a65726f60448201526064015b60405180910390fd5b5f7f00000000000000000000000000000000000000000000000000000000000000006001600160a01b0316610bad576011546001600160a01b0316610b9c576008546001600160a01b0316610bcf565b6011546001600160a01b0316610bcf565b7f00000000000000000000000000000000000000000000000000000000000000005b90506001600160a01b038116610c1e5760405162461bcd60e51b815260206004820152601460248201527327379039bbb2b2b8103232b9ba34b730ba34b7b760611b6044820152606401610b43565b610c497f00000000000000000000000000000000000000000000000000000000000000008285611986565b604080518481526001600160a01b03831660208201527f8bd6cee8939c04b07fdaff7566e9c8cd94790d512c84969fd08f296557d56e08910160405180910390a150610cb460017f9b779b17422d0df92223018b32b4d1fa46e071723d6817e2486d003becc55f0055565b5050565b5f82815260056020526040902060010154610cd2816117af565b610cdc83836119bb565b50505050565b5f6108f3817f000000000000000000000000000000000000000000000000000000000000000061278f565b6001600160a01b0381163314610d365760405163334bd91960e11b815260040160405180910390fd5b610d408282611a4c565b505050565b5f610d4f816117af565b610a30611ab7565b5f80516020612a9c833981519152610d6e816117af565b50600e55565b6008546001600160a01b0316610d9457610d9487878787875f8888611b09565b50505050505050565b5f610da6611960565b600f5460ff1615610e1e57335f9081526010602052604090205460ff1680610de05750610de05f80516020612a9c83398151915233610fae565b610e1e5760405162461bcd60e51b815260206004820152600f60248201526e139bdd081dda1a5d195b1a5cdd1959608a1b6044820152606401610b43565b610a748383611c2c565b610cb47f00000000000000000000000000000000000000000000000000000000000000008383611986565b5f610e5d816117af565b6107d0821115610e9e5760405162461bcd60e51b815260206004820152600c60248201526b08ccaca40e8dede40d0d2ced60a31b6044820152606401610b43565b50600955565b5f610eae816117af565b6001600160a01b038216610f045760405162461bcd60e51b815260206004820152601e60248201527f466f756e6465722063616e6e6f74206265207a65726f206164647265737300006044820152606401610b43565b50600880546001600160a01b0319166001600160a01b0392909216919091179055565b5f80516020612a7c833981519152610f3e816117af565b610a30611c47565b5f80516020612a9c833981519152610f5d816117af565b600c546001600160a01b0316610cb45760405162461bcd60e51b8152602060048201526016602482015275125b9cdd5c985b98d948199d5b99081b9bdd081cd95d60521b6044820152606401610b43565b5f9182526005602090815260408084206001600160a01b0393909316845291905290205460ff1690565b5f610fe2816117af565b506001600160a01b03919091165f908152601060205260409020805460ff1916911515919091179055565b5f611016611960565b600f5460ff161561108e57335f9081526010602052604090205460ff168061105057506110505f80516020612a9c83398151915233610fae565b61108e5760405162461bcd60e51b815260206004820152600f60248201526e139bdd081dda1a5d195b1a5cdd1959608a1b6044820152606401610b43565b610a748383611c84565b60605f601380546110a890612757565b9050116110b7576108f3611c9f565b6013805461097890612757565b5f80516020612a9c8339815191526110db816117af565b6008546001600160a01b03166111255760405162461bcd60e51b815260206004820152600f60248201526e119bdd5b99195c881b9bdd081cd95d608a1b6044820152606401610b43565b5f6127106009548461113791906127a8565b61114191906127d3565b905080156111a8576011545f906001600160a01b031661116c576008546001600160a01b0316611179565b6011546001600160a01b03165b90506111a67f00000000000000000000000000000000000000000000000000000000000000008284611986565b505b5f612710600d54856111ba91906127a8565b6111c491906127d3565b90505f811180156111df5750600c546001600160a01b031615155b15610cdc577f0000000000000000000000000000000000000000000000000000000000000000600c5460405163095ea7b360e01b81526001600160a01b0391821660048201526024810184905291169063095ea7b3906044016020604051808303815f875af1158015611254573d5f803e3d5ffd5b505050506040513d601f19601f8201168201806040525081019061127891906127e6565b50600c54604051602481018390525f916001600160a01b03169060440160408051601f198184030181529181526020820180516001600160e01b031663b6b55f2560e01b179052516112ca9190612801565b5f604051808303815f865af19150503d805f8114611303576040519150601f19603f3d011682016040523d82523d5f602084013e611308565b606091505b50509050806113595760405162461bcd60e51b815260206004820152601860248201527f496e737572616e6365206465706f736974206661696c656400000000000000006044820152606401610b43565b5050505050565b5f33610a408185856118d5565b5f6109288260016117c8565b5f611382611960565b837f00000000000000000000000000000000000000000000000000000000000000006040516370a0823160e01b81523060048201526001600160a01b0391909116906370a0823190602401602060405180830381865afa1580156113e8573d5f803e3d5ffd5b505050506040513d601f19601f8201168201806040525081019061140c919061281c565b101561145a5760405162461bcd60e51b815260206004820152601a60248201527f496e73756666696369656e74206c6971756964206275666665720000000000006044820152606401610b43565b611465848484611cae565b949350505050565b6114775f33610fae565b8061149457506114945f80516020612a9c83398151915233610fae565b6114d15760405162461bcd60e51b815260206004820152600e60248201526d139bdd08185d5d1a1bdc9a5e995960921b6044820152606401610b43565b6107d08111156115125760405162461bcd60e51b815260206004820152600c60248201526b08ccaca40e8dede40d0d2ced60a31b6044820152606401610b43565b600a55565b5f611520611960565b5f61152a856109f9565b9050807f00000000000000000000000000000000000000000000000000000000000000006040516370a0823160e01b81523060048201526001600160a01b0391909116906370a0823190602401602060405180830381865afa158015611592573d5f803e3d5ffd5b505050506040513d601f19601f820116820180604052508101906115b6919061281c565b10156116045760405162461bcd60e51b815260206004820152601a60248201527f496e73756666696369656e74206c6971756964206275666665720000000000006044820152606401610b43565b61160f858585611cfb565b95945050505050565b5f611622816117af565b50600c80546001600160a01b0319166001600160a01b0392909216919091179055565b5f610928825f611843565b5f61092861044f83611681565b5f82815260056020526040902060010154611677816117af565b610cdc8383611a4c565b6001600160a01b0381165f90815260208190526040812054610928565b5f6116a8816117af565b610bb88211156116f25760405162461bcd60e51b8152602060048201526015602482015274086dedce8e4d2c4eae8d2dedc40e8dede40d0d2ced605b1b6044820152606401610b43565b50600d55565b5f611702816117af565b50601180546001600160a01b0319166001600160a01b0392909216919091179055565b5f7f00000000000000000000000000000000000000000000000000000000000000006040516370a0823160e01b81523060048201526001600160a01b0391909116906370a0823190602401602060405180830381865afa15801561178b573d5f803e3d5ffd5b505050506040513d601f19601f820116820180604052508101906108f3919061281c565b610a308133611d48565b60606003805461097890612757565b5f610a746117d46108d0565b6117df906001612744565b6117ea5f600a612913565b6002546117f79190612744565b85919085611d81565b61180e848484846001611dc3565b610cdc57604051635274afe760e01b81526001600160a01b0385166004820152602401610b43565b610d408383836001611e30565b5f610a7461185282600a612913565b60025461185f9190612744565b6118676108d0565b6117f7906001612744565b6001600160a01b038381165f908152600160209081526040808320938616835292905220545f19811015610cdc57818110156118c757828183604051637dc7a0d960e11b8152600401610b4393929190612921565b610cdc84848484035f611e30565b6001600160a01b0383166118fe57604051634b637e8f60e11b81525f6004820152602401610b43565b6001600160a01b0382166119275760405163ec442f0560e01b81525f6004820152602401610b43565b610d40838383611f02565b61193a612015565b60027f9b779b17422d0df92223018b32b4d1fa46e071723d6817e2486d003becc55f0055565b60065460ff16156119845760405163d93c066560e01b815260040160405180910390fd5b565b6119938383836001612057565b610d4057604051635274afe760e01b81526001600160a01b0384166004820152602401610b43565b5f6119c68383610fae565b611a45575f8381526005602090815260408083206001600160a01b03861684529091529020805460ff191660011790556119fd3390565b6001600160a01b0316826001600160a01b0316847f2f8788117e7eff1d82e926ec794901d17c78024a50270940304540a733656f0d60405160405180910390a4506001610928565b505f610928565b5f611a578383610fae565b15611a45575f8381526005602090815260408083206001600160a01b0386168085529252808320805460ff1916905551339286917ff6391f5c32d9c69d2a47ea670b442974b53935d1edc7fd64eb21e047a839171b9190a4506001610928565b611abf6120b9565b6006805460ff191690557f5db9ee0a495bf2e6ff9c91a7834c1ba4fdd244a5e8aa4e537bd38aeae4b073aa335b6040516001600160a01b03909116815260200160405180910390a1565b6001600160a01b038516611b5f5760405162461bcd60e51b815260206004820152601c60248201527f41646d696e2063616e6e6f74206265207a65726f2061646472657373000000006044820152606401610b43565b6012611b6b8882612986565b506013611b788782612986565b50611b835f866119bb565b50611b9b5f80516020612a9c833981519152856119bb565b50611bb35f80516020612a7c833981519152866119bb565b50611bbe5f336119bb565b50611bd65f80516020612a9c8339815191525f6120dc565b611bed5f80516020612a7c8339815191525f6120dc565b600880546001600160a01b0319166001600160a01b038416179055600a8190556002545f03611c2257611c22856103e8612126565b5050505050505050565b5f5f195f611c3985611645565b90506114653385878461215a565b611c4f611960565b6006805460ff191660011790557f62e78cea01bee320cd4e420270b5ea74000d11b0c9f74754ebdbfc544b05a258611aec3390565b5f5f195f611c918561136d565b90506114653385838861215a565b60606004805461097890612757565b5f80611cb983611650565b905080851115611ce257828582604051633fa733bb60e21b8152600401610b4393929190612921565b5f611cec86610a4a565b905061160f33868689856121de565b5f80611d0683611681565b905080851115611d2f57828582604051632e52afbb60e21b8152600401610b4393929190612921565b5f611d39866109f9565b905061160f338686848a6121de565b611d528282610fae565b610cb45760405163e2517d3f60e01b81526001600160a01b038216600482015260248101839052604401610b43565b5f611dae611d8e8361229e565b8015611da957505f8480611da457611da46127bf565b868809115b151590565b611db98686866122ca565b61160f9190612744565b6040516323b872dd60e01b5f8181526001600160a01b038781166004528616602452604485905291602083606481808c5af1925060015f51148316611e1f578383151615611e13573d5f823e3d81fd5b5f883b113d1516831692505b604052505f60605295945050505050565b6001600160a01b038416611e595760405163e602df0560e01b81525f6004820152602401610b43565b6001600160a01b038316611e8257604051634a1406b160e11b81525f6004820152602401610b43565b6001600160a01b038085165f9081526001602090815260408083209387168352929052208290558015610cdc57826001600160a01b0316846001600160a01b03167f8c5be1e5ebec7d5bd14f71427d1e84f3dd0314c0f7b2291e5b200ac8c7c3b92584604051611ef491815260200190565b60405180910390a350505050565b6001600160a01b038316611f2c578060025f828254611f219190612744565b90915550611f899050565b6001600160a01b0383165f9081526020819052604090205481811015611f6b5783818360405163391434e360e21b8152600401610b4393929190612921565b6001600160a01b0384165f9081526020819052604090209082900390555b6001600160a01b038216611fa557600280548290039055611fc3565b6001600160a01b0382165f9081526020819052604090208054820190555b816001600160a01b0316836001600160a01b03167fddf252ad1be2c89b69c2b068fc378daa952ba7f163c4a11628f55a4df523b3ef8360405161200891815260200190565b60405180910390a3505050565b7f9b779b17422d0df92223018b32b4d1fa46e071723d6817e2486d003becc55f005460020361198457604051633ee5aeb560e01b815260040160405180910390fd5b60405163a9059cbb60e01b5f8181526001600160a01b038616600452602485905291602083604481808b5af1925060015f511483166120ad5783831516156120a1573d5f823e3d81fd5b5f873b113d1516831692505b60405250949350505050565b60065460ff1661198457604051638dfc202b60e01b815260040160405180910390fd5b5f82815260056020526040808220600101805490849055905190918391839186917fbd79b86ffe0ab8e8776151514217cd7cacd52c909f66475c3af44e129f0b00ff9190a4505050565b6001600160a01b03821661214f5760405163ec442f0560e01b81525f6004820152602401610b43565b610cb45f8383611f02565b6121867f0000000000000000000000000000000000000000000000000000000000000000853085611800565b6121908382612126565b826001600160a01b0316846001600160a01b03167fdcbc1c05240f31ff3ad067ef1ee35ce4997762752e3a095284754544f4c709d78484604051611ef4929190918252602082015260400190565b826001600160a01b0316856001600160a01b03161461220257612202838683611872565b61220c838261237a565b6122377f00000000000000000000000000000000000000000000000000000000000000008584611986565b826001600160a01b0316846001600160a01b0316866001600160a01b03167ffbde797d201c681b91056529119e0b02407c7bb96a4a2c75c01fc9667232c8db858560405161228f929190918252602082015260400190565b60405180910390a45050505050565b5f60028260038111156122b3576122b3612a46565b6122bd9190612a5a565b60ff166001149050919050565b5f805f6122d786866123ae565b91509150815f036122fb578381816122f1576122f16127bf565b0492505050610a74565b8184116123125761231260038515026011186123ca565b5f848688095f868103871696879004966002600389028118808a02820302808a02820302808a02820302808a02820302808a02820302808a02909103029181900381900460010185841190960395909502919093039390930492909217029150509392505050565b6001600160a01b0382166123a357604051634b637e8f60e11b81525f6004820152602401610b43565b610cb4825f83611f02565b5f805f1983850993909202808410938190039390930393915050565b634e487b715f52806020526024601cfd5b5f602082840312156123eb575f80fd5b81356001600160e01b031981168114610a74575f80fd5b8015158114610a30575f80fd5b5f6020828403121561241f575f80fd5b8135610a7481612402565b5f5b8381101561244457818101518382015260200161242c565b50505f910152565b602081525f825180602084015261246a81604085016020870161242a565b601f01601f19169190910160400192915050565b5f6020828403121561248e575f80fd5b5035919050565b80356001600160a01b03811681146124ab575f80fd5b919050565b5f80604083850312156124c1575f80fd5b6124ca83612495565b946020939093013593505050565b5f805f606084860312156124ea575f80fd5b6124f384612495565b925061250160208501612495565b9150604084013590509250925092565b5f8060408385031215612522575f80fd5b8235915061253260208401612495565b90509250929050565b5f6020828403121561254b575f80fd5b610a7482612495565b634e487b7160e01b5f52604160045260245ffd5b5f82601f830112612577575f80fd5b813567ffffffffffffffff8082111561259257612592612554565b604051601f8301601f19908116603f011681019082821181831017156125ba576125ba612554565b816040528381528660208588010111156125d2575f80fd5b836020870160208301375f602085830101528094505050505092915050565b5f805f805f805f60e0888a031215612607575f80fd5b61261088612495565b9650602088013567ffffffffffffffff8082111561262c575f80fd5b6126388b838c01612568565b975060408a013591508082111561264d575f80fd5b5061265a8a828b01612568565b95505061266960608901612495565b935061267760808901612495565b925061268560a08901612495565b915060c0880135905092959891949750929550565b5f80604083850312156126ab575f80fd5b6126b483612495565b915060208301356126c481612402565b809150509250929050565b5f805f606084860312156126e1575f80fd5b833592506126f160208501612495565b91506126ff60408501612495565b90509250925092565b5f8060408385031215612719575f80fd5b61272283612495565b915061253260208401612495565b634e487b7160e01b5f52601160045260245ffd5b8082018082111561092857610928612730565b600181811c9082168061276b57607f821691505b60208210810361278957634e487b7160e01b5f52602260045260245ffd5b50919050565b60ff818116838216019081111561092857610928612730565b808202811582820484141761092857610928612730565b634e487b7160e01b5f52601260045260245ffd5b5f826127e1576127e16127bf565b500490565b5f602082840312156127f6575f80fd5b8151610a7481612402565b5f825161281281846020870161242a565b9190910192915050565b5f6020828403121561282c575f80fd5b5051919050565b600181815b8085111561286d57815f190482111561285357612853612730565b8085161561286057918102915b93841c9390800290612838565b509250929050565b5f8261288357506001610928565b8161288f57505f610928565b81600181146128a557600281146128af576128cb565b6001915050610928565b60ff8411156128c0576128c0612730565b50506001821b610928565b5060208310610133831016604e8410600b84101617156128ee575081810a610928565b6128f88383612833565b805f190482111561290b5761290b612730565b029392505050565b5f610a7460ff841683612875565b6001600160a01b039390931683526020830191909152604082015260600190565b601f821115610d4057805f5260205f20601f840160051c810160208510156129675750805b601f840160051c820191505b81811015611359575f8155600101612973565b815167ffffffffffffffff8111156129a0576129a0612554565b6129b4816129ae8454612757565b84612942565b602080601f8311600181146129e7575f84156129d05750858301515b5f19600386901b1c1916600185901b178555612a3e565b5f85815260208120601f198616915b82811015612a15578886015182559484019460019091019084016129f6565b5085821015612a3257878501515f19600388901b60f8161c191681555b505060018460011b0185555b505050505050565b634e487b7160e01b5f52602160045260245ffd5b5f60ff831680612a6c57612a6c6127bf565b8060ff8416069150509291505056fe65d7a28e3265b37a6474929f336521b332c1681b933f6cb9f3376673440d862a17a8e30262c1f919c33056d877a3c22b95c2f5e4dac44683c1c2323cd79fbdb0a26469706673582212207c09772184b858053941fea45b2ec7dc70a52cb101e14b4cae108d744191cd3e64736f6c6343000818003365d7a28e3265b37a6474929f336521b332c1681b933f6cb9f3376673440d862a17a8e30262c1f919c33056d877a3c22b95c2f5e4dac44683c1c2323cd79fbdb0","linkReferences":{}},"methodIdentifiers":{"DEFAULT_ADMIN_ROLE()":"a217fddf","PAUSER_ROLE()":"e63ab1e9","STRATEGIST_ROLE()":"a378a324","allowance(address,address)":"dd62ed3e","approve(address,uint256)":"095ea7b3","asset()":"38d52e0f","balanceOf(address)":"70a08231","captureFounderWealth(uint256)":"96d0d174","convertToAssets(uint256)":"07a2d13a","convertToShares(uint256)":"c6e6f592","decimals()":"313ce567","deposit(uint256,address)":"6e553f65","drawFromInsuranceFund(uint256)":"8b788622","exchangeDepositAddress()":"3d9524cb","founder()":"4d853ee5","founderFeeBps()":"792f9683","getExchangeDepositAddress()":"2eaa41d1","getRoleAdmin(bytes32)":"248a9ca3","grantRole(bytes32,address)":"2f2ff15d","grossPerformanceFeeBps()":"cbde2cdc","hasRole(bytes32,address)":"91d14854","hedgingReserve()":"17881aac","initialize(address,string,string,address,address,address,uint256)":"6635466e","insuranceFund()":"b7902303","insuranceFundBalance()":"3dbc645d","insuranceFundBps()":"cb0ee680","maxDeposit(address)":"402d267d","maxMint(address)":"c63d75b6","maxRedeem(address)":"d905777e","maxWithdraw(address)":"ce96cb77","mint(uint256,address)":"94bf804d","name()":"06fdde03","offChainAssets()":"ba9312a8","pause()":"8456cb59","paused()":"5c975abb","previewDeposit(uint256)":"ef8b30f7","previewMint(uint256)":"b3d7f6b9","previewRedeem(uint256)":"4cdad506","previewWithdraw(uint256)":"0a28a477","redeem(uint256,address,address)":"ba087652","renounceRole(bytes32,address)":"36568abe","returnFromPrime(uint256)":"08fe7d7f","revokeRole(bytes32,address)":"d547741f","setFounder(address)":"7a341bc7","setFounderFee(uint256)":"b9d7bd33","setInsuranceFund(address)":"c3c05293","setInsuranceFundBps(uint256)":"de50e437","setPerformanceFee(uint256)":"70897b23","setTreasury(address)":"f0f44260","setWhitelistEnabled(bool)":"052d9e7e","setWhitelisted(address,bool)":"9281aa0b","supportsInterface(bytes4)":"01ffc9a7","sweepToExchange(uint256)":"28833a9f","symbol()":"95d89b41","totalAssets()":"01e1d114","totalSupply()":"18160ddd","transfer(address,uint256)":"a9059cbb","transferFrom(address,address,uint256)":"23b872dd","transferToPrime(address,uint256)":"6fef958a","treasury()":"61d027b3","unpause()":"3f4ba83a","updateHedgingReserve(uint256)":"4ee07649","updateOffChainAssets(uint256)":"2736d571","whitelistEnabled()":"51fb012d","whitelisted(address)":"d936547e","withdraw(uint256,address,address)":"b460af94"},"id":59}