{"abi":[{"type":"constructor","inputs":[{"name":"_implementation","type":"address","internalType":"address"}],"stateMutability":"nonpayable"},{"type":"function","name":"allVaults","inputs":[{"name":"","type":"uint256","internalType":"uint256"}],"outputs":[{"name":"","type":"address","internalType":"address"}],"stateMutability":"view"},{"type":"function","name":"deployVault","inputs":[{"name":"asset","type":"address","internalType":"address"},{"name":"name","type":"string","internalType":"string"},{"name":"symbol","type":"string","internalType":"string"},{"name":"admin","type":"address","internalType":"address"},{"name":"strategist","type":"address","internalType":"address"},{"name":"founder","type":"address","internalType":"address"},{"name":"founderFeeBps","type":"uint256","internalType":"uint256"},{"name":"performanceFeeBps","type":"uint256","internalType":"uint256"},{"name":"insuranceFundBps","type":"uint256","internalType":"uint256"},{"name":"whitelistEnabled","type":"bool","internalType":"bool"}],"outputs":[{"name":"","type":"address","internalType":"address"}],"stateMutability":"nonpayable"},{"type":"function","name":"getVaultsCount","inputs":[],"outputs":[{"name":"","type":"uint256","internalType":"uint256"}],"stateMutability":"view"},{"type":"function","name":"implementation","inputs":[],"outputs":[{"name":"","type":"address","internalType":"address"}],"stateMutability":"view"},{"type":"function","name":"owner","inputs":[],"outputs":[{"name":"","type":"address","internalType":"address"}],"stateMutability":"view"},{"type":"function","name":"renounceOwnership","inputs":[],"outputs":[],"stateMutability":"nonpayable"},{"type":"function","name":"setVaultFounderFee","inputs":[{"name":"vault","type":"address","internalType":"address"},{"name":"newFeeBps","type":"uint256","internalType":"uint256"}],"outputs":[],"stateMutability":"nonpayable"},{"type":"function","name":"transferOwnership","inputs":[{"name":"newOwner","type":"address","internalType":"address"}],"outputs":[],"stateMutability":"nonpayable"},{"type":"event","name":"OwnershipTransferred","inputs":[{"name":"previousOwner","type":"address","indexed":true,"internalType":"address"},{"name":"newOwner","type":"address","indexed":true,"internalType":"address"}],"anonymous":false},{"type":"event","name":"VaultDeployed","inputs":[{"name":"vault","type":"address","indexed":true,"internalType":"address"},{"name":"admin","type":"address","indexed":true,"internalType":"address"},{"name":"name","type":"string","indexed":false,"internalType":"string"},{"name":"symbol","type":"string","indexed":false,"internalType":"string"}],"anonymous":false},{"type":"error","name":"FailedDeployment","inputs":[]},{"type":"error","name":"InsufficientBalance","inputs":[{"name":"balance","type":"uint256","internalType":"uint256"},{"name":"needed","type":"uint256","internalType":"uint256"}]},{"type":"error","name":"OwnableInvalidOwner","inputs":[{"name":"owner","type":"address","internalType":"address"}]},{"type":"error","name":"OwnableUnauthorizedAccount","inputs":[{"name":"account","type":"address","internalType":"address"}]}],"bytecode":{"object":"0x60a060405234801561000f575f80fd5b5060405161097338038061097383398101604081905261002e916100bd565b338061005357604051631e4fbdf760e01b81525f600482015260240160405180910390fd5b61005c8161006e565b506001600160a01b03166080526100ea565b5f80546001600160a01b038381166001600160a01b0319831681178455604051919092169283917f8be0079c531659141344cd1fd0a4f28419497f9722a3daafe3b4186f6b6457e09190a35050565b5f602082840312156100cd575f80fd5b81516001600160a01b03811681146100e3575f80fd5b9392505050565b60805161086b6101085f395f8181608e015261018e015261086b5ff3fe608060405234801561000f575f80fd5b5060043610610085575f3560e01c80639968d238116100585780639968d238146100fa578063b9b658db1461010d578063d2ff20621461011e578063f2fde38b14610131575f80fd5b80635c60da1b14610089578063715018a6146100cd5780638da5cb5b146100d75780639094a91e146100e7575b5f80fd5b6100b07f000000000000000000000000000000000000000000000000000000000000000081565b6040516001600160a01b0390911681526020015b60405180910390f35b6100d5610144565b005b5f546001600160a01b03166100b0565b6100b06100f5366004610578565b610157565b6100b0610108366004610656565b61017f565b6001546040519081526020016100c4565b6100d561012c366004610724565b6103b5565b6100d561013f36600461074c565b610416565b61014c610458565b6101555f610484565b565b60018181548110610166575f80fd5b5f918252602090912001546001600160a01b0316905081565b5f610188610458565b5f6101b27f00000000000000000000000000000000000000000000000000000000000000006104d3565b60405163331aa33760e11b81529091506001600160a01b03821690636635466e906101ed908f908f908f908f908f908f908f906004016107af565b5f604051808303815f87803b158015610204575f80fd5b505af1158015610216573d5f803e3d5ffd5b50506040516370897b2360e01b8152600481018890526001600160a01b03841692506370897b2391506024015f604051808303815f87803b158015610259575f80fd5b505af115801561026b573d5f803e3d5ffd5b505060405163de50e43760e01b8152600481018790526001600160a01b038416925063de50e43791506024015f604051808303815f87803b1580156102ae575f80fd5b505af11580156102c0573d5f803e3d5ffd5b5050604051630296cf3f60e11b815285151560048201526001600160a01b038416925063052d9e7e91506024015f604051808303815f87803b158015610304575f80fd5b505af1158015610316573d5f803e3d5ffd5b50506001805480820182555f919091527fb10e2d527612073b26eecdfd717e6a320cf44b4afac2b0732d9fcbe2b7fa0cf60180546001600160a01b0319166001600160a01b03858116918217909255604051918d16935091507ffd7439309318fc0abb0976e1dddf30d112c3b5c6f4438cca5ee7f70342f97f599061039e908f908f90610808565b60405180910390a39b9a5050505050505050505050565b6103bd610458565b60405163b9d7bd3360e01b8152600481018290526001600160a01b0383169063b9d7bd33906024015f604051808303815f87803b1580156103fc575f80fd5b505af115801561040e573d5f803e3d5ffd5b505050505050565b61041e610458565b6001600160a01b03811661044c57604051631e4fbdf760e01b81525f60048201526024015b60405180910390fd5b61045581610484565b50565b5f546001600160a01b031633146101555760405163118cdaa760e01b8152336004820152602401610443565b5f80546001600160a01b038381166001600160a01b0319831681178455604051919092169283917f8be0079c531659141344cd1fd0a4f28419497f9722a3daafe3b4186f6b6457e09190a35050565b5f6104de825f6104e4565b92915050565b5f8147101561050f5760405163cf47918160e01b815247600482015260248101839052604401610443565b763d602d80600a3d3981f3363d3d373d3d3d363d730000008360601b60e81c175f526e5af43d82803e903d91602b57fd5bf38360781b176020526037600983f090506001600160a01b0381166104de5760405163b06ebf3d60e01b815260040160405180910390fd5b5f60208284031215610588575f80fd5b5035919050565b80356001600160a01b03811681146105a5575f80fd5b919050565b634e487b7160e01b5f52604160045260245ffd5b5f82601f8301126105cd575f80fd5b813567ffffffffffffffff808211156105e8576105e86105aa565b604051601f8301601f19908116603f01168101908282118183101715610610576106106105aa565b81604052838152866020858801011115610628575f80fd5b836020870160208301375f602085830101528094505050505092915050565b803580151581146105a5575f80fd5b5f805f805f805f805f806101408b8d031215610670575f80fd5b6106798b61058f565b995060208b013567ffffffffffffffff80821115610695575f80fd5b6106a18e838f016105be565b9a5060408d01359150808211156106b6575f80fd5b506106c38d828e016105be565b9850506106d260608c0161058f565b96506106e060808c0161058f565b95506106ee60a08c0161058f565b945060c08b0135935060e08b013592506101008b013591506107136101208c01610647565b90509295989b9194979a5092959850565b5f8060408385031215610735575f80fd5b61073e8361058f565b946020939093013593505050565b5f6020828403121561075c575f80fd5b6107658261058f565b9392505050565b5f81518084525f5b8181101561079057602081850181015186830182015201610774565b505f602082860101526020601f19601f83011685010191505092915050565b5f60018060a01b03808a16835260e060208401526107d060e084018a61076c565b83810360408501526107e2818a61076c565b9782166060850152509485166080830152509190921660a082015260c001529392505050565b604081525f61081a604083018561076c565b828103602084015261082c818561076c565b9594505050505056fea264697066735822122095e2f61f0a731723ffa23cffb77f5f6c95a5e5cffcd02a44d79a346e59b3ddb764736f6c63430008180033","linkReferences":{}},"methodIdentifiers":{"allVaults(uint256)":"9094a91e","deployVault(address,string,string,address,address,address,uint256,uint256,uint256,bool)":"9968d238","getVaultsCount()":"b9b658db","implementation()":"5c60da1b","owner()":"8da5cb5b","renounceOwnership()":"715018a6","setVaultFounderFee(address,uint256)":"d2ff2062","transferOwnership(address)":"f2fde38b"},"id":60}