{
  "_format": "hh-sol-artifact-1",
  "contractName": "StrategyViewer",
  "sourceName": "contracts/StrategyViewer.sol",
  "abi": [
    {
      "inputs": [
        {
          "internalType": "address",
          "name": "lendingContract",
          "type": "address"
        },
        {
          "internalType": "address[]",
          "name": "tokens",
          "type": "address[]"
        },
        {
          "internalType": "address[]",
          "name": "strategies",
          "type": "address[]"
        }
      ],
      "name": "viewMetadata",
      "outputs": [
        {
          "components": [
            {
              "internalType": "uint256",
              "name": "debtCeiling",
              "type": "uint256"
            },
            {
              "internalType": "uint256",
              "name": "totalDebt",
              "type": "uint256"
            },
            {
              "internalType": "uint256",
              "name": "stabilityFee",
              "type": "uint256"
            },
            {
              "internalType": "uint256",
              "name": "mintingFee",
              "type": "uint256"
            },
            {
              "internalType": "address",
              "name": "strategy",
              "type": "address"
            },
            {
              "internalType": "address",
              "name": "token",
              "type": "address"
            },
            {
              "internalType": "uint256",
              "name": "APF",
              "type": "uint256"
            },
            {
              "internalType": "uint256",
              "name": "totalCollateral",
              "type": "uint256"
            },
            {
              "internalType": "uint256",
              "name": "borrowablePer10k",
              "type": "uint256"
            },
            {
              "internalType": "uint256",
              "name": "valuePer1e18",
              "type": "uint256"
            },
            {
              "internalType": "bytes32",
              "name": "strategyName",
              "type": "bytes32"
            },
            {
              "internalType": "uint256",
              "name": "tvl",
              "type": "uint256"
            },
            {
              "internalType": "uint256",
              "name": "harvestBalance2Tally",
              "type": "uint256"
            },
            {
              "internalType": "enum IStrategy.YieldType",
              "name": "yieldType",
              "type": "uint8"
            },
            {
              "internalType": "address",
              "name": "underlyingStrategy",
              "type": "address"
            }
          ],
          "internalType": "struct StableLending.ILStrategyMetadata[]",
          "name": "",
          "type": "tuple[]"
        }
      ],
      "stateMutability": "view",
      "type": "function"
    },
    {
      "inputs": [
        {
          "internalType": "address",
          "name": "lendingContract",
          "type": "address"
        },
        {
          "internalType": "address",
          "name": "oracleRegistry",
          "type": "address"
        },
        {
          "internalType": "address",
          "name": "stable",
          "type": "address"
        },
        {
          "internalType": "address[]",
          "name": "tokens",
          "type": "address[]"
        },
        {
          "internalType": "address[]",
          "name": "strategies",
          "type": "address[]"
        }
      ],
      "name": "viewMetadataNoHarvestBalance",
      "outputs": [
        {
          "components": [
            {
              "internalType": "uint256",
              "name": "debtCeiling",
              "type": "uint256"
            },
            {
              "internalType": "uint256",
              "name": "totalDebt",
              "type": "uint256"
            },
            {
              "internalType": "uint256",
              "name": "stabilityFee",
              "type": "uint256"
            },
            {
              "internalType": "uint256",
              "name": "mintingFee",
              "type": "uint256"
            },
            {
              "internalType": "address",
              "name": "strategy",
              "type": "address"
            },
            {
              "internalType": "address",
              "name": "token",
              "type": "address"
            },
            {
              "internalType": "uint256",
              "name": "APF",
              "type": "uint256"
            },
            {
              "internalType": "uint256",
              "name": "totalCollateral",
              "type": "uint256"
            },
            {
              "internalType": "uint256",
              "name": "borrowablePer10k",
              "type": "uint256"
            },
            {
              "internalType": "uint256",
              "name": "valuePer1e18",
              "type": "uint256"
            },
            {
              "internalType": "bytes32",
              "name": "strategyName",
              "type": "bytes32"
            },
            {
              "internalType": "uint256",
              "name": "tvl",
              "type": "uint256"
            },
            {
              "internalType": "uint256",
              "name": "harvestBalance2Tally",
              "type": "uint256"
            },
            {
              "internalType": "enum IStrategy.YieldType",
              "name": "yieldType",
              "type": "uint8"
            },
            {
              "internalType": "address",
              "name": "underlyingStrategy",
              "type": "address"
            }
          ],
          "internalType": "struct StableLending.ILStrategyMetadata[]",
          "name": "",
          "type": "tuple[]"
        }
      ],
      "stateMutability": "view",
      "type": "function"
    }
  ],
  "bytecode": "0x608060405234801561001057600080fd5b506112de806100206000396000f3fe608060405234801561001057600080fd5b50600436106100365760003560e01c8063107049561461003b5780636925642d14610064575b600080fd5b61004e610049366004610c32565b610077565b60405161005b919061104d565b60405180910390f35b61004e610072366004610cd6565b6108d7565b60606000846001600160401b038111156100a157634e487b7160e01b600052604160045260246000fd5b6040519080825280602002602001820160405280156100da57816020015b6100c7610af6565b8152602001906001900390816100bf5790505b50905060005b8086111561084a576000896001600160a01b0316635e73a03489898581811061011957634e487b7160e01b600052603260045260246000fd5b905060200201602081019061012e9190610bf3565b6040516001600160e01b031960e084901b1681526001600160a01b039182166004820152908c16602482015260440160206040518083038186803b15801561017557600080fd5b505afa158015610189573d6000803e3d6000fd5b505050506040513d601f19601f820116820180604052508101906101ad9190610c16565b9050600080826001600160a01b0316634fcd54a48b8b878181106101e157634e487b7160e01b600052603260045260246000fd5b90506020020160208101906101f69190610bf3565b6040516001600160e01b031960e084901b1681526001600160a01b039182166004820152670de0b6b3a76400006024820152908e166044820152606401604080518083038186803b15801561024a57600080fd5b505afa15801561025e573d6000803e3d6000fd5b505050506040513d601f19601f820116820180604052508101906102829190610fb2565b9150915060008888868181106102a857634e487b7160e01b600052603260045260246000fd5b90506020020160208101906102bd9190610bf3565b90506000816001600160a01b0316636fecdf248d8d898181106102f057634e487b7160e01b600052603260045260246000fd5b90506020020160208101906103059190610bf3565b6040518263ffffffff1660e01b81526004016103219190611039565b60806040518083038186803b15801561033957600080fd5b505afa15801561034d573d6000803e3d6000fd5b505050506040513d601f19601f820116820180604052508101906103719190610fd5565b50509150506040518061018001604052808b8b898181106103a257634e487b7160e01b600052603260045260246000fd5b90506020020160208101906103b79190610bf3565b6001600160a01b031681526020018d8d898181106103e557634e487b7160e01b600052603260045260246000fd5b90506020020160208101906103fa9190610bf3565b6001600160a01b03168152602001836001600160a01b0316630a3017d98f8f8b81811061043757634e487b7160e01b600052603260045260246000fd5b905060200201602081019061044c9190610bf3565b6040518263ffffffff1660e01b81526004016104689190611039565b60206040518083038186803b15801561048057600080fd5b505afa158015610494573d6000803e3d6000fd5b505050506040513d601f19601f820116820180604052508101906104b89190610ec8565b8152602001828152602001848152602001858152602001836001600160a01b031663e173ad256040518163ffffffff1660e01b815260040160206040518083038186803b15801561050857600080fd5b505afa15801561051c573d6000803e3d6000fd5b505050506040513d601f19601f820116820180604052508101906105409190610ec8565b8152602001836001600160a01b031663e2e730f68f8f8b81811061057457634e487b7160e01b600052603260045260246000fd5b90506020020160208101906105899190610bf3565b6040518263ffffffff1660e01b81526004016105a59190611039565b60206040518083038186803b1580156105bd57600080fd5b505afa1580156105d1573d6000803e3d6000fd5b505050506040513d601f19601f820116820180604052508101906105f59190610ec8565b815260200160008152602001836001600160a01b0316639b0f09ae6040518163ffffffff1660e01b815260040160206040518083038186803b15801561063a57600080fd5b505afa15801561064e573d6000803e3d6000fd5b505050506040513d601f19601f820116820180604052508101906106729190610ee0565b600281111561069157634e487b7160e01b600052602160045260246000fd5b8152602001836001600160a01b03166326473a8f8f8f8b8181106106c557634e487b7160e01b600052603260045260246000fd5b90506020020160208101906106da9190610bf3565b6040518263ffffffff1660e01b81526004016106f69190611039565b60206040518083038186803b15801561070e57600080fd5b505afa158015610722573d6000803e3d6000fd5b505050506040513d601f19601f820116820180604052508101906107469190610ec8565b8152602001836001600160a01b031663f725ed108f8f8b81811061077a57634e487b7160e01b600052603260045260246000fd5b905060200201602081019061078f9190610bf3565b6040518263ffffffff1660e01b81526004016107ab9190611039565b60206040518083038186803b1580156107c357600080fd5b505afa1580156107d7573d6000803e3d6000fd5b505050506040513d601f19601f820116820180604052508101906107fb9190610c16565b6001600160a01b031681525087878151811061082757634e487b7160e01b600052603260045260246000fd5b60200260200101819052505050505050808061084290611253565b9150506100e0565b506040516228294f60ea1b81526001600160a01b038a169063a0a53c0090610876908490600401611151565b60006040518083038186803b15801561088e57600080fd5b505afa1580156108a2573d6000803e3d6000fd5b505050506040513d6000823e601f3d908101601f191682016040526108ca9190810190610d55565b9998505050505050505050565b60606000846001600160401b0381111561090157634e487b7160e01b600052604160045260246000fd5b60405190808252806020026020018201604052801561093a57816020015b610927610af6565b81526020019060019003908161091f5790505b50905060005b80861115610a6b5784848281811061096857634e487b7160e01b600052603260045260246000fd5b905060200201602081019061097d9190610bf3565b6001600160a01b031663110acb238888848181106109ab57634e487b7160e01b600052603260045260246000fd5b90506020020160208101906109c09190610bf3565b6040518263ffffffff1660e01b81526004016109dc9190611039565b6101806040518083038186803b1580156109f557600080fd5b505afa158015610a09573d6000803e3d6000fd5b505050506040513d601f19601f82011682018060405250810190610a2d9190610efa565b828281518110610a4d57634e487b7160e01b600052603260045260246000fd5b60200260200101819052508080610a6390611253565b915050610940565b506040516228294f60ea1b81526001600160a01b0388169063a0a53c0090610a97908490600401611151565b60006040518083038186803b158015610aaf57600080fd5b505afa158015610ac3573d6000803e3d6000fd5b505050506040513d6000823e601f3d908101601f19168201604052610aeb9190810190610d55565b979650505050505050565b60405180610180016040528060006001600160a01b0316815260200160006001600160a01b031681526020016000815260200160008152602001600081526020016000815260200160008019168152602001600081526020016000815260200160006002811115610b7757634e487b7160e01b600052602160045260246000fd5b815260006020820181905260409091015290565b8051610b9681611290565b919050565b60008083601f840112610bac578081fd5b5081356001600160401b03811115610bc2578182fd5b6020830191508360208260051b8501011115610bdd57600080fd5b9250929050565b805160038110610b9657600080fd5b600060208284031215610c04578081fd5b8135610c0f81611290565b9392505050565b600060208284031215610c27578081fd5b8151610c0f81611290565b600080600080600080600060a0888a031215610c4c578283fd5b8735610c5781611290565b96506020880135610c6781611290565b95506040880135610c7781611290565b945060608801356001600160401b0380821115610c92578485fd5b610c9e8b838c01610b9b565b909650945060808a0135915080821115610cb6578384fd5b50610cc38a828b01610b9b565b989b979a50959850939692959293505050565b600080600080600060608688031215610ced578081fd5b8535610cf881611290565b945060208601356001600160401b0380821115610d13578283fd5b610d1f89838a01610b9b565b90965094506040880135915080821115610d37578283fd5b50610d4488828901610b9b565b969995985093965092949392505050565b60006020808385031215610d67578182fd5b82516001600160401b0380821115610d7d578384fd5b818501915085601f830112610d90578384fd5b815181811115610da257610da261127a565b610db0848260051b01611223565b81815284810192508385016101e0808402860187018a1015610dd0578788fd5b8795505b83861015610eba5780828b031215610dea578788fd5b610df381611223565b82518152878301518882015260408084015190820152606080840151908201526080610e20818501610b8b565b9082015260a0610e31848201610b8b565b9082015260c0838101519082015260e08084015190820152610100808401519082015261012080840151908201526101408084015190820152610160808401519082015261018080840151908201526101a0610e8e818501610be4565b908201526101c0610ea0848201610b8b565b908201528552600195909501949386019390810190610dd4565b509098975050505050505050565b600060208284031215610ed9578081fd5b5051919050565b600060208284031215610ef1578081fd5b610c0f82610be4565b6000610180808385031215610f0d578182fd5b610f1681611223565b9050610f2183610b8b565b8152610f2f60208401610b8b565b602082015260408301516040820152606083015160608201526080830151608082015260a083015160a082015260c083015160c082015260e083015160e0820152610100808401518183015250610120610f8a818501610be4565b908201526101408381015190820152610160610fa7818501610b8b565b908201529392505050565b60008060408385031215610fc4578182fd5b505080516020909101519092909150565b60008060008060808587031215610fea578182fd5b505082516020840151604085015160609095015191969095509092509050565b6001600160a01b03169052565b6003811061103557634e487b7160e01b600052602160045260246000fd5b9052565b6001600160a01b0391909116815260200190565b602080825282518282018190526000919060409081850190868401855b828110156111445781518051855286810151878601528581015186860152606080820151908601526080808201516110a48288018261100a565b505060a0808201516110b88288018261100a565b505060c0818101519086015260e08082015190860152610100808201519086015261012080820151908601526101408082015190860152610160808201519086015261018080820151908601526101a08082015161111882880182611017565b50506101c0908101519061112e8682018361100a565b50506101e093909301929085019060010161106a565b5091979650505050505050565b602080825282518282018190526000919060409081850190868401855b8281101561114457815161118385825161100a565b868101516111938887018261100a565b508086015185870152606080820151908601526080808201519086015260a0808201519086015260c0808201519086015260e080820151908601526101008082015190860152610120808201516111ec82880182611017565b50506101408181015190860152610160908101519061120d8187018361100a565b505061018093909301929085019060010161116e565b604051601f8201601f191681016001600160401b038111828210171561124b5761124b61127a565b604052919050565b600060001982141561127357634e487b7160e01b81526011600452602481fd5b5060010190565b634e487b7160e01b600052604160045260246000fd5b6001600160a01b03811681146112a557600080fd5b5056fea2646970667358221220a5a0d51d24a0da0396c506a23e1cf932aeffaca7c2371dec6961bf6a3f0de86464736f6c63430008030033",
  "linkReferences": {},
  "deployedLinkReferences": {}
}