{
  "_format": "hh-sol-artifact-1",
  "contractName": "StrategyViewer",
  "sourceName": "contracts/StrategyViewer.sol",
  "abi": [
    {
      "inputs": [
        {
          "internalType": "address",
          "name": "lendingContract",
          "type": "address"
        },
        {
          "components": [
            {
              "internalType": "address",
              "name": "strategy",
              "type": "address"
            },
            {
              "internalType": "address",
              "name": "token",
              "type": "address"
            },
            {
              "internalType": "uint256",
              "name": "APF",
              "type": "uint256"
            },
            {
              "internalType": "uint256",
              "name": "totalCollateral",
              "type": "uint256"
            },
            {
              "internalType": "uint256",
              "name": "borrowablePer10k",
              "type": "uint256"
            },
            {
              "internalType": "uint256",
              "name": "valuePer1e18",
              "type": "uint256"
            },
            {
              "internalType": "bytes32",
              "name": "strategyName",
              "type": "bytes32"
            },
            {
              "internalType": "uint256",
              "name": "tvl",
              "type": "uint256"
            },
            {
              "internalType": "uint256",
              "name": "harvestBalance2Tally",
              "type": "uint256"
            },
            {
              "internalType": "enum IStrategy.YieldType",
              "name": "yieldType",
              "type": "uint8"
            },
            {
              "internalType": "uint256",
              "name": "stabilityFee",
              "type": "uint256"
            },
            {
              "internalType": "address",
              "name": "underlyingStrategy",
              "type": "address"
            }
          ],
          "internalType": "struct IStrategy.StrategyMetadata[]",
          "name": "stratMeta",
          "type": "tuple[]"
        }
      ],
      "name": "augmentStratMetadata",
      "outputs": [
        {
          "components": [
            {
              "internalType": "uint256",
              "name": "debtCeiling",
              "type": "uint256"
            },
            {
              "internalType": "uint256",
              "name": "totalDebt",
              "type": "uint256"
            },
            {
              "internalType": "uint256",
              "name": "stabilityFee",
              "type": "uint256"
            },
            {
              "internalType": "uint256",
              "name": "mintingFee",
              "type": "uint256"
            },
            {
              "internalType": "address",
              "name": "strategy",
              "type": "address"
            },
            {
              "internalType": "address",
              "name": "token",
              "type": "address"
            },
            {
              "internalType": "uint256",
              "name": "APF",
              "type": "uint256"
            },
            {
              "internalType": "uint256",
              "name": "totalCollateral",
              "type": "uint256"
            },
            {
              "internalType": "uint256",
              "name": "borrowablePer10k",
              "type": "uint256"
            },
            {
              "internalType": "uint256",
              "name": "valuePer1e18",
              "type": "uint256"
            },
            {
              "internalType": "bytes32",
              "name": "strategyName",
              "type": "bytes32"
            },
            {
              "internalType": "uint256",
              "name": "tvl",
              "type": "uint256"
            },
            {
              "internalType": "uint256",
              "name": "harvestBalance2Tally",
              "type": "uint256"
            },
            {
              "internalType": "enum IStrategy.YieldType",
              "name": "yieldType",
              "type": "uint8"
            },
            {
              "internalType": "address",
              "name": "underlyingStrategy",
              "type": "address"
            }
          ],
          "internalType": "struct StableLending.ILStrategyMetadata[]",
          "name": "",
          "type": "tuple[]"
        }
      ],
      "stateMutability": "view",
      "type": "function"
    },
    {
      "inputs": [
        {
          "internalType": "address",
          "name": "lendingContract",
          "type": "address"
        },
        {
          "internalType": "address[]",
          "name": "tokens",
          "type": "address[]"
        },
        {
          "internalType": "address[]",
          "name": "strategies",
          "type": "address[]"
        }
      ],
      "name": "viewMetadata",
      "outputs": [
        {
          "components": [
            {
              "internalType": "uint256",
              "name": "debtCeiling",
              "type": "uint256"
            },
            {
              "internalType": "uint256",
              "name": "totalDebt",
              "type": "uint256"
            },
            {
              "internalType": "uint256",
              "name": "stabilityFee",
              "type": "uint256"
            },
            {
              "internalType": "uint256",
              "name": "mintingFee",
              "type": "uint256"
            },
            {
              "internalType": "address",
              "name": "strategy",
              "type": "address"
            },
            {
              "internalType": "address",
              "name": "token",
              "type": "address"
            },
            {
              "internalType": "uint256",
              "name": "APF",
              "type": "uint256"
            },
            {
              "internalType": "uint256",
              "name": "totalCollateral",
              "type": "uint256"
            },
            {
              "internalType": "uint256",
              "name": "borrowablePer10k",
              "type": "uint256"
            },
            {
              "internalType": "uint256",
              "name": "valuePer1e18",
              "type": "uint256"
            },
            {
              "internalType": "bytes32",
              "name": "strategyName",
              "type": "bytes32"
            },
            {
              "internalType": "uint256",
              "name": "tvl",
              "type": "uint256"
            },
            {
              "internalType": "uint256",
              "name": "harvestBalance2Tally",
              "type": "uint256"
            },
            {
              "internalType": "enum IStrategy.YieldType",
              "name": "yieldType",
              "type": "uint8"
            },
            {
              "internalType": "address",
              "name": "underlyingStrategy",
              "type": "address"
            }
          ],
          "internalType": "struct StableLending.ILStrategyMetadata[]",
          "name": "",
          "type": "tuple[]"
        }
      ],
      "stateMutability": "view",
      "type": "function"
    },
    {
      "inputs": [
        {
          "internalType": "address",
          "name": "lendingContract",
          "type": "address"
        },
        {
          "internalType": "address",
          "name": "oracleRegistry",
          "type": "address"
        },
        {
          "internalType": "address",
          "name": "stable",
          "type": "address"
        },
        {
          "internalType": "address[]",
          "name": "tokens",
          "type": "address[]"
        },
        {
          "internalType": "address[]",
          "name": "strategies",
          "type": "address[]"
        }
      ],
      "name": "viewMetadataNoHarvestBalance",
      "outputs": [
        {
          "components": [
            {
              "internalType": "uint256",
              "name": "debtCeiling",
              "type": "uint256"
            },
            {
              "internalType": "uint256",
              "name": "totalDebt",
              "type": "uint256"
            },
            {
              "internalType": "uint256",
              "name": "stabilityFee",
              "type": "uint256"
            },
            {
              "internalType": "uint256",
              "name": "mintingFee",
              "type": "uint256"
            },
            {
              "internalType": "address",
              "name": "strategy",
              "type": "address"
            },
            {
              "internalType": "address",
              "name": "token",
              "type": "address"
            },
            {
              "internalType": "uint256",
              "name": "APF",
              "type": "uint256"
            },
            {
              "internalType": "uint256",
              "name": "totalCollateral",
              "type": "uint256"
            },
            {
              "internalType": "uint256",
              "name": "borrowablePer10k",
              "type": "uint256"
            },
            {
              "internalType": "uint256",
              "name": "valuePer1e18",
              "type": "uint256"
            },
            {
              "internalType": "bytes32",
              "name": "strategyName",
              "type": "bytes32"
            },
            {
              "internalType": "uint256",
              "name": "tvl",
              "type": "uint256"
            },
            {
              "internalType": "uint256",
              "name": "harvestBalance2Tally",
              "type": "uint256"
            },
            {
              "internalType": "enum IStrategy.YieldType",
              "name": "yieldType",
              "type": "uint8"
            },
            {
              "internalType": "address",
              "name": "underlyingStrategy",
              "type": "address"
            }
          ],
          "internalType": "struct StableLending.ILStrategyMetadata[]",
          "name": "",
          "type": "tuple[]"
        }
      ],
      "stateMutability": "view",
      "type": "function"
    }
  ],
  "bytecode": "0x608060405234801561001057600080fd5b506114af806100206000396000f3fe608060405234801561001057600080fd5b50600436106100415760003560e01c806310704956146100465780636925642d1461006f578063c96984ce14610082575b600080fd5b610059610054366004610e8d565b610095565b60405161006691906112e3565b60405180910390f35b61005961007d366004610f31565b610880565b610059610090366004610fb0565b610a2a565b60606000846001600160401b038111156100bf57634e487b7160e01b600052604160045260246000fd5b6040519080825280602002602001820160405280156100f857816020015b6100e5610c95565b8152602001906001900390816100dd5790505b50905060005b80861115610868576000896001600160a01b0316635e73a03489898581811061013757634e487b7160e01b600052603260045260246000fd5b905060200201602081019061014c9190610e4e565b6040516001600160e01b031960e084901b1681526001600160a01b039182166004820152908c16602482015260440160206040518083038186803b15801561019357600080fd5b505afa1580156101a7573d6000803e3d6000fd5b505050506040513d601f19601f820116820180604052508101906101cb9190610e71565b9050600080826001600160a01b0316634fcd54a48b8b878181106101ff57634e487b7160e01b600052603260045260246000fd5b90506020020160208101906102149190610e4e565b6040516001600160e01b031960e084901b1681526001600160a01b039182166004820152670de0b6b3a76400006024820152908e166044820152606401604080518083038186803b15801561026857600080fd5b505afa15801561027c573d6000803e3d6000fd5b505050506040513d601f19601f820116820180604052508101906102a09190611248565b9150915060008888868181106102c657634e487b7160e01b600052603260045260246000fd5b90506020020160208101906102db9190610e4e565b90506000816001600160a01b0316636fecdf248d8d8981811061030e57634e487b7160e01b600052603260045260246000fd5b90506020020160208101906103239190610e4e565b6040518263ffffffff1660e01b815260040161033f91906112cf565b60806040518083038186803b15801561035757600080fd5b505afa15801561036b573d6000803e3d6000fd5b505050506040513d601f19601f8201168201806040525081019061038f919061126b565b50509150506040518061018001604052808b8b898181106103c057634e487b7160e01b600052603260045260246000fd5b90506020020160208101906103d59190610e4e565b6001600160a01b031681526020018d8d8981811061040357634e487b7160e01b600052603260045260246000fd5b90506020020160208101906104189190610e4e565b6001600160a01b03168152602001836001600160a01b0316630a3017d98f8f8b81811061045557634e487b7160e01b600052603260045260246000fd5b905060200201602081019061046a9190610e4e565b6040518263ffffffff1660e01b815260040161048691906112cf565b60206040518083038186803b15801561049e57600080fd5b505afa1580156104b2573d6000803e3d6000fd5b505050506040513d601f19601f820116820180604052508101906104d69190611115565b8152602001828152602001848152602001858152602001836001600160a01b031663e173ad256040518163ffffffff1660e01b815260040160206040518083038186803b15801561052657600080fd5b505afa15801561053a573d6000803e3d6000fd5b505050506040513d601f19601f8201168201806040525081019061055e9190611115565b8152602001836001600160a01b031663e2e730f68f8f8b81811061059257634e487b7160e01b600052603260045260246000fd5b90506020020160208101906105a79190610e4e565b6040518263ffffffff1660e01b81526004016105c391906112cf565b60206040518083038186803b1580156105db57600080fd5b505afa1580156105ef573d6000803e3d6000fd5b505050506040513d601f19601f820116820180604052508101906106139190611115565b815260200160008152602001836001600160a01b0316639b0f09ae6040518163ffffffff1660e01b815260040160206040518083038186803b15801561065857600080fd5b505afa15801561066c573d6000803e3d6000fd5b505050506040513d601f19601f82011682018060405250810190610690919061112d565b60028111156106af57634e487b7160e01b600052602160045260246000fd5b8152602001836001600160a01b03166326473a8f8f8f8b8181106106e357634e487b7160e01b600052603260045260246000fd5b90506020020160208101906106f89190610e4e565b6040518263ffffffff1660e01b815260040161071491906112cf565b60206040518083038186803b15801561072c57600080fd5b505afa158015610740573d6000803e3d6000fd5b505050506040513d601f19601f820116820180604052508101906107649190611115565b8152602001836001600160a01b031663f725ed108f8f8b81811061079857634e487b7160e01b600052603260045260246000fd5b90506020020160208101906107ad9190610e4e565b6040518263ffffffff1660e01b81526004016107c991906112cf565b60206040518083038186803b1580156107e157600080fd5b505afa1580156107f5573d6000803e3d6000fd5b505050506040513d601f19601f820116820180604052508101906108199190610e71565b6001600160a01b031681525087878151811061084557634e487b7160e01b600052603260045260246000fd5b60200260200101819052505050505050808061086090611417565b9150506100fe565b506108738982610a2a565b9998505050505050505050565b60606000846001600160401b038111156108aa57634e487b7160e01b600052604160045260246000fd5b6040519080825280602002602001820160405280156108e357816020015b6108d0610c95565b8152602001906001900390816108c85790505b50905060005b80861115610a145784848281811061091157634e487b7160e01b600052603260045260246000fd5b90506020020160208101906109269190610e4e565b6001600160a01b031663110acb2388888481811061095457634e487b7160e01b600052603260045260246000fd5b90506020020160208101906109699190610e4e565b6040518263ffffffff1660e01b815260040161098591906112cf565b6101806040518083038186803b15801561099e57600080fd5b505afa1580156109b2573d6000803e3d6000fd5b505050506040513d601f19601f820116820180604052508101906109d69190611190565b8282815181106109f657634e487b7160e01b600052603260045260246000fd5b60200260200101819052508080610a0c90611417565b9150506108e9565b50610a1f8782610a2a565b979650505050505050565b6060600082516001600160401b03811115610a5557634e487b7160e01b600052604160045260246000fd5b604051908082528060200260200182016040528015610a8e57816020015b610a7b610d2a565b815260200190600190039081610a735790505b50905060005b8082511115610c8d576000828281518110610abf57634e487b7160e01b600052603260045260246000fd5b602002602001015190506000858381518110610aeb57634e487b7160e01b600052603260045260246000fd5b602002602001015190506000876001600160a01b031663dee7ae7083602001516040518263ffffffff1660e01b8152600401610b2791906112cf565b60806040518083038186803b158015610b3f57600080fd5b505afa158015610b53573d6000803e3d6000fd5b505050506040513d601f19601f82011682018060405250810190610b779190611149565b805184526020808201518186015260408083015160608088019190915285516001600160a01b039081166080808a0191909152938701511660a0808901919091529186015160c0808901919091529086015160e0808901919091529286015161010080890191909152918601516101208089019190915290860151610140880152918501516101608701528401516101808601528301519091506101a08401906002811115610c3657634e487b7160e01b600052602160045260246000fd5b90816002811115610c5757634e487b7160e01b600052602160045260246000fd5b90525050610140810151604083015261016001516001600160a01b03166101c09091015280610c8581611417565b915050610a94565b509392505050565b60405180610180016040528060006001600160a01b0316815260200160006001600160a01b031681526020016000815260200160008152602001600081526020016000815260200160008019168152602001600081526020016000815260200160006002811115610d1657634e487b7160e01b600052602160045260246000fd5b815260006020820181905260409091015290565b604051806101e001604052806000815260200160008152602001600081526020016000815260200160006001600160a01b0316815260200160006001600160a01b031681526020016000815260200160008152602001600081526020016000815260200160008019168152602001600081526020016000815260200160006002811115610dc757634e487b7160e01b600052602160045260246000fd5b8152600060209091015290565b8035610ddf81611454565b919050565b8051610ddf81611454565b60008083601f840112610e00578081fd5b5081356001600160401b03811115610e16578182fd5b6020830191508360208260051b8501011115610e3157600080fd5b9250929050565b8035610ddf8161146c565b8051610ddf8161146c565b600060208284031215610e5f578081fd5b8135610e6a81611454565b9392505050565b600060208284031215610e82578081fd5b8151610e6a81611454565b600080600080600080600060a0888a031215610ea7578283fd5b8735610eb281611454565b96506020880135610ec281611454565b95506040880135610ed281611454565b945060608801356001600160401b0380821115610eed578485fd5b610ef98b838c01610def565b909650945060808a0135915080821115610f11578384fd5b50610f1e8a828b01610def565b989b979a50959850939692959293505050565b600080600080600060608688031215610f48578081fd5b8535610f5381611454565b945060208601356001600160401b0380821115610f6e578283fd5b610f7a89838a01610def565b90965094506040880135915080821115610f92578283fd5b50610f9f88828901610def565b969995985093965092949392505050565b6000806040808486031215610fc3578283fd5b8335610fce81611454565b92506020848101356001600160401b0380821115610fea578485fd5b818701915087601f830112610ffd578485fd5b81358181111561100f5761100f61143e565b61101d848260051b016113e7565b8181528481019250838501610180808402860187018c101561103d578889fd5b8895505b838610156111045780828d031215611057578889fd5b611060816113e7565b61106983610dd4565b8152611076888401610dd4565b818901528289013589820152606080840135908201526080808401359082015260a0808401359082015260c0808401359082015260e0808401359082015261010080840135908201526101206110cd818501610e38565b9082015261014083810135908201526101606110ea818501610dd4565b908201528552600195909501949386019390810190611041565b50979a909950975050505050505050565b600060208284031215611126578081fd5b5051919050565b60006020828403121561113e578081fd5b8151610e6a8161146c565b60006080828403121561115a578081fd5b61116460806113e7565b825181526020830151602082015260408301516040820152606083015160608201528091505092915050565b60006101808083850312156111a3578182fd5b6111ac816113e7565b90506111b783610de4565b81526111c560208401610de4565b602082015260408301516040820152606083015160608201526080830151608082015260a083015160a082015260c083015160c082015260e083015160e0820152610100808401518183015250610120611220818501610e43565b90820152610140838101519082015261016061123d818501610de4565b908201529392505050565b6000806040838503121561125a578182fd5b505080516020909101519092909150565b60008060008060808587031215611280578182fd5b505082516020840151604085015160609095015191969095509092509050565b6001600160a01b03169052565b600381106112cb57634e487b7160e01b600052602160045260246000fd5b9052565b6001600160a01b0391909116815260200190565b602080825282518282018190526000919060409081850190868401855b828110156113da57815180518552868101518786015285810151868601526060808201519086015260808082015161133a828801826112a0565b505060a08082015161134e828801826112a0565b505060c0818101519086015260e08082015190860152610100808201519086015261012080820151908601526101408082015190860152610160808201519086015261018080820151908601526101a0808201516113ae828801826112ad565b50506101c090810151906113c4868201836112a0565b50506101e0939093019290850190600101611300565b5091979650505050505050565b604051601f8201601f191681016001600160401b038111828210171561140f5761140f61143e565b604052919050565b600060001982141561143757634e487b7160e01b81526011600452602481fd5b5060010190565b634e487b7160e01b600052604160045260246000fd5b6001600160a01b038116811461146957600080fd5b50565b6003811061146957600080fdfea2646970667358221220e9d6a260dfc3df4c82be535e5905d5dd83577c2a5217823df959e795c428427164736f6c63430008030033",
  "linkReferences": {},
  "deployedLinkReferences": {}
}