{
  "contractName": "AssetPrice",
  "abi": [
    {
      "inputs": [],
      "stateMutability": "nonpayable",
      "type": "constructor"
    },
    {
      "anonymous": false,
      "inputs": [
        {
          "indexed": true,
          "internalType": "address",
          "name": "previousValue",
          "type": "address"
        },
        {
          "indexed": true,
          "internalType": "address",
          "name": "newValue",
          "type": "address"
        }
      ],
      "name": "ManagerChanged",
      "type": "event"
    },
    {
      "anonymous": false,
      "inputs": [
        {
          "indexed": true,
          "internalType": "uint256",
          "name": "previousValue",
          "type": "uint256"
        },
        {
          "indexed": true,
          "internalType": "uint256",
          "name": "newValue",
          "type": "uint256"
        }
      ],
      "name": "MaxDelayTimeChanged",
      "type": "event"
    },
    {
      "anonymous": false,
      "inputs": [
        {
          "indexed": true,
          "internalType": "bytes32",
          "name": "asset",
          "type": "bytes32"
        },
        {
          "indexed": true,
          "internalType": "address",
          "name": "previousValue",
          "type": "address"
        },
        {
          "indexed": true,
          "internalType": "address",
          "name": "newValue",
          "type": "address"
        }
      ],
      "name": "OracleChanged",
      "type": "event"
    },
    {
      "anonymous": false,
      "inputs": [
        {
          "indexed": true,
          "internalType": "bytes32",
          "name": "asset",
          "type": "bytes32"
        },
        {
          "indexed": true,
          "internalType": "address",
          "name": "previousValue",
          "type": "address"
        }
      ],
      "name": "OracleRemoved",
      "type": "event"
    },
    {
      "anonymous": false,
      "inputs": [
        {
          "indexed": true,
          "internalType": "address",
          "name": "previousValue",
          "type": "address"
        },
        {
          "indexed": true,
          "internalType": "address",
          "name": "newValue",
          "type": "address"
        }
      ],
      "name": "OwnerChanged",
      "type": "event"
    },
    {
      "inputs": [],
      "name": "contractName",
      "outputs": [
        {
          "internalType": "string",
          "name": "",
          "type": "string"
        }
      ],
      "stateMutability": "view",
      "type": "function"
    },
    {
      "inputs": [],
      "name": "manager",
      "outputs": [
        {
          "internalType": "address",
          "name": "",
          "type": "address"
        }
      ],
      "stateMutability": "view",
      "type": "function"
    },
    {
      "inputs": [],
      "name": "maxDelayTime",
      "outputs": [
        {
          "internalType": "uint256",
          "name": "",
          "type": "uint256"
        }
      ],
      "stateMutability": "view",
      "type": "function"
    },
    {
      "inputs": [],
      "name": "owner",
      "outputs": [
        {
          "internalType": "address",
          "name": "",
          "type": "address"
        }
      ],
      "stateMutability": "view",
      "type": "function"
    },
    {
      "inputs": [
        {
          "internalType": "address",
          "name": "_manager",
          "type": "address"
        }
      ],
      "name": "setManager",
      "outputs": [],
      "stateMutability": "nonpayable",
      "type": "function"
    },
    {
      "inputs": [
        {
          "internalType": "address",
          "name": "_owner",
          "type": "address"
        }
      ],
      "name": "setOwner",
      "outputs": [],
      "stateMutability": "nonpayable",
      "type": "function"
    },
    {
      "inputs": [
        {
          "internalType": "bytes32",
          "name": "asset",
          "type": "bytes32"
        },
        {
          "internalType": "address",
          "name": "oracle",
          "type": "address"
        }
      ],
      "name": "setOracle",
      "outputs": [],
      "stateMutability": "nonpayable",
      "type": "function"
    },
    {
      "inputs": [
        {
          "internalType": "bytes32",
          "name": "asset",
          "type": "bytes32"
        }
      ],
      "name": "removeOracle",
      "outputs": [],
      "stateMutability": "nonpayable",
      "type": "function"
    },
    {
      "inputs": [
        {
          "internalType": "uint256",
          "name": "time",
          "type": "uint256"
        }
      ],
      "name": "setMaxDelayTime",
      "outputs": [],
      "stateMutability": "nonpayable",
      "type": "function"
    },
    {
      "inputs": [
        {
          "internalType": "bytes32",
          "name": "asset",
          "type": "bytes32"
        }
      ],
      "name": "getPriceFromOracle",
      "outputs": [
        {
          "internalType": "uint256",
          "name": "round",
          "type": "uint256"
        },
        {
          "internalType": "uint256",
          "name": "price",
          "type": "uint256"
        },
        {
          "internalType": "uint256",
          "name": "time",
          "type": "uint256"
        }
      ],
      "stateMutability": "view",
      "type": "function"
    },
    {
      "inputs": [
        {
          "internalType": "bytes32",
          "name": "asset",
          "type": "bytes32"
        }
      ],
      "name": "getPrice",
      "outputs": [
        {
          "internalType": "uint256",
          "name": "",
          "type": "uint256"
        }
      ],
      "stateMutability": "view",
      "type": "function"
    },
    {
      "inputs": [
        {
          "internalType": "bytes32[]",
          "name": "assets",
          "type": "bytes32[]"
        }
      ],
      "name": "getPrices",
      "outputs": [
        {
          "internalType": "uint256[]",
          "name": "",
          "type": "uint256[]"
        }
      ],
      "stateMutability": "view",
      "type": "function"
    },
    {
      "inputs": [
        {
          "internalType": "bytes32",
          "name": "asset",
          "type": "bytes32"
        }
      ],
      "name": "getPriceAndStatus",
      "outputs": [
        {
          "internalType": "uint256",
          "name": "",
          "type": "uint256"
        },
        {
          "internalType": "uint256",
          "name": "",
          "type": "uint256"
        }
      ],
      "stateMutability": "view",
      "type": "function"
    },
    {
      "inputs": [
        {
          "internalType": "bytes32[]",
          "name": "assets",
          "type": "bytes32[]"
        }
      ],
      "name": "getPricesAndStatus",
      "outputs": [
        {
          "internalType": "uint256[]",
          "name": "",
          "type": "uint256[]"
        },
        {
          "internalType": "uint256[]",
          "name": "",
          "type": "uint256[]"
        }
      ],
      "stateMutability": "view",
      "type": "function"
    }
  ],
  "bytecode": "0x6080604052610e106004553480156200001757600080fd5b5060018054336001600160a01b0319918216811790925560028054909116909117905562000052694173736574507269636560b01b62000058565b6200016c565b60408051602080820184905282518083038201815291830190925280516200008592600092019062000089565b5050565b82805462000097906200012f565b90600052602060002090601f016020900481019282620000bb576000855562000106565b82601f10620000d657805160ff191683800117855562000106565b8280016001018555821562000106579182015b8281111562000106578251825591602001919060010190620000e9565b506200011492915062000118565b5090565b5b8082111562000114576000815560010162000119565b600181811c908216806200014457607f821691505b602082108114156200016657634e487b7160e01b600052602260045260246000fd5b50919050565b6115fc806200017c6000396000f3fe608060405234801561001057600080fd5b50600436106100ea5760003560e01c806371bb238e1161008c578063c519a3c911610066578063c519a3c914610229578063d0ebdbe714610257578063f56c85471461026a578063fea227d41461027357600080fd5b806371bb238e146101e157806375d0c0dc146101f45780638da5cb5b1461020957600080fd5b80633902ca61116100c85780633902ca611461014e578063481c6a75146101765780635ea8dffb146101bb5780636e2eb512146101ce57600080fd5b806313af4035146100ef57806326ee48361461010457806331d98b3f1461012d575b600080fd5b6101026100fd3660046111cd565b610294565b005b6101176101123660046111ee565b610505565b604051610124919061142c565b60405180910390f35b61014061013b36600461131e565b61054e565b604051908152602001610124565b61016161015c36600461131e565b610562565b60408051928352602083019190915201610124565b6002546101969073ffffffffffffffffffffffffffffffffffffffff1681565b60405173ffffffffffffffffffffffffffffffffffffffff9091168152602001610124565b6101026101c9366004611336565b610720565b6101026101dc36600461131e565b6108a0565b6101026101ef36600461131e565b610a03565b6101fc610ad5565b604051610124919061146d565b6001546101969073ffffffffffffffffffffffffffffffffffffffff1681565b61023c61023736600461131e565b610b63565b60408051938452602084019290925290820152606001610124565b6101026102653660046111cd565b610d2b565b61014060045481565b61028661028136600461125e565b610eea565b60405161012492919061143f565b60015460408051808201909152601981527f3a2063616c6c6572206973206e6f7420746865206f776e65720000000000000060208201526000805473ffffffffffffffffffffffffffffffffffffffff9093163314926103859291906102f990611505565b80601f016020809104026020016040519081016040528092919081815260200182805461032590611505565b80156103725780601f1061034757610100808354040283529160200191610372565b820191906000526020600020905b81548152906001019060200180831161035557829003601f168201915b505050505061114990919063ffffffff16565b906103c6576040517f08c379a00000000000000000000000000000000000000000000000000000000081526004016103bd919061146d565b60405180910390fd5b50600073ffffffffffffffffffffffffffffffffffffffff168173ffffffffffffffffffffffffffffffffffffffff16141561043e6040518060400160405280601f81526020017f3a206e6577206f776e657220697320746865207a65726f206164647265737300815250600080546102f990611505565b90610476576040517f08c379a00000000000000000000000000000000000000000000000000000000081526004016103bd919061146d565b5060015460405173ffffffffffffffffffffffffffffffffffffffff8084169216907fb532073b38c83145e3e5135377a08bf9aab55bc0fd7c1179cd4fb995d2a5159c90600090a3600180547fffffffffffffffffffffffff00000000000000000000000000000000000000001673ffffffffffffffffffffffffffffffffffffffff92909216919091179055565b60606000610545848480806020026020016040519081016040528093929190818152602001838360200280828437600092019190915250610eea92505050565b50949350505050565b60008061055a83610562565b509392505050565b6000807f6d6f5553440000000000000000000000000000000000000000000000000000008314806105b25750827f5553445400000000000000000000000000000000000000000000000000000000145b156105ca5750670de0b6b3a764000092600092509050565b6000806105d685610b63565b9250925050600082116106b36040518060400160405280601481526020017f3a205072696365206973207a65726f20466f7220000000000000000000000000815250876000805461062690611505565b80601f016020809104026020016040519081016040528092919081815260200182805461065290611505565b801561069f5780601f106106745761010080835404028352916020019161069f565b820191906000526020600020905b81548152906001019060200180831161068257829003601f168201915b50505050506111759092919063ffffffff16565b906106eb576040517f08c379a00000000000000000000000000000000000000000000000000000000081526004016103bd919061146d565b506000600454426106fc91906114be565b905080821015610713575090946001945092505050565b5090946000945092505050565b60015460408051808201909152601981527f3a2063616c6c6572206973206e6f7420746865206f776e65720000000000000060208201526000805473ffffffffffffffffffffffffffffffffffffffff9093163314926107859291906102f990611505565b906107bd576040517f08c379a00000000000000000000000000000000000000000000000000000000081526004016103bd919061146d565b5060008281527f7d9a42d98474a1d02586a0326a45710951e3684f92c0ff078081324e45c151c1602052604080822054905173ffffffffffffffffffffffffffffffffffffffff8481169392169185917fffaab7bfd4c24267948958cc1dec10900dd71073248da9e3e4cfd274a0490bf59190a460008281527f7d9a42d98474a1d02586a0326a45710951e3684f92c0ff078081324e45c151c16020526040902080547fffffffffffffffffffffffff00000000000000000000000000000000000000001673ffffffffffffffffffffffffffffffffffffffff83161790555050565b60015460408051808201909152601981527f3a2063616c6c6572206973206e6f7420746865206f776e65720000000000000060208201526000805473ffffffffffffffffffffffffffffffffffffffff9093163314926109059291906102f990611505565b9061093d576040517f08c379a00000000000000000000000000000000000000000000000000000000081526004016103bd919061146d565b5060008181527f7d9a42d98474a1d02586a0326a45710951e3684f92c0ff078081324e45c151c1602052604080822054905173ffffffffffffffffffffffffffffffffffffffff9091169183917fa69709ef8582cb75d44d08e318fd90f7368d781e645af3e2788ca761606dab0b9190a360009081527f7d9a42d98474a1d02586a0326a45710951e3684f92c0ff078081324e45c151c16020526040902080547fffffffffffffffffffffffff0000000000000000000000000000000000000000169055565b60015460408051808201909152601981527f3a2063616c6c6572206973206e6f7420746865206f776e65720000000000000060208201526000805473ffffffffffffffffffffffffffffffffffffffff909316331492610a689291906102f990611505565b90610aa0576040517f08c379a00000000000000000000000000000000000000000000000000000000081526004016103bd919061146d565b506004546040518291907f80796916b7785004b191602bd839776969d772f6dad6249b9ecea028c196ad4a90600090a3600455565b60008054610ae290611505565b80601f0160208091040260200160405190810160405280929190818152602001828054610b0e90611505565b8015610b5b5780601f10610b3057610100808354040283529160200191610b5b565b820191906000526020600020905b815481529060010190602001808311610b3e57829003601f168201915b505050505081565b600080600080610bb48560009081527f7d9a42d98474a1d02586a0326a45710951e3684f92c0ff078081324e45c151c1602052604090205473ffffffffffffffffffffffffffffffffffffffff1690565b604080518082018252600a81527f41737365745072696365000000000000000000000000000000000000000000006020808301919091528251808401909352601583527f3a204d697373696e67204f7261636c6520466f722000000000000000000000009083015291925073ffffffffffffffffffffffffffffffffffffffff8316151590610c4590839089611175565b90610c7d576040517f08c379a00000000000000000000000000000000000000000000000000000000081526004016103bd919061146d565b506040517f31d98b3f0000000000000000000000000000000000000000000000000000000081526004810187905273ffffffffffffffffffffffffffffffffffffffff8316906331d98b3f9060240160606040518083038186803b158015610ce457600080fd5b505afa158015610cf8573d6000803e3d6000fd5b505050506040513d601f19601f82011682018060405250810190610d1c9190611361565b91989097509095509350505050565b60015460408051808201909152601981527f3a2063616c6c6572206973206e6f7420746865206f776e65720000000000000060208201526000805473ffffffffffffffffffffffffffffffffffffffff909316331492610d909291906102f990611505565b90610dc8576040517f08c379a00000000000000000000000000000000000000000000000000000000081526004016103bd919061146d565b50600073ffffffffffffffffffffffffffffffffffffffff168173ffffffffffffffffffffffffffffffffffffffff161415610e236040518060600160405280602181526020016115a660219139600080546102f990611505565b90610e5b576040517f08c379a00000000000000000000000000000000000000000000000000000000081526004016103bd919061146d565b5060025460405173ffffffffffffffffffffffffffffffffffffffff8084169216907f605c2dbf762e5f7d60a546d42e7205dcb1b011ebc62a61736a57c9089d3a435090600090a3600280547fffffffffffffffffffffffff00000000000000000000000000000000000000001673ffffffffffffffffffffffffffffffffffffffff92909216919091179055565b6060806014835110610f386040518060400160405280602081526020017f3a2063616e6e6f742068617665206d6f7265207468616e203230206974656d73815250600080546102f990611505565b90610f70576040517f08c379a00000000000000000000000000000000000000000000000000000000081526004016103bd919061146d565b506000835167ffffffffffffffff811115610fb4577f4e487b7100000000000000000000000000000000000000000000000000000000600052604160045260246000fd5b604051908082528060200260200182016040528015610fdd578160200160208202803683370190505b5090506000845167ffffffffffffffff811115611023577f4e487b7100000000000000000000000000000000000000000000000000000000600052604160045260246000fd5b60405190808252806020026020018201604052801561104c578160200160208202803683370190505b50905060005b855181101561113e576110a4868281518110611097577f4e487b7100000000000000000000000000000000000000000000000000000000600052603260045260246000fd5b6020026020010151610562565b8483815181106110dd577f4e487b7100000000000000000000000000000000000000000000000000000000600052603260045260246000fd5b6020026020010184848151811061111d577f4e487b7100000000000000000000000000000000000000000000000000000000600052603260045260246000fd5b6020908102919091010191909152528061113681611540565b915050611052565b509094909350915050565b6060828260405160200161115e9291906113c8565b604051602081830303815290604052905092915050565b606083838360405160200161118c939291906113f7565b60405160208183030381529060405290509392505050565b803573ffffffffffffffffffffffffffffffffffffffff811681146111c857600080fd5b919050565b6000602082840312156111de578081fd5b6111e7826111a4565b9392505050565b60008060208385031215611200578081fd5b823567ffffffffffffffff80821115611217578283fd5b818501915085601f83011261122a578283fd5b813581811115611238578384fd5b8660208260051b850101111561124c578384fd5b60209290920196919550909350505050565b60006020808385031215611270578182fd5b823567ffffffffffffffff80821115611287578384fd5b818501915085601f83011261129a578384fd5b8135818111156112ac576112ac61158f565b8060051b604051601f19603f830116810181811085821117156112d1576112d161158f565b604052828152858101935084860182860187018a10156112ef578788fd5b8795505b838610156113115780358552600195909501949386019386016112f3565b5098975050505050505050565b60006020828403121561132f578081fd5b5035919050565b60008060408385031215611348578182fd5b82359150611358602084016111a4565b90509250929050565b600080600060608486031215611375578081fd5b8351925060208401519150604084015190509250925092565b6000815180845260208085019450808401835b838110156113bd578151875295820195908201906001016113a1565b509495945050505050565b600083516113da8184602088016114d5565b8351908301906113ee8183602088016114d5565b01949350505050565b600084516114098184602089016114d5565b84519083019061141d8183602089016114d5565b01928352505060200192915050565b6020815260006111e7602083018461138e565b604081526000611452604083018561138e565b8281036020840152611464818561138e565b95945050505050565b602081526000825180602084015261148c8160408501602087016114d5565b601f017fffffffffffffffffffffffffffffffffffffffffffffffffffffffffffffffe0169190910160400192915050565b6000828210156114d0576114d0611579565b500390565b60005b838110156114f05781810151838201526020016114d8565b838111156114ff576000848401525b50505050565b600181811c9082168061151957607f821691505b6020821081141561153a57634e487b7160e01b600052602260045260246000fd5b50919050565b60007fffffffffffffffffffffffffffffffffffffffffffffffffffffffffffffffff82141561157257611572611579565b5060010190565b634e487b7160e01b600052601160045260246000fd5b634e487b7160e01b600052604160045260246000fdfe3a206e6577206d616e6167657220697320746865207a65726f2061646472657373a26469706673582212203dfb446268eb511446c76eacdaab6e59364aa0c00a4c3d58f4da361f1c46c25a64736f6c63430008040033",
  "immutableReferences": {},
  "source": "// SPDX-License-Identifier: MIT\npragma solidity =0.8.4;\n\nimport './storages/AddressStorage.sol';\nimport './interfaces/IOracle.sol';\nimport './interfaces/IAssetPrice.sol';\n\ncontract AssetPrice is AddressStorage, IAssetPrice {\n    using Strings for string;\n    uint256 public maxDelayTime = 3600;\n\n    constructor() {\n        setContractName(CONTRACT_ASSET_PRICE);\n    }\n\n    function setOracle(bytes32 asset, address oracle) external onlyOwner {\n        emit OracleChanged(asset, getAddressValue(asset), oracle);\n        setAddressValue(asset, oracle);\n    }\n\n    function removeOracle(bytes32 asset) external onlyOwner {\n        emit OracleRemoved(asset, getAddressValue(asset));\n        removeAddressValue(asset);\n    }\n\n    function setMaxDelayTime(uint256 time) external onlyOwner {\n        emit MaxDelayTimeChanged(maxDelayTime, time);\n        maxDelayTime = time;\n    }\n\n    function getPriceFromOracle(bytes32 asset)\n        public\n        override\n        view\n        returns (\n            uint256 round,\n            uint256 price,\n            uint256 time\n        )\n    {\n        address oracleAddress = getAddressValue(asset);\n        string memory errorMessage = 'AssetPrice';\n        require(oracleAddress != address(0), errorMessage.concat(': Missing Oracle For ', asset));\n        (round, price, time) = IOracle(oracleAddress).getPrice(asset);\n    }\n\n    function getPrice(bytes32 asset) public override view returns (uint256) {\n        (uint256 price, ) = getPriceAndStatus(asset);\n        return price;\n    }\n\n    function getPrices(bytes32[] calldata assets) external override view returns (uint256[] memory) {\n        (uint256[] memory prices, ) = getPricesAndStatus(assets);\n        return prices;\n    }\n\n    function getPriceAndStatus(bytes32 asset) public override view returns (uint256, uint256) {\n        if (asset == USD || asset == 'USDT') return (1 ether, 0);\n        (, uint256 price, uint256 updateTime) = getPriceFromOracle(asset);\n        require(price > 0, contractName.concat(': Price is zero For ', asset));\n\n        uint256 lastTime = block.timestamp - maxDelayTime;\n        if (updateTime < lastTime) return (price, 1);\n        return (price, 0);\n    }\n\n    function getPricesAndStatus(bytes32[] memory assets) public override view returns (uint256[] memory, uint256[] memory) {\n        require(assets.length < 20, contractName.concat(': cannot have more than 20 items'));\n\n        uint256[] memory prices = new uint256[](assets.length);\n        uint256[] memory status = new uint256[](assets.length);\n        for (uint256 i = 0; i < assets.length; i++) {\n            (prices[i], status[i]) = getPriceAndStatus(assets[i]);\n        }\n        return (prices, status);\n    }\n}\n",
  "sourcePath": "/home/colin/Workspace/src/Mobius/contracts/contracts/AssetPrice.sol",
  "compiler": {
    "name": "solc",
    "version": "0.8.4+commit.c7e474f2.Emscripten.clang"
  },
  "schemaVersion": "3.4.3",
  "updatedAt": "2021-11-09T08:27:51.660Z",
  "devdoc": {
    "kind": "dev",
    "methods": {},
    "version": 1
  },
  "userdoc": {
    "kind": "user",
    "methods": {},
    "version": 1
  }
}