{
  "contractName": "Mobius",
  "abi": [
    {
      "inputs": [
        {
          "internalType": "contract IResolver",
          "name": "_resolver",
          "type": "address"
        },
        {
          "internalType": "bytes32",
          "name": "_nativeCoin",
          "type": "bytes32"
        }
      ],
      "stateMutability": "nonpayable",
      "type": "constructor"
    },
    {
      "anonymous": false,
      "inputs": [
        {
          "indexed": true,
          "internalType": "address",
          "name": "account",
          "type": "address"
        },
        {
          "indexed": true,
          "internalType": "bytes32",
          "name": "stake",
          "type": "bytes32"
        },
        {
          "indexed": true,
          "internalType": "bytes32",
          "name": "debtType",
          "type": "bytes32"
        },
        {
          "indexed": false,
          "internalType": "uint256",
          "name": "amount",
          "type": "uint256"
        }
      ],
      "name": "Burned",
      "type": "event"
    },
    {
      "anonymous": false,
      "inputs": [
        {
          "indexed": true,
          "internalType": "address",
          "name": "account",
          "type": "address"
        },
        {
          "indexed": true,
          "internalType": "bytes32",
          "name": "stake",
          "type": "bytes32"
        },
        {
          "indexed": true,
          "internalType": "address",
          "name": "recipient",
          "type": "address"
        },
        {
          "indexed": false,
          "internalType": "bytes32",
          "name": "debtType",
          "type": "bytes32"
        },
        {
          "indexed": false,
          "internalType": "uint256",
          "name": "amount",
          "type": "uint256"
        }
      ],
      "name": "Claimed",
      "type": "event"
    },
    {
      "anonymous": false,
      "inputs": [
        {
          "indexed": true,
          "internalType": "address",
          "name": "liquidator",
          "type": "address"
        },
        {
          "indexed": true,
          "internalType": "bytes32",
          "name": "stake",
          "type": "bytes32"
        },
        {
          "indexed": true,
          "internalType": "address",
          "name": "account",
          "type": "address"
        },
        {
          "indexed": false,
          "internalType": "bytes32",
          "name": "debtType",
          "type": "bytes32"
        },
        {
          "indexed": false,
          "internalType": "uint256",
          "name": "stakeAmount",
          "type": "uint256"
        },
        {
          "indexed": false,
          "internalType": "uint256",
          "name": "burnAmount",
          "type": "uint256"
        }
      ],
      "name": "Liquidated",
      "type": "event"
    },
    {
      "anonymous": false,
      "inputs": [
        {
          "indexed": true,
          "internalType": "address",
          "name": "previousValue",
          "type": "address"
        },
        {
          "indexed": true,
          "internalType": "address",
          "name": "newValue",
          "type": "address"
        }
      ],
      "name": "ManagerChanged",
      "type": "event"
    },
    {
      "anonymous": false,
      "inputs": [
        {
          "indexed": true,
          "internalType": "address",
          "name": "account",
          "type": "address"
        },
        {
          "indexed": true,
          "internalType": "bytes32",
          "name": "stake",
          "type": "bytes32"
        },
        {
          "indexed": false,
          "internalType": "uint256",
          "name": "stakeAmount",
          "type": "uint256"
        },
        {
          "indexed": false,
          "internalType": "uint256",
          "name": "issuerAmount",
          "type": "uint256"
        }
      ],
      "name": "Minted",
      "type": "event"
    },
    {
      "anonymous": false,
      "inputs": [
        {
          "indexed": true,
          "internalType": "address",
          "name": "previousValue",
          "type": "address"
        },
        {
          "indexed": true,
          "internalType": "address",
          "name": "newValue",
          "type": "address"
        }
      ],
      "name": "OwnerChanged",
      "type": "event"
    },
    {
      "anonymous": false,
      "inputs": [
        {
          "indexed": true,
          "internalType": "bool",
          "name": "previousValue",
          "type": "bool"
        },
        {
          "indexed": true,
          "internalType": "bool",
          "name": "newValue",
          "type": "bool"
        }
      ],
      "name": "PauseChanged",
      "type": "event"
    },
    {
      "anonymous": false,
      "inputs": [
        {
          "indexed": true,
          "internalType": "address",
          "name": "",
          "type": "address"
        },
        {
          "indexed": true,
          "internalType": "bytes32",
          "name": "stake",
          "type": "bytes32"
        },
        {
          "indexed": true,
          "internalType": "bytes32",
          "name": "synth",
          "type": "bytes32"
        },
        {
          "indexed": false,
          "internalType": "uint256",
          "name": "stakeAmount",
          "type": "uint256"
        },
        {
          "indexed": false,
          "internalType": "uint256",
          "name": "debtAmount",
          "type": "uint256"
        }
      ],
      "name": "Shorted",
      "type": "event"
    },
    {
      "anonymous": false,
      "inputs": [
        {
          "indexed": true,
          "internalType": "address",
          "name": "account",
          "type": "address"
        },
        {
          "indexed": true,
          "internalType": "bytes32",
          "name": "stake",
          "type": "bytes32"
        },
        {
          "indexed": true,
          "internalType": "bytes32",
          "name": "debtType",
          "type": "bytes32"
        },
        {
          "indexed": false,
          "internalType": "uint256",
          "name": "stakeAmount",
          "type": "uint256"
        }
      ],
      "name": "Staked",
      "type": "event"
    },
    {
      "anonymous": false,
      "inputs": [
        {
          "indexed": true,
          "internalType": "address",
          "name": "account",
          "type": "address"
        },
        {
          "indexed": true,
          "internalType": "bytes32",
          "name": "fromSynth",
          "type": "bytes32"
        },
        {
          "indexed": true,
          "internalType": "bytes32",
          "name": "toSynth",
          "type": "bytes32"
        },
        {
          "indexed": false,
          "internalType": "uint256",
          "name": "fromAmount",
          "type": "uint256"
        },
        {
          "indexed": false,
          "internalType": "uint256",
          "name": "toAmount",
          "type": "uint256"
        },
        {
          "indexed": false,
          "internalType": "uint256",
          "name": "tradingFee",
          "type": "uint256"
        },
        {
          "indexed": false,
          "internalType": "uint256",
          "name": "fromSynthPrice",
          "type": "uint256"
        },
        {
          "indexed": false,
          "internalType": "uint256",
          "name": "toSynthPirce",
          "type": "uint256"
        }
      ],
      "name": "Traded",
      "type": "event"
    },
    {
      "inputs": [
        {
          "internalType": "bytes32",
          "name": "name",
          "type": "bytes32"
        }
      ],
      "name": "addAddress",
      "outputs": [],
      "stateMutability": "nonpayable",
      "type": "function"
    },
    {
      "inputs": [],
      "name": "contractName",
      "outputs": [
        {
          "internalType": "string",
          "name": "",
          "type": "string"
        }
      ],
      "stateMutability": "view",
      "type": "function"
    },
    {
      "inputs": [
        {
          "internalType": "bytes32",
          "name": "name",
          "type": "bytes32"
        }
      ],
      "name": "getAddress",
      "outputs": [
        {
          "internalType": "address",
          "name": "",
          "type": "address"
        }
      ],
      "stateMutability": "view",
      "type": "function"
    },
    {
      "inputs": [],
      "name": "getImports",
      "outputs": [
        {
          "internalType": "bytes32[]",
          "name": "",
          "type": "bytes32[]"
        }
      ],
      "stateMutability": "view",
      "type": "function"
    },
    {
      "inputs": [],
      "name": "manager",
      "outputs": [
        {
          "internalType": "address",
          "name": "",
          "type": "address"
        }
      ],
      "stateMutability": "view",
      "type": "function"
    },
    {
      "inputs": [],
      "name": "nativeCoin",
      "outputs": [
        {
          "internalType": "bytes32",
          "name": "",
          "type": "bytes32"
        }
      ],
      "stateMutability": "view",
      "type": "function"
    },
    {
      "inputs": [],
      "name": "owner",
      "outputs": [
        {
          "internalType": "address",
          "name": "",
          "type": "address"
        }
      ],
      "stateMutability": "view",
      "type": "function"
    },
    {
      "inputs": [],
      "name": "paused",
      "outputs": [
        {
          "internalType": "bool",
          "name": "",
          "type": "bool"
        }
      ],
      "stateMutability": "view",
      "type": "function"
    },
    {
      "inputs": [],
      "name": "refreshCache",
      "outputs": [],
      "stateMutability": "nonpayable",
      "type": "function"
    },
    {
      "inputs": [],
      "name": "resolver",
      "outputs": [
        {
          "internalType": "contract IResolver",
          "name": "",
          "type": "address"
        }
      ],
      "stateMutability": "view",
      "type": "function"
    },
    {
      "inputs": [
        {
          "internalType": "address",
          "name": "_manager",
          "type": "address"
        }
      ],
      "name": "setManager",
      "outputs": [],
      "stateMutability": "nonpayable",
      "type": "function"
    },
    {
      "inputs": [
        {
          "internalType": "address",
          "name": "_owner",
          "type": "address"
        }
      ],
      "name": "setOwner",
      "outputs": [],
      "stateMutability": "nonpayable",
      "type": "function"
    },
    {
      "inputs": [
        {
          "internalType": "bool",
          "name": "_paused",
          "type": "bool"
        }
      ],
      "name": "setPaused",
      "outputs": [],
      "stateMutability": "nonpayable",
      "type": "function"
    },
    {
      "inputs": [
        {
          "internalType": "uint256",
          "name": "collateralRate",
          "type": "uint256"
        }
      ],
      "name": "mintFromCoin",
      "outputs": [
        {
          "internalType": "uint256",
          "name": "",
          "type": "uint256"
        }
      ],
      "stateMutability": "payable",
      "type": "function"
    },
    {
      "inputs": [
        {
          "internalType": "bytes32",
          "name": "stake",
          "type": "bytes32"
        },
        {
          "internalType": "uint256",
          "name": "amount",
          "type": "uint256"
        },
        {
          "internalType": "uint256",
          "name": "collateralRate",
          "type": "uint256"
        }
      ],
      "name": "mintFromToken",
      "outputs": [
        {
          "internalType": "uint256",
          "name": "",
          "type": "uint256"
        }
      ],
      "stateMutability": "nonpayable",
      "type": "function"
    },
    {
      "inputs": [
        {
          "internalType": "bytes32",
          "name": "stake",
          "type": "bytes32"
        },
        {
          "internalType": "uint256",
          "name": "amount",
          "type": "uint256"
        }
      ],
      "name": "mintFromPreviousStake",
      "outputs": [
        {
          "internalType": "bool",
          "name": "",
          "type": "bool"
        }
      ],
      "stateMutability": "nonpayable",
      "type": "function"
    },
    {
      "inputs": [
        {
          "internalType": "bytes32",
          "name": "debtType",
          "type": "bytes32"
        },
        {
          "internalType": "uint256",
          "name": "collateralRate",
          "type": "uint256"
        }
      ],
      "name": "shortFromCoin",
      "outputs": [
        {
          "internalType": "uint256",
          "name": "",
          "type": "uint256"
        }
      ],
      "stateMutability": "payable",
      "type": "function"
    },
    {
      "inputs": [
        {
          "internalType": "bytes32",
          "name": "stake",
          "type": "bytes32"
        },
        {
          "internalType": "uint256",
          "name": "amount",
          "type": "uint256"
        },
        {
          "internalType": "bytes32",
          "name": "debtType",
          "type": "bytes32"
        },
        {
          "internalType": "uint256",
          "name": "collateralRate",
          "type": "uint256"
        }
      ],
      "name": "shortFromToken",
      "outputs": [
        {
          "internalType": "uint256",
          "name": "",
          "type": "uint256"
        }
      ],
      "stateMutability": "nonpayable",
      "type": "function"
    },
    {
      "inputs": [
        {
          "internalType": "bytes32",
          "name": "stake",
          "type": "bytes32"
        },
        {
          "internalType": "bytes32",
          "name": "debtType",
          "type": "bytes32"
        },
        {
          "internalType": "uint256",
          "name": "amount",
          "type": "uint256"
        }
      ],
      "name": "shortFromPreviousStake",
      "outputs": [
        {
          "internalType": "bool",
          "name": "",
          "type": "bool"
        }
      ],
      "stateMutability": "nonpayable",
      "type": "function"
    },
    {
      "inputs": [
        {
          "internalType": "bytes32",
          "name": "stake",
          "type": "bytes32"
        },
        {
          "internalType": "bytes32",
          "name": "debtType",
          "type": "bytes32"
        },
        {
          "internalType": "uint256",
          "name": "amount",
          "type": "uint256"
        },
        {
          "internalType": "bool",
          "name": "withdraw",
          "type": "bool"
        }
      ],
      "name": "burn",
      "outputs": [
        {
          "internalType": "uint256",
          "name": "",
          "type": "uint256"
        },
        {
          "internalType": "uint256",
          "name": "",
          "type": "uint256"
        }
      ],
      "stateMutability": "nonpayable",
      "type": "function"
    },
    {
      "inputs": [
        {
          "internalType": "bytes32",
          "name": "stake",
          "type": "bytes32"
        },
        {
          "internalType": "bytes32",
          "name": "debtType",
          "type": "bytes32"
        },
        {
          "internalType": "uint256",
          "name": "amount",
          "type": "uint256"
        }
      ],
      "name": "claim",
      "outputs": [
        {
          "internalType": "bool",
          "name": "",
          "type": "bool"
        }
      ],
      "stateMutability": "nonpayable",
      "type": "function"
    },
    {
      "inputs": [
        {
          "internalType": "bytes32",
          "name": "debtType",
          "type": "bytes32"
        }
      ],
      "name": "stakeFromCoin",
      "outputs": [
        {
          "internalType": "bool",
          "name": "",
          "type": "bool"
        }
      ],
      "stateMutability": "payable",
      "type": "function"
    },
    {
      "inputs": [
        {
          "internalType": "bytes32",
          "name": "stake",
          "type": "bytes32"
        },
        {
          "internalType": "bytes32",
          "name": "debtType",
          "type": "bytes32"
        },
        {
          "internalType": "uint256",
          "name": "amount",
          "type": "uint256"
        }
      ],
      "name": "stakeFromToken",
      "outputs": [
        {
          "internalType": "bool",
          "name": "",
          "type": "bool"
        }
      ],
      "stateMutability": "nonpayable",
      "type": "function"
    },
    {
      "inputs": [
        {
          "internalType": "bytes32",
          "name": "fromSynth",
          "type": "bytes32"
        },
        {
          "internalType": "uint256",
          "name": "fromAmount",
          "type": "uint256"
        },
        {
          "internalType": "bytes32",
          "name": "toSynth",
          "type": "bytes32"
        }
      ],
      "name": "trade",
      "outputs": [
        {
          "internalType": "uint256",
          "name": "",
          "type": "uint256"
        }
      ],
      "stateMutability": "nonpayable",
      "type": "function"
    },
    {
      "inputs": [
        {
          "internalType": "bytes32",
          "name": "stake",
          "type": "bytes32"
        },
        {
          "internalType": "address",
          "name": "account",
          "type": "address"
        },
        {
          "internalType": "bytes32",
          "name": "debtType",
          "type": "bytes32"
        },
        {
          "internalType": "uint256",
          "name": "amount",
          "type": "uint256"
        }
      ],
      "name": "liquidate",
      "outputs": [
        {
          "internalType": "uint256",
          "name": "",
          "type": "uint256"
        }
      ],
      "stateMutability": "nonpayable",
      "type": "function"
    }
  ],
  "bytecode": "0x60806040523480156200001157600080fd5b506040516200455c3803806200455c83398101604081905262000034916200026c565b60018054336001600160a01b031991821681178355600280546001600160a81b03191660ff60a01b19909216919091179055600380549091166001600160a01b038516179055600655600781905562000096654d6f6269757360d01b62000158565b6040518061010001604052806529ba30b5b2b960d11b8152602001694173736574507269636560b01b81526020016653657474696e6760c81b81526020016524b9b9bab2b960d11b8152602001652a3930b232b960d11b81526020016a26b7b134bab9aa37b5b2b760a91b8152602001692634b8bab4b230ba37b960b11b81526020017f4c69717569646174696f6e46656541646472657373000000000000000000000081525060049060086200014f92919062000189565b505050620002e3565b604080516020808201849052825180830382018152918301909252805162000185926000920190620001d9565b5050565b828054828255906000526020600020908101928215620001c7579160200282015b82811115620001c7578251825591602001919060010190620001aa565b50620001d592915062000255565b5090565b828054620001e790620002a6565b90600052602060002090601f0160209004810192826200020b5760008555620001c7565b82601f106200022657805160ff1916838001178555620001c7565b82800160010185558215620001c75791820182811115620001c7578251825591602001919060010190620001aa565b5b80821115620001d5576000815560010162000256565b600080604083850312156200027f578182fd5b82516001600160a01b038116811462000296578283fd5b6020939093015192949293505050565b600181811c90821680620002bb57607f821691505b60208210811415620002dd57634e487b7160e01b600052602260045260246000fd5b50919050565b61426980620002f36000396000f3fe6080604052600436106101965760003560e01c8063612cd04b116100e1578063946a970e1161008a578063d5c2c8ca11610064578063d5c2c8ca146104c9578063dbf1207f146104de578063ea110b7d146104fe578063f9df4a6c1461051e57600080fd5b8063946a970e14610476578063b1636f3914610489578063d0ebdbe7146104a957600080fd5b80638aed3c32116100bb5780638aed3c32146104095780638da5cb5b1461042957806393709b301461045657600080fd5b8063612cd04b146103b457806375d0c0dc146103d4578063768ab0fc146103f657600080fd5b806316c38b3c116101435780632dba42731161011d5780632dba427314610335578063481c6a75146103555780635c975abb1461038257600080fd5b806316c38b3c146102af57806321f8a721146102cf578063271cdc681461031257600080fd5b80631325188f116101745780631325188f1461024257806313af403514610277578063167b78cd1461029957600080fd5b806304f3bcec1461019b57806305635bc4146101f2578063126779c214610220575b600080fd5b3480156101a757600080fd5b506003546101c89073ffffffffffffffffffffffffffffffffffffffff1681565b60405173ffffffffffffffffffffffffffffffffffffffff90911681526020015b60405180910390f35b3480156101fe57600080fd5b5061021261020d366004613d57565b61053e565b6040519081526020016101e9565b34801561022c57600080fd5b506102356106b0565b6040516101e99190613f25565b34801561024e57600080fd5b5061026261025d366004613d82565b610708565b604080519283526020830191909152016101e9565b34801561028357600080fd5b50610297610292366004613c5a565b610b54565b005b3480156102a557600080fd5b5061021260075481565b3480156102bb57600080fd5b506102976102ca366004613c92565b610d30565b3480156102db57600080fd5b506101c86102ea366004613d03565b60009081526005602052604090205473ffffffffffffffffffffffffffffffffffffffff1690565b610325610320366004613d03565b610e90565b60405190151581526020016101e9565b34801561034157600080fd5b50610325610350366004613d57565b6110b9565b34801561036157600080fd5b506002546101c89073ffffffffffffffffffffffffffffffffffffffff1681565b34801561038e57600080fd5b506002546103259074010000000000000000000000000000000000000000900460ff1681565b3480156103c057600080fd5b506102126103cf366004613de3565b6113db565b3480156103e057600080fd5b506103e96114fa565b6040516101e99190613f69565b610212610404366004613d03565b611588565b34801561041557600080fd5b50610297610424366004613d03565b611666565b34801561043557600080fd5b506001546101c89073ffffffffffffffffffffffffffffffffffffffff1681565b34801561046257600080fd5b50610325610471366004613dc2565b611829565b610212610484366004613dc2565b611a35565b34801561049557600080fd5b506103256104a4366004613d57565b611ad4565b3480156104b557600080fd5b506102976104c4366004613c5a565b611d89565b3480156104d557600080fd5b50610297611f48565b3480156104ea57600080fd5b506103256104f9366004613d57565b612141565b34801561050a57600080fd5b50610212610519366004613d1b565b612320565b34801561052a57600080fd5b50610212610539366004613d57565b612a56565b6000600260065414156105b2576040517f08c379a000000000000000000000000000000000000000000000000000000000815260206004820152601f60248201527f5265656e7472616e637947756172643a207265656e7472616e742063616c6c0060448201526064015b60405180910390fd5b6002600655600754841415610649576040517f08c379a000000000000000000000000000000000000000000000000000000000815260206004820152602f60248201527f4d6f626975733a204e617469766520436f696e2075736520226d696e7446726f60448201527f6d436f696e222066756e6374696f6e000000000000000000000000000000000060648201526084016105a9565b610674847f6d6f55534400000000000000000000000000000000000000000000000000000085612c8c565b60006106a285857f6d6f55534400000000000000000000000000000000000000000000000000000086612ef9565b600160065595945050505050565b606060048054806020026020016040519081016040528092919081815260200182805480156106fe57602002820191906000526020600020905b8154815260200190600101908083116106ea575b5050505050905090565b600080600260149054906101000a900460ff16156107ee6040518060400160405280600881526020017f3a207061757365640000000000000000000000000000000000000000000000008152506000805461076290614158565b80601f016020809104026020016040519081016040528092919081815260200182805461078e90614158565b80156107db5780601f106107b0576101008083540402835291602001916107db565b820191906000526020600020905b8154815290600101906020018083116107be57829003601f168201915b505050505061333490919063ffffffff16565b90610826576040517f08c379a00000000000000000000000000000000000000000000000000000000081526004016105a99190613f69565b5060026006541415610894576040517f08c379a000000000000000000000000000000000000000000000000000000000815260206004820152601f60248201527f5265656e7472616e637947756172643a207265656e7472616e742063616c6c0060448201526064016105a9565b600260065560006108a3613361565b6040517f52cc6269000000000000000000000000000000000000000000000000000000008152600481018990523360248201526044810188905273ffffffffffffffffffffffffffffffffffffffff91909116906352cc62699060640160206040518083038186803b15801561091857600080fd5b505afa15801561092c573d6000803e3d6000fd5b505050506040513d601f19601f820116820180604052508101906109509190613e14565b9050600061095c613391565b6040517f13b98d84000000000000000000000000000000000000000000000000000000008152600481018a90523360248201819052604482018a905260648201899052608482015273ffffffffffffffffffffffffffffffffffffffff91909116906313b98d849060a401602060405180830381600087803b1580156109e157600080fd5b505af11580156109f5573d6000803e3d6000fd5b505050506040513d601f19601f82011682018060405250810190610a199190613e14565b905060008515610aef57610a2b613361565b6040517f1154b219000000000000000000000000000000000000000000000000000000008152600481018b9052336024820152604481018a90526064810185905273ffffffffffffffffffffffffffffffffffffffff9190911690631154b2199060840160206040518083038186803b158015610aa757600080fd5b505afa158015610abb573d6000803e3d6000fd5b505050506040513d601f19601f82011682018060405250810190610adf9190613e14565b9050610aed898983336133bc565b505b87893373ffffffffffffffffffffffffffffffffffffffff167f741c87317c42567221d5db60c90a18c676c6ba3f8cfb4c3cf300ba8ad0a9adbe85604051610b3991815260200190565b60405180910390a46001600655909890975095505050505050565b60015460408051808201909152601981527f3a2063616c6c6572206973206e6f7420746865206f776e65720000000000000060208201526000805473ffffffffffffffffffffffffffffffffffffffff909316331492610bb992919061076290614158565b90610bf1576040517f08c379a00000000000000000000000000000000000000000000000000000000081526004016105a99190613f69565b50600073ffffffffffffffffffffffffffffffffffffffff168173ffffffffffffffffffffffffffffffffffffffff161415610c696040518060400160405280601f81526020017f3a206e6577206f776e657220697320746865207a65726f2061646472657373008152506000805461076290614158565b90610ca1576040517f08c379a00000000000000000000000000000000000000000000000000000000081526004016105a99190613f69565b5060015460405173ffffffffffffffffffffffffffffffffffffffff8084169216907fb532073b38c83145e3e5135377a08bf9aab55bc0fd7c1179cd4fb995d2a5159c90600090a3600180547fffffffffffffffffffffffff00000000000000000000000000000000000000001673ffffffffffffffffffffffffffffffffffffffff92909216919091179055565b60015460408051808201909152601981527f3a2063616c6c6572206973206e6f7420746865206f776e65720000000000000060208201526000805473ffffffffffffffffffffffffffffffffffffffff909316331492610d9592919061076290614158565b90610dcd576040517f08c379a00000000000000000000000000000000000000000000000000000000081526004016105a99190613f69565b5060025460ff740100000000000000000000000000000000000000009091041615158115151415610dfb5750565b6002546040518215159174010000000000000000000000000000000000000000900460ff161515907fac1664632d6278432aa05a6afc0aa83e5ea08e8df9a1436736daa5d6283211c090600090a3600280547fffffffffffffffffffffff00ffffffffffffffffffffffffffffffffffffffff1674010000000000000000000000000000000000000000831515021790555b50565b600060026006541415610eff576040517f08c379a000000000000000000000000000000000000000000000000000000000815260206004820152601f60248201527f5265656e7472616e637947756172643a207265656e7472616e742063616c6c0060448201526064016105a9565b60026006556000610f0e613391565b6007546040517f8018b8cb00000000000000000000000000000000000000000000000000000000815260048101919091523360248201526044810185905273ffffffffffffffffffffffffffffffffffffffff9190911690638018b8cb9060640160206040518083038186803b158015610f8757600080fd5b505afa158015610f9b573d6000803e3d6000fd5b505050506040513d601f19601f82011682018060405250810190610fbf9190613e14565b1161104c576040517f08c379a000000000000000000000000000000000000000000000000000000000815260206004820152602660248201527f4d6f626975733a2044656274206d75737420626520677265617465722074686160448201527f6e207a65726f000000000000000000000000000000000000000000000000000060648201526084016105a9565b6110596007548334612c8c565b816007543373ffffffffffffffffffffffffffffffffffffffff167fcee7446526e8c7f656298d54a07b7c1bec6225ac0acc4c454cb03b966237eb4f346040516110a591815260200190565b60405180910390a450600180600655919050565b6000600260149054906101000a900460ff16156111126040518060400160405280600881526020017f3a207061757365640000000000000000000000000000000000000000000000008152506000805461076290614158565b9061114a576040517f08c379a00000000000000000000000000000000000000000000000000000000081526004016105a99190613f69565b50600260065414156111b8576040517f08c379a000000000000000000000000000000000000000000000000000000000815260206004820152601f60248201527f5265656e7472616e637947756172643a207265656e7472616e742063616c6c0060448201526064016105a9565b600260065560006111c761354f565b6040517f39189e9b000000000000000000000000000000000000000000000000000000008152600481018790526024810186905273ffffffffffffffffffffffffffffffffffffffff91909116906339189e9b9060440160206040518083038186803b15801561123657600080fd5b505afa15801561124a573d6000803e3d6000fd5b505050506040513d601f19601f8201168201806040525081019061126e9190613e14565b9050600061127a613361565b6040517f1154b21900000000000000000000000000000000000000000000000000000000815260048101889052336024820152604481018790526064810184905273ffffffffffffffffffffffffffffffffffffffff9190911690631154b2199060840160206040518083038186803b1580156112f657600080fd5b505afa15801561130a573d6000803e3d6000fd5b505050506040513d601f19601f8201168201806040525081019061132e9190613e14565b9050838110156113c0576040517f08c379a000000000000000000000000000000000000000000000000000000000815260206004820152602960248201527f4d6f626975733a207472616e7366657220616d6f756e7420657863656564732060448201527f636c61696d61626c65000000000000000000000000000000000000000000000060648201526084016105a9565b6113cc868686336133bc565b60016006559695505050505050565b60006002600654141561144a576040517f08c379a000000000000000000000000000000000000000000000000000000000815260206004820152601f60248201527f5265656e7472616e637947756172643a207265656e7472616e742063616c6c0060448201526064016105a9565b60026006556007548514156114e1576040517f08c379a000000000000000000000000000000000000000000000000000000000815260206004820152603160248201527f4d6f626975733a204e617469766520436f696e20757365202273686f7274467260448201527f6f6d546f6b656e222066756e6374696f6e00000000000000000000000000000060648201526084016105a9565b6114ec858486612c8c565b60006113cc86868686612ef9565b6000805461150790614158565b80601f016020809104026020016040519081016040528092919081815260200182805461153390614158565b80156115805780601f1061155557610100808354040283529160200191611580565b820191906000526020600020905b81548152906001019060200180831161156357829003601f168201915b505050505081565b6000600260065414156115f7576040517f08c379a000000000000000000000000000000000000000000000000000000000815260206004820152601f60248201527f5265656e7472616e637947756172643a207265656e7472616e742063616c6c0060448201526064016105a9565b600260065560075461162a907f6d6f55534400000000000000000000000000000000000000000000000000000034612c8c565b600061165a600754347f6d6f55534400000000000000000000000000000000000000000000000000000086612ef9565b60016006559392505050565b60015460408051808201909152601981527f3a2063616c6c6572206973206e6f7420746865206f776e65720000000000000060208201526000805473ffffffffffffffffffffffffffffffffffffffff9093163314926116cb92919061076290614158565b90611703576040517f08c379a00000000000000000000000000000000000000000000000000000000081526004016105a99190613f69565b506003546040517f21f8a7210000000000000000000000000000000000000000000000000000000081526004810183905273ffffffffffffffffffffffffffffffffffffffff909116906321f8a7219060240160206040518083038186803b15801561176e57600080fd5b505afa158015611782573d6000803e3d6000fd5b505050506040513d601f19601f820116820180604052508101906117a69190613c76565b600082815260056020526040812080547fffffffffffffffffffffffff00000000000000000000000000000000000000001673ffffffffffffffffffffffffffffffffffffffff93909316929092179091556004805460018101825591527f8a35acfbc15ff81a39ae7d344fd709f28e8600b4aa8c65c6b64bfe7fe36bd19b0155565b6000600260149054906101000a900460ff16156118826040518060400160405280600881526020017f3a207061757365640000000000000000000000000000000000000000000000008152506000805461076290614158565b906118ba576040517f08c379a00000000000000000000000000000000000000000000000000000000081526004016105a99190613f69565b5060026006541415611928576040517f08c379a000000000000000000000000000000000000000000000000000000000815260206004820152601f60248201527f5265656e7472616e637947756172643a207265656e7472616e742063616c6c0060448201526064016105a9565b6002600655611935613391565b6040517fb036e64c000000000000000000000000000000000000000000000000000000008152600481018590523360248201527f6d6f55534400000000000000000000000000000000000000000000000000000060448201526064810184905273ffffffffffffffffffffffffffffffffffffffff919091169063b036e64c90608401600060405180830381600087803b1580156119d257600080fd5b505af11580156119e6573d6000803e3d6000fd5b50506040805160008152602081018690528693503392507f1eba155afe217abd462a2edbeadbfc49bcc9c9fb4ea11f28992964f6527c518e910160405180910390a35060018060065592915050565b600060026006541415611aa4576040517f08c379a000000000000000000000000000000000000000000000000000000000815260206004820152601f60248201527f5265656e7472616e637947756172643a207265656e7472616e742063616c6c0060448201526064016105a9565b6002600655600754611ab7908434612c8c565b6000611ac7600754348686612ef9565b6001600655949350505050565b600060026006541415611b43576040517f08c379a000000000000000000000000000000000000000000000000000000000815260206004820152601f60248201527f5265656e7472616e637947756172643a207265656e7472616e742063616c6c0060448201526064016105a9565b6002600655600754841415611bda576040517f08c379a000000000000000000000000000000000000000000000000000000000815260206004820152602f60248201527f4d6f626975733a204e617469766520436f696e2075736520226d696e7446726f60448201527f6d436f696e222066756e6374696f6e000000000000000000000000000000000060648201526084016105a9565b6000611be4613391565b6040517f8018b8cb000000000000000000000000000000000000000000000000000000008152600481018790523360248201526044810186905273ffffffffffffffffffffffffffffffffffffffff9190911690638018b8cb9060640160206040518083038186803b158015611c5957600080fd5b505afa158015611c6d573d6000803e3d6000fd5b505050506040513d601f19601f82011682018060405250810190611c919190613e14565b11611d1e576040517f08c379a000000000000000000000000000000000000000000000000000000000815260206004820152602660248201527f4d6f626975733a2044656274206d75737420626520677265617465722074686160448201527f6e207a65726f000000000000000000000000000000000000000000000000000060648201526084016105a9565b611d29848484612c8c565b82843373ffffffffffffffffffffffffffffffffffffffff167fcee7446526e8c7f656298d54a07b7c1bec6225ac0acc4c454cb03b966237eb4f85604051611d7391815260200190565b60405180910390a4506001806006559392505050565b60015460408051808201909152601981527f3a2063616c6c6572206973206e6f7420746865206f776e65720000000000000060208201526000805473ffffffffffffffffffffffffffffffffffffffff909316331492611dee92919061076290614158565b90611e26576040517f08c379a00000000000000000000000000000000000000000000000000000000081526004016105a99190613f69565b50600073ffffffffffffffffffffffffffffffffffffffff168173ffffffffffffffffffffffffffffffffffffffff161415611e81604051806060016040528060218152602001614213602191396000805461076290614158565b90611eb9576040517f08c379a00000000000000000000000000000000000000000000000000000000081526004016105a99190613f69565b5060025460405173ffffffffffffffffffffffffffffffffffffffff8084169216907f605c2dbf762e5f7d60a546d42e7205dcb1b011ebc62a61736a57c9089d3a435090600090a3600280547fffffffffffffffffffffffff00000000000000000000000000000000000000001673ffffffffffffffffffffffffffffffffffffffff92909216919091179055565b60015460408051808201909152601981527f3a2063616c6c6572206973206e6f7420746865206f776e65720000000000000060208201526000805473ffffffffffffffffffffffffffffffffffffffff909316331492611fad92919061076290614158565b90611fe5576040517f08c379a00000000000000000000000000000000000000000000000000000000081526004016105a99190613f69565b5060005b600454811015610e8d5760006004828154811061202f577f4e487b7100000000000000000000000000000000000000000000000000000000600052603260045260246000fd5b6000918252602090912001546003546040517f21f8a7210000000000000000000000000000000000000000000000000000000081526004810183905291925073ffffffffffffffffffffffffffffffffffffffff16906321f8a7219060240160206040518083038186803b1580156120a657600080fd5b505afa1580156120ba573d6000803e3d6000fd5b505050506040513d601f19601f820116820180604052508101906120de9190613c76565b60009182526005602052604090912080547fffffffffffffffffffffffff00000000000000000000000000000000000000001673ffffffffffffffffffffffffffffffffffffffff9092169190911790558061213981614193565b915050611fe9565b6000600260149054906101000a900460ff161561219a6040518060400160405280600881526020017f3a207061757365640000000000000000000000000000000000000000000000008152506000805461076290614158565b906121d2576040517f08c379a00000000000000000000000000000000000000000000000000000000081526004016105a99190613f69565b5060026006541415612240576040517f08c379a000000000000000000000000000000000000000000000000000000000815260206004820152601f60248201527f5265656e7472616e637947756172643a207265656e7472616e742063616c6c0060448201526064016105a9565b600260065561224d613391565b6040517fb036e64c00000000000000000000000000000000000000000000000000000000815260048101869052336024820152604481018590526064810184905273ffffffffffffffffffffffffffffffffffffffff919091169063b036e64c90608401600060405180830381600087803b1580156122cb57600080fd5b505af11580156122df573d6000803e3d6000fd5b505060408051600081526020810186905286935087925033917f71026f827618f4e4492b72e7f7fd8bf4a6c7db4b438f427a77850a178fd16f789101611d73565b6000600260149054906101000a900460ff16156123796040518060400160405280600881526020017f3a207061757365640000000000000000000000000000000000000000000000008152506000805461076290614158565b906123b1576040517f08c379a00000000000000000000000000000000000000000000000000000000081526004016105a99190613f69565b506002600654141561241f576040517f08c379a000000000000000000000000000000000000000000000000000000000815260206004820152601f60248201527f5265656e7472616e637947756172643a207265656e7472616e742063616c6c0060448201526064016105a9565b6002600655600061242e61357a565b6040517f9ff06bb40000000000000000000000000000000000000000000000000000000081526004810188905273ffffffffffffffffffffffffffffffffffffffff8781166024830152604482018790529190911690639ff06bb49060640160206040518083038186803b1580156124a557600080fd5b505afa1580156124b9573d6000803e3d6000fd5b505050506040513d601f19601f820116820180604052508101906124dd9190613e14565b90508281101561256f576040517f08c379a000000000000000000000000000000000000000000000000000000000815260206004820152602b60248201527f4d6f626975733a206c697175696461746520616d6f756e74206578636565647360448201527f206c697175696461626c6500000000000000000000000000000000000000000060648201526084016105a9565b60008061257a61357a565b6040517fd9745288000000000000000000000000000000000000000000000000000000008152600481018a9052602481018890526044810187905273ffffffffffffffffffffffffffffffffffffffff919091169063d974528890606401604080518083038186803b1580156125ef57600080fd5b505afa158015612603573d6000803e3d6000fd5b505050506040513d601f19601f820116820180604052508101906126279190613e2c565b909250905060006126388284613fba565b9050612642613391565b6040517f13b98d84000000000000000000000000000000000000000000000000000000008152600481018b905273ffffffffffffffffffffffffffffffffffffffff8a81166024830152604482018a90526064820189905233608483015291909116906313b98d849060a401602060405180830381600087803b1580156126c857600080fd5b505af11580156126dc573d6000803e3d6000fd5b505050506040513d601f19601f820116820180604052508101906127009190613e14565b50612709613361565b6040517fea71c363000000000000000000000000000000000000000000000000000000008152600481018b905273ffffffffffffffffffffffffffffffffffffffff8a81166024830152604482018a905260648201849052919091169063ea71c36390608401600060405180830381600087803b15801561278957600080fd5b505af115801561279d573d6000803e3d6000fd5b5050505060075489141561284d57604051339084156108fc029085906000818181858888f193505050501580156127d8573d6000803e3d6000fd5b506128027f4c69717569646174696f6e4665654164647265737300000000000000000000006135a1565b73ffffffffffffffffffffffffffffffffffffffff166108fc839081150290604051600060405180830381858888f19350505050158015612847573d6000803e3d6000fd5b506129e8565b60006128797f5374616b650000000000000000000000000000000000000000000000000000008b613705565b905061292c3361290e60125b8473ffffffffffffffffffffffffffffffffffffffff1663313ce5676040518163ffffffff1660e01b815260040160206040518083038186803b1580156128cb57600080fd5b505afa1580156128df573d6000803e3d6000fd5b505050506040513d601f19601f820116820180604052508101906129039190613e84565b88919060ff1661383f565b73ffffffffffffffffffffffffffffffffffffffff841691906138b4565b6129e66129587f4c69717569646174696f6e4665654164647265737300000000000000000000006135a1565b61290e60128473ffffffffffffffffffffffffffffffffffffffff1663313ce5676040518163ffffffff1660e01b815260040160206040518083038186803b1580156129a357600080fd5b505afa1580156129b7573d6000803e3d6000fd5b505050506040513d601f19601f820116820180604052508101906129db9190613e84565b87919060ff1661383f565b505b604080518881526020810183905290810187905273ffffffffffffffffffffffffffffffffffffffff8916908a9033907f13d9b11eea39efc96532ca38597be4e2da48096efc54c76721163b6bc1288f4f9060600160405180910390a4505060016006559695505050505050565b6000600260149054906101000a900460ff1615612aaf6040518060400160405280600881526020017f3a207061757365640000000000000000000000000000000000000000000000008152506000805461076290614158565b90612ae7576040517f08c379a00000000000000000000000000000000000000000000000000000000081526004016105a99190613f69565b5060026006541415612b55576040517f08c379a000000000000000000000000000000000000000000000000000000000815260206004820152601f60248201527f5265656e7472616e637947756172643a207265656e7472616e742063616c6c0060448201526064016105a9565b60026006556000808080612b6761398d565b6040517fb2d3aec9000000000000000000000000000000000000000000000000000000008152336004820152602481018a9052604481018990526064810188905273ffffffffffffffffffffffffffffffffffffffff919091169063b2d3aec990608401608060405180830381600087803b158015612be557600080fd5b505af1158015612bf9573d6000803e3d6000fd5b505050506040513d601f19601f82011682018060405250810190612c1d9190613e4f565b604080518c8152602081018690529081018490526060810183905260808101829052939750919550935091508690899033907f2dff74d4ff22afe46775738f294c317785cc0d87cff24600a649f10d00320c5b9060a00160405180910390a45050600160065550949350505050565b600260149054906101000a900460ff1615612ce36040518060400160405280600881526020017f3a207061757365640000000000000000000000000000000000000000000000008152506000805461076290614158565b90612d1b576040517f08c379a00000000000000000000000000000000000000000000000000000000081526004016105a99190613f69565b5060008111612dac576040517f08c379a000000000000000000000000000000000000000000000000000000000815260206004820152602860248201527f4d6f626975733a20616d6f756e74206d7573742062652067726561746572207460448201527f68616e207a65726f00000000000000000000000000000000000000000000000060648201526084016105a9565b6007548314612e56576000612de17f5374616b6500000000000000000000000000000000000000000000000000000085613705565b905080612e533330612e3460128573ffffffffffffffffffffffffffffffffffffffff1663313ce5676040518163ffffffff1660e01b815260040160206040518083038186803b1580156128cb57600080fd5b73ffffffffffffffffffffffffffffffffffffffff85169291906139b8565b50505b612e5e613361565b6040517ff6f8398200000000000000000000000000000000000000000000000000000000815260048101859052336024820152604481018490526064810183905273ffffffffffffffffffffffffffffffffffffffff919091169063f6f8398290608401600060405180830381600087803b158015612edc57600080fd5b505af1158015612ef0573d6000803e3d6000fd5b50505050505050565b6000600260149054906101000a900460ff1615612f526040518060400160405280600881526020017f3a207061757365640000000000000000000000000000000000000000000000008152506000805461076290614158565b90612f8a576040517f08c379a00000000000000000000000000000000000000000000000000000000081526004016105a99190613f69565b506000612f9561354f565b6040517f39189e9b000000000000000000000000000000000000000000000000000000008152600481018890526024810186905273ffffffffffffffffffffffffffffffffffffffff91909116906339189e9b9060440160206040518083038186803b15801561300457600080fd5b505afa158015613018573d6000803e3d6000fd5b505050506040513d601f19601f8201168201806040525081019061303c9190613e14565b9050600081116130a8576040517f08c379a000000000000000000000000000000000000000000000000000000000815260206004820152601f60248201527f4d6f626975733a204d697373696e6720436f6c6c61746572616c20526174650060448201526064016105a9565b80831015613112576040517f08c379a000000000000000000000000000000000000000000000000000000000815260206004820152601f60248201527f4d6f626975733a20436f6c6c61746572616c205261746520746f6f206c6f770060448201526064016105a9565b60008361311d613a1c565b73ffffffffffffffffffffffffffffffffffffffff166331d98b3f896040518263ffffffff1660e01b815260040161315791815260200190565b60206040518083038186803b15801561316f57600080fd5b505afa158015613183573d6000803e3d6000fd5b505050506040513d601f19601f820116820180604052508101906131a79190613e14565b6131b190886140f6565b6131bb9190613fd2565b905060006131c7613391565b6040517f28eb79de000000000000000000000000000000000000000000000000000000008152600481018a9052336024820152604481018890526064810184905273ffffffffffffffffffffffffffffffffffffffff91909116906328eb79de90608401602060405180830381600087803b15801561324557600080fd5b505af1158015613259573d6000803e3d6000fd5b505050506040513d601f19601f8201168201806040525081019061327d9190613e14565b90507f6d6f5553440000000000000000000000000000000000000000000000000000008614156132e9576040805188815260208101849052899133917f1eba155afe217abd462a2edbeadbfc49bcc9c9fb4ea11f28992964f6527c518e910160405180910390a3613329565b604080518881526020810183905287918a9133917f71026f827618f4e4492b72e7f7fd8bf4a6c7db4b438f427a77850a178fd16f78910160405180910390a45b979650505050505050565b60608282604051602001613349929190613ec1565b60405160208183030381529060405290505b92915050565b600061338c7f5374616b657200000000000000000000000000000000000000000000000000006135a1565b905090565b600061338c7f49737375657200000000000000000000000000000000000000000000000000006135a1565b60006133c6613361565b6040517fea71c3630000000000000000000000000000000000000000000000000000000081526004810187905273ffffffffffffffffffffffffffffffffffffffff84811660248301526044820187905260648201869052919091169063ea71c36390608401600060405180830381600087803b15801561344657600080fd5b505af115801561345a573d6000803e3d6000fd5b505050506007548514156134b15760405173ffffffffffffffffffffffffffffffffffffffff83169084156108fc029085906000818181858888f193505050501580156134ab573d6000803e3d6000fd5b506134ef565b60006134dd7f5374616b6500000000000000000000000000000000000000000000000000000087613705565b90506134ed8361290e6012612885565b505b604080518581526020810185905273ffffffffffffffffffffffffffffffffffffffff841691879183917f14c325b3a2f5a1a5c15aaa7d090a0c915b7739feff5268d9b49fdc688f783c9e910160405180910390a4506001949350505050565b600061338c7f53657474696e67000000000000000000000000000000000000000000000000006135a1565b600061338c7f4c697175696461746f72000000000000000000000000000000000000000000005b6000818152600560209081526040808320548151808301909252600a82527f3a204d697373696e67200000000000000000000000000000000000000000000092820192909252825473ffffffffffffffffffffffffffffffffffffffff9092161515916136a391908590859061361690614158565b80601f016020809104026020016040519081016040528092919081815260200182805461364290614158565b801561368f5780601f106136645761010080835404028352916020019161368f565b820191906000526020600020905b81548152906001019060200180831161367257829003601f168201915b5050505050613a479092919063ffffffff16565b906136db576040517f08c379a00000000000000000000000000000000000000000000000000000000081526004016105a99190613f69565b505060009081526005602052604090205473ffffffffffffffffffffffffffffffffffffffff1690565b6003546040517f659b9d7000000000000000000000000000000000000000000000000000000000815260048101849052602481018390526000918291829173ffffffffffffffffffffffffffffffffffffffff169063659b9d7090604401604080518083038186803b15801561377a57600080fd5b505afa15801561378e573d6000803e3d6000fd5b505050506040513d601f19601f820116820180604052508101906137b29190613cca565b91509150816137fe6040518060400160405280601681526020017f3a204d697373696e6720417373657420546f6b656e2000000000000000000000815250866000805461361690614158565b90613836576040517f08c379a00000000000000000000000000000000000000000000000000000000081526004016105a99190613f69565b50949350505050565b60008361384e575060006138ad565b8183141561385d5750826138ad565b8183101561388b5761386f8383614115565b61387a90600a61404e565b61388490856140f6565b90506138ad565b6138958284614115565b6138a090600a61404e565b6138aa9085613fd2565b90505b9392505050565b60405173ffffffffffffffffffffffffffffffffffffffff83166024820152604481018290526139889084907fa9059cbb00000000000000000000000000000000000000000000000000000000906064015b604080517fffffffffffffffffffffffffffffffffffffffffffffffffffffffffffffffe08184030181529190526020810180517bffffffffffffffffffffffffffffffffffffffffffffffffffffffff167fffffffff0000000000000000000000000000000000000000000000000000000090931692909217909152613a76565b505050565b600061338c7f54726164657200000000000000000000000000000000000000000000000000006135a1565b60405173ffffffffffffffffffffffffffffffffffffffff80851660248301528316604482015260648101829052613a169085907f23b872dd0000000000000000000000000000000000000000000000000000000090608401613906565b50505050565b600061338c7f41737365745072696365000000000000000000000000000000000000000000006135a1565b6060838383604051602001613a5e93929190613ef0565b60405160208183030381529060405290509392505050565b6000613ad8826040518060400160405280602081526020017f5361666545524332303a206c6f772d6c6576656c2063616c6c206661696c65648152508573ffffffffffffffffffffffffffffffffffffffff16613b829092919063ffffffff16565b8051909150156139885780806020019051810190613af69190613cae565b613988576040517f08c379a000000000000000000000000000000000000000000000000000000000815260206004820152602a60248201527f5361666545524332303a204552433230206f7065726174696f6e20646964206e60448201527f6f7420737563636565640000000000000000000000000000000000000000000060648201526084016105a9565b60606000808573ffffffffffffffffffffffffffffffffffffffff1685604051613bac9190613ea5565b6000604051808303816000865af19150503d8060008114613be9576040519150601f19603f3d011682016040523d82523d6000602084013e613bee565b606091505b5091509150613bfe828286613c08565b9695505050505050565b60608315613c175750816138ad565b8251613c5157816040517f08c379a00000000000000000000000000000000000000000000000000000000081526004016105a99190613f69565b82518084602001fd5b600060208284031215613c6b578081fd5b81356138ad816141e2565b600060208284031215613c87578081fd5b81516138ad816141e2565b600060208284031215613ca3578081fd5b81356138ad81614204565b600060208284031215613cbf578081fd5b81516138ad81614204565b60008060408385031215613cdc578081fd5b8251613ce781614204565b6020840151909250613cf8816141e2565b809150509250929050565b600060208284031215613d14578081fd5b5035919050565b60008060008060808587031215613d30578182fd5b843593506020850135613d42816141e2565b93969395505050506040820135916060013590565b600080600060608486031215613d6b578283fd5b505081359360208301359350604090920135919050565b60008060008060808587031215613d97578384fd5b8435935060208501359250604085013591506060850135613db781614204565b939692955090935050565b60008060408385031215613dd4578182fd5b50508035926020909101359150565b60008060008060808587031215613df8578384fd5b5050823594602084013594506040840135936060013592509050565b600060208284031215613e25578081fd5b5051919050565b60008060408385031215613e3e578182fd5b505080516020909101519092909150565b60008060008060808587031215613e64578182fd5b505082516020840151604085015160609095015191969095509092509050565b600060208284031215613e95578081fd5b815160ff811681146138ad578182fd5b60008251613eb781846020870161412c565b9190910192915050565b60008351613ed381846020880161412c565b835190830190613ee781836020880161412c565b01949350505050565b60008451613f0281846020890161412c565b845190830190613f1681836020890161412c565b01928352505060200192915050565b6020808252825182820181905260009190848201906040850190845b81811015613f5d57835183529284019291840191600101613f41565b50909695505050505050565b6020815260008251806020840152613f8881604085016020870161412c565b601f017fffffffffffffffffffffffffffffffffffffffffffffffffffffffffffffffe0169190910160400192915050565b60008219821115613fcd57613fcd6141cc565b500190565b600082614006577f4e487b710000000000000000000000000000000000000000000000000000000081526012600452602481fd5b500490565b600181815b8085111561404657816000190482111561402c5761402c6141cc565b8085161561403957918102915b93841c9390800290614010565b509250929050565b60006138ad83836000826140645750600161335b565b816140715750600061335b565b81600181146140875760028114614091576140ad565b600191505061335b565b60ff8411156140a2576140a26141cc565b50506001821b61335b565b5060208310610133831016604e8410600b84101617156140d0575081810a61335b565b6140da838361400b565b80600019048211156140ee576140ee6141cc565b029392505050565b6000816000190483118215151615614110576141106141cc565b500290565b600082821015614127576141276141cc565b500390565b60005b8381101561414757818101518382015260200161412f565b83811115613a165750506000910152565b600181811c9082168061416c57607f821691505b6020821081141561418d57634e487b7160e01b600052602260045260246000fd5b50919050565b60007fffffffffffffffffffffffffffffffffffffffffffffffffffffffffffffffff8214156141c5576141c56141cc565b5060010190565b634e487b7160e01b600052601160045260246000fd5b73ffffffffffffffffffffffffffffffffffffffff81168114610e8d57600080fd5b8015158114610e8d57600080fdfe3a206e6577206d616e6167657220697320746865207a65726f2061646472657373a2646970667358221220b3524b0da22fdba1669d2ae5e989802d20ee7329ae04bc190f61ba6071e605c464736f6c63430008040033",
  "immutableReferences": {},
  "source": "// SPDX-License-Identifier: MIT\npragma solidity =0.8.4;\n\nimport './lib/PreciseMath.sol';\nimport './lib/SafeERC20.sol';\nimport './base/Pausable.sol';\nimport './base/Importable.sol';\nimport './interfaces/IMobius.sol';\nimport './interfaces/IStaker.sol';\nimport './interfaces/ITrader.sol';\nimport './interfaces/IAssetPrice.sol';\nimport './interfaces/ISetting.sol';\nimport './interfaces/IIssuer.sol';\nimport './interfaces/ILiquidator.sol';\nimport './interfaces/IERC20.sol';\nimport \"./lib/ReentrancyGuard.sol\";\n\ncontract Mobius is Pausable, Importable, IMobius, ReentrancyGuard{\n    using PreciseMath for uint256;\n    using SafeERC20 for IERC20;\n\n    bytes32 public override nativeCoin;\n\n    constructor(IResolver _resolver, bytes32 _nativeCoin) Importable(_resolver) {\n        nativeCoin = _nativeCoin;\n        setContractName(CONTRACT_MOBIUS);\n        imports = [\n            CONTRACT_STAKER,\n            CONTRACT_ASSET_PRICE,\n            CONTRACT_SETTING,\n            CONTRACT_ISSUER,\n            CONTRACT_TRADER,\n            CONTRACT_MOBIUS_TOKEN,\n            CONTRACT_LIQUIDATOR,\n            LIQUIDATION_FEE_ADDRESS\n        ];\n    }\n\n    function Staker() private view returns (IStaker) {\n        return IStaker(requireAddress(CONTRACT_STAKER));\n    }\n\n    function AssetPrice() private view returns (IAssetPrice) {\n        return IAssetPrice(requireAddress(CONTRACT_ASSET_PRICE));\n    }\n\n    function Setting() private view returns (ISetting) {\n        return ISetting(requireAddress(CONTRACT_SETTING));\n    }\n\n    function Issuer() private view returns (IIssuer) {\n        return IIssuer(requireAddress(CONTRACT_ISSUER));\n    }\n\n    function Trader() private view returns (ITrader) {\n        return ITrader(requireAddress(CONTRACT_TRADER));\n    }\n\n    function Liquidator() private view returns (ILiquidator) {\n        return ILiquidator(requireAddress(CONTRACT_LIQUIDATOR));\n    }\n\n    function mintFromCoin(uint256 collateralRate) external override payable nonReentrant returns (uint256) {\n        _stake(nativeCoin, USD, msg.value);\n        uint256 minted = _mint(nativeCoin, msg.value, USD, collateralRate);\n        return minted;\n    }\n\n    function mintFromToken(bytes32 stake, uint256 amount, uint256 collateralRate) external override nonReentrant returns (uint256) {\n        require(stake != nativeCoin, 'Mobius: Native Coin use \"mintFromCoin\" function');\n\n        _stake(stake, USD, amount);\n        uint256 minted = _mint(stake, amount, USD, collateralRate);\n        return minted;\n    }\n\n    function mintFromPreviousStake(bytes32 stake, uint256 amount) external override notPaused nonReentrant returns (bool) {\n        Issuer().issueDebtWithPreviousStake(stake, msg.sender, USD, amount);\n        emit Minted(msg.sender, stake, 0, amount);\n        return true;\n    }\n\n    function shortFromCoin(bytes32 debtType, uint256 collateralRate) external override payable nonReentrant returns (uint256) {\n        _stake(nativeCoin, debtType, msg.value);\n        uint256 minted = _mint(nativeCoin, msg.value, debtType, collateralRate);\n        return minted;\n    }\n\n    function shortFromToken(bytes32 stake, uint256 amount, bytes32 debtType, uint256 collateralRate) external override nonReentrant returns (uint256) {\n        require(stake != nativeCoin, 'Mobius: Native Coin use \"shortFromToken\" function');\n\n        _stake(stake, debtType, amount);\n        uint256 minted = _mint(stake, amount, debtType, collateralRate);\n        return minted;\n    }\n\n    function shortFromPreviousStake(bytes32 stake, bytes32 debtType, uint256 amount) external override notPaused nonReentrant returns (bool) {\n        Issuer().issueDebtWithPreviousStake(stake, msg.sender, debtType, amount);\n        emit Shorted(msg.sender, stake, debtType, 0, amount);\n        return true;\n    }\n\n    function _mint(\n        bytes32 stake,\n        uint256 amount,\n        bytes32 debtType,\n        uint256 collateralRate\n    ) internal notPaused returns (uint256){\n        uint256 safeCollateralRate = Setting().getCollateralRate(stake, debtType);\n        require(safeCollateralRate > 0, 'Mobius: Missing Collateral Rate');\n        require(collateralRate >= safeCollateralRate, 'Mobius: Collateral Rate too low');\n\n        uint256 issueAmountInUSD = amount * (AssetPrice().getPrice(stake)) / (collateralRate);\n        uint256 issueDebtInSynth = Issuer().issueDebt(stake, msg.sender, debtType, issueAmountInUSD);\n\n        if (debtType == USD) {\n            emit Minted(msg.sender, stake, amount, issueAmountInUSD);\n        } else {\n            emit Shorted(msg.sender, stake, debtType, amount, issueDebtInSynth);\n        }\n        return issueDebtInSynth;\n    }\n\n    function burn(bytes32 stake, bytes32 debtType, uint256 amount, bool withdraw) external override notPaused nonReentrant returns (uint256, uint256) {\n        uint256 beforeCollateralRate = Staker().getCollateralRate(stake, msg.sender, debtType);\n        uint256 burnAmount = Issuer().burnDebt(stake, msg.sender, debtType, amount, msg.sender);\n\n        uint256 claimable = 0;\n        if (withdraw) {\n            claimable = Staker().getClaimable(stake, msg.sender, debtType, beforeCollateralRate);\n            _claim(stake, debtType, claimable, msg.sender);\n        }\n\n        emit Burned(msg.sender, stake, debtType, burnAmount);\n        return (burnAmount, claimable);\n    }\n\n    function claim(\n        bytes32 stake,\n        bytes32 debtType,\n        uint256 amount\n    ) external override notPaused nonReentrant returns (bool) {\n        uint256 safeCollateralRate = Setting().getCollateralRate(stake, debtType);\n        uint256 claimable = Staker().getClaimable(stake, msg.sender, debtType, safeCollateralRate);\n        require(claimable >= amount, 'Mobius: transfer amount exceeds claimable');\n        return _claim(stake, debtType, amount, msg.sender);\n    }\n\n    function _claim(        \n        bytes32 stake,\n        bytes32 debtType,\n        uint256 amount,\n        address addr\n    ) internal returns (bool) {\n        Staker().unstake(stake, addr, debtType, amount);\n\n        if (stake == nativeCoin) {\n            payable(addr).transfer(amount);\n        } else {\n            IERC20 token = IERC20(requireAsset('Stake', stake));\n            token.safeTransfer(addr, amount.decimalsTo(PreciseMath.DECIMALS(), token.decimals()));\n        }\n        emit Claimed(addr, stake, addr, debtType, amount);\n        return true;\n    }\n\n    function stakeFromCoin(bytes32 debtType) external override payable nonReentrant returns (bool) {\n        require(Issuer().getDebt(nativeCoin, msg.sender, debtType) > 0, 'Mobius: Debt must be greater than zero');\n\n        _stake(nativeCoin, debtType, msg.value);\n        emit Staked(msg.sender, nativeCoin, debtType, msg.value);\n        return true;\n    }\n\n    function stakeFromToken(bytes32 stake, bytes32 debtType, uint256 amount) external override nonReentrant returns (bool) {\n        require(stake != nativeCoin, 'Mobius: Native Coin use \"mintFromCoin\" function');\n        require(Issuer().getDebt(stake, msg.sender, debtType) > 0, 'Mobius: Debt must be greater than zero');\n\n        _stake(stake, debtType, amount);\n        emit Staked(msg.sender, stake, debtType, amount);\n        return true;\n    }\n\n    function _stake(\n        bytes32 stake,\n        bytes32 debtType,\n        uint256 amount\n    ) private notPaused {\n        require(amount > 0, 'Mobius: amount must be greater than zero');\n\n        if (stake != nativeCoin) {\n            address stakeAddress = requireAsset('Stake', stake);\n            IERC20 token = IERC20(stakeAddress);\n            token.safeTransferFrom(\n                msg.sender,\n                address(this),\n                amount.decimalsTo(PreciseMath.DECIMALS(), token.decimals())\n            );\n        }\n\n        Staker().stake(stake, msg.sender, debtType, amount);\n    }\n\n    function trade(\n        bytes32 fromSynth,\n        uint256 fromAmount,\n        bytes32 toSynth\n    ) external override notPaused nonReentrant returns (uint256) {\n        (uint256 tradingAmount, uint256 tradingFee, uint256 fromSynthPrice, uint256 toSynthPirce) =\n            Trader().trade(msg.sender, fromSynth, fromAmount, toSynth);\n\n        emit Traded(\n            msg.sender,\n            fromSynth,\n            toSynth,\n            fromAmount,\n            tradingAmount,\n            tradingFee,\n            fromSynthPrice,\n            toSynthPirce\n        );\n        return tradingAmount;\n    }\n\n    function liquidate(\n        bytes32 stake,\n        address account,\n        bytes32 debtType,\n        uint256 amount\n    ) external override notPaused nonReentrant returns (uint256) {\n        uint256 liquidable = Liquidator().getLiquidable(stake, account, debtType);\n        require(liquidable >= amount, 'Mobius: liquidate amount exceeds liquidable');\n \n        (uint256 toPayer,uint256 toPlat) = Liquidator().getUnstakable(stake, debtType, amount);\n        uint256 unstakable = toPayer + toPlat;\n        Issuer().burnDebt(stake, account, debtType, amount, msg.sender);\n        Staker().unstake(stake, account, debtType, unstakable);\n\n        if (stake == nativeCoin) {\n            payable(msg.sender).transfer(toPayer);\n            payable(requireAddress(LIQUIDATION_FEE_ADDRESS)).transfer(toPlat);\n        } else {\n            IERC20 token = IERC20(requireAsset('Stake', stake));\n            token.safeTransfer(msg.sender, toPayer.decimalsTo(PreciseMath.DECIMALS(), token.decimals()));\n            token.safeTransfer(requireAddress(LIQUIDATION_FEE_ADDRESS), toPlat.decimalsTo(PreciseMath.DECIMALS(), token.decimals()));\n        }\n\n        emit Liquidated(msg.sender, stake, account, debtType, unstakable, amount);\n        return toPayer;\n    }\n}\n",
  "sourcePath": "/home/colin/Workspace/src/Mobius/contracts/contracts/Mobius.sol",
  "compiler": {
    "name": "solc",
    "version": "0.8.4+commit.c7e474f2.Emscripten.clang"
  },
  "schemaVersion": "3.4.3",
  "updatedAt": "2021-11-09T08:27:51.699Z",
  "devdoc": {
    "kind": "dev",
    "methods": {},
    "version": 1
  },
  "userdoc": {
    "kind": "user",
    "methods": {},
    "version": 1
  }
}