{
  "contractName": "Resolver",
  "abi": [
    {
      "inputs": [],
      "stateMutability": "nonpayable",
      "type": "constructor"
    },
    {
      "anonymous": false,
      "inputs": [
        {
          "indexed": true,
          "internalType": "bytes32",
          "name": "name",
          "type": "bytes32"
        },
        {
          "indexed": true,
          "internalType": "address",
          "name": "previousValue",
          "type": "address"
        },
        {
          "indexed": true,
          "internalType": "address",
          "name": "newValue",
          "type": "address"
        }
      ],
      "name": "AddressChanged",
      "type": "event"
    },
    {
      "anonymous": false,
      "inputs": [
        {
          "indexed": true,
          "internalType": "bytes32",
          "name": "assetType",
          "type": "bytes32"
        },
        {
          "indexed": true,
          "internalType": "bytes32",
          "name": "assetName",
          "type": "bytes32"
        },
        {
          "indexed": false,
          "internalType": "address",
          "name": "previousValue",
          "type": "address"
        },
        {
          "indexed": false,
          "internalType": "address",
          "name": "newValue",
          "type": "address"
        }
      ],
      "name": "AssetChanged",
      "type": "event"
    },
    {
      "anonymous": false,
      "inputs": [
        {
          "indexed": true,
          "internalType": "address",
          "name": "previousValue",
          "type": "address"
        },
        {
          "indexed": true,
          "internalType": "address",
          "name": "newValue",
          "type": "address"
        }
      ],
      "name": "ManagerChanged",
      "type": "event"
    },
    {
      "anonymous": false,
      "inputs": [
        {
          "indexed": true,
          "internalType": "bytes32",
          "name": "name",
          "type": "bytes32"
        },
        {
          "indexed": true,
          "internalType": "address",
          "name": "previousValue",
          "type": "address"
        },
        {
          "indexed": true,
          "internalType": "address",
          "name": "newValue",
          "type": "address"
        }
      ],
      "name": "MobiusTokenMigrated",
      "type": "event"
    },
    {
      "anonymous": false,
      "inputs": [
        {
          "indexed": true,
          "internalType": "address",
          "name": "previousValue",
          "type": "address"
        },
        {
          "indexed": true,
          "internalType": "address",
          "name": "newValue",
          "type": "address"
        }
      ],
      "name": "OwnerChanged",
      "type": "event"
    },
    {
      "inputs": [],
      "name": "contractName",
      "outputs": [
        {
          "internalType": "string",
          "name": "",
          "type": "string"
        }
      ],
      "stateMutability": "view",
      "type": "function"
    },
    {
      "inputs": [],
      "name": "manager",
      "outputs": [
        {
          "internalType": "address",
          "name": "",
          "type": "address"
        }
      ],
      "stateMutability": "view",
      "type": "function"
    },
    {
      "inputs": [],
      "name": "owner",
      "outputs": [
        {
          "internalType": "address",
          "name": "",
          "type": "address"
        }
      ],
      "stateMutability": "view",
      "type": "function"
    },
    {
      "inputs": [
        {
          "internalType": "address",
          "name": "_manager",
          "type": "address"
        }
      ],
      "name": "setManager",
      "outputs": [],
      "stateMutability": "nonpayable",
      "type": "function"
    },
    {
      "inputs": [
        {
          "internalType": "address",
          "name": "_owner",
          "type": "address"
        }
      ],
      "name": "setOwner",
      "outputs": [],
      "stateMutability": "nonpayable",
      "type": "function"
    },
    {
      "inputs": [
        {
          "internalType": "bytes32",
          "name": "assetType",
          "type": "bytes32"
        },
        {
          "internalType": "bytes32",
          "name": "assetName",
          "type": "bytes32"
        },
        {
          "internalType": "address",
          "name": "assetAddress",
          "type": "address"
        }
      ],
      "name": "addAsset",
      "outputs": [],
      "stateMutability": "nonpayable",
      "type": "function"
    },
    {
      "inputs": [
        {
          "internalType": "bytes32",
          "name": "assetType",
          "type": "bytes32"
        },
        {
          "internalType": "bytes32",
          "name": "assetName",
          "type": "bytes32"
        }
      ],
      "name": "removeAsset",
      "outputs": [],
      "stateMutability": "nonpayable",
      "type": "function"
    },
    {
      "inputs": [
        {
          "internalType": "bytes32",
          "name": "assetType",
          "type": "bytes32"
        },
        {
          "internalType": "bytes32",
          "name": "assetName",
          "type": "bytes32"
        }
      ],
      "name": "getAsset",
      "outputs": [
        {
          "internalType": "bool",
          "name": "",
          "type": "bool"
        },
        {
          "internalType": "address",
          "name": "",
          "type": "address"
        }
      ],
      "stateMutability": "view",
      "type": "function"
    },
    {
      "inputs": [
        {
          "internalType": "bytes32",
          "name": "assetType",
          "type": "bytes32"
        }
      ],
      "name": "getAssets",
      "outputs": [
        {
          "internalType": "bytes32[]",
          "name": "",
          "type": "bytes32[]"
        }
      ],
      "stateMutability": "view",
      "type": "function"
    },
    {
      "inputs": [
        {
          "internalType": "bytes32[]",
          "name": "name",
          "type": "bytes32[]"
        },
        {
          "internalType": "address[]",
          "name": "value",
          "type": "address[]"
        }
      ],
      "name": "importAddress",
      "outputs": [],
      "stateMutability": "nonpayable",
      "type": "function"
    },
    {
      "inputs": [
        {
          "internalType": "bytes32",
          "name": "name",
          "type": "bytes32"
        },
        {
          "internalType": "address",
          "name": "value",
          "type": "address"
        }
      ],
      "name": "setAddress",
      "outputs": [],
      "stateMutability": "nonpayable",
      "type": "function"
    },
    {
      "inputs": [
        {
          "internalType": "bytes32",
          "name": "name",
          "type": "bytes32"
        }
      ],
      "name": "getAddress",
      "outputs": [
        {
          "internalType": "address",
          "name": "",
          "type": "address"
        }
      ],
      "stateMutability": "view",
      "type": "function"
    }
  ],
  "bytecode": "0x60806040523480156200001157600080fd5b5060018054336001600160a01b031991821681179092556002805490911690911790556200004a672932b9b7b63b32b960c11b62000050565b62000164565b60408051602080820184905282518083038201815291830190925280516200007d92600092019062000081565b5050565b8280546200008f9062000127565b90600052602060002090601f016020900481019282620000b35760008555620000fe565b82601f10620000ce57805160ff1916838001178555620000fe565b82800160010185558215620000fe579182015b82811115620000fe578251825591602001919060010190620000e1565b506200010c92915062000110565b5090565b5b808211156200010c576000815560010162000111565b600181811c908216806200013c57607f821691505b602082108114156200015e57634e487b7160e01b600052602260045260246000fd5b50919050565b61168780620001746000396000f3fe608060405234801561001057600080fd5b50600436106100d45760003560e01c80638da5cb5b11610081578063a418c84d1161005b578063a418c84d14610247578063ca446dd91461025a578063d0ebdbe71461026d57600080fd5b80638da5cb5b146101f45780639dddb54d146102145780639de567f01461022757600080fd5b8063481c6a75116100b2578063481c6a7514610180578063659b9d70146101a057806375d0c0dc146101df57600080fd5b806313af4035146100d95780631ebd0da2146100ee57806321f8a72114610101575b600080fd5b6100ec6100e7366004611359565b610280565b005b6100ec6100fc366004611446565b6104f1565b61015661010f366004611403565b60009081527f7d9a42d98474a1d02586a0326a45710951e3684f92c0ff078081324e45c151c1602052604090205473ffffffffffffffffffffffffffffffffffffffff1690565b60405173ffffffffffffffffffffffffffffffffffffffff90911681526020015b60405180910390f35b6002546101569073ffffffffffffffffffffffffffffffffffffffff1681565b6101b36101ae366004611446565b610671565b60408051921515835273ffffffffffffffffffffffffffffffffffffffff909116602083015201610177565b6101e76106cc565b604051610177919061150e565b6001546101569073ffffffffffffffffffffffffffffffffffffffff1681565b6100ec61022236600461137a565b61075a565b61023a610235366004611403565b61093c565b60405161017791906114ca565b6100ec610255366004611467565b61099e565b6100ec61026836600461141b565b610b3a565b6100ec61027b366004611359565b610cc8565b60015460408051808201909152601981527f3a2063616c6c6572206973206e6f7420746865206f776e65720000000000000060208201526000805473ffffffffffffffffffffffffffffffffffffffff9093163314926103719291906102e5906115a6565b80601f0160208091040260200160405190810160405280929190818152602001828054610311906115a6565b801561035e5780601f106103335761010080835404028352916020019161035e565b820191906000526020600020905b81548152906001019060200180831161034157829003601f168201915b5050505050610e8790919063ffffffff16565b906103b2576040517f08c379a00000000000000000000000000000000000000000000000000000000081526004016103a9919061150e565b60405180910390fd5b50600073ffffffffffffffffffffffffffffffffffffffff168173ffffffffffffffffffffffffffffffffffffffff16141561042a6040518060400160405280601f81526020017f3a206e6577206f776e657220697320746865207a65726f206164647265737300815250600080546102e5906115a6565b90610462576040517f08c379a00000000000000000000000000000000000000000000000000000000081526004016103a9919061150e565b5060015460405173ffffffffffffffffffffffffffffffffffffffff8084169216907fb532073b38c83145e3e5135377a08bf9aab55bc0fd7c1179cd4fb995d2a5159c90600090a3600180547fffffffffffffffffffffffff00000000000000000000000000000000000000001673ffffffffffffffffffffffffffffffffffffffff92909216919091179055565b60015460408051808201909152601981527f3a2063616c6c6572206973206e6f7420746865206f776e65720000000000000060208201526000805473ffffffffffffffffffffffffffffffffffffffff9093163314926105569291906102e5906115a6565b9061058e576040517f08c379a00000000000000000000000000000000000000000000000000000000081526004016103a9919061150e565b5060008281526004602052604090206105a79082610eb3565b80827ffef1edfd9777499fcd47240a7d925f53dd6d43a4ec647fd5b2e6ff23036f4d3b6106028585600091825260036020908152604080842092845291905290205473ffffffffffffffffffffffffffffffffffffffff1690565b6040805173ffffffffffffffffffffffffffffffffffffffff9092168252600060208301520160405180910390a36000918252600360209081526040808420928452919052902080547fffffffffffffffffffffffff0000000000000000000000000000000000000000169055565b60008281526004602052604081208190819061068d9085610fc1565b50600086815260036020908152604080832088845290915290205490935073ffffffffffffffffffffffffffffffffffffffff169150505b9250929050565b600080546106d9906115a6565b80601f0160208091040260200160405190810160405280929190818152602001828054610705906115a6565b80156107525780601f1061072757610100808354040283529160200191610752565b820191906000526020600020905b81548152906001019060200180831161073557829003601f168201915b505050505081565b60015460408051808201909152601981527f3a2063616c6c6572206973206e6f7420746865206f776e65720000000000000060208201526000805473ffffffffffffffffffffffffffffffffffffffff9093163314926107bf9291906102e5906115a6565b906107f7576040517f08c379a00000000000000000000000000000000000000000000000000000000081526004016103a9919061150e565b50828114610887576040517f08c379a000000000000000000000000000000000000000000000000000000000815260206004820152602860248201527f5265736f6c7665723a206e616d6520616e642076616c7565206c656e6774682060448201527f6d69736d6174636800000000000000000000000000000000000000000000000060648201526084016103a9565b60005b83811015610935576109238585838181106108ce577f4e487b7100000000000000000000000000000000000000000000000000000000600052603260045260246000fd5b9050602002013584848481811061090e577f4e487b7100000000000000000000000000000000000000000000000000000000600052603260045260246000fd5b90506020020160208101906102689190611359565b8061092d816115e1565b91505061088a565b5050505050565b60008181526004602090815260409182902080548351818402810184019094528084526060939283018282801561099257602002820191906000526020600020905b81548152602001906001019080831161097e575b50505050509050919050565b60015460408051808201909152601981527f3a2063616c6c6572206973206e6f7420746865206f776e65720000000000000060208201526000805473ffffffffffffffffffffffffffffffffffffffff909316331492610a039291906102e5906115a6565b90610a3b576040517f08c379a00000000000000000000000000000000000000000000000000000000081526004016103a9919061150e565b506000838152600460205260409020610a549083611045565b81837ffef1edfd9777499fcd47240a7d925f53dd6d43a4ec647fd5b2e6ff23036f4d3b610aaf8686600091825260036020908152604080842092845291905290205473ffffffffffffffffffffffffffffffffffffffff1690565b6040805173ffffffffffffffffffffffffffffffffffffffff928316815291861660208301520160405180910390a36000838152600360209081526040808320858452909152902080547fffffffffffffffffffffffff00000000000000000000000000000000000000001673ffffffffffffffffffffffffffffffffffffffff8316179055505050565b60015460408051808201909152601981527f3a2063616c6c6572206973206e6f7420746865206f776e65720000000000000060208201526000805473ffffffffffffffffffffffffffffffffffffffff909316331492610b9f9291906102e5906115a6565b90610bd7576040517f08c379a00000000000000000000000000000000000000000000000000000000081526004016103a9919061150e565b5060008281527f7d9a42d98474a1d02586a0326a45710951e3684f92c0ff078081324e45c151c1602052604080822054905173ffffffffffffffffffffffffffffffffffffffff9182169291841691839186917f59cff797773a13d5269a5bb23cdc636f102c95002a8305e19db9a255211cf82191a4610c58838284611078565b60008381527f7d9a42d98474a1d02586a0326a45710951e3684f92c0ff078081324e45c151c16020526040902080547fffffffffffffffffffffffff00000000000000000000000000000000000000001673ffffffffffffffffffffffffffffffffffffffff8416179055505050565b60015460408051808201909152601981527f3a2063616c6c6572206973206e6f7420746865206f776e65720000000000000060208201526000805473ffffffffffffffffffffffffffffffffffffffff909316331492610d2d9291906102e5906115a6565b90610d65576040517f08c379a00000000000000000000000000000000000000000000000000000000081526004016103a9919061150e565b50600073ffffffffffffffffffffffffffffffffffffffff168173ffffffffffffffffffffffffffffffffffffffff161415610dc060405180606001604052806021815260200161163160219139600080546102e5906115a6565b90610df8576040517f08c379a00000000000000000000000000000000000000000000000000000000081526004016103a9919061150e565b5060025460405173ffffffffffffffffffffffffffffffffffffffff8084169216907f605c2dbf762e5f7d60a546d42e7205dcb1b011ebc62a61736a57c9089d3a435090600090a3600280547fffffffffffffffffffffffff00000000000000000000000000000000000000001673ffffffffffffffffffffffffffffffffffffffff92909216919091179055565b60608282604051602001610e9c92919061149b565b604051602081830303815290604052905092915050565b600080610ec08484610fc1565b9150915081610ecf5750505050565b8354600090610ee09060019061155f565b9050848181548110610f1b577f4e487b7100000000000000000000000000000000000000000000000000000000600052603260045260246000fd5b9060005260206000200154858381548110610f5f577f4e487b7100000000000000000000000000000000000000000000000000000000600052603260045260246000fd5b906000526020600020018190555084805480610fa4577f4e487b7100000000000000000000000000000000000000000000000000000000600052603160045260246000fd5b600190038181906000526020600020016000905590555050505050565b60008060005b8454811015611038578385828154811061100a577f4e487b7100000000000000000000000000000000000000000000000000000000600052603260045260246000fd5b90600052602060002001541415611026576001925090506106c5565b80611030816115e1565b915050610fc7565b5060009485945092505050565b60006110518383610fc1565b509050801561105f57505050565b5081546001810183556000928352602090922090910155565b604080518082019091527f457363726f77000000000000000000000000000000000000000000000000000081527f4d6f626975730000000000000000000000000000000000000000000000000000602082015273ffffffffffffffffffffffffffffffffffffffff83166110ec5750505050565b7f4d6f62697573546f6b656e0000000000000000000000000000000000000000006000527f7d9a42d98474a1d02586a0326a45710951e3684f92c0ff078081324e45c151c16020527f064210e22ad281689f46a2fdf94bd21585b7a65b5e783612e77cfcc2f38cf1535473ffffffffffffffffffffffffffffffffffffffff1680611178575050505050565b60005b60028110156112e5578281600281106111bd577f4e487b7100000000000000000000000000000000000000000000000000000000600052603260045260246000fd5b602002015186146111cd576112d3565b6040517f1068361f00000000000000000000000000000000000000000000000000000000815273ffffffffffffffffffffffffffffffffffffffff86811660048301528581166024830152831690631068361f90604401602060405180830381600087803b15801561123e57600080fd5b505af1158015611252573d6000803e3d6000fd5b505050506040513d601f19601f8201168201806040525081019061127691906113e3565b508373ffffffffffffffffffffffffffffffffffffffff168573ffffffffffffffffffffffffffffffffffffffff16877ff61c93288e98f99c50419a21fd4a00cd44b959c239db392b7f9c01fa654b376f60405160405180910390a45b806112dd816115e1565b91505061117b565b505050505050565b803573ffffffffffffffffffffffffffffffffffffffff8116811461131157600080fd5b919050565b60008083601f840112611327578182fd5b50813567ffffffffffffffff81111561133e578182fd5b6020830191508360208260051b85010111156106c557600080fd5b60006020828403121561136a578081fd5b611373826112ed565b9392505050565b6000806000806040858703121561138f578283fd5b843567ffffffffffffffff808211156113a6578485fd5b6113b288838901611316565b909650945060208701359150808211156113ca578384fd5b506113d787828801611316565b95989497509550505050565b6000602082840312156113f4578081fd5b81518015158114611373578182fd5b600060208284031215611414578081fd5b5035919050565b6000806040838503121561142d578182fd5b8235915061143d602084016112ed565b90509250929050565b60008060408385031215611458578182fd5b50508035926020909101359150565b60008060006060848603121561147b578283fd5b8335925060208401359150611492604085016112ed565b90509250925092565b600083516114ad818460208801611576565b8351908301906114c1818360208801611576565b01949350505050565b6020808252825182820181905260009190848201906040850190845b81811015611502578351835292840192918401916001016114e6565b50909695505050505050565b602081526000825180602084015261152d816040850160208701611576565b601f017fffffffffffffffffffffffffffffffffffffffffffffffffffffffffffffffe0169190910160400192915050565b6000828210156115715761157161161a565b500390565b60005b83811015611591578181015183820152602001611579565b838111156115a0576000848401525b50505050565b600181811c908216806115ba57607f821691505b602082108114156115db57634e487b7160e01b600052602260045260246000fd5b50919050565b60007fffffffffffffffffffffffffffffffffffffffffffffffffffffffffffffffff8214156116135761161361161a565b5060010190565b634e487b7160e01b600052601160045260246000fdfe3a206e6577206d616e6167657220697320746865207a65726f2061646472657373a264697066735822122006e13a7ea13ea2f1dd87efbd0ef0db0b54862a4fa672e53cc916b414f42eded964736f6c63430008040033",
  "immutableReferences": {},
  "source": "// SPDX-License-Identifier: MIT\npragma solidity =0.8.4;\n\nimport './lib/Arrays.sol';\nimport './storages/AddressStorage.sol';\nimport './interfaces/IResolver.sol';\nimport './interfaces/IMobiusToken.sol';\n\ncontract Resolver is AddressStorage, IResolver {\n    mapping(bytes32 => bytes32[]) _assets;\n\n    constructor() {\n        setContractName(CONTRACT_RESOLVER);\n    }\n\n    function addAsset(\n        bytes32 assetType,\n        bytes32 assetName,\n        address assetAddress\n    ) external onlyOwner {\n        Arrays.push(_assets[assetType], assetName);\n        emit AssetChanged(assetType, assetName, getAddressValue(assetType, assetName), assetAddress);\n        setAddressValue(assetType, assetName, assetAddress);\n    }\n\n    function removeAsset(bytes32 assetType, bytes32 assetName) external onlyOwner {\n        Arrays.remove(_assets[assetType], assetName);\n        emit AssetChanged(assetType, assetName, getAddressValue(assetType, assetName), address(0));\n        removeAddressValue(assetType, assetName);\n    }\n\n    function getAsset(bytes32 assetType, bytes32 assetName) external override view returns (bool, address) {\n        (bool exist, ) = Arrays.index(_assets[assetType], assetName);\n        return (exist, getAddressValue(assetType, assetName));\n    }\n\n    function getAssets(bytes32 assetType) external override view returns (bytes32[] memory) {\n        return _assets[assetType];\n    }\n\n    function importAddress(bytes32[] calldata name, address[] calldata value) external onlyOwner {\n        require(name.length == value.length, 'Resolver: name and value length mismatch');\n        for (uint256 i = 0; i < name.length; i++) {\n            setAddress(name[i], value[i]);\n        }\n    }\n\n    function setAddress(bytes32 name, address value) public onlyOwner {\n        address previousValue = getAddressValue(name);\n        emit AddressChanged(name, previousValue, value);\n        _migrateMobiusToken(name, previousValue, value);\n        setAddressValue(name, value);\n    }\n\n    function getAddress(bytes32 name) external override view returns (address) {\n        return getAddressValue(name);\n    }\n\n    function _migrateMobiusToken(\n        bytes32 name,\n        address previousAddress,\n        address newAddress\n    ) private {\n        bytes32[2] memory contracts = [CONTRACT_ESCROW,CONTRACT_MOBIUS];\n        if (previousAddress == address(0)) return;\n        address mobiusToken = getAddressValue(CONTRACT_MOBIUS_TOKEN);\n        if (mobiusToken == address(0)) return;\n        for (uint256 i = 0; i < contracts.length; i++) {\n            if (name != contracts[i]) continue;\n            IMobiusToken(mobiusToken).migrate(previousAddress, newAddress);\n            emit MobiusTokenMigrated(name, previousAddress, newAddress);\n        }\n    }\n}\n",
  "sourcePath": "/home/colin/Workspace/src/Mobius/contracts/contracts/Resolver.sol",
  "compiler": {
    "name": "solc",
    "version": "0.8.4+commit.c7e474f2.Emscripten.clang"
  },
  "schemaVersion": "3.4.3",
  "updatedAt": "2021-11-09T08:27:51.715Z",
  "devdoc": {
    "kind": "dev",
    "methods": {},
    "version": 1
  },
  "userdoc": {
    "kind": "user",
    "methods": {},
    "version": 1
  }
}