{"abi":[{"type":"constructor","inputs":[{"name":"_kerneToken","type":"address","internalType":"address"}],"stateMutability":"nonpayable"},{"type":"function","name":"createGrant","inputs":[{"name":"_recipient","type":"address","internalType":"address"},{"name":"_amount","type":"uint256","internalType":"uint256"},{"name":"_duration","type":"uint256","internalType":"uint256"}],"outputs":[],"stateMutability":"nonpayable"},{"type":"function","name":"emergencyWithdraw","inputs":[{"name":"_token","type":"address","internalType":"address"},{"name":"_amount","type":"uint256","internalType":"uint256"}],"outputs":[],"stateMutability":"nonpayable"},{"type":"function","name":"grantCount","inputs":[],"outputs":[{"name":"","type":"uint256","internalType":"uint256"}],"stateMutability":"view"},{"type":"function","name":"grants","inputs":[{"name":"","type":"uint256","internalType":"uint256"}],"outputs":[{"name":"recipient","type":"address","internalType":"address"},{"name":"amount","type":"uint256","internalType":"uint256"},{"name":"released","type":"uint256","internalType":"uint256"},{"name":"startTime","type":"uint256","internalType":"uint256"},{"name":"duration","type":"uint256","internalType":"uint256"},{"name":"active","type":"bool","internalType":"bool"}],"stateMutability":"view"},{"type":"function","name":"kerneToken","inputs":[],"outputs":[{"name":"","type":"address","internalType":"address"}],"stateMutability":"view"},{"type":"function","name":"owner","inputs":[],"outputs":[{"name":"","type":"address","internalType":"address"}],"stateMutability":"view"},{"type":"function","name":"releaseGrant","inputs":[{"name":"_grantId","type":"uint256","internalType":"uint256"}],"outputs":[],"stateMutability":"nonpayable"},{"type":"function","name":"renounceOwnership","inputs":[],"outputs":[],"stateMutability":"nonpayable"},{"type":"function","name":"shareRevenue","inputs":[{"name":"_token","type":"address","internalType":"address"},{"name":"_amount","type":"uint256","internalType":"uint256"}],"outputs":[],"stateMutability":"nonpayable"},{"type":"function","name":"totalRevenueShared","inputs":[],"outputs":[{"name":"","type":"uint256","internalType":"uint256"}],"stateMutability":"view"},{"type":"function","name":"transferOwnership","inputs":[{"name":"newOwner","type":"address","internalType":"address"}],"outputs":[],"stateMutability":"nonpayable"},{"type":"event","name":"GrantCreated","inputs":[{"name":"grantId","type":"uint256","indexed":true,"internalType":"uint256"},{"name":"recipient","type":"address","indexed":true,"internalType":"address"},{"name":"amount","type":"uint256","indexed":false,"internalType":"uint256"}],"anonymous":false},{"type":"event","name":"GrantReleased","inputs":[{"name":"grantId","type":"uint256","indexed":true,"internalType":"uint256"},{"name":"amount","type":"uint256","indexed":false,"internalType":"uint256"}],"anonymous":false},{"type":"event","name":"OwnershipTransferred","inputs":[{"name":"previousOwner","type":"address","indexed":true,"internalType":"address"},{"name":"newOwner","type":"address","indexed":true,"internalType":"address"}],"anonymous":false},{"type":"event","name":"RevenueShared","inputs":[{"name":"token","type":"address","indexed":true,"internalType":"address"},{"name":"amount","type":"uint256","indexed":false,"internalType":"uint256"}],"anonymous":false},{"type":"error","name":"OwnableInvalidOwner","inputs":[{"name":"owner","type":"address","internalType":"address"}]},{"type":"error","name":"OwnableUnauthorizedAccount","inputs":[{"name":"account","type":"address","internalType":"address"}]},{"type":"error","name":"ReentrancyGuardReentrantCall","inputs":[]}],"bytecode":{"object":"0x608060405234801561000f575f80fd5b50604051610afc380380610afc83398101604081905261002e916100f5565b338061005357604051631e4fbdf760e01b81525f600482015260240160405180910390fd5b61005c816100a6565b5060017f9b779b17422d0df92223018b32b4d1fa46e071723d6817e2486d003becc55f0055600380546001600160a01b0319166001600160a01b0392909216919091179055610122565b5f80546001600160a01b038381166001600160a01b0319831681178455604051919092169283917f8be0079c531659141344cd1fd0a4f28419497f9722a3daafe3b4186f6b6457e09190a35050565b5f60208284031215610105575f80fd5b81516001600160a01b038116811461011b575f80fd5b9392505050565b6109cd8061012f5f395ff3fe608060405234801561000f575f80fd5b50600436106100a6575f3560e01c80637df416ed1161006e5780637df416ed146101815780638da5cb5b146101ac57806395ccea67146101bc578063cab42672146101cf578063dde26ec9146101d8578063f2fde38b146101eb575f80fd5b80630c0debea146100aa5780633c6f20981461013a578063468306281461014f578063627c1b6614610166578063715018a614610179575b5f80fd5b6100fc6100b8366004610847565b600160208190525f91825260409091208054918101546002820154600383015460048401546005909401546001600160a01b03909516949293919290919060ff1686565b604080516001600160a01b03909716875260208701959095529385019290925260608401526080830152151560a082015260c0015b60405180910390f35b61014d610148366004610847565b6101fe565b005b61015860045481565b604051908152602001610131565b61014d610174366004610879565b6103b9565b61014d610486565b600354610194906001600160a01b031681565b6040516001600160a01b039091168152602001610131565b5f546001600160a01b0316610194565b61014d6101ca366004610879565b610499565b61015860025481565b61014d6101e63660046108a1565b610534565b61014d6101f93660046108d1565b6106a9565b6102066106e3565b5f818152600160205260409020600581015460ff1661025f5760405162461bcd60e51b815260206004820152601060248201526f4772616e74206e6f742061637469766560801b60448201526064015b60405180910390fd5b5f61026983610711565b90505f82600201548261027c91906108fe565b90505f81116102c25760405162461bcd60e51b81526020600482015260126024820152714e6f7468696e6720746f2072656c6561736560701b6044820152606401610256565b80836002015f8282546102d59190610917565b9091555050600354835460405163a9059cbb60e01b81526001600160a01b0391821660048201526024810184905291169063a9059cbb906044016020604051808303815f875af115801561032b573d5f803e3d5ffd5b505050506040513d601f19601f8201168201806040525081019061034f919061092a565b50837ff78b3af17c960f1606bc563347a6edf9e4b3f77e55d4117084e401b1bb1219b18260405161038291815260200190565b60405180910390a25050506103b660017f9b779b17422d0df92223018b32b4d1fa46e071723d6817e2486d003becc55f0055565b50565b6040516323b872dd60e01b8152336004820152306024820152604481018290526001600160a01b038316906323b872dd906064016020604051808303815f875af1158015610409573d5f803e3d5ffd5b505050506040513d601f19601f8201168201806040525081019061042d919061092a565b508060045f82825461043f9190610917565b90915550506040518181526001600160a01b038316907f4d336e7a194e6db96b771e701055dcb844f8fe5e40ae7c5dce8a7e6f712666ca9060200160405180910390a25050565b61048e61078a565b6104975f6107b6565b565b6104a161078a565b816001600160a01b031663a9059cbb6104c15f546001600160a01b031690565b6040516001600160e01b031960e084901b1681526001600160a01b039091166004820152602481018490526044016020604051808303815f875af115801561050b573d5f803e3d5ffd5b505050506040513d601f19601f8201168201806040525081019061052f919061092a565b505050565b61053c61078a565b6001600160a01b0383166105865760405162461bcd60e51b8152602060048201526011602482015270125b9d985b1a59081c9958da5c1a595b9d607a1b6044820152606401610256565b5f82116105c65760405162461bcd60e51b815260206004820152600e60248201526d125b9d985b1a5908185b5bdd5b9d60921b6044820152606401610256565b6040805160c0810182526001600160a01b0385811680835260208084018781525f8587018181524260608801908152608088018a8152600160a08a01818152600280548752828952958c90209a518b546001600160a01b0319169a16999099178a559451948901949094559051878301555160038701559051600486015592516005909401805460ff191694151594909417909355905492518581529092917f0522ba57bb38d1384cae5e8e838a55567db2cab52b952427fdb3c7be1e8d70b8910160405180910390a360028054905f61069f83610949565b9190505550505050565b6106b161078a565b6001600160a01b0381166106da57604051631e4fbdf760e01b81525f6004820152602401610256565b6103b6816107b6565b6106eb610805565b60027f9b779b17422d0df92223018b32b4d1fa46e071723d6817e2486d003becc55f0055565b5f818152600160205260408120600381015442101561073257505f92915050565b806004015481600301546107469190610917565b4210610756576001015492915050565b6004810154600382015461076a90426108fe565b82600101546107799190610961565b6107839190610978565b9392505050565b5f546001600160a01b031633146104975760405163118cdaa760e01b8152336004820152602401610256565b5f80546001600160a01b038381166001600160a01b0319831681178455604051919092169283917f8be0079c531659141344cd1fd0a4f28419497f9722a3daafe3b4186f6b6457e09190a35050565b7f9b779b17422d0df92223018b32b4d1fa46e071723d6817e2486d003becc55f005460020361049757604051633ee5aeb560e01b815260040160405180910390fd5b5f60208284031215610857575f80fd5b5035919050565b80356001600160a01b0381168114610874575f80fd5b919050565b5f806040838503121561088a575f80fd5b6108938361085e565b946020939093013593505050565b5f805f606084860312156108b3575f80fd5b6108bc8461085e565b95602085013595506040909401359392505050565b5f602082840312156108e1575f80fd5b6107838261085e565b634e487b7160e01b5f52601160045260245ffd5b81810381811115610911576109116108ea565b92915050565b80820180821115610911576109116108ea565b5f6020828403121561093a575f80fd5b81518015158114610783575f80fd5b5f6001820161095a5761095a6108ea565b5060010190565b8082028115828204841417610911576109116108ea565b5f8261099257634e487b7160e01b5f52601260045260245ffd5b50049056fea2646970667358221220c343c38ab41181917acc0a74f573b75c8fdd5f24c5d6b02515466d6c41fe2ff864736f6c63430008180033","linkReferences":{}},"methodIdentifiers":{"createGrant(address,uint256,uint256)":"dde26ec9","emergencyWithdraw(address,uint256)":"95ccea67","grantCount()":"cab42672","grants(uint256)":"0c0debea","kerneToken()":"7df416ed","owner()":"8da5cb5b","releaseGrant(uint256)":"3c6f2098","renounceOwnership()":"715018a6","shareRevenue(address,uint256)":"627c1b66","totalRevenueShared()":"46830628","transferOwnership(address)":"f2fde38b"},"id":76}