{"abi":[{"type":"constructor","inputs":[{"name":"_name","type":"string","internalType":"string"},{"name":"_symbol","type":"string","internalType":"string"},{"name":"_sharedDecimals","type":"uint8","internalType":"uint8"},{"name":"_lzEndpoint","type":"address","internalType":"address"}],"stateMutability":"nonpayable"},{"type":"function","name":"DEFAULT_PAYLOAD_SIZE_LIMIT","inputs":[],"outputs":[{"name":"","type":"uint256","internalType":"uint256"}],"stateMutability":"view"},{"type":"function","name":"NO_EXTRA_GAS","inputs":[],"outputs":[{"name":"","type":"uint256","internalType":"uint256"}],"stateMutability":"view"},{"type":"function","name":"PT_SEND","inputs":[],"outputs":[{"name":"","type":"uint8","internalType":"uint8"}],"stateMutability":"view"},{"type":"function","name":"PT_SEND_AND_CALL","inputs":[],"outputs":[{"name":"","type":"uint8","internalType":"uint8"}],"stateMutability":"view"},{"type":"function","name":"allowance","inputs":[{"name":"owner","type":"address","internalType":"address"},{"name":"spender","type":"address","internalType":"address"}],"outputs":[{"name":"","type":"uint256","internalType":"uint256"}],"stateMutability":"view"},{"type":"function","name":"approve","inputs":[{"name":"spender","type":"address","internalType":"address"},{"name":"value","type":"uint256","internalType":"uint256"}],"outputs":[{"name":"","type":"bool","internalType":"bool"}],"stateMutability":"nonpayable"},{"type":"function","name":"balanceOf","inputs":[{"name":"account","type":"address","internalType":"address"}],"outputs":[{"name":"","type":"uint256","internalType":"uint256"}],"stateMutability":"view"},{"type":"function","name":"callOnOFTReceived","inputs":[{"name":"_srcChainId","type":"uint16","internalType":"uint16"},{"name":"_srcAddress","type":"bytes","internalType":"bytes"},{"name":"_nonce","type":"uint64","internalType":"uint64"},{"name":"_from","type":"bytes32","internalType":"bytes32"},{"name":"_to","type":"address","internalType":"address"},{"name":"_amount","type":"uint256","internalType":"uint256"},{"name":"_payload","type":"bytes","internalType":"bytes"},{"name":"_gasForCall","type":"uint256","internalType":"uint256"}],"outputs":[],"stateMutability":"nonpayable"},{"type":"function","name":"circulatingSupply","inputs":[],"outputs":[{"name":"","type":"uint256","internalType":"uint256"}],"stateMutability":"view"},{"type":"function","name":"creditedPackets","inputs":[{"name":"","type":"uint16","internalType":"uint16"},{"name":"","type":"bytes","internalType":"bytes"},{"name":"","type":"uint64","internalType":"uint64"}],"outputs":[{"name":"","type":"bool","internalType":"bool"}],"stateMutability":"view"},{"type":"function","name":"decimals","inputs":[],"outputs":[{"name":"","type":"uint8","internalType":"uint8"}],"stateMutability":"view"},{"type":"function","name":"estimateSendAndCallFee","inputs":[{"name":"_dstChainId","type":"uint16","internalType":"uint16"},{"name":"_toAddress","type":"bytes32","internalType":"bytes32"},{"name":"_amount","type":"uint256","internalType":"uint256"},{"name":"_payload","type":"bytes","internalType":"bytes"},{"name":"_dstGasForCall","type":"uint64","internalType":"uint64"},{"name":"_useZro","type":"bool","internalType":"bool"},{"name":"_adapterParams","type":"bytes","internalType":"bytes"}],"outputs":[{"name":"nativeFee","type":"uint256","internalType":"uint256"},{"name":"zroFee","type":"uint256","internalType":"uint256"}],"stateMutability":"view"},{"type":"function","name":"estimateSendFee","inputs":[{"name":"_dstChainId","type":"uint16","internalType":"uint16"},{"name":"_toAddress","type":"bytes32","internalType":"bytes32"},{"name":"_amount","type":"uint256","internalType":"uint256"},{"name":"_useZro","type":"bool","internalType":"bool"},{"name":"_adapterParams","type":"bytes","internalType":"bytes"}],"outputs":[{"name":"nativeFee","type":"uint256","internalType":"uint256"},{"name":"zroFee","type":"uint256","internalType":"uint256"}],"stateMutability":"view"},{"type":"function","name":"failedMessages","inputs":[{"name":"","type":"uint16","internalType":"uint16"},{"name":"","type":"bytes","internalType":"bytes"},{"name":"","type":"uint64","internalType":"uint64"}],"outputs":[{"name":"","type":"bytes32","internalType":"bytes32"}],"stateMutability":"view"},{"type":"function","name":"forceResumeReceive","inputs":[{"name":"_srcChainId","type":"uint16","internalType":"uint16"},{"name":"_srcAddress","type":"bytes","internalType":"bytes"}],"outputs":[],"stateMutability":"nonpayable"},{"type":"function","name":"getConfig","inputs":[{"name":"_version","type":"uint16","internalType":"uint16"},{"name":"_chainId","type":"uint16","internalType":"uint16"},{"name":"","type":"address","internalType":"address"},{"name":"_configType","type":"uint256","internalType":"uint256"}],"outputs":[{"name":"","type":"bytes","internalType":"bytes"}],"stateMutability":"view"},{"type":"function","name":"getTrustedRemoteAddress","inputs":[{"name":"_remoteChainId","type":"uint16","internalType":"uint16"}],"outputs":[{"name":"","type":"bytes","internalType":"bytes"}],"stateMutability":"view"},{"type":"function","name":"isTrustedRemote","inputs":[{"name":"_srcChainId","type":"uint16","internalType":"uint16"},{"name":"_srcAddress","type":"bytes","internalType":"bytes"}],"outputs":[{"name":"","type":"bool","internalType":"bool"}],"stateMutability":"view"},{"type":"function","name":"lzEndpoint","inputs":[],"outputs":[{"name":"","type":"address","internalType":"contract ILayerZeroEndpoint"}],"stateMutability":"view"},{"type":"function","name":"lzReceive","inputs":[{"name":"_srcChainId","type":"uint16","internalType":"uint16"},{"name":"_srcAddress","type":"bytes","internalType":"bytes"},{"name":"_nonce","type":"uint64","internalType":"uint64"},{"name":"_payload","type":"bytes","internalType":"bytes"}],"outputs":[],"stateMutability":"nonpayable"},{"type":"function","name":"minDstGasLookup","inputs":[{"name":"","type":"uint16","internalType":"uint16"},{"name":"","type":"uint16","internalType":"uint16"}],"outputs":[{"name":"","type":"uint256","internalType":"uint256"}],"stateMutability":"view"},{"type":"function","name":"name","inputs":[],"outputs":[{"name":"","type":"string","internalType":"string"}],"stateMutability":"view"},{"type":"function","name":"nonblockingLzReceive","inputs":[{"name":"_srcChainId","type":"uint16","internalType":"uint16"},{"name":"_srcAddress","type":"bytes","internalType":"bytes"},{"name":"_nonce","type":"uint64","internalType":"uint64"},{"name":"_payload","type":"bytes","internalType":"bytes"}],"outputs":[],"stateMutability":"nonpayable"},{"type":"function","name":"owner","inputs":[],"outputs":[{"name":"","type":"address","internalType":"address"}],"stateMutability":"view"},{"type":"function","name":"payloadSizeLimitLookup","inputs":[{"name":"","type":"uint16","internalType":"uint16"}],"outputs":[{"name":"","type":"uint256","internalType":"uint256"}],"stateMutability":"view"},{"type":"function","name":"precrime","inputs":[],"outputs":[{"name":"","type":"address","internalType":"address"}],"stateMutability":"view"},{"type":"function","name":"renounceOwnership","inputs":[],"outputs":[],"stateMutability":"nonpayable"},{"type":"function","name":"retryMessage","inputs":[{"name":"_srcChainId","type":"uint16","internalType":"uint16"},{"name":"_srcAddress","type":"bytes","internalType":"bytes"},{"name":"_nonce","type":"uint64","internalType":"uint64"},{"name":"_payload","type":"bytes","internalType":"bytes"}],"outputs":[],"stateMutability":"payable"},{"type":"function","name":"sendAndCall","inputs":[{"name":"_from","type":"address","internalType":"address"},{"name":"_dstChainId","type":"uint16","internalType":"uint16"},{"name":"_toAddress","type":"bytes32","internalType":"bytes32"},{"name":"_amount","type":"uint256","internalType":"uint256"},{"name":"_payload","type":"bytes","internalType":"bytes"},{"name":"_dstGasForCall","type":"uint64","internalType":"uint64"},{"name":"_callParams","type":"tuple","internalType":"struct ICommonOFT.LzCallParams","components":[{"name":"refundAddress","type":"address","internalType":"address payable"},{"name":"zroPaymentAddress","type":"address","internalType":"address"},{"name":"adapterParams","type":"bytes","internalType":"bytes"}]}],"outputs":[],"stateMutability":"payable"},{"type":"function","name":"sendFrom","inputs":[{"name":"_from","type":"address","internalType":"address"},{"name":"_dstChainId","type":"uint16","internalType":"uint16"},{"name":"_toAddress","type":"bytes32","internalType":"bytes32"},{"name":"_amount","type":"uint256","internalType":"uint256"},{"name":"_callParams","type":"tuple","internalType":"struct ICommonOFT.LzCallParams","components":[{"name":"refundAddress","type":"address","internalType":"address payable"},{"name":"zroPaymentAddress","type":"address","internalType":"address"},{"name":"adapterParams","type":"bytes","internalType":"bytes"}]}],"outputs":[],"stateMutability":"payable"},{"type":"function","name":"setConfig","inputs":[{"name":"_version","type":"uint16","internalType":"uint16"},{"name":"_chainId","type":"uint16","internalType":"uint16"},{"name":"_configType","type":"uint256","internalType":"uint256"},{"name":"_config","type":"bytes","internalType":"bytes"}],"outputs":[],"stateMutability":"nonpayable"},{"type":"function","name":"setMinDstGas","inputs":[{"name":"_dstChainId","type":"uint16","internalType":"uint16"},{"name":"_packetType","type":"uint16","internalType":"uint16"},{"name":"_minGas","type":"uint256","internalType":"uint256"}],"outputs":[],"stateMutability":"nonpayable"},{"type":"function","name":"setPayloadSizeLimit","inputs":[{"name":"_dstChainId","type":"uint16","internalType":"uint16"},{"name":"_size","type":"uint256","internalType":"uint256"}],"outputs":[],"stateMutability":"nonpayable"},{"type":"function","name":"setPrecrime","inputs":[{"name":"_precrime","type":"address","internalType":"address"}],"outputs":[],"stateMutability":"nonpayable"},{"type":"function","name":"setReceiveVersion","inputs":[{"name":"_version","type":"uint16","internalType":"uint16"}],"outputs":[],"stateMutability":"nonpayable"},{"type":"function","name":"setSendVersion","inputs":[{"name":"_version","type":"uint16","internalType":"uint16"}],"outputs":[],"stateMutability":"nonpayable"},{"type":"function","name":"setTrustedRemote","inputs":[{"name":"_remoteChainId","type":"uint16","internalType":"uint16"},{"name":"_path","type":"bytes","internalType":"bytes"}],"outputs":[],"stateMutability":"nonpayable"},{"type":"function","name":"setTrustedRemoteAddress","inputs":[{"name":"_remoteChainId","type":"uint16","internalType":"uint16"},{"name":"_remoteAddress","type":"bytes","internalType":"bytes"}],"outputs":[],"stateMutability":"nonpayable"},{"type":"function","name":"sharedDecimals","inputs":[],"outputs":[{"name":"","type":"uint8","internalType":"uint8"}],"stateMutability":"view"},{"type":"function","name":"supportsInterface","inputs":[{"name":"interfaceId","type":"bytes4","internalType":"bytes4"}],"outputs":[{"name":"","type":"bool","internalType":"bool"}],"stateMutability":"view"},{"type":"function","name":"symbol","inputs":[],"outputs":[{"name":"","type":"string","internalType":"string"}],"stateMutability":"view"},{"type":"function","name":"token","inputs":[],"outputs":[{"name":"","type":"address","internalType":"address"}],"stateMutability":"view"},{"type":"function","name":"totalSupply","inputs":[],"outputs":[{"name":"","type":"uint256","internalType":"uint256"}],"stateMutability":"view"},{"type":"function","name":"transfer","inputs":[{"name":"to","type":"address","internalType":"address"},{"name":"value","type":"uint256","internalType":"uint256"}],"outputs":[{"name":"","type":"bool","internalType":"bool"}],"stateMutability":"nonpayable"},{"type":"function","name":"transferFrom","inputs":[{"name":"from","type":"address","internalType":"address"},{"name":"to","type":"address","internalType":"address"},{"name":"value","type":"uint256","internalType":"uint256"}],"outputs":[{"name":"","type":"bool","internalType":"bool"}],"stateMutability":"nonpayable"},{"type":"function","name":"transferOwnership","inputs":[{"name":"newOwner","type":"address","internalType":"address"}],"outputs":[],"stateMutability":"nonpayable"},{"type":"function","name":"trustedRemoteLookup","inputs":[{"name":"","type":"uint16","internalType":"uint16"}],"outputs":[{"name":"","type":"bytes","internalType":"bytes"}],"stateMutability":"view"},{"type":"event","name":"Approval","inputs":[{"name":"owner","type":"address","indexed":true,"internalType":"address"},{"name":"spender","type":"address","indexed":true,"internalType":"address"},{"name":"value","type":"uint256","indexed":false,"internalType":"uint256"}],"anonymous":false},{"type":"event","name":"CallOFTReceivedSuccess","inputs":[{"name":"_srcChainId","type":"uint16","indexed":true,"internalType":"uint16"},{"name":"_srcAddress","type":"bytes","indexed":false,"internalType":"bytes"},{"name":"_nonce","type":"uint64","indexed":false,"internalType":"uint64"},{"name":"_hash","type":"bytes32","indexed":false,"internalType":"bytes32"}],"anonymous":false},{"type":"event","name":"MessageFailed","inputs":[{"name":"_srcChainId","type":"uint16","indexed":false,"internalType":"uint16"},{"name":"_srcAddress","type":"bytes","indexed":false,"internalType":"bytes"},{"name":"_nonce","type":"uint64","indexed":false,"internalType":"uint64"},{"name":"_payload","type":"bytes","indexed":false,"internalType":"bytes"},{"name":"_reason","type":"bytes","indexed":false,"internalType":"bytes"}],"anonymous":false},{"type":"event","name":"NonContractAddress","inputs":[{"name":"_address","type":"address","indexed":false,"internalType":"address"}],"anonymous":false},{"type":"event","name":"OwnershipTransferred","inputs":[{"name":"previousOwner","type":"address","indexed":true,"internalType":"address"},{"name":"newOwner","type":"address","indexed":true,"internalType":"address"}],"anonymous":false},{"type":"event","name":"ReceiveFromChain","inputs":[{"name":"_srcChainId","type":"uint16","indexed":true,"internalType":"uint16"},{"name":"_to","type":"address","indexed":true,"internalType":"address"},{"name":"_amount","type":"uint256","indexed":false,"internalType":"uint256"}],"anonymous":false},{"type":"event","name":"RetryMessageSuccess","inputs":[{"name":"_srcChainId","type":"uint16","indexed":false,"internalType":"uint16"},{"name":"_srcAddress","type":"bytes","indexed":false,"internalType":"bytes"},{"name":"_nonce","type":"uint64","indexed":false,"internalType":"uint64"},{"name":"_payloadHash","type":"bytes32","indexed":false,"internalType":"bytes32"}],"anonymous":false},{"type":"event","name":"SendToChain","inputs":[{"name":"_dstChainId","type":"uint16","indexed":true,"internalType":"uint16"},{"name":"_from","type":"address","indexed":true,"internalType":"address"},{"name":"_toAddress","type":"bytes32","indexed":true,"internalType":"bytes32"},{"name":"_amount","type":"uint256","indexed":false,"internalType":"uint256"}],"anonymous":false},{"type":"event","name":"SetMinDstGas","inputs":[{"name":"_dstChainId","type":"uint16","indexed":false,"internalType":"uint16"},{"name":"_type","type":"uint16","indexed":false,"internalType":"uint16"},{"name":"_minDstGas","type":"uint256","indexed":false,"internalType":"uint256"}],"anonymous":false},{"type":"event","name":"SetPrecrime","inputs":[{"name":"precrime","type":"address","indexed":false,"internalType":"address"}],"anonymous":false},{"type":"event","name":"SetTrustedRemote","inputs":[{"name":"_remoteChainId","type":"uint16","indexed":false,"internalType":"uint16"},{"name":"_path","type":"bytes","indexed":false,"internalType":"bytes"}],"anonymous":false},{"type":"event","name":"SetTrustedRemoteAddress","inputs":[{"name":"_remoteChainId","type":"uint16","indexed":false,"internalType":"uint16"},{"name":"_remoteAddress","type":"bytes","indexed":false,"internalType":"bytes"}],"anonymous":false},{"type":"event","name":"Transfer","inputs":[{"name":"from","type":"address","indexed":true,"internalType":"address"},{"name":"to","type":"address","indexed":true,"internalType":"address"},{"name":"value","type":"uint256","indexed":false,"internalType":"uint256"}],"anonymous":false},{"type":"error","name":"ERC20InsufficientAllowance","inputs":[{"name":"spender","type":"address","internalType":"address"},{"name":"allowance","type":"uint256","internalType":"uint256"},{"name":"needed","type":"uint256","internalType":"uint256"}]},{"type":"error","name":"ERC20InsufficientBalance","inputs":[{"name":"sender","type":"address","internalType":"address"},{"name":"balance","type":"uint256","internalType":"uint256"},{"name":"needed","type":"uint256","internalType":"uint256"}]},{"type":"error","name":"ERC20InvalidApprover","inputs":[{"name":"approver","type":"address","internalType":"address"}]},{"type":"error","name":"ERC20InvalidReceiver","inputs":[{"name":"receiver","type":"address","internalType":"address"}]},{"type":"error","name":"ERC20InvalidSender","inputs":[{"name":"sender","type":"address","internalType":"address"}]},{"type":"error","name":"ERC20InvalidSpender","inputs":[{"name":"spender","type":"address","internalType":"address"}]},{"type":"error","name":"OwnableInvalidOwner","inputs":[{"name":"owner","type":"address","internalType":"address"}]},{"type":"error","name":"OwnableUnauthorizedAccount","inputs":[{"name":"account","type":"address","internalType":"address"}]}],"bytecode":{"object":"0x60e060405234801562000010575f80fd5b506040516200432b3803806200432b83398101604081905262000033916200025d565b838383838181808033806200006257604051631e4fbdf760e01b81525f60048201526024015b60405180910390fd5b6200006d8162000148565b506001600160a01b0316608052505060ff1660a05250600a905062000093838262000384565b50600b620000a2828262000384565b5050505f620000b66200019760201b60201c565b90508060ff168360ff161115620001205760405162461bcd60e51b815260206004820152602760248201527f4f46543a20736861726564446563696d616c73206d757374206265203c3d20646044820152666563696d616c7360c81b606482015260840162000059565b6200012c838262000464565b6200013990600a6200057f565b60c05250620005969350505050565b5f80546001600160a01b038381166001600160a01b0319831681178455604051919092169283917f8be0079c531659141344cd1fd0a4f28419497f9722a3daafe3b4186f6b6457e09190a35050565b601290565b634e487b7160e01b5f52604160045260245ffd5b5f82601f830112620001c0575f80fd5b81516001600160401b0380821115620001dd57620001dd6200019c565b604051601f8301601f19908116603f011681019082821181831017156200020857620002086200019c565b816040528381526020925086602085880101111562000225575f80fd5b5f91505b8382101562000248578582018301518183018401529082019062000229565b5f602085830101528094505050505092915050565b5f805f806080858703121562000271575f80fd5b84516001600160401b038082111562000288575f80fd5b6200029688838901620001b0565b95506020870151915080821115620002ac575f80fd5b50620002bb87828801620001b0565b935050604085015160ff81168114620002d2575f80fd5b60608601519092506001600160a01b0381168114620002ef575f80fd5b939692955090935050565b600181811c908216806200030f57607f821691505b6020821081036200032e57634e487b7160e01b5f52602260045260245ffd5b50919050565b601f8211156200037f57805f5260205f20601f840160051c810160208510156200035b5750805b601f840160051c820191505b818110156200037c575f815560010162000367565b50505b505050565b81516001600160401b03811115620003a057620003a06200019c565b620003b881620003b18454620002fa565b8462000334565b602080601f831160018114620003ee575f8415620003d65750858301515b5f19600386901b1c1916600185901b17855562000448565b5f85815260208120601f198616915b828110156200041e57888601518255948401946001909101908401620003fd565b50858210156200043c57878501515f19600388901b60f8161c191681555b505060018460011b0185555b505050505050565b634e487b7160e01b5f52601160045260245ffd5b60ff828116828216039081111562000480576200048062000450565b92915050565b600181815b80851115620004c657815f1904821115620004aa57620004aa62000450565b80851615620004b857918102915b93841c93908002906200048b565b509250929050565b5f82620004de5750600162000480565b81620004ec57505f62000480565b8160018114620005055760028114620005105762000530565b600191505062000480565b60ff84111562000524576200052462000450565b50506001821b62000480565b5060208310610133831016604e8410600b841016171562000555575081810a62000480565b62000561838362000486565b805f190482111562000577576200057762000450565b029392505050565b5f6200058f60ff841683620004ce565b9392505050565b60805160a05160c051613d1d6200060e5f395f818161239e015281816127e20152612ab301525f6105a001525f818161074c015281816108dc01528181610beb01528181610ca401528181610e3901528181611401015281816118c101528181611b3101528181611fa401526129700152613d1d5ff3fe60806040526004361061027f575f3560e01c8063857749b011610155578063baf3292d116100be578063e6a20ae611610078578063e6a20ae614610837578063eaffd49a1461084b578063eb8d72b71461086a578063f2fde38b14610889578063f5ecbdbc146108a8578063fc0c546a146108c7575f80fd5b8063baf3292d1461076e578063c44618341461078d578063cbed8b9c146107a2578063d1deba1f146107c1578063dd62ed3e146107d4578063df2a5b3b14610818575f80fd5b80639bdb98121161010f5780639bdb98121461066f5780639f38369a146106bf578063a4c51df5146106de578063a6c3d165146106fd578063a9059cbb1461071c578063b353aaa71461073b575f80fd5b8063857749b01461058f5780638cfd8f5c146105c25780638da5cb5b146105f85780639358928b14610628578063950c8a741461063c57806395d89b411461065b575f80fd5b80633d8b38f6116101f757806366ad5c8a116101b157806366ad5c8a146104e3578063695ef6bf1461050257806370a0823114610515578063715018a6146105495780637533d7881461055d57806376203b481461057c575f80fd5b80633d8b38f6146104075780633f1f4fa41461042657806342d65a8d1461045157806344770515146104705780634c42899a146104835780635b8c41e614610496575f80fd5b80630df37483116102485780630df374831461033757806310ddb1371461035657806318160ddd1461037557806323b872dd14610393578063313ce567146103b2578063365260b4146103d3575f80fd5b80621d35671461028357806301ffc9a7146102a457806306fdde03146102d857806307e0db17146102f9578063095ea7b314610318575b5f80fd5b34801561028e575f80fd5b506102a261029d366004612e6d565b6108d9565b005b3480156102af575f80fd5b506102c36102be366004612efa565b610b04565b60405190151581526020015b60405180910390f35b3480156102e3575f80fd5b506102ec610b3a565b6040516102cf9190612f6e565b348015610304575f80fd5b506102a2610313366004612f80565b610bca565b348015610323575f80fd5b506102c3610332366004612fad565b610c4e565b348015610342575f80fd5b506102a2610351366004612fd7565b610c65565b348015610361575f80fd5b506102a2610370366004612f80565b610c83565b348015610380575f80fd5b506009545b6040519081526020016102cf565b34801561039e575f80fd5b506102c36103ad366004612ff1565b610cdb565b3480156103bd575f80fd5b5060125b60405160ff90911681526020016102cf565b3480156103de575f80fd5b506103f26103ed36600461303e565b610cfe565b604080519283526020830191909152016102cf565b348015610412575f80fd5b506102c361042136600461309e565b610d51565b348015610431575f80fd5b50610385610440366004612f80565b60036020525f908152604090205481565b34801561045c575f80fd5b506102a261046b36600461309e565b610e1a565b34801561047b575f80fd5b506103855f81565b34801561048e575f80fd5b506103c15f81565b3480156104a1575f80fd5b506103856104b0366004613156565b600560209081525f9384526040808520845180860184018051928152908401958401959095209452929052825290205481565b3480156104ee575f80fd5b506102a26104fd366004612e6d565b610e9b565b6102a2610510366004613205565b610f75565b348015610520575f80fd5b5061038561052f366004613273565b6001600160a01b03165f9081526007602052604090205490565b348015610554575f80fd5b506102a2610fdf565b348015610568575f80fd5b506102ec610577366004612f80565b610ff2565b6102a261058a36600461328e565b611089565b34801561059a575f80fd5b506103c17f000000000000000000000000000000000000000000000000000000000000000081565b3480156105cd575f80fd5b506103856105dc366004613339565b600260209081525f928352604080842090915290825290205481565b348015610603575f80fd5b505f546001600160a01b03165b6040516001600160a01b0390911681526020016102cf565b348015610633575f80fd5b50610385611136565b348015610647575f80fd5b50600454610610906001600160a01b031681565b348015610666575f80fd5b506102ec611145565b34801561067a575f80fd5b506102c3610689366004613156565b600660209081525f9384526040808520845180860184018051928152908401958401959095209452929052825290205460ff1681565b3480156106ca575f80fd5b506102ec6106d9366004612f80565b611154565b3480156106e9575f80fd5b506103f26106f836600461336a565b611265565b348015610708575f80fd5b506102a261071736600461309e565b6112f1565b348015610727575f80fd5b506102c3610736366004612fad565b611379565b348015610746575f80fd5b506106107f000000000000000000000000000000000000000000000000000000000000000081565b348015610779575f80fd5b506102a2610788366004613273565b611386565b348015610798575f80fd5b5061038561271081565b3480156107ad575f80fd5b506102a26107bc36600461341b565b6113e2565b6102a26107cf366004612e6d565b611467565b3480156107df575f80fd5b506103856107ee366004613484565b6001600160a01b039182165f90815260086020908152604080832093909416825291909152205490565b348015610823575f80fd5b506102a26108323660046134bb565b611677565b348015610842575f80fd5b506103c1600181565b348015610856575f80fd5b506102a26108653660046134f4565b6116e0565b348015610875575f80fd5b506102a261088436600461309e565b6117fa565b348015610894575f80fd5b506102a26108a3366004613273565b611853565b3480156108b3575f80fd5b506102ec6108c23660046135b4565b611890565b3480156108d2575f80fd5b5030610610565b337f00000000000000000000000000000000000000000000000000000000000000006001600160a01b0316146109565760405162461bcd60e51b815260206004820152601e60248201527f4c7a4170703a20696e76616c696420656e64706f696e742063616c6c6572000060448201526064015b60405180910390fd5b61ffff86165f9081526001602052604081208054610973906135fe565b80601f016020809104026020016040519081016040528092919081815260200182805461099f906135fe565b80156109ea5780601f106109c1576101008083540402835291602001916109ea565b820191905f5260205f20905b8154815290600101906020018083116109cd57829003601f168201915b50505050509050805186869050148015610a0457505f8151115b8015610a2c575080516020820120604051610a229088908890613630565b6040518091039020145b610a875760405162461bcd60e51b815260206004820152602660248201527f4c7a4170703a20696e76616c696420736f757263652073656e64696e6720636f6044820152651b9d1c9858dd60d21b606482015260840161094d565b610afb8787878080601f0160208091040260200160405190810160405280939291908181526020018383808284375f9201919091525050604080516020601f8a018190048102820181019092528881528a9350915088908890819084018382808284375f9201919091525061193d92505050565b50505050505050565b5f6001600160e01b03198216631f7ecdf760e01b1480610b3457506301ffc9a760e01b6001600160e01b03198316145b92915050565b6060600a8054610b49906135fe565b80601f0160208091040260200160405190810160405280929190818152602001828054610b75906135fe565b8015610bc05780601f10610b9757610100808354040283529160200191610bc0565b820191905f5260205f20905b815481529060010190602001808311610ba357829003601f168201915b5050505050905090565b610bd26119b5565b6040516307e0db1760e01b815261ffff821660048201527f00000000000000000000000000000000000000000000000000000000000000006001600160a01b0316906307e0db17906024015b5f604051808303815f87803b158015610c35575f80fd5b505af1158015610c47573d5f803e3d5ffd5b5050505050565b5f33610c5b8185856119e1565b5060019392505050565b610c6d6119b5565b61ffff9091165f90815260036020526040902055565b610c8b6119b5565b6040516310ddb13760e01b815261ffff821660048201527f00000000000000000000000000000000000000000000000000000000000000006001600160a01b0316906310ddb13790602401610c1e565b5f33610ce88582856119f3565b610cf3858585611a6f565b506001949350505050565b5f80610d428888888888888080601f0160208091040260200160405190810160405280939291908181526020018383808284375f92019190915250611acc92505050565b91509150965096945050505050565b61ffff83165f9081526001602052604081208054829190610d71906135fe565b80601f0160208091040260200160405190810160405280929190818152602001828054610d9d906135fe565b8015610de85780601f10610dbf57610100808354040283529160200191610de8565b820191905f5260205f20905b815481529060010190602001808311610dcb57829003601f168201915b505050505090508383604051610dff929190613630565b60405180910390208180519060200120149150509392505050565b610e226119b5565b6040516342d65a8d60e01b81526001600160a01b037f000000000000000000000000000000000000000000000000000000000000000016906342d65a8d90610e7290869086908690600401613667565b5f604051808303815f87803b158015610e89575f80fd5b505af1158015610afb573d5f803e3d5ffd5b333014610ef95760405162461bcd60e51b815260206004820152602660248201527f4e6f6e626c6f636b696e674c7a4170703a2063616c6c6572206d7573742062656044820152650204c7a4170760d41b606482015260840161094d565b610f6d8686868080601f0160208091040260200160405190810160405280939291908181526020018383808284375f9201919091525050604080516020601f8901819004810282018101909252878152899350915087908790819084018382808284375f92019190915250611bbb92505050565b505050505050565b610f6d85858585610f896020870187613273565b610f996040880160208901613273565b610fa66040890189613684565b8080601f0160208091040260200160405190810160405280939291908181526020018383808284375f92019190915250611c4092505050565b610fe76119b5565b610ff05f611d25565b565b60016020525f90815260409020805461100a906135fe565b80601f0160208091040260200160405190810160405280929190818152602001828054611036906135fe565b80156110815780601f1061105857610100808354040283529160200191611081565b820191905f5260205f20905b81548152906001019060200180831161106457829003601f168201915b505050505081565b61112b8888888888888080601f0160208091040260200160405190810160405280939291908181526020018383808284375f920191909152508a92506110d59150506020890189613273565b6110e560408a0160208b01613273565b6110f260408b018b613684565b8080601f0160208091040260200160405190810160405280939291908181526020018383808284375f92019190915250611d7492505050565b505050505050505050565b5f61114060095490565b905090565b6060600b8054610b49906135fe565b61ffff81165f90815260016020526040812080546060929190611176906135fe565b80601f01602080910402602001604051908101604052809291908181526020018280546111a2906135fe565b80156111ed5780601f106111c4576101008083540402835291602001916111ed565b820191905f5260205f20905b8154815290600101906020018083116111d057829003601f168201915b5050505050905080515f036112445760405162461bcd60e51b815260206004820152601d60248201527f4c7a4170703a206e6f20747275737465642070617468207265636f7264000000604482015260640161094d565b61125e5f6014835161125691906136da565b839190611e6d565b9392505050565b5f806112df8b8b8b8b8b8080601f0160208091040260200160405190810160405280939291908181526020018383808284375f9201919091525050604080516020601f8d018190048102820181019092528b81528e93508d9250908c908c90819084018382808284375f92019190915250611f7992505050565b91509150995099975050505050505050565b6112f96119b5565b81813060405160200161130e939291906136ed565b60408051601f1981840301815291815261ffff85165f908152600160205220906113389082613757565b507f8c0400cfe2d1199b1a725c78960bcc2a344d869b80590d0f2bd005db15a572ce83838360405161136c93929190613667565b60405180910390a1505050565b5f33610c5b818585611a6f565b61138e6119b5565b600480546001600160a01b0319166001600160a01b0383169081179091556040519081527f5db758e995a17ec1ad84bdef7e8c3293a0bd6179bcce400dff5d4c3d87db726b9060200160405180910390a150565b6113ea6119b5565b6040516332fb62e760e21b81526001600160a01b037f0000000000000000000000000000000000000000000000000000000000000000169063cbed8b9c9061143e9088908890889088908890600401613812565b5f604051808303815f87803b158015611455575f80fd5b505af115801561112b573d5f803e3d5ffd5b61ffff86165f9081526005602052604080822090516114899088908890613630565b90815260408051602092819003830190206001600160401b0387165f90815292529020549050806115085760405162461bcd60e51b815260206004820152602360248201527f4e6f6e626c6f636b696e674c7a4170703a206e6f2073746f726564206d65737360448201526261676560e81b606482015260840161094d565b808383604051611519929190613630565b6040518091039020146115785760405162461bcd60e51b815260206004820152602160248201527f4e6f6e626c6f636b696e674c7a4170703a20696e76616c6964207061796c6f616044820152601960fa1b606482015260840161094d565b61ffff87165f90815260056020526040808220905161159a9089908990613630565b90815260408051602092819003830181206001600160401b0389165f90815290845282902093909355601f8801829004820283018201905286825261162f91899189908990819084018382808284375f9201919091525050604080516020601f8a018190048102820181019092528881528a9350915088908890819084018382808284375f92019190915250611bbb92505050565b7fc264d91f3adc5588250e1551f547752ca0cfa8f6b530d243b9f9f4cab10ea8e5878787878560405161166695949392919061384a565b60405180910390a150505050505050565b61167f6119b5565b61ffff8381165f8181526002602090815260408083209487168084529482529182902085905581519283528201929092529081018290527f9d5c7c0b934da8fefa9c7760c98383778a12dfbfc0c3b3106518f43fb9508ac09060600161136c565b33301461172f5760405162461bcd60e51b815260206004820152601f60248201527f4f4654436f72653a2063616c6c6572206d757374206265204f4654436f726500604482015260640161094d565b61173a308686612030565b9350846001600160a01b03168a61ffff167fbf551ec93859b170f9b2141bd9298bf3f64322c6f7beb2543a0cb669834118bf8660405161177c91815260200190565b60405180910390a3604051633fe79aed60e11b81526001600160a01b03861690637fcf35da9083906117c0908e908e908e908e908e908d908d908d90600401613884565b5f604051808303815f88803b1580156117d7575f80fd5b5087f11580156117e9573d5f803e3d5ffd5b505050505050505050505050505050565b6118026119b5565b61ffff83165f90815260016020526040902061181f8284836138de565b507ffa41487ad5d6728f0b19276fa1eddc16558578f5109fc39d2dc33c3230470dab83838360405161136c93929190613667565b61185b6119b5565b6001600160a01b03811661188457604051631e4fbdf760e01b81525f600482015260240161094d565b61188d81611d25565b50565b604051633d7b2f6f60e21b815261ffff808616600483015284166024820152306044820152606481018290526060907f00000000000000000000000000000000000000000000000000000000000000006001600160a01b03169063f5ecbdbc906084015f60405180830381865afa15801561190d573d5f803e3d5ffd5b505050506040513d5f823e601f3d908101601f191682016040526119349190810190613997565b95945050505050565b5f8061199f5a60966366ad5c8a60e01b8989898960405160240161196494939291906139ff565b60408051601f198184030181529190526020810180516001600160e01b03166001600160e01b03199093169290921790915230929190612081565b9150915081610f6d57610f6d8686868685612105565b5f546001600160a01b03163314610ff05760405163118cdaa760e01b815233600482015260240161094d565b6119ee838383600161219f565b505050565b6001600160a01b038381165f908152600860209081526040808320938616835292905220545f19811015611a695781811015611a5b57604051637dc7a0d960e11b81526001600160a01b0384166004820152602481018290526044810183905260640161094d565b611a6984848484035f61219f565b50505050565b6001600160a01b038316611a9857604051634b637e8f60e11b81525f600482015260240161094d565b6001600160a01b038216611ac15760405163ec442f0560e01b81525f600482015260240161094d565b6119ee838383612271565b5f805f611b1787611adc88612397565b604080515f6020820152602181019390935260c09190911b6001600160c01b0319166041830152805160298184030181526049909201905290565b60405163040a7bb160e41b81529091506001600160a01b037f000000000000000000000000000000000000000000000000000000000000000016906340a7bb1090611b6e908b90309086908b908b90600401613a3c565b6040805180830381865afa158015611b88573d5f803e3d5ffd5b505050506040513d601f19601f82011682018060405250810190611bac9190613a8f565b92509250509550959350505050565b5f611bc6828261241c565b905060ff8116611be157611bdc85858585612477565b610c47565b5f1960ff821601611bf857611bdc85858585612505565b60405162461bcd60e51b815260206004820152601c60248201527f4f4654436f72653a20756e6b6e6f776e207061636b6574207479706500000000604482015260640161094d565b5f611c4d87828481612708565b611c56856127db565b509050611c658888888461281a565b90505f8111611cb25760405162461bcd60e51b815260206004820152601960248201527813d19510dbdc994e88185b5bdd5b9d081d1bdbc81cdb585b1b603a1b604482015260640161094d565b5f611cc087611adc84612397565b9050611cd088828787873461284b565b86896001600160a01b03168961ffff167fd81fc9b8523134ed613870ed029d6170cbb73aa6a6bc311b9a642689fb9df59a85604051611d1191815260200190565b60405180910390a450979650505050505050565b5f80546001600160a01b038381166001600160a01b0319831681178455604051919092169283917f8be0079c531659141344cd1fd0a4f28419497f9722a3daafe3b4186f6b6457e09190a35050565b5f611d8b896001846001600160401b038916612708565b611d94876127db565b509050611da38a8a8a8461281a565b90505f8111611df05760405162461bcd60e51b815260206004820152601960248201527813d19510dbdc994e88185b5bdd5b9d081d1bdbc81cdb585b1b603a1b604482015260640161094d565b5f611e06338a611dff85612397565b8a8a6129e8565b9050611e168a828787873461284b565b888b6001600160a01b03168b61ffff167fd81fc9b8523134ed613870ed029d6170cbb73aa6a6bc311b9a642689fb9df59a85604051611e5791815260200190565b60405180910390a4509998505050505050505050565b606081611e7b81601f613ab1565b1015611eba5760405162461bcd60e51b815260206004820152600e60248201526d736c6963655f6f766572666c6f7760901b604482015260640161094d565b611ec48284613ab1565b84511015611f085760405162461bcd60e51b8152602060048201526011602482015270736c6963655f6f75744f66426f756e647360781b604482015260640161094d565b606082158015611f265760405191505f825260208201604052611f70565b6040519150601f8416801560200281840101858101878315602002848b0101015b81831015611f5f578051835260209283019201611f47565b5050858452601f01601f1916604052505b50949350505050565b5f805f611f8a338a611dff8b612397565b60405163040a7bb160e41b81529091506001600160a01b037f000000000000000000000000000000000000000000000000000000000000000016906340a7bb1090611fe1908d90309086908b908b90600401613a3c565b6040805180830381865afa158015611ffb573d5f803e3d5ffd5b505050506040513d601f19601f8201168201806040525081019061201f9190613a8f565b925092505097509795505050505050565b5f33306001600160a01b0386161480159061205d5750806001600160a01b0316856001600160a01b031614155b1561206d5761206d8582856119f3565b612078858585611a6f565b50909392505050565b5f60605f805f8661ffff166001600160401b038111156120a3576120a36130ec565b6040519080825280601f01601f1916602001820160405280156120cd576020820181803683370190505b5090505f808751602089015f8d8df191503d9250868311156120ed578692505b828152825f602083013e909890975095505050505050565b818051906020012060055f8761ffff1661ffff1681526020019081526020015f20856040516121349190613ac4565b9081526040805191829003602090810183206001600160401b0388165f908152915220919091557fe183f33de2837795525b4792ca4cd60535bd77c53b7e7030060bfcf5734d6b0c906121909087908790879087908790613adf565b60405180910390a15050505050565b6001600160a01b0384166121c85760405163e602df0560e01b81525f600482015260240161094d565b6001600160a01b0383166121f157604051634a1406b160e11b81525f600482015260240161094d565b6001600160a01b038085165f9081526008602090815260408083209387168352929052208290558015611a6957826001600160a01b0316846001600160a01b03167f8c5be1e5ebec7d5bd14f71427d1e84f3dd0314c0f7b2291e5b200ac8c7c3b9258460405161226391815260200190565b60405180910390a350505050565b6001600160a01b03831661229b578060095f8282546122909190613ab1565b9091555061230b9050565b6001600160a01b0383165f90815260076020526040902054818110156122ed5760405163391434e360e21b81526001600160a01b0385166004820152602481018290526044810183905260640161094d565b6001600160a01b0384165f9081526007602052604090209082900390555b6001600160a01b03821661232757600980548290039055612345565b6001600160a01b0382165f9081526007602052604090208054820190555b816001600160a01b0316836001600160a01b03167fddf252ad1be2c89b69c2b068fc378daa952ba7f163c4a11628f55a4df523b3ef8360405161238a91815260200190565b60405180910390a3505050565b5f806123c37f000000000000000000000000000000000000000000000000000000000000000084613b44565b90506001600160401b03811115610b345760405162461bcd60e51b815260206004820152601a60248201527f4f4654436f72653a20616d6f756e745344206f766572666c6f77000000000000604482015260640161094d565b5f612428826001613ab1565b8351101561246e5760405162461bcd60e51b8152602060048201526013602482015272746f55696e74385f6f75744f66426f756e647360681b604482015260640161094d565b50016001015190565b5f8061248283612a29565b90925090506001600160a01b03821661249b5761dead91505b5f6124a582612aad565b90506124b2878483612ae1565b9050826001600160a01b03168761ffff167fbf551ec93859b170f9b2141bd9298bf3f64322c6f7beb2543a0cb669834118bf836040516124f491815260200190565b60405180910390a350505050505050565b5f805f805f61251386612af3565b945094509450945094505f60065f8b61ffff1661ffff1681526020019081526020015f20896040516125459190613ac4565b90815260408051602092819003830190206001600160401b038b165f908152925281205460ff16915061257785612aad565b9050816125e3576125898b3083612ae1565b61ffff8c165f908152600660205260409081902090519192506001916125b0908d90613ac4565b90815260408051602092819003830190206001600160401b038d165f90815292529020805460ff19169115159190911790555b6001600160a01b0386163b61263a576040516001600160a01b03871681527f9aedf5fdba8716db3b6705ca00150643309995d4f818a249ed6dde6677e7792d9060200160405180910390a150505050505050611a69565b8a8a8a8a8a8a868a5f8a612657578b6001600160401b0316612659565b5a5b90505f8061268a5a609663eaffd49a60e01b8e8e8e8d8d8d8d8d604051602401611964989796959493929190613b57565b9150915081156126e3578751602089012060405161ffff8d16907fb8890edbfc1c74692f527444645f95489c3703cc2df42e4a366f5d06fa6cd884906126d5908e908e908690613bca565b60405180910390a2506126f0565b6126f08b8b8b8b85612105565b50505050505050505050505050505050505050505050565b5f61271283612ba9565b61ffff8087165f90815260026020908152604080832093891683529290522054909150806127825760405162461bcd60e51b815260206004820152601a60248201527f4c7a4170703a206d696e4761734c696d6974206e6f7420736574000000000000604482015260640161094d565b61278c8382613ab1565b821015610f6d5760405162461bcd60e51b815260206004820152601b60248201527f4c7a4170703a20676173206c696d697420697320746f6f206c6f770000000000604482015260640161094d565b5f806128077f000000000000000000000000000000000000000000000000000000000000000084613bf7565b905061281381846136da565b9150915091565b5f336001600160a01b0386168114612837576128378682856119f3565b6128418684612c04565b5090949350505050565b61ffff86165f9081526001602052604081208054612868906135fe565b80601f0160208091040260200160405190810160405280929190818152602001828054612894906135fe565b80156128df5780601f106128b6576101008083540402835291602001916128df565b820191905f5260205f20905b8154815290600101906020018083116128c257829003601f168201915b5050505050905080515f0361294f5760405162461bcd60e51b815260206004820152603060248201527f4c7a4170703a2064657374696e6174696f6e20636861696e206973206e6f742060448201526f61207472757374656420736f7572636560801b606482015260840161094d565b61295a878751612c3c565b60405162c5803160e81b81526001600160a01b037f0000000000000000000000000000000000000000000000000000000000000000169063c58031009084906129b1908b9086908c908c908c908c90600401613c0a565b5f604051808303818588803b1580156129c8575f80fd5b505af11580156129da573d5f803e3d5ffd5b505050505050505050505050565b6060600185856001600160a01b0389168587604051602001612a0f96959493929190613c70565b604051602081830303815290604052905095945050505050565b5f8080612a36848261241c565b60ff16148015612a47575082516029145b612a8e5760405162461bcd60e51b815260206004820152601860248201527713d19510dbdc994e881a5b9d985b1a59081c185e5b1bd85960421b604482015260640161094d565b612a9983600d612cac565b9150612aa6836021612d10565b9050915091565b5f610b347f00000000000000000000000000000000000000000000000000000000000000006001600160401b038416613cd0565b5f612aec8383612d6c565b5092915050565b5f80806060816001612b05878361241c565b60ff1614612b505760405162461bcd60e51b815260206004820152601860248201527713d19510dbdc994e881a5b9d985b1a59081c185e5b1bd85960421b604482015260640161094d565b612b5b86600d612cac565b9350612b68866021612d10565b9250612b75866029612da0565b9450612b82866049612d10565b9050612b9e6051808851612b9691906136da565b889190611e6d565b915091939590929450565b5f602282511015612bfc5760405162461bcd60e51b815260206004820152601c60248201527f4c7a4170703a20696e76616c69642061646170746572506172616d7300000000604482015260640161094d565b506022015190565b6001600160a01b038216612c2d57604051634b637e8f60e11b81525f600482015260240161094d565b612c38825f83612271565b5050565b61ffff82165f9081526003602052604081205490819003612c5c57506127105b808211156119ee5760405162461bcd60e51b815260206004820181905260248201527f4c7a4170703a207061796c6f61642073697a6520697320746f6f206c61726765604482015260640161094d565b5f612cb8826014613ab1565b83511015612d005760405162461bcd60e51b8152602060048201526015602482015274746f416464726573735f6f75744f66426f756e647360581b604482015260640161094d565b500160200151600160601b900490565b5f612d1c826008613ab1565b83511015612d635760405162461bcd60e51b8152602060048201526014602482015273746f55696e7436345f6f75744f66426f756e647360601b604482015260640161094d565b50016008015190565b6001600160a01b038216612d955760405163ec442f0560e01b81525f600482015260240161094d565b612c385f8383612271565b5f612dac826020613ab1565b83511015612df45760405162461bcd60e51b8152602060048201526015602482015274746f427974657333325f6f75744f66426f756e647360581b604482015260640161094d565b50016020015190565b803561ffff81168114612e0e575f80fd5b919050565b5f8083601f840112612e23575f80fd5b5081356001600160401b03811115612e39575f80fd5b602083019150836020828501011115612e50575f80fd5b9250929050565b80356001600160401b0381168114612e0e575f80fd5b5f805f805f8060808789031215612e82575f80fd5b612e8b87612dfd565b955060208701356001600160401b0380821115612ea6575f80fd5b612eb28a838b01612e13565b9097509550859150612ec660408a01612e57565b94506060890135915080821115612edb575f80fd5b50612ee889828a01612e13565b979a9699509497509295939492505050565b5f60208284031215612f0a575f80fd5b81356001600160e01b03198116811461125e575f80fd5b5f5b83811015612f3b578181015183820152602001612f23565b50505f910152565b5f8151808452612f5a816020860160208601612f21565b601f01601f19169290920160200192915050565b602081525f61125e6020830184612f43565b5f60208284031215612f90575f80fd5b61125e82612dfd565b6001600160a01b038116811461188d575f80fd5b5f8060408385031215612fbe575f80fd5b8235612fc981612f99565b946020939093013593505050565b5f8060408385031215612fe8575f80fd5b612fc983612dfd565b5f805f60608486031215613003575f80fd5b833561300e81612f99565b9250602084013561301e81612f99565b929592945050506040919091013590565b80358015158114612e0e575f80fd5b5f805f805f8060a08789031215613053575f80fd5b61305c87612dfd565b955060208701359450604087013593506130786060880161302f565b925060808701356001600160401b03811115613092575f80fd5b612ee889828a01612e13565b5f805f604084860312156130b0575f80fd5b6130b984612dfd565b925060208401356001600160401b038111156130d3575f80fd5b6130df86828701612e13565b9497909650939450505050565b634e487b7160e01b5f52604160045260245ffd5b604051601f8201601f191681016001600160401b0381118282101715613128576131286130ec565b604052919050565b5f6001600160401b03821115613148576131486130ec565b50601f01601f191660200190565b5f805f60608486031215613168575f80fd5b61317184612dfd565b925060208401356001600160401b0381111561318b575f80fd5b8401601f8101861361319b575f80fd5b80356131ae6131a982613130565b613100565b8181528760208385010111156131c2575f80fd5b816020840160208301375f602083830101528094505050506131e660408501612e57565b90509250925092565b5f606082840312156131ff575f80fd5b50919050565b5f805f805f60a08688031215613219575f80fd5b853561322481612f99565b945061323260208701612dfd565b9350604086013592506060860135915060808601356001600160401b0381111561325a575f80fd5b613266888289016131ef565b9150509295509295909350565b5f60208284031215613283575f80fd5b813561125e81612f99565b5f805f805f805f8060e0898b0312156132a5575f80fd5b88356132b081612f99565b97506132be60208a01612dfd565b9650604089013595506060890135945060808901356001600160401b03808211156132e7575f80fd5b6132f38c838d01612e13565b909650945084915061330760a08c01612e57565b935060c08b013591508082111561331c575f80fd5b506133298b828c016131ef565b9150509295985092959890939650565b5f806040838503121561334a575f80fd5b61335383612dfd565b915061336160208401612dfd565b90509250929050565b5f805f805f805f805f60e08a8c031215613382575f80fd5b61338b8a612dfd565b985060208a0135975060408a0135965060608a01356001600160401b03808211156133b4575f80fd5b6133c08d838e01612e13565b90985096508691506133d460808d01612e57565b95506133e260a08d0161302f565b945060c08c01359150808211156133f7575f80fd5b506134048c828d01612e13565b915080935050809150509295985092959850929598565b5f805f805f6080868803121561342f575f80fd5b61343886612dfd565b945061344660208701612dfd565b93506040860135925060608601356001600160401b03811115613467575f80fd5b61347388828901612e13565b969995985093965092949392505050565b5f8060408385031215613495575f80fd5b82356134a081612f99565b915060208301356134b081612f99565b809150509250929050565b5f805f606084860312156134cd575f80fd5b6134d684612dfd565b92506134e460208501612dfd565b9150604084013590509250925092565b5f805f805f805f805f806101008b8d03121561350e575f80fd5b6135178b612dfd565b995060208b01356001600160401b0380821115613532575f80fd5b61353e8e838f01612e13565b909b50995089915061355260408e01612e57565b985060608d0135975060808d0135915061356b82612f99565b90955060a08c0135945060c08c01359080821115613587575f80fd5b506135948d828e01612e13565b9150809450508092505060e08b013590509295989b9194979a5092959850565b5f805f80608085870312156135c7575f80fd5b6135d085612dfd565b93506135de60208601612dfd565b925060408501356135ee81612f99565b9396929550929360600135925050565b600181811c9082168061361257607f821691505b6020821081036131ff57634e487b7160e01b5f52602260045260245ffd5b818382375f9101908152919050565b81835281816020850137505f828201602090810191909152601f909101601f19169091010190565b61ffff84168152604060208201525f61193460408301848661363f565b5f808335601e19843603018112613699575f80fd5b8301803591506001600160401b038211156136b2575f80fd5b602001915036819003821315612e50575f80fd5b634e487b7160e01b5f52601160045260245ffd5b81810381811115610b3457610b346136c6565b8284823760609190911b6bffffffffffffffffffffffff19169101908152601401919050565b601f8211156119ee57805f5260205f20601f840160051c810160208510156137385750805b601f840160051c820191505b81811015610c47575f8155600101613744565b81516001600160401b03811115613770576137706130ec565b6137848161377e84546135fe565b84613713565b602080601f8311600181146137b7575f84156137a05750858301515b5f19600386901b1c1916600185901b178555610f6d565b5f85815260208120601f198616915b828110156137e5578886015182559484019460019091019084016137c6565b508582101561380257878501515f19600388901b60f8161c191681555b5050505050600190811b01905550565b5f61ffff80881683528087166020840152508460408301526080606083015261383f60808301848661363f565b979650505050505050565b61ffff86168152608060208201525f61386760808301868861363f565b6001600160401b0394909416604083015250606001529392505050565b61ffff8916815260c060208201525f6138a160c08301898b61363f565b6001600160401b038816604084015286606084015285608084015282810360a08401526138cf81858761363f565b9b9a5050505050505050505050565b6001600160401b038311156138f5576138f56130ec565b6139098361390383546135fe565b83613713565b5f601f84116001811461393a575f85156139235750838201355b5f19600387901b1c1916600186901b178355610c47565b5f83815260208120601f198716915b828110156139695786850135825560209485019460019092019101613949565b5086821015613985575f1960f88860031b161c19848701351681555b505060018560011b0183555050505050565b5f602082840312156139a7575f80fd5b81516001600160401b038111156139bc575f80fd5b8201601f810184136139cc575f80fd5b80516139da6131a982613130565b8181528560208385010111156139ee575f80fd5b611934826020830160208601612f21565b61ffff85168152608060208201525f613a1b6080830186612f43565b6001600160401b0385166040840152828103606084015261383f8185612f43565b61ffff861681526001600160a01b038516602082015260a0604082018190525f90613a6990830186612f43565b84151560608401528281036080840152613a838185612f43565b98975050505050505050565b5f8060408385031215613aa0575f80fd5b505080516020909101519092909150565b80820180821115610b3457610b346136c6565b5f8251613ad5818460208701612f21565b9190910192915050565b61ffff8616815260a060208201525f613afb60a0830187612f43565b6001600160401b03861660408401528281036060840152613b1c8186612f43565b90508281036080840152613a838185612f43565b634e487b7160e01b5f52601260045260245ffd5b5f82613b5257613b52613b30565b500490565b5f61010061ffff8b168352806020840152613b748184018b612f43565b6001600160401b038a166040850152606084018990526001600160a01b038816608085015260a0840187905283810360c08501529050613bb48186612f43565b9150508260e08301529998505050505050505050565b606081525f613bdc6060830186612f43565b6001600160401b039490941660208301525060400152919050565b5f82613c0557613c05613b30565b500690565b61ffff8716815260c060208201525f613c2660c0830188612f43565b8281036040840152613c388188612f43565b6001600160a01b0387811660608601528616608085015283810360a08501529050613c638185612f43565b9998505050505050505050565b60ff60f81b8760f81b1681528560018201525f6001600160401b0360c01b808760c01b166021840152856029840152808560c01b166049840152508251613cbe816051850160208701612f21565b91909101605101979650505050505050565b8082028115828204841417610b3457610b346136c656fea26469706673582212208a3e75f8ec913a7026f9baf277c6e738d33e30dbb3131e996518dde06ba6854164736f6c63430008180033","linkReferences":{}},"methodIdentifiers":{"DEFAULT_PAYLOAD_SIZE_LIMIT()":"c4461834","NO_EXTRA_GAS()":"44770515","PT_SEND()":"4c42899a","PT_SEND_AND_CALL()":"e6a20ae6","allowance(address,address)":"dd62ed3e","approve(address,uint256)":"095ea7b3","balanceOf(address)":"70a08231","callOnOFTReceived(uint16,bytes,uint64,bytes32,address,uint256,bytes,uint256)":"eaffd49a","circulatingSupply()":"9358928b","creditedPackets(uint16,bytes,uint64)":"9bdb9812","decimals()":"313ce567","estimateSendAndCallFee(uint16,bytes32,uint256,bytes,uint64,bool,bytes)":"a4c51df5","estimateSendFee(uint16,bytes32,uint256,bool,bytes)":"365260b4","failedMessages(uint16,bytes,uint64)":"5b8c41e6","forceResumeReceive(uint16,bytes)":"42d65a8d","getConfig(uint16,uint16,address,uint256)":"f5ecbdbc","getTrustedRemoteAddress(uint16)":"9f38369a","isTrustedRemote(uint16,bytes)":"3d8b38f6","lzEndpoint()":"b353aaa7","lzReceive(uint16,bytes,uint64,bytes)":"001d3567","minDstGasLookup(uint16,uint16)":"8cfd8f5c","name()":"06fdde03","nonblockingLzReceive(uint16,bytes,uint64,bytes)":"66ad5c8a","owner()":"8da5cb5b","payloadSizeLimitLookup(uint16)":"3f1f4fa4","precrime()":"950c8a74","renounceOwnership()":"715018a6","retryMessage(uint16,bytes,uint64,bytes)":"d1deba1f","sendAndCall(address,uint16,bytes32,uint256,bytes,uint64,(address,address,bytes))":"76203b48","sendFrom(address,uint16,bytes32,uint256,(address,address,bytes))":"695ef6bf","setConfig(uint16,uint16,uint256,bytes)":"cbed8b9c","setMinDstGas(uint16,uint16,uint256)":"df2a5b3b","setPayloadSizeLimit(uint16,uint256)":"0df37483","setPrecrime(address)":"baf3292d","setReceiveVersion(uint16)":"10ddb137","setSendVersion(uint16)":"07e0db17","setTrustedRemote(uint16,bytes)":"eb8d72b7","setTrustedRemoteAddress(uint16,bytes)":"a6c3d165","sharedDecimals()":"857749b0","supportsInterface(bytes4)":"01ffc9a7","symbol()":"95d89b41","token()":"fc0c546a","totalSupply()":"18160ddd","transfer(address,uint256)":"a9059cbb","transferFrom(address,address,uint256)":"23b872dd","transferOwnership(address)":"f2fde38b","trustedRemoteLookup(uint16)":"7533d788"},"id":68}