{"abi":[{"type":"constructor","inputs":[],"stateMutability":"nonpayable"},{"type":"function","name":"allocateToPrime","inputs":[{"name":"_amount","type":"uint256","internalType":"uint256"}],"outputs":[],"stateMutability":"nonpayable"},{"type":"function","name":"createPrimeAccount","inputs":[{"name":"_partner","type":"address","internalType":"address"},{"name":"_vault","type":"address","internalType":"address"}],"outputs":[],"stateMutability":"nonpayable"},{"type":"function","name":"deallocateFromPrime","inputs":[{"name":"_amount","type":"uint256","internalType":"uint256"}],"outputs":[],"stateMutability":"nonpayable"},{"type":"function","name":"owner","inputs":[],"outputs":[{"name":"","type":"address","internalType":"address"}],"stateMutability":"view"},{"type":"function","name":"primeAccounts","inputs":[{"name":"","type":"address","internalType":"address"}],"outputs":[{"name":"active","type":"bool","internalType":"bool"},{"name":"balance","type":"uint256","internalType":"uint256"},{"name":"lastTradeTimestamp","type":"uint256","internalType":"uint256"},{"name":"vault","type":"address","internalType":"address"}],"stateMutability":"view"},{"type":"function","name":"primeFeeBps","inputs":[],"outputs":[{"name":"","type":"uint256","internalType":"uint256"}],"stateMutability":"view"},{"type":"function","name":"renounceOwnership","inputs":[],"outputs":[],"stateMutability":"nonpayable"},{"type":"function","name":"setPrimeFee","inputs":[{"name":"_newFeeBps","type":"uint256","internalType":"uint256"}],"outputs":[],"stateMutability":"nonpayable"},{"type":"function","name":"totalPrimeAUM","inputs":[],"outputs":[{"name":"","type":"uint256","internalType":"uint256"}],"stateMutability":"view"},{"type":"function","name":"transferOwnership","inputs":[{"name":"newOwner","type":"address","internalType":"address"}],"outputs":[],"stateMutability":"nonpayable"},{"type":"event","name":"FundsAllocated","inputs":[{"name":"partner","type":"address","indexed":true,"internalType":"address"},{"name":"amount","type":"uint256","indexed":false,"internalType":"uint256"}],"anonymous":false},{"type":"event","name":"FundsDeallocated","inputs":[{"name":"partner","type":"address","indexed":true,"internalType":"address"},{"name":"amount","type":"uint256","indexed":false,"internalType":"uint256"}],"anonymous":false},{"type":"event","name":"OwnershipTransferred","inputs":[{"name":"previousOwner","type":"address","indexed":true,"internalType":"address"},{"name":"newOwner","type":"address","indexed":true,"internalType":"address"}],"anonymous":false},{"type":"event","name":"PrimeAccountCreated","inputs":[{"name":"partner","type":"address","indexed":true,"internalType":"address"},{"name":"vault","type":"address","indexed":false,"internalType":"address"}],"anonymous":false},{"type":"error","name":"OwnableInvalidOwner","inputs":[{"name":"owner","type":"address","internalType":"address"}]},{"type":"error","name":"OwnableUnauthorizedAccount","inputs":[{"name":"account","type":"address","internalType":"address"}]}],"bytecode":{"object":"0x60806040526032600355348015610014575f80fd5b50338061003a57604051631e4fbdf760e01b81525f600482015260240160405180910390fd5b61004381610049565b50610098565b5f80546001600160a01b038381166001600160a01b0319831681178455604051919092169283917f8be0079c531659141344cd1fd0a4f28419497f9722a3daafe3b4186f6b6457e09190a35050565b61075a806100a55f395ff3fe608060405234801561000f575f80fd5b506004361061009b575f3560e01c8063715018a611610063578063715018a61461016557806388b304f91461016d5780638da5cb5b14610176578063c978394214610190578063f2fde38b146101a3575f80fd5b80630e73e8a51461009f578063165c29e5146100b4578063380436e3146101285780634bd093421461013f578063591a221714610152575b5f80fd5b6100b26100ad366004610661565b6101b6565b005b6100f86100c2366004610693565b600160208190525f9182526040909120805491810154600282015460039092015460ff909316929091906001600160a01b031684565b6040805194151585526020850193909352918301526001600160a01b031660608201526080015b60405180910390f35b61013160025481565b60405190815260200161011f565b6100b261014d366004610661565b610209565b6100b2610160366004610661565b610329565b6100b2610486565b61013160035481565b5f546040516001600160a01b03909116815260200161011f565b6100b261019e3660046106b3565b610499565b6100b26101b1366004610693565b6105a9565b6101be6105e6565b6101f48111156102045760405162461bcd60e51b815260206004820152600c60248201526b08ccaca40e8dede40d0d2ced60a31b60448201526064015b60405180910390fd5b600355565b335f908152600160205260409020805460ff1661025e5760405162461bcd60e51b81526020600482015260136024820152722737ba103090283934b6b2903830b93a3732b960691b60448201526064016101fb565b60038101546040516337f7cac560e11b8152306004820152602481018490526001600160a01b0390911690636fef958a906044015f604051808303815f87803b1580156102a9575f80fd5b505af11580156102bb573d5f803e3d5ffd5b5050505081816001015f8282546102d291906106f8565b925050819055508160025f8282546102ea91906106f8565b909155505060405182815233907f870f86672db2c7b197484fa0218e97fe38eb7c89fd39ed2c4c910734c66182f8906020015b60405180910390a25050565b335f908152600160205260409020805460ff1661037e5760405162461bcd60e51b81526020600482015260136024820152722737ba103090283934b6b2903830b93a3732b960691b60448201526064016101fb565b81816001015410156103c95760405162461bcd60e51b8152602060048201526014602482015273496e73756666696369656e742062616c616e636560601b60448201526064016101fb565b81816001015f8282546103dc9190610711565b925050819055508160025f8282546103f49190610711565b909155505060038101546040516308fe7d7f60e01b8152600481018490526001600160a01b03909116906308fe7d7f906024015f604051808303815f87803b15801561043e575f80fd5b505af1158015610450573d5f803e3d5ffd5b50506040518481523392507f2f49fc40f7d3cf3e81122c50d30fae137ab96505f427cbaedc76a6bb33c753fa915060200161031d565b61048e6105e6565b6104975f610612565b565b6104a16105e6565b6001600160a01b0382165f9081526001602052604090205460ff16156105025760405162461bcd60e51b81526020600482015260166024820152754163636f756e7420616c72656164792065786973747360501b60448201526064016101fb565b6040805160808101825260018082525f6020808401828152428587019081526001600160a01b03888116606088018181528b8316808852888752968a90209851895460ff1916901515178955935196880196909655905160028701559051600390950180546001600160a01b031916959091169490941790935592519081527fc9a97ec97638dd4a466b3d8e0639355c4c27932932ffcb3f818e2107a11e43f5910161031d565b6105b16105e6565b6001600160a01b0381166105da57604051631e4fbdf760e01b81525f60048201526024016101fb565b6105e381610612565b50565b5f546001600160a01b031633146104975760405163118cdaa760e01b81523360048201526024016101fb565b5f80546001600160a01b038381166001600160a01b0319831681178455604051919092169283917f8be0079c531659141344cd1fd0a4f28419497f9722a3daafe3b4186f6b6457e09190a35050565b5f60208284031215610671575f80fd5b5035919050565b80356001600160a01b038116811461068e575f80fd5b919050565b5f602082840312156106a3575f80fd5b6106ac82610678565b9392505050565b5f80604083850312156106c4575f80fd5b6106cd83610678565b91506106db60208401610678565b90509250929050565b634e487b7160e01b5f52601160045260245ffd5b8082018082111561070b5761070b6106e4565b92915050565b8181038181111561070b5761070b6106e456fea2646970667358221220ee0809230494f0503ff97872976e54c752bf3131132377a4814177b069210c1c64736f6c63430008180033","linkReferences":{}},"methodIdentifiers":{"allocateToPrime(uint256)":"4bd09342","createPrimeAccount(address,address)":"c9783942","deallocateFromPrime(uint256)":"591a2217","owner()":"8da5cb5b","primeAccounts(address)":"165c29e5","primeFeeBps()":"88b304f9","renounceOwnership()":"715018a6","setPrimeFee(uint256)":"0e73e8a5","totalPrimeAUM()":"380436e3","transferOwnership(address)":"f2fde38b"},"id":58}