{
    "_format": "hh-sol-artifact-1",
    "contractName": "IndexAvalancheDeFi",
    "sourceName": "contracts/index/indices/IndexAvalancheDeFi.sol",
    "abi": [
        {
            "inputs": [],
            "stateMutability": "nonpayable",
            "type": "constructor"
        },
        {
            "inputs": [],
            "name": "Index_AboveMaxAmount",
            "type": "error"
        },
        {
            "inputs": [],
            "name": "Index_BelowMinAmount",
            "type": "error"
        },
        {
            "inputs": [],
            "name": "Index_ExceedEquityValuationLimit",
            "type": "error"
        },
        {
            "inputs": [],
            "name": "Index_NegativePrice",
            "type": "error"
        },
        {
            "inputs": [
                {
                    "internalType": "address",
                    "name": "token",
                    "type": "address"
                }
            ],
            "name": "Index_NotWhitelistedToken",
            "type": "error"
        },
        {
            "inputs": [],
            "name": "Index_WrongSwapAmount",
            "type": "error"
        },
        {
            "inputs": [],
            "name": "Index_WrongWeightPrecision",
            "type": "error"
        },
        {
            "inputs": [],
            "name": "Index_ZeroAddress",
            "type": "error"
        },
        {
            "inputs": [],
            "name": "SwapAdapter_WrongDEX",
            "type": "error"
        },
        {
            "inputs": [],
            "name": "SwapAdapter_WrongPair",
            "type": "error"
        },
        {
            "anonymous": false,
            "inputs": [
                {
                    "indexed": false,
                    "internalType": "address",
                    "name": "previousAdmin",
                    "type": "address"
                },
                {
                    "indexed": false,
                    "internalType": "address",
                    "name": "newAdmin",
                    "type": "address"
                }
            ],
            "name": "AdminChanged",
            "type": "event"
        },
        {
            "anonymous": false,
            "inputs": [
                {
                    "indexed": true,
                    "internalType": "address",
                    "name": "beacon",
                    "type": "address"
                }
            ],
            "name": "BeaconUpgraded",
            "type": "event"
        },
        {
            "anonymous": false,
            "inputs": [
                {
                    "indexed": true,
                    "internalType": "address",
                    "name": "sender",
                    "type": "address"
                },
                {
                    "indexed": true,
                    "internalType": "address",
                    "name": "recipient",
                    "type": "address"
                },
                {
                    "indexed": false,
                    "internalType": "uint256",
                    "name": "amountWETH",
                    "type": "uint256"
                },
                {
                    "indexed": false,
                    "internalType": "uint256",
                    "name": "amountIndex",
                    "type": "uint256"
                }
            ],
            "name": "Burn",
            "type": "event"
        },
        {
            "anonymous": false,
            "inputs": [
                {
                    "indexed": false,
                    "internalType": "uint8",
                    "name": "version",
                    "type": "uint8"
                }
            ],
            "name": "Initialized",
            "type": "event"
        },
        {
            "anonymous": false,
            "inputs": [
                {
                    "indexed": true,
                    "internalType": "address",
                    "name": "sender",
                    "type": "address"
                },
                {
                    "indexed": true,
                    "internalType": "address",
                    "name": "recipient",
                    "type": "address"
                },
                {
                    "indexed": false,
                    "internalType": "uint256",
                    "name": "amountWETH",
                    "type": "uint256"
                },
                {
                    "indexed": false,
                    "internalType": "uint256",
                    "name": "amountIndex",
                    "type": "uint256"
                }
            ],
            "name": "Mint",
            "type": "event"
        },
        {
            "anonymous": false,
            "inputs": [
                {
                    "indexed": true,
                    "internalType": "address",
                    "name": "previousOwner",
                    "type": "address"
                },
                {
                    "indexed": true,
                    "internalType": "address",
                    "name": "newOwner",
                    "type": "address"
                }
            ],
            "name": "OwnershipTransferred",
            "type": "event"
        },
        {
            "anonymous": false,
            "inputs": [
                {
                    "indexed": false,
                    "internalType": "address",
                    "name": "account",
                    "type": "address"
                }
            ],
            "name": "Paused",
            "type": "event"
        },
        {
            "anonymous": false,
            "inputs": [
                {
                    "indexed": false,
                    "internalType": "address",
                    "name": "account",
                    "type": "address"
                }
            ],
            "name": "Unpaused",
            "type": "event"
        },
        {
            "anonymous": false,
            "inputs": [
                {
                    "indexed": true,
                    "internalType": "address",
                    "name": "implementation",
                    "type": "address"
                }
            ],
            "name": "Upgraded",
            "type": "event"
        },
        {
            "inputs": [],
            "name": "WETH",
            "outputs": [
                {
                    "internalType": "address",
                    "name": "",
                    "type": "address"
                }
            ],
            "stateMutability": "view",
            "type": "function"
        },
        {
            "inputs": [
                {
                    "internalType": "address",
                    "name": "token",
                    "type": "address"
                },
                {
                    "internalType": "uint256",
                    "name": "amountTokenMin",
                    "type": "uint256"
                },
                {
                    "internalType": "uint256",
                    "name": "amountIndex",
                    "type": "uint256"
                },
                {
                    "internalType": "address",
                    "name": "recipient",
                    "type": "address"
                }
            ],
            "name": "burnExactIndexForToken",
            "outputs": [
                {
                    "internalType": "uint256",
                    "name": "amountToken",
                    "type": "uint256"
                }
            ],
            "stateMutability": "nonpayable",
            "type": "function"
        },
        {
            "inputs": [
                {
                    "internalType": "uint256",
                    "name": "",
                    "type": "uint256"
                }
            ],
            "name": "components",
            "outputs": [
                {
                    "internalType": "address",
                    "name": "",
                    "type": "address"
                }
            ],
            "stateMutability": "view",
            "type": "function"
        },
        {
            "inputs": [
                {
                    "internalType": "address",
                    "name": "",
                    "type": "address"
                }
            ],
            "name": "dexs",
            "outputs": [
                {
                    "internalType": "enum SwapAdapter.DEX",
                    "name": "",
                    "type": "uint8"
                }
            ],
            "stateMutability": "view",
            "type": "function"
        },
        {
            "inputs": [],
            "name": "equityValuation",
            "outputs": [
                {
                    "internalType": "uint256",
                    "name": "",
                    "type": "uint256"
                }
            ],
            "stateMutability": "view",
            "type": "function"
        },
        {
            "inputs": [],
            "name": "equityValuationLimit",
            "outputs": [
                {
                    "internalType": "uint256",
                    "name": "",
                    "type": "uint256"
                }
            ],
            "stateMutability": "view",
            "type": "function"
        },
        {
            "inputs": [
                {
                    "internalType": "address",
                    "name": "token",
                    "type": "address"
                },
                {
                    "internalType": "uint256",
                    "name": "amountToken",
                    "type": "uint256"
                }
            ],
            "name": "getAmountIndexFromToken",
            "outputs": [
                {
                    "internalType": "uint256",
                    "name": "amountIndex",
                    "type": "uint256"
                },
                {
                    "internalType": "uint256",
                    "name": "amountTokenSpent",
                    "type": "uint256"
                }
            ],
            "stateMutability": "view",
            "type": "function"
        },
        {
            "inputs": [
                {
                    "internalType": "address",
                    "name": "token",
                    "type": "address"
                },
                {
                    "internalType": "uint256",
                    "name": "amountIndex",
                    "type": "uint256"
                }
            ],
            "name": "getAmountTokenFromExactIndex",
            "outputs": [
                {
                    "internalType": "uint256",
                    "name": "amountToken",
                    "type": "uint256"
                }
            ],
            "stateMutability": "view",
            "type": "function"
        },
        {
            "inputs": [],
            "name": "indexToken",
            "outputs": [
                {
                    "internalType": "contract IIndexToken",
                    "name": "",
                    "type": "address"
                }
            ],
            "stateMutability": "view",
            "type": "function"
        },
        {
            "inputs": [
                {
                    "components": [
                        {
                            "internalType": "address",
                            "name": "weth",
                            "type": "address"
                        },
                        {
                            "internalType": "contract IIndexToken",
                            "name": "indexToken",
                            "type": "address"
                        },
                        {
                            "components": [
                                {
                                    "internalType": "address",
                                    "name": "token",
                                    "type": "address"
                                },
                                {
                                    "internalType": "uint256",
                                    "name": "weight",
                                    "type": "uint256"
                                }
                            ],
                            "internalType": "struct IIndexInit.Component[]",
                            "name": "components",
                            "type": "tuple[]"
                        },
                        {
                            "components": [
                                {
                                    "internalType": "address",
                                    "name": "token0",
                                    "type": "address"
                                },
                                {
                                    "internalType": "address",
                                    "name": "token1",
                                    "type": "address"
                                },
                                {
                                    "internalType": "address",
                                    "name": "router",
                                    "type": "address"
                                },
                                {
                                    "internalType": "enum SwapAdapter.DEX",
                                    "name": "dex",
                                    "type": "uint8"
                                },
                                {
                                    "components": [
                                        {
                                            "internalType": "address",
                                            "name": "pair",
                                            "type": "address"
                                        },
                                        {
                                            "internalType": "bytes",
                                            "name": "data",
                                            "type": "bytes"
                                        }
                                    ],
                                    "internalType": "struct SwapAdapter.PairData",
                                    "name": "pairData",
                                    "type": "tuple"
                                }
                            ],
                            "internalType": "struct IIndexInit.SwapRoute[]",
                            "name": "swapRoutes",
                            "type": "tuple[]"
                        },
                        {
                            "internalType": "address[]",
                            "name": "whitelistedTokens",
                            "type": "address[]"
                        },
                        {
                            "internalType": "uint256",
                            "name": "equityValuationLimit",
                            "type": "uint256"
                        }
                    ],
                    "internalType": "struct IIndexInit.IndexStrategyInitParams",
                    "name": "initParams",
                    "type": "tuple"
                },
                {
                    "internalType": "contract IChainlinkAggregatorV3",
                    "name": "_wethPriceFeed",
                    "type": "address"
                }
            ],
            "name": "initialize",
            "outputs": [],
            "stateMutability": "nonpayable",
            "type": "function"
        },
        {
            "inputs": [
                {
                    "internalType": "address",
                    "name": "token",
                    "type": "address"
                }
            ],
            "name": "isTokenWhitelisted",
            "outputs": [
                {
                    "internalType": "bool",
                    "name": "",
                    "type": "bool"
                }
            ],
            "stateMutability": "view",
            "type": "function"
        },
        {
            "inputs": [
                {
                    "internalType": "address",
                    "name": "token",
                    "type": "address"
                },
                {
                    "internalType": "uint256",
                    "name": "amountTokenMax",
                    "type": "uint256"
                },
                {
                    "internalType": "uint256",
                    "name": "amountIndex",
                    "type": "uint256"
                },
                {
                    "internalType": "address",
                    "name": "recipient",
                    "type": "address"
                }
            ],
            "name": "mintExactIndexFromToken",
            "outputs": [
                {
                    "internalType": "uint256",
                    "name": "amountTokenSpent",
                    "type": "uint256"
                }
            ],
            "stateMutability": "nonpayable",
            "type": "function"
        },
        {
            "inputs": [],
            "name": "owner",
            "outputs": [
                {
                    "internalType": "address",
                    "name": "",
                    "type": "address"
                }
            ],
            "stateMutability": "view",
            "type": "function"
        },
        {
            "inputs": [
                {
                    "internalType": "address",
                    "name": "",
                    "type": "address"
                },
                {
                    "internalType": "address",
                    "name": "",
                    "type": "address"
                },
                {
                    "internalType": "address",
                    "name": "",
                    "type": "address"
                }
            ],
            "name": "pairData",
            "outputs": [
                {
                    "internalType": "address",
                    "name": "pair",
                    "type": "address"
                },
                {
                    "internalType": "bytes",
                    "name": "data",
                    "type": "bytes"
                }
            ],
            "stateMutability": "view",
            "type": "function"
        },
        {
            "inputs": [],
            "name": "pause",
            "outputs": [],
            "stateMutability": "nonpayable",
            "type": "function"
        },
        {
            "inputs": [],
            "name": "paused",
            "outputs": [
                {
                    "internalType": "bool",
                    "name": "",
                    "type": "bool"
                }
            ],
            "stateMutability": "view",
            "type": "function"
        },
        {
            "inputs": [],
            "name": "proxiableUUID",
            "outputs": [
                {
                    "internalType": "bytes32",
                    "name": "",
                    "type": "bytes32"
                }
            ],
            "stateMutability": "view",
            "type": "function"
        },
        {
            "inputs": [],
            "name": "renounceOwnership",
            "outputs": [],
            "stateMutability": "nonpayable",
            "type": "function"
        },
        {
            "inputs": [
                {
                    "internalType": "address",
                    "name": "",
                    "type": "address"
                },
                {
                    "internalType": "uint256",
                    "name": "",
                    "type": "uint256"
                }
            ],
            "name": "routers",
            "outputs": [
                {
                    "internalType": "address",
                    "name": "",
                    "type": "address"
                }
            ],
            "stateMutability": "view",
            "type": "function"
        },
        {
            "inputs": [
                {
                    "internalType": "uint256",
                    "name": "_equityValuationLimit",
                    "type": "uint256"
                }
            ],
            "name": "setEquityValuationLimit",
            "outputs": [],
            "stateMutability": "nonpayable",
            "type": "function"
        },
        {
            "inputs": [
                {
                    "internalType": "address",
                    "name": "token0",
                    "type": "address"
                },
                {
                    "internalType": "address",
                    "name": "token1",
                    "type": "address"
                },
                {
                    "internalType": "address",
                    "name": "router",
                    "type": "address"
                },
                {
                    "internalType": "enum SwapAdapter.DEX",
                    "name": "dex",
                    "type": "uint8"
                },
                {
                    "components": [
                        {
                            "internalType": "address",
                            "name": "pair",
                            "type": "address"
                        },
                        {
                            "internalType": "bytes",
                            "name": "data",
                            "type": "bytes"
                        }
                    ],
                    "internalType": "struct SwapAdapter.PairData",
                    "name": "_pairData",
                    "type": "tuple"
                }
            ],
            "name": "setSwapRoute",
            "outputs": [],
            "stateMutability": "nonpayable",
            "type": "function"
        },
        {
            "inputs": [
                {
                    "internalType": "address",
                    "name": "token0",
                    "type": "address"
                },
                {
                    "internalType": "address",
                    "name": "token1",
                    "type": "address"
                },
                {
                    "internalType": "address",
                    "name": "router",
                    "type": "address"
                },
                {
                    "internalType": "enum SwapAdapter.DEX",
                    "name": "dex",
                    "type": "uint8"
                },
                {
                    "internalType": "address",
                    "name": "pair",
                    "type": "address"
                }
            ],
            "name": "setSwapRoute",
            "outputs": [],
            "stateMutability": "nonpayable",
            "type": "function"
        },
        {
            "inputs": [
                {
                    "internalType": "address",
                    "name": "token0",
                    "type": "address"
                },
                {
                    "internalType": "address",
                    "name": "token1",
                    "type": "address"
                },
                {
                    "internalType": "address",
                    "name": "router",
                    "type": "address"
                },
                {
                    "internalType": "enum SwapAdapter.DEX",
                    "name": "dex",
                    "type": "uint8"
                },
                {
                    "internalType": "address",
                    "name": "pair",
                    "type": "address"
                },
                {
                    "internalType": "uint256",
                    "name": "binStep",
                    "type": "uint256"
                }
            ],
            "name": "setSwapRoute",
            "outputs": [],
            "stateMutability": "nonpayable",
            "type": "function"
        },
        {
            "inputs": [
                {
                    "internalType": "address[]",
                    "name": "tokens",
                    "type": "address[]"
                }
            ],
            "name": "setWhitelistedTokens",
            "outputs": [],
            "stateMutability": "nonpayable",
            "type": "function"
        },
        {
            "inputs": [
                {
                    "internalType": "bytes4",
                    "name": "interfaceId",
                    "type": "bytes4"
                }
            ],
            "name": "supportsInterface",
            "outputs": [
                {
                    "internalType": "bool",
                    "name": "",
                    "type": "bool"
                }
            ],
            "stateMutability": "view",
            "type": "function"
        },
        {
            "inputs": [
                {
                    "internalType": "address",
                    "name": "newOwner",
                    "type": "address"
                }
            ],
            "name": "transferOwnership",
            "outputs": [],
            "stateMutability": "nonpayable",
            "type": "function"
        },
        {
            "inputs": [],
            "name": "unpause",
            "outputs": [],
            "stateMutability": "nonpayable",
            "type": "function"
        },
        {
            "inputs": [
                {
                    "internalType": "address",
                    "name": "newImplementation",
                    "type": "address"
                }
            ],
            "name": "upgradeTo",
            "outputs": [],
            "stateMutability": "nonpayable",
            "type": "function"
        },
        {
            "inputs": [
                {
                    "internalType": "address",
                    "name": "newImplementation",
                    "type": "address"
                },
                {
                    "internalType": "bytes",
                    "name": "data",
                    "type": "bytes"
                }
            ],
            "name": "upgradeToAndCall",
            "outputs": [],
            "stateMutability": "payable",
            "type": "function"
        },
        {
            "inputs": [
                {
                    "internalType": "address",
                    "name": "",
                    "type": "address"
                }
            ],
            "name": "weights",
            "outputs": [
                {
                    "internalType": "uint256",
                    "name": "",
                    "type": "uint256"
                }
            ],
            "stateMutability": "view",
            "type": "function"
        },
        {
            "inputs": [],
            "name": "wethPriceFeed",
            "outputs": [
                {
                    "internalType": "contract IChainlinkAggregatorV3",
                    "name": "",
                    "type": "address"
                }
            ],
            "stateMutability": "view",
            "type": "function"
        },
        {
            "inputs": [
                {
                    "internalType": "uint256",
                    "name": "",
                    "type": "uint256"
                }
            ],
            "name": "whitelistedTokens",
            "outputs": [
                {
                    "internalType": "address",
                    "name": "",
                    "type": "address"
                }
            ],
            "stateMutability": "view",
            "type": "function"
        }
    ],
    "bytecode": "0x60a0604052306080523480156200001557600080fd5b506200002062000026565b6200013f565b6200003260ff62000035565b50565b60008054610100900460ff16156200009e578160ff1660011480156200006e57506200006c30620000e260201b620016631760201c565b155b620000965760405162461bcd60e51b81526004016200008d90620000f1565b60405180910390fd5b506000919050565b60005460ff808416911610620000c85760405162461bcd60e51b81526004016200008d90620000f1565b506000805460ff191660ff92909216919091179055600190565b6001600160a01b03163b151590565b6020808252602e908201527f496e697469616c697a61626c653a20636f6e747261637420697320616c72656160408201526d191e481a5b9a5d1a585b1a5e995960921b606082015260800190565b6080516152176200017760003960008181610991015281816109d101528181610ca801528181610ce80152610d6401526152176000f3fe6080604052600436106101725760003560e01c80627127511461017757806301ffc9a7146101ae57806302323c2a146101de5780632154bc441461020c5780632471868d1461022c57806328f5d4c61461024c5780633659cfe61461027a5780633f4ba83a1461029c57806340b8104a146102b15780634f1ef286146102d157806352d1902d146102e457806353afa7d1146102f95780635988f9a5146103195780635c975abb14610339578063715018a6146103525780638456cb59146103675780638da5cb5b1461037c5780638dec753814610391578063a7cac846146103b1578063ad5c4648146103df578063b0a1401f14610400578063b5af090f14610420578063c5d574fe14610440578063e3f13fdc14610460578063e4d150d914610480578063e7d015f2146104b5578063f1197850146104d6578063f2b81ef1146104f6578063f2e3288d14610534578063f2fde38b14610549578063f54a138814610569578063fe9cea6f14610580575b600080fd5b34801561018357600080fd5b5061017054610198906001600160a01b031681565b6040516101a591906144da565b60405180910390f35b3480156101ba57600080fd5b506101ce6101c93660046144ee565b6105a0565b60405190151581526020016101a5565b3480156101ea57600080fd5b506101fe6101f936600461452d565b6105d7565b6040516101a59291906145d0565b34801561021857600080fd5b506101986102273660046145f4565b610698565b34801561023857600080fd5b5061019861024736600461460d565b6106c3565b34801561025857600080fd5b5061026c610267366004614639565b6106fc565b6040519081526020016101a5565b34801561028657600080fd5b5061029a610295366004614683565b610986565b005b3480156102a857600080fd5b5061029a610a4f565b3480156102bd57600080fd5b5061026c6102cc366004614639565b610a88565b61029a6102df366004614755565b610c9d565b3480156102f057600080fd5b5061026c610d57565b34801561030557600080fd5b5061029a61031436600461482c565b610e05565b34801561032557600080fd5b5061029a6103343660046148d4565b610e65565b34801561034557600080fd5b5061012d5460ff166101ce565b34801561035e57600080fd5b5061029a610f29565b34801561037357600080fd5b5061029a610f62565b34801561038857600080fd5b50610198610f99565b34801561039d57600080fd5b5061029a6103ac3660046145f4565b610fa8565b3480156103bd57600080fd5b5061026c6103cc366004614683565b6101636020526000908152604090205481565b3480156103eb57600080fd5b5061015f54610198906001600160a01b031681565b34801561040c57600080fd5b5061029a61041b366004614967565b610fdd565b34801561042c57600080fd5b506101ce61043b366004614683565b611059565b34801561044c57600080fd5b5061019861045b3660046145f4565b6110c5565b34801561046c57600080fd5b5061029a61047b3660046149d6565b6110d6565b34801561048c57600080fd5b506104a061049b36600461460d565b61115e565b604080519283526020830191909152016101a5565b3480156104c157600080fd5b5061016154610198906001600160a01b031681565b3480156104e257600080fd5b5061026c6104f136600461460d565b6112e1565b34801561050257600080fd5b50610527610511366004614683565b6101656020526000908152604090205460ff1681565b6040516101a59190614a63565b34801561054057600080fd5b5061026c6113cc565b34801561055557600080fd5b5061029a610564366004614683565b61152a565b34801561057557600080fd5b5061026c6101675481565b34801561058c57600080fd5b5061029a61059b366004614a8b565b6115c7565b60006001600160e01b03198216633148c78760e11b14806105d157506301ffc9a760e01b6001600160e01b03198316145b92915050565b610166602090815260009384526040808520825292845282842090528252902080546001820180546001600160a01b03909216929161061590614ae1565b80601f016020809104026020016040519081016040528092919081815260200182805461064190614ae1565b801561068e5780601f106106635761010080835404028352916020019161068e565b820191906000526020600020905b81548152906001019060200180831161067157829003601f168201915b5050505050905082565b61016081815481106106a957600080fd5b6000918252602090912001546001600160a01b0316905081565b61016460205281600052604060002081815481106106e057600080fd5b6000918252602090912001546001600160a01b03169150829050565b60006002609754141561072a5760405162461bcd60e51b815260040161072190614b16565b60405180910390fd5b600260975561012d5460ff16156107535760405162461bcd60e51b815260040161072190614b4d565b8461075d81611059565b61077c5780604051638ebf15d960e01b815260040161072191906144da565b6001600160a01b0383166107a35760405163794edfd160e11b815260040160405180910390fd5b6107b86001600160a01b038716333088611672565b6000806000806107c7886116e3565b61015f54939750919550935091506001600160a01b038b81169116146108c9576001600160a01b038a16600090815261016460209081526040808320805482518185028101850190935280835284936108799392919083018282801561085657602002820191906000526020600020905b81546001600160a01b03168152600190910190602001808311610838575b5050505050878e61015f60009054906101000a90046001600160a01b03166119d0565b915091506108a08187848f61015f60009054906101000a90046001600160a01b0316611bdd565b97508188146108c2576040516358233c3160e11b815260040160405180910390fd5b50506108cd565b8395505b888611156108ee5760405163bb5a2f7760e01b815260040160405180910390fd5b60006108fd8484848c8c611d98565b905084811461091f576040516358233c3160e11b815260040160405180910390fd5b600061092b888c614b8d565b90508015610947576109476001600160a01b038d163383611f26565b505050505050610167546109596113cc565b11156109785760405163cdd41c3760e01b815260040160405180910390fd5b506001609755949350505050565b306001600160a01b037f00000000000000000000000000000000000000000000000000000000000000001614156109cf5760405162461bcd60e51b815260040161072190614ba4565b7f00000000000000000000000000000000000000000000000000000000000000006001600160a01b0316610a01611f45565b6001600160a01b031614610a275760405162461bcd60e51b815260040161072190614bde565b610a3081611f61565b60408051600080825260208201909252610a4c91839190611f90565b50565b33610a58610f99565b6001600160a01b031614610a7e5760405162461bcd60e51b815260040161072190614c18565b610a866120fb565b565b600060026097541415610aad5760405162461bcd60e51b815260040161072190614b16565b600260975561012d5460ff1615610ad65760405162461bcd60e51b815260040161072190614b4d565b84610ae081611059565b610aff5780604051638ebf15d960e01b815260040161072191906144da565b6001600160a01b038316610b265760405163794edfd160e11b815260040160405180910390fd5b6000610b32858561218a565b61015f549091506001600160a01b03888116911614610c55576001600160a01b03871660009081526101646020908152604080832080548251818502810185019093528083528493610bd693929190830182828015610bba57602002820191906000526020600020905b81546001600160a01b03168152600190910190602001808311610b9c575b505061015f548893506001600160a01b031691508d90506123f1565b61015f549193509150610bf8908290859085906001600160a01b03168d6125f2565b9450818514610c4e57610c23604051806040016040528060018152602001603160f81b8152506127a2565b610c2c856127e5565b610c35826127e5565b6040516358233c3160e11b815260040160405180910390fd5b5050610c59565b8092505b85831015610c7a576040516301822e5760e61b815260040160405180910390fd5b610c8e6001600160a01b0388168585611f26565b50506001609755949350505050565b306001600160a01b037f0000000000000000000000000000000000000000000000000000000000000000161415610ce65760405162461bcd60e51b815260040161072190614ba4565b7f00000000000000000000000000000000000000000000000000000000000000006001600160a01b0316610d18611f45565b6001600160a01b031614610d3e5760405162461bcd60e51b815260040161072190614bde565b610d4782611f61565b610d5382826001611f90565b5050565b6000306001600160a01b037f00000000000000000000000000000000000000000000000000000000000000001614610df25760405162461bcd60e51b815260206004820152603860248201527f555550535570677261646561626c653a206d757374206e6f742062652063616c6044820152771b1959081d1a1c9bdd59da0819195b1959d85d1958d85b1b60421b6064820152608401610721565b5060008051602061519b83398151915290565b33610e0e610f99565b6001600160a01b031614610e345760405162461bcd60e51b815260040161072190614c18565b610e3e858461282a565b610e48848461282a565b610e5283836128f0565b610e5e83868684612966565b5050505050565b33610e6e610f99565b6001600160a01b031614610e945760405162461bcd60e51b815260040161072190614c18565b60005b8151811015610d5357610ec2828281518110610eb557610eb5614c4d565b6020026020010151611059565b610f1757610160828281518110610edb57610edb614c4d565b60209081029190910181015182546001810184556000938452919092200180546001600160a01b0319166001600160a01b039092169190911790555b80610f2181614c63565b915050610e97565b33610f32610f99565b6001600160a01b031614610f585760405162461bcd60e51b815260040161072190614c18565b610a866000612a68565b33610f6b610f99565b6001600160a01b031614610f915760405162461bcd60e51b815260040161072190614c18565b610a86612aba565b60fb546001600160a01b031690565b33610fb1610f99565b6001600160a01b031614610fd75760405162461bcd60e51b815260040161072190614c18565b61016755565b33610fe6610f99565b6001600160a01b03161461100c5760405162461bcd60e51b815260040161072190614c18565b6040805180820182526001600160a01b038316815281516000602080830191909152835180830382018152918401909352918101919091526110518686868685610e05565b505050505050565b6000805b610160548110156110bc57826001600160a01b0316610160828154811061108657611086614c4d565b6000918252602090912001546001600160a01b031614156110aa5750600192915050565b806110b481614c63565b91505061105d565b50600092915050565b61016281815481106106a957600080fd5b336110df610f99565b6001600160a01b0316146111055760405162461bcd60e51b815260040161072190614c18565b60006040518060400160405280846001600160a01b031681526020018360405160200161113491815260200190565b60405160208183030381529060405281525090506111558787878785610e05565b50505050505050565b6000808361116b81611059565b61118a5780604051638ebf15d960e01b815260040161072191906144da565b61015f546000906001600160a01b03878116911614611233576001600160a01b03861660009081526101646020908152604091829020805483518184028101840190945280845261122b939283018282801561120f57602002820191906000526020600020905b81546001600160a01b031681526001909101906020018083116111f1575b505061015f548a93508b92506001600160a01b031690506123f1565b509050611236565b50835b600061124182612b14565b6001600160a01b0389166000908152610164602090815260409182902080548351818402810184019094528084529499509294506112d293919291908301828280156112b657602002820191906000526020600020905b81546001600160a01b03168152600190910190602001808311611298575b505061015f548693508c92506001600160a01b031690506119d0565b50809450505050509250929050565b6000826112ed81611059565b61130c5780604051638ebf15d960e01b815260040161072191906144da565b600061131784612d0f565b61015f549091506001600160a01b038681169116146113c0576001600160a01b0385166000908152610164602090815260409182902080548351818402810184019094528084526113b8939283018282801561139c57602002820191906000526020600020905b81546001600160a01b0316815260019091019060200180831161137e575b505061015f548693506001600160a01b031691508990506123f1565b5092506113c4565b8092505b505092915050565b60008061016160009054906101000a90046001600160a01b03166001600160a01b03166318160ddd6040518163ffffffff1660e01b8152600401602060405180830381865afa158015611423573d6000803e3d6000fd5b505050506040513d601f19601f820116820180604052508101906114479190614c7e565b90508061145657600091505090565b600061146182612d0f565b9050600061017060009054906101000a90046001600160a01b03166001600160a01b031663feaf968c6040518163ffffffff1660e01b815260040160a060405180830381865afa1580156114b9573d6000803e3d6000fd5b505050506040513d601f19601f820116820180604052508101906114dd9190614cae565b50505091505060008112156115055760405163d45cb66560e01b815260040160405180910390fd5b670de0b6b3a76400006115188284614cfe565b6115229190614d1d565b935050505090565b33611533610f99565b6001600160a01b0316146115595760405162461bcd60e51b815260040161072190614c18565b6001600160a01b0381166115be5760405162461bcd60e51b815260206004820152602660248201527f4f776e61626c653a206e6577206f776e657220697320746865207a65726f206160448201526564647265737360d01b6064820152608401610721565b610a4c81612a68565b60006115d36001612e55565b905080156115eb576000805461ff0019166101001790555b6115f3612ee9565b6115fc83612f10565b61017080546001600160a01b0319166001600160a01b038416179055801561165e576000805461ff0019169055604051600181527f7f26b83ff96e1f2b6a682f133852f6798a09c465da95921460cefb38474024989060200160405180910390a15b505050565b6001600160a01b03163b151590565b6040516001600160a01b03808516602483015283166044820152606481018290526116dd9085906323b872dd60e01b906084015b60408051601f198184030181529190526020810180516001600160e01b03166001600160e01b03199093169290921790915261327a565b50505050565b60006060806060610162805490506001600160401b03811115611708576117086146a0565b604051908082528060200260200182016040528015611731578160200160208202803683370190505b50610162549093506001600160401b03811115611750576117506146a0565b604051908082528060200260200182016040528015611779578160200160208202803683370190505b50610162549092506001600160401b03811115611798576117986146a0565b6040519080825280602002602001820160405280156117c1578160200160208202803683370190505b50905060005b610162548110156119c857670de0b6b3a7640000610163600061016284815481106117f4576117f4614c4d565b60009182526020808320909101546001600160a01b031683528201929092526040019020546118239088614cfe565b61182d9190614d1d565b82828151811061183f5761183f614c4d565b6020026020010181815250506119416101646000610162848154811061186757611867614c4d565b60009182526020808320909101546001600160a01b031683528281019390935260409182019020805482518185028101850190935280835291929091908301828280156118dd57602002820191906000526020600020905b81546001600160a01b031681526001909101906020018083116118bf575b50505050508383815181106118f4576118f4614c4d565b602002602001015161015f60009054906101000a90046001600160a01b0316610162858154811061192757611927614c4d565b6000918252602090912001546001600160a01b03166119d0565b85838151811061195357611953614c4d565b6020026020010185848151811061196c5761196c614c4d565b60200260200101826001600160a01b03166001600160a01b03168152508281525050508381815181106119a1576119a1614c4d565b6020026020010151856119b49190614d3f565b9450806119c081614c63565b9150506117c7565b509193509193565b6000196000805b8651811015611bd35760008782815181106119f4576119f4614c4d565b602002602001015190506000611bad88888860405180606001604052806101656000896001600160a01b03166001600160a01b0316815260200190815260200160002060009054906101000a900460ff166002811115611a5657611a56614a4d565b8152602001876001600160a01b031681526020016101666000896001600160a01b03166001600160a01b0316815260200190815260200160002060008e6001600160a01b03166001600160a01b0316815260200190815260200160002060008d6001600160a01b03166001600160a01b031681526020019081526020016000206040518060400160405290816000820160009054906101000a90046001600160a01b03166001600160a01b03166001600160a01b03168152602001600182018054611b2090614ae1565b80601f0160208091040260200160405190810160405280929190818152602001828054611b4c90614ae1565b8015611b995780601f10611b6e57610100808354040283529160200191611b99565b820191906000526020600020905b815481529060010190602001808311611b7c57829003601f168201915b50505091909252505050905292919061334c565b905084811015611bbe578094508193505b50508080611bcb90614c63565b9150506119d7565b5094509492505050565b604080516002808252606082018352600092839291906020830190803683370190505090508381600081518110611c1657611c16614c4d565b60200260200101906001600160a01b031690816001600160a01b0316815250508281600181518110611c4a57611c4a614c4d565b6001600160a01b0392831660209182029290920181019190915260408051606081018252928a166000908152610165909252902054611d8d91889188918591819060ff166002811115611c9f57611c9f614a4d565b81526001600160a01b03808e1660208084018290526000918252610166815260408083208e8516845282528083208d8516845282529182902082518084018452815490941684526001810180549390950194909291840191611d0090614ae1565b80601f0160208091040260200160405190810160405280929190818152602001828054611d2c90614ae1565b8015611d795780601f10611d4e57610100808354040283529160200191611d79565b820191906000526020600020905b815481529060010190602001808311611d5c57829003601f168201915b505050919092525050509052929190613413565b979650505050505050565b6000805b61016254811015611e5b57611e3d868281518110611dbc57611dbc614c4d565b6020026020010151868381518110611dd657611dd6614c4d565b6020026020010151898481518110611df057611df0614c4d565b602002602001015161015f60009054906101000a90046001600160a01b03166101628681548110611e2357611e23614c4d565b6000918252602090912001546001600160a01b0316611bdd565b611e479083614d3f565b915080611e5381614c63565b915050611d9c565b50610161546040516340c10f1960e01b81526001600160a01b03909116906340c10f1990611e8f9085908790600401614d57565b600060405180830381600087803b158015611ea957600080fd5b505af1158015611ebd573d6000803e3d6000fd5b50505050816001600160a01b0316611ed23390565b6001600160a01b03167f2f00e3cdd69a77be7ed215ec7b2a36784dd158f921fca79ac29deffa353fe6ee8386604051611f15929190918252602082015260400190565b60405180910390a395945050505050565b61165e8363a9059cbb60e01b84846040516024016116a6929190614d57565b60008051602061519b833981519152546001600160a01b031690565b33611f6a610f99565b6001600160a01b031614610a4c5760405162461bcd60e51b815260040161072190614c18565b7f4910fdfa16fed3260ed0e7147f7cc6da11a60208b5b9406d12a635614ffd91435460ff1615611fc35761165e83613507565b826001600160a01b03166352d1902d6040518163ffffffff1660e01b8152600401602060405180830381865afa92505050801561201d575060408051601f3d908101601f1916820190925261201a91810190614c7e565b60015b6120805760405162461bcd60e51b815260206004820152602e60248201527f45524331393637557067726164653a206e657720696d706c656d656e7461746960448201526d6f6e206973206e6f74205555505360901b6064820152608401610721565b60008051602061519b83398151915281146120ef5760405162461bcd60e51b815260206004820152602960248201527f45524331393637557067726164653a20756e737570706f727465642070726f786044820152681a58589b195555525160ba1b6064820152608401610721565b5061165e8383836135a1565b61012d5460ff166121455760405162461bcd60e51b815260206004820152601460248201527314185d5cd8589b194e881b9bdd081c185d5cd95960621b6044820152606401610721565b61012d805460ff191690557f5db9ee0a495bf2e6ff9c91a7834c1ba4fdd244a5e8aa4e537bd38aeae4b073aa335b60405161218091906144da565b60405180910390a1565b6000805b6101625481101561232b576000670de0b6b3a7640000610163600061016285815481106121bd576121bd614c4d565b60009182526020808320909101546001600160a01b031683528201929092526040019020546121ec9087614cfe565b6121f69190614d1d565b90506000806122c96101646000610162878154811061221757612217614c4d565b60009182526020808320909101546001600160a01b0316835282810193909352604091820190208054825181850281018501909352808352919290919083018282801561228d57602002820191906000526020600020905b81546001600160a01b0316815260019091019060200180831161226f575b50505050508461016287815481106122a7576122a7614c4d565b60009182526020909120015461015f546001600160a01b0391821691166123f1565b9150915061230981848461016288815481106122e7576122e7614c4d565b60009182526020909120015461015f546001600160a01b0391821691166125f2565b6123139086614d3f565b9450505050808061232390614c63565b91505061218e565b50610161546001600160a01b03166379cc679033856040518363ffffffff1660e01b815260040161235d929190614d57565b600060405180830381600087803b15801561237757600080fd5b505af115801561238b573d6000803e3d6000fd5b50505050816001600160a01b03166123a03390565b6001600160a01b03167f5d624aa9c148153ab3446c1b154f660ee7701e549fe9b62dab7171b1c80e6fa283866040516123e3929190918252602082015260400190565b60405180910390a392915050565b600080805b8651811015611bd357600087828151811061241357612413614c4d565b6020026020010151905060006125cc88888860405180606001604052806101656000896001600160a01b03166001600160a01b0316815260200190815260200160002060009054906101000a900460ff16600281111561247557612475614a4d565b8152602001876001600160a01b031681526020016101666000896001600160a01b03166001600160a01b0316815260200190815260200160002060008e6001600160a01b03166001600160a01b0316815260200190815260200160002060008d6001600160a01b03166001600160a01b031681526020019081526020016000206040518060400160405290816000820160009054906101000a90046001600160a01b03166001600160a01b03166001600160a01b0316815260200160018201805461253f90614ae1565b80601f016020809104026020016040519081016040528092919081815260200182805461256b90614ae1565b80156125b85780601f1061258d576101008083540402835291602001916125b8565b820191906000526020600020905b81548152906001019060200180831161259b57829003601f168201915b5050509190925250505090529291906135c6565b9050848111156125dd578094508193505b505080806125ea90614c63565b9150506123f6565b60408051600280825260608201835260009283929190602083019080368337019050509050838160008151811061262b5761262b614c4d565b60200260200101906001600160a01b031690816001600160a01b031681525050828160018151811061265f5761265f614c4d565b6001600160a01b0392831660209182029290920181019190915260408051606081018252928a166000908152610165909252902054611d8d91889188918591819060ff1660028111156126b4576126b4614a4d565b81526001600160a01b03808e1660208084018290526000918252610166815260408083208e8516845282528083208d851684528252918290208251808401845281549094168452600181018054939095019490929184019161271590614ae1565b80601f016020809104026020016040519081016040528092919081815260200182805461274190614ae1565b801561278e5780601f106127635761010080835404028352916020019161278e565b820191906000526020600020905b81548152906001019060200180831161277157829003601f168201915b505050919092525050509052929190613665565b610a4c816040516024016127b69190614d70565b60408051601f198184030181529190526020810180516001600160e01b031663104c13eb60e21b179052613751565b610a4c816040516024016127fb91815260200190565b60408051601f198184030181529190526020810180516001600160e01b031663f82c50f160e01b179052613751565b60005b6001600160a01b038316600090815261016460205260409020548110156128b0576001600160a01b038381166000908152610164602052604090208054918416918390811061287e5761287e614c4d565b6000918252602090912001546001600160a01b0316141561289e57505050565b806128a881614c63565b91505061282d565b506001600160a01b039182166000908152610164602090815260408220805460018101825590835291200180546001600160a01b03191691909216179055565b6001600160a01b0382166000908152610165602052604081205460ff16600281111561291e5761291e614a4d565b14612927575050565b6001600160a01b038216600090815261016560205260409020805482919060ff1916600183600281111561295d5761295d614a4d565b02179055505050565b6001600160a01b0384811660009081526101666020908152604080832087851684528252808320868516845290915290205416156129a3576116dd565b6001600160a01b038481166000908152610166602090815260408083208785168452825280832086851684528252909120835181546001600160a01b0319169316929092178255828101518051849392612a04926001850192910190614441565b5050506001600160a01b038481166000908152610166602090815260408083208685168452825280832087851684528252909120835181546001600160a01b0319169316929092178255828101518051849392611155926001850192910190614441565b60fb80546001600160a01b038381166001600160a01b0319831681179093556040519116919082907f8be0079c531659141344cd1fd0a4f28419497f9722a3daafe3b4186f6b6457e090600090a35050565b61012d5460ff1615612ade5760405162461bcd60e51b815260040161072190614b4d565b61012d805460ff191660011790557f62e78cea01bee320cd4e420270b5ea74000d11b0c9f74754ebdbfc544b05a2586121733390565b6000806000806000612b2d670de0b6b3a76400006116e3565b93505092509250600019945060005b61016254811015612d0657600084848381518110612b5c57612b5c614c4d565b602002602001015189612b6f9190614cfe565b612b799190614d1d565b61015f5461016280549293506000926001600160a01b039092169185908110612ba457612ba4614c4d565b6000918252602090912001546001600160a01b031614612c9f57612c9761016460006101628681548110612bda57612bda614c4d565b60009182526020808320909101546001600160a01b03168352828101939093526040918201902080548251818502810185019093528083529192909190830182828015612c5057602002820191906000526020600020905b81546001600160a01b03168152600190910190602001808311612c32575b505061015f5461016280548995506001600160a01b039092169350915088908110612c7d57612c7d614c4d565b6000918252602090912001546001600160a01b03166123f1565b509050612ca2565b50805b612ce388858581518110612cb857612cb8614c4d565b6020026020010151670de0b6b3a764000084612cd49190614cfe565b612cde9190614d1d565b613772565b9750612cef8288614d3f565b965050508080612cfe90614c63565b915050612b3c565b50505050915091565b6000805b61016254811015612e4f576000670de0b6b3a764000061016360006101628581548110612d4257612d42614c4d565b60009182526020808320909101546001600160a01b03168352820192909252604001902054612d719086614cfe565b612d7b9190614d1d565b90506000612e2b61016460006101628681548110612d9b57612d9b614c4d565b60009182526020808320909101546001600160a01b03168352828101939093526040918201902080548251818502810185019093528083529192909190830182828015612e1157602002820191906000526020600020905b81546001600160a01b03168152600190910190602001808311612df3575b50505050508361016286815481106122a7576122a7614c4d565b509050612e388185614d3f565b935050508080612e4790614c63565b915050612d13565b50919050565b60008054610100900460ff1615612ea3578160ff166001148015612e7f5750612e7d30611663565b155b612e9b5760405162461bcd60e51b815260040161072190614d83565b506000919050565b60005460ff808416911610612eca5760405162461bcd60e51b815260040161072190614d83565b506000805460ff191660ff92909216919091179055600190565b919050565b600054610100900460ff16610a865760405162461bcd60e51b815260040161072190614dd1565b600054610100900460ff16612f375760405162461bcd60e51b815260040161072190614dd1565b612f3f612ee9565b612f4761378a565b612f4f612ee9565b612f576137b9565b612f5f6137e8565b612f6c6020820182614683565b61015f80546001600160a01b0319166001600160a01b0392909216919091179055612f9d6040820160208301614683565b61016180546001600160a01b0319166001600160a01b039290921691909117905560005b612fce6040830183614e1c565b90508110156130b357610162612fe76040840184614e1c565b83818110612ff757612ff7614c4d565b61300d9260206040909202019081019150614683565b81546001810183556000928352602090922090910180546001600160a01b0319166001600160a01b039092169190911790556130a161304f6040840184614e1c565b8381811061305f5761305f614c4d565b6130759260206040909202019081019150614683565b6130826040850185614e1c565b8481811061309257613092614c4d565b90506040020160200135613817565b806130ab81614c63565b915050612fc1565b5060005b6130c46060830183614e6c565b9050811015613225576132136130dd6060840184614e6c565b838181106130ed576130ed614c4d565b90506020028101906130ff9190614eb5565b61310d906020810190614683565b61311a6060850185614e6c565b8481811061312a5761312a614c4d565b905060200281019061313c9190614eb5565b61314d906040810190602001614683565b61315a6060860186614e6c565b8581811061316a5761316a614c4d565b905060200281019061317c9190614eb5565b61318d906060810190604001614683565b61319a6060870187614e6c565b868181106131aa576131aa614c4d565b90506020028101906131bc9190614eb5565b6131cd906080810190606001614ed5565b6131da6060880188614e6c565b878181106131ea576131ea614c4d565b90506020028101906131fc9190614eb5565b61320a906080810190614ef0565b61031490614f06565b8061321d81614c63565b9150506130b7565b5061326d6132366080830183614e6c565b80806020026020016040519081016040528093929190818152602001838360200280828437600092019190915250610e6592505050565b610a4c8160a00135610fa8565b60006132cf826040518060400160405280602081526020017f5361666545524332303a206c6f772d6c6576656c2063616c6c206661696c6564815250856001600160a01b031661385d9092919063ffffffff16565b80519091501561165e57808060200190518101906132ed9190614f12565b61165e5760405162461bcd60e51b815260206004820152602a60248201527f5361666545524332303a204552433230206f7065726174696f6e20646964206e6044820152691bdd081cdd58d8d9595960b21b6064820152608401610721565b6000808551600281111561336257613362614a4d565b141561336f57508261340b565b60018551600281111561338457613384614a4d565b14156133b45760408501515160208601516133ad916001600160a01b039091169086868661386c565b905061340b565b6002855160028111156133c9576133c9614a4d565b14156133f25760408501515160208601516133ad916001600160a01b03909116908686866138fe565b60405163d34e305960e01b815260040160405180910390fd5b949350505050565b6000808551600281111561342957613429614a4d565b141561343657508261340b565b60018551600281111561344b5761344b614a4d565b141561346b5760208501516133ad906001600160a01b03168585856139fb565b60028551600281111561348057613480614a4d565b14156133f257604080516001808252818301909252600091602080830190803683370190505090508560400151602001518060200190518101906134c49190614c7e565b816000815181106134d7576134d7614c4d565b6020908102919091018101919091528601516134ff906001600160a01b031686868487613b28565b91505061340b565b61351081611663565b6135725760405162461bcd60e51b815260206004820152602d60248201527f455243313936373a206e657720696d706c656d656e746174696f6e206973206e60448201526c1bdd08184818dbdb9d1c9858dd609a1b6064820152608401610721565b60008051602061519b83398151915280546001600160a01b0319166001600160a01b0392909216919091179055565b6135aa83613c58565b6000825111806135b75750805b1561165e576116dd8383613c98565b600080855160028111156135dc576135dc614a4d565b14156135e957508261340b565b6001855160028111156135fe576135fe614a4d565b14156136275760408501515160208601516133ad916001600160a01b0390911690868686613d8a565b60028551600281111561363c5761363c614a4d565b14156133f25760408501515160208601516133ad916001600160a01b0390911690868686613dcf565b6000808551600281111561367b5761367b614a4d565b141561368857508261340b565b60018551600281111561369d5761369d614a4d565b14156136bd5760208501516133ad906001600160a01b0316858585613e20565b6002855160028111156136d2576136d2614a4d565b14156133f257604080516001808252818301909252600091602080830190803683370190505090508560400151602001518060200190518101906137169190614c7e565b8160008151811061372957613729614c4d565b6020908102919091018101919091528601516134ff906001600160a01b031686868487613f47565b80516a636f6e736f6c652e6c6f67602083016000808483855afa5050505050565b60008183106137815781613783565b825b9392505050565b600054610100900460ff166137b15760405162461bcd60e51b815260040161072190614dd1565b610a86614058565b600054610100900460ff166137e05760405162461bcd60e51b815260040161072190614dd1565b610a86614086565b600054610100900460ff1661380f5760405162461bcd60e51b815260040161072190614dd1565b610a866140b6565b670de0b6b3a764000081111561384057604051635d1ba59560e11b815260040160405180910390fd5b6001600160a01b0390911660009081526101636020526040902055565b606061340b84846000856140ea565b600080600061387c87868661420e565b6040516385f8c25960e01b815291935091506001600160a01b038916906385f8c259906138b190899086908690600401614f34565b602060405180830381865afa1580156138ce573d6000803e3d6000fd5b505050506040513d601f19601f820116820180604052508101906138f29190614c7e565b98975050505050505050565b6000856001600160a01b0316635bdd4b7c8686886001600160a01b031663b7d19fc46040518163ffffffff1660e01b8152600401602060405180830381865afa15801561394f573d6000803e3d6000fd5b505050506040513d601f19601f820116820180604052508101906139739190614f4a565b6040516001600160e01b031960e086901b1681526001600160a01b039384166004820152602481019290925286831692169190911460448201526064016040805180830381865afa1580156139cc573d6000803e3d6000fd5b505050506040513d601f19601f820116820180604052508101906139f09190614f67565b509695505050505050565b600081600081518110613a1057613a10614c4d565b60200260200101516001600160a01b031663095ea7b386856040518363ffffffff1660e01b8152600401613a45929190614d57565b6020604051808303816000875af1158015613a64573d6000803e3d6000fd5b505050506040513d601f19601f82011682018060405250810190613a889190614f12565b50604051634401edf760e11b81526001600160a01b03861690638803dbee90613abd9087908790879030904290600401614fcf565b6000604051808303816000875af1158015613adc573d6000803e3d6000fd5b505050506040513d6000823e601f3d908101601f19168201604052613b04919081019061500b565b600081518110613b1657613b16614c4d565b60200260200101519050949350505050565b600081600081518110613b3d57613b3d614c4d565b60200260200101516001600160a01b031663095ea7b387866040518363ffffffff1660e01b8152600401613b72929190614d57565b6020604051808303816000875af1158015613b91573d6000803e3d6000fd5b505050506040513d601f19601f82011682018060405250810190613bb59190614f12565b5060405163a7b856d360e01b81526001600160a01b0387169063a7b856d390613bec90889088908890889030904290600401615090565b6000604051808303816000875af1158015613c0b573d6000803e3d6000fd5b505050506040513d6000823e601f3d908101601f19168201604052613c33919081019061500b565b600081518110613c4557613c45614c4d565b6020026020010151905095945050505050565b613c6181613507565b6040516001600160a01b038216907fbc7cd75a20ee27fd9adebab32041f755214dbc6bffa90cc0225b39da2e5c2d3b90600090a250565b6060613ca383611663565b613cfe5760405162461bcd60e51b815260206004820152602660248201527f416464726573733a2064656c65676174652063616c6c20746f206e6f6e2d636f6044820152651b9d1c9858dd60d21b6064820152608401610721565b600080846001600160a01b031684604051613d19919061510c565b600060405180830381855af49150503d8060008114613d54576040519150601f19603f3d011682016040523d82523d6000602084013e613d59565b606091505b5091509150613d8182826040518060600160405280602781526020016151bb60279139614408565b95945050505050565b6000806000613d9a87868661420e565b604051630153543560e21b815291935091506001600160a01b0389169063054d50d4906138b190899086908690600401614f34565b6000856001600160a01b0316632004b7248686886001600160a01b031663b7d19fc46040518163ffffffff1660e01b8152600401602060405180830381865afa15801561394f573d6000803e3d6000fd5b600081600081518110613e3557613e35614c4d565b60200260200101516001600160a01b031663095ea7b386866040518363ffffffff1660e01b8152600401613e6a929190614d57565b6020604051808303816000875af1158015613e89573d6000803e3d6000fd5b505050506040513d601f19601f82011682018060405250810190613ead9190614f12565b506040516338ed173960e01b81526001600160a01b038616906338ed173990613ee29087908790879030904290600401614fcf565b6000604051808303816000875af1158015613f01573d6000803e3d6000fd5b505050506040513d6000823e601f3d908101601f19168201604052613f29919081019061500b565b60018351613f379190614b8d565b81518110613b1657613b16614c4d565b600081600081518110613f5c57613f5c614c4d565b60200260200101516001600160a01b031663095ea7b387876040518363ffffffff1660e01b8152600401613f91929190614d57565b6020604051808303816000875af1158015613fb0573d6000803e3d6000fd5b505050506040513d601f19601f82011682018060405250810190613fd49190614f12565b50604051636d0ff49560e01b81526001600160a01b03871690636d0ff4959061400b90889088908890889030904290600401615090565b6020604051808303816000875af115801561402a573d6000803e3d6000fd5b505050506040513d601f19601f8201168201806040525081019061404e9190614c7e565b9695505050505050565b600054610100900460ff1661407f5760405162461bcd60e51b815260040161072190614dd1565b6001609755565b600054610100900460ff166140ad5760405162461bcd60e51b815260040161072190614dd1565b610a8633612a68565b600054610100900460ff166140dd5760405162461bcd60e51b815260040161072190614dd1565b61012d805460ff19169055565b60608247101561414b5760405162461bcd60e51b815260206004820152602660248201527f416464726573733a20696e73756666696369656e742062616c616e636520666f6044820152651c8818d85b1b60d21b6064820152608401610721565b61415485611663565b6141a05760405162461bcd60e51b815260206004820152601d60248201527f416464726573733a2063616c6c20746f206e6f6e2d636f6e74726163740000006044820152606401610721565b600080866001600160a01b031685876040516141bc919061510c565b60006040518083038185875af1925050503d80600081146141f9576040519150601f19603f3d011682016040523d82523d6000602084013e6141fe565b606091505b5091509150611d8d828286614408565b600080600080866001600160a01b0316630902f1ac6040518163ffffffff1660e01b8152600401606060405180830381865afa158015614252573d6000803e3d6000fd5b505050506040513d601f19601f820116820180604052508101906142769190615135565b506001600160701b031691506001600160701b03169150600080886001600160a01b0316630dfe16816040518163ffffffff1660e01b8152600401602060405180830381865afa1580156142ce573d6000803e3d6000fd5b505050506040513d601f19601f820116820180604052508101906142f29190614f4a565b896001600160a01b031663d21220a76040518163ffffffff1660e01b8152600401602060405180830381865afa158015614330573d6000803e3d6000fd5b505050506040513d601f19601f820116820180604052508101906143549190614f4a565b91509150816001600160a01b0316886001600160a01b031614801561438a5750806001600160a01b0316876001600160a01b0316145b1561439e57838380965081975050506143fc565b806001600160a01b0316886001600160a01b03161480156143d05750816001600160a01b0316876001600160a01b0316145b156143e457828480965081975050506143fc565b60405162f3ecd360e01b815260040160405180910390fd5b50505050935093915050565b60608315614417575081613783565b8251156144275782518084602001fd5b8160405162461bcd60e51b81526004016107219190614d70565b82805461444d90614ae1565b90600052602060002090601f01602090048101928261446f57600085556144b5565b82601f1061448857805160ff19168380011785556144b5565b828001600101855582156144b5579182015b828111156144b557825182559160200191906001019061449a565b506144c19291506144c5565b5090565b5b808211156144c157600081556001016144c6565b6001600160a01b0391909116815260200190565b60006020828403121561450057600080fd5b81356001600160e01b03198116811461378357600080fd5b6001600160a01b0381168114610a4c57600080fd5b60008060006060848603121561454257600080fd5b833561454d81614518565b9250602084013561455d81614518565b9150604084013561456d81614518565b809150509250925092565b60005b8381101561459357818101518382015260200161457b565b838111156116dd5750506000910152565b600081518084526145bc816020860160208601614578565b601f01601f19169290920160200192915050565b6001600160a01b038316815260406020820181905260009061340b908301846145a4565b60006020828403121561460657600080fd5b5035919050565b6000806040838503121561462057600080fd5b823561462b81614518565b946020939093013593505050565b6000806000806080858703121561464f57600080fd5b843561465a81614518565b93506020850135925060408501359150606085013561467881614518565b939692955090935050565b60006020828403121561469557600080fd5b813561378381614518565b634e487b7160e01b600052604160045260246000fd5b604051601f8201601f191681016001600160401b03811182821017156146de576146de6146a0565b604052919050565b600082601f8301126146f757600080fd5b81356001600160401b03811115614710576147106146a0565b614723601f8201601f19166020016146b6565b81815284602083860101111561473857600080fd5b816020850160208301376000918101602001919091529392505050565b6000806040838503121561476857600080fd5b823561477381614518565b915060208301356001600160401b0381111561478e57600080fd5b61479a858286016146e6565b9150509250929050565b803560038110612ee457600080fd5b6000604082840312156147c557600080fd5b604080519081016001600160401b0380821183831017156147e8576147e86146a0565b81604052829350843591506147fc82614518565b9082526020840135908082111561481257600080fd5b5061481f858286016146e6565b6020830152505092915050565b600080600080600060a0868803121561484457600080fd5b853561484f81614518565b9450602086013561485f81614518565b9350604086013561486f81614518565b925061487d606087016147a4565b915060808601356001600160401b0381111561489857600080fd5b6148a4888289016147b3565b9150509295509295909350565b60006001600160401b038211156148ca576148ca6146a0565b5060051b60200190565b600060208083850312156148e757600080fd5b82356001600160401b038111156148fd57600080fd5b8301601f8101851361490e57600080fd5b803561492161491c826148b1565b6146b6565b81815260059190911b8201830190838101908783111561494057600080fd5b928401925b82841015611d8d57833561495881614518565b82529284019290840190614945565b600080600080600060a0868803121561497f57600080fd5b853561498a81614518565b9450602086013561499a81614518565b935060408601356149aa81614518565b92506149b8606087016147a4565b915060808601356149c881614518565b809150509295509295909350565b60008060008060008060c087890312156149ef57600080fd5b86356149fa81614518565b95506020870135614a0a81614518565b94506040870135614a1a81614518565b9350614a28606088016147a4565b92506080870135614a3881614518565b8092505060a087013590509295509295509295565b634e487b7160e01b600052602160045260246000fd5b6020810160038310614a8557634e487b7160e01b600052602160045260246000fd5b91905290565b60008060408385031215614a9e57600080fd5b82356001600160401b03811115614ab457600080fd5b830160c08186031215614ac657600080fd5b91506020830135614ad681614518565b809150509250929050565b600181811c90821680614af557607f821691505b60208210811415612e4f57634e487b7160e01b600052602260045260246000fd5b6020808252601f908201527f5265656e7472616e637947756172643a207265656e7472616e742063616c6c00604082015260600190565b60208082526010908201526f14185d5cd8589b194e881c185d5cd95960821b604082015260600190565b634e487b7160e01b600052601160045260246000fd5b600082821015614b9f57614b9f614b77565b500390565b6020808252602c9082015260008051602061517b83398151915260408201526b19195b1959d85d1958d85b1b60a21b606082015260800190565b6020808252602c9082015260008051602061517b83398151915260408201526b6163746976652070726f787960a01b606082015260800190565b6020808252818101527f4f776e61626c653a2063616c6c6572206973206e6f7420746865206f776e6572604082015260600190565b634e487b7160e01b600052603260045260246000fd5b6000600019821415614c7757614c77614b77565b5060010190565b600060208284031215614c9057600080fd5b5051919050565b80516001600160501b0381168114612ee457600080fd5b600080600080600060a08688031215614cc657600080fd5b614ccf86614c97565b9450602086015193506040860151925060608601519150614cf260808701614c97565b90509295509295909350565b6000816000190483118215151615614d1857614d18614b77565b500290565b600082614d3a57634e487b7160e01b600052601260045260246000fd5b500490565b60008219821115614d5257614d52614b77565b500190565b6001600160a01b03929092168252602082015260400190565b60208152600061378360208301846145a4565b6020808252602e908201527f496e697469616c697a61626c653a20636f6e747261637420697320616c72656160408201526d191e481a5b9a5d1a585b1a5e995960921b606082015260800190565b6020808252602b908201527f496e697469616c697a61626c653a20636f6e7472616374206973206e6f74206960408201526a6e697469616c697a696e6760a81b606082015260800190565b6000808335601e19843603018112614e3357600080fd5b8301803591506001600160401b03821115614e4d57600080fd5b6020019150600681901b3603821315614e6557600080fd5b9250929050565b6000808335601e19843603018112614e8357600080fd5b8301803591506001600160401b03821115614e9d57600080fd5b6020019150600581901b3603821315614e6557600080fd5b60008235609e19833603018112614ecb57600080fd5b9190910192915050565b600060208284031215614ee757600080fd5b613783826147a4565b60008235603e19833603018112614ecb57600080fd5b60006105d136836147b3565b600060208284031215614f2457600080fd5b8151801515811461378357600080fd5b9283526020830191909152604082015260600190565b600060208284031215614f5c57600080fd5b815161378381614518565b60008060408385031215614f7a57600080fd5b505080516020909101519092909150565b600081518084526020808501945080840160005b83811015614fc45781516001600160a01b031687529582019590820190600101614f9f565b509495945050505050565b85815284602082015260a060408201526000614fee60a0830186614f8b565b6001600160a01b0394909416606083015250608001529392505050565b6000602080838503121561501e57600080fd5b82516001600160401b0381111561503457600080fd5b8301601f8101851361504557600080fd5b805161505361491c826148b1565b81815260059190911b8201830190838101908783111561507257600080fd5b928401925b82841015611d8d57835182529284019290840190615077565b600060c082018883526020888185015260c0604085015281885180845260e086019150828a01935060005b818110156150d7578451835293830193918301916001016150bb565b505084810360608601526150eb8189614f8b565b6001600160a01b039790971660808601525050505060a00152949350505050565b60008251614ecb818460208701614578565b80516001600160701b0381168114612ee457600080fd5b60008060006060848603121561514a57600080fd5b6151538461511e565b92506151616020850161511e565b9150604084015163ffffffff8116811461456d57600080fdfe46756e6374696f6e206d7573742062652063616c6c6564207468726f75676820360894a13ba1a3210667c828492db98dca3e2076cc3735a920a3ca505d382bbc416464726573733a206c6f772d6c6576656c2064656c65676174652063616c6c206661696c6564a26469706673582212208f2d49b0752547ed0b65945e4c6f65ff9dd330f8d1e392142302efbc45f972ab64736f6c634300080a0033",
    "linkReferences": {},
    "deployedLinkReferences": {}
}